{
	"contracts/MasterPool.sol": {
		"MasterPool": {
			"abi": [
				{
					"inputs": [
						{
							"internalType": "address",
							"name": "_usdt",
							"type": "address"
						}
					],
					"stateMutability": "payable",
					"type": "constructor"
				},
				{
					"anonymous": false,
					"inputs": [
						{
							"indexed": true,
							"internalType": "address",
							"name": "previousOwner",
							"type": "address"
						},
						{
							"indexed": true,
							"internalType": "address",
							"name": "newOwner",
							"type": "address"
						}
					],
					"name": "OwnershipTransferred",
					"type": "event"
				},
				{
					"inputs": [
						{
							"internalType": "address",
							"name": "_usdt",
							"type": "address"
						}
					],
					"name": "SetUsdt",
					"outputs": [],
					"stateMutability": "nonpayable",
					"type": "function"
				},
				{
					"inputs": [
						{
							"internalType": "address",
							"name": "",
							"type": "address"
						}
					],
					"name": "isController",
					"outputs": [
						{
							"internalType": "bool",
							"name": "",
							"type": "bool"
						}
					],
					"stateMutability": "view",
					"type": "function"
				},
				{
					"inputs": [],
					"name": "owner",
					"outputs": [
						{
							"internalType": "address",
							"name": "",
							"type": "address"
						}
					],
					"stateMutability": "view",
					"type": "function"
				},
				{
					"inputs": [],
					"name": "renounceOwnership",
					"outputs": [],
					"stateMutability": "nonpayable",
					"type": "function"
				},
				{
					"inputs": [
						{
							"internalType": "address",
							"name": "_address",
							"type": "address"
						}
					],
					"name": "setController",
					"outputs": [],
					"stateMutability": "nonpayable",
					"type": "function"
				},
				{
					"inputs": [
						{
							"internalType": "address",
							"name": "_to",
							"type": "address"
						},
						{
							"internalType": "uint256",
							"name": "amount",
							"type": "uint256"
						}
					],
					"name": "transferCommission",
					"outputs": [
						{
							"internalType": "bool",
							"name": "",
							"type": "bool"
						}
					],
					"stateMutability": "nonpayable",
					"type": "function"
				},
				{
					"inputs": [
						{
							"internalType": "address",
							"name": "newOwner",
							"type": "address"
						}
					],
					"name": "transferOwnership",
					"outputs": [],
					"stateMutability": "nonpayable",
					"type": "function"
				},
				{
					"inputs": [],
					"name": "usdt",
					"outputs": [
						{
							"internalType": "address",
							"name": "",
							"type": "address"
						}
					],
					"stateMutability": "view",
					"type": "function"
				},
				{
					"inputs": [
						{
							"internalType": "uint256",
							"name": "amount",
							"type": "uint256"
						}
					],
					"name": "widthdraw",
					"outputs": [],
					"stateMutability": "nonpayable",
					"type": "function"
				}
			],
			"devdoc": {
				"kind": "dev",
				"methods": {
					"owner()": {
						"details": "Returns the address of the current owner."
					},
					"renounceOwnership()": {
						"details": "Leaves the contract without owner. It will not be possible to call `onlyOwner` functions. Can only be called by the current owner. NOTE: Renouncing ownership will leave the contract without an owner, thereby disabling any functionality that is only available to the owner."
					},
					"transferOwnership(address)": {
						"details": "Transfers ownership of the contract to a new account (`newOwner`). Can only be called by the current owner."
					}
				},
				"version": 1
			},
			"evm": {
				"assembly": "    /* \"contracts/MasterPool.sol\":293:1306  contract MasterPool is Ownable  {... */\n  0x80\n  0x1f\n  bytecodeSize\n  codesize\n  dup2\n  swap1\n  sub\n  swap2\n  dup3\n  add\n  not(0x1f)\n  and\n  dup4\n  add\n  swap2\n  sub(shl(0x40, 0x01), 0x01)\n  dup4\n  gt\n  dup5\n  dup5\n  lt\n  or\n  tag_1\n  jumpi\n  dup1\n  dup5\n  swap3\n  0x20\n  swap5\n  0x40\n  mstore\n  dup4\n  codecopy\n  dup2\n  add\n  sub\n  slt\n  tag_5\n  jumpi\n  mload\n  sub(shl(0xa0, 0x01), 0x01)\n  swap1\n  dup2\n  dup2\n  and\n  swap1\n  dup2\n  swap1\n  sub\n  tag_5\n  jumpi\n  sload(0x00)\n  0x01\n  dup1\n  0xa0\n  shl\n  sub\n  not\n    /* \"@openzeppelin/contracts@v4.9.0/utils/Context.sol\":719:729  msg.sender */\n  swap1\n  caller\n    /* \"contracts/MasterPool.sol\":293:1306  contract MasterPool is Ownable  {... */\n  dup3\n  dup3\n  and\n  or\n  0x00\n  sstore\n  mload(0x40)\n    /* \"@openzeppelin/contracts@v4.9.0/utils/Context.sol\":719:729  msg.sender */\n  swap4\n  caller\n    /* \"contracts/MasterPool.sol\":293:1306  contract MasterPool is Ownable  {... */\n  swap2\n  and\n    /* \"@openzeppelin/contracts@v4.9.0/access/Ownable.sol\":2566:2606  OwnershipTransferred(oldOwner, newOwner) */\n  0x8be0079c531659141344cd1fd0a4f28419497f9722a3daafe3b4186f6b6457e0\n  0x00\n  dup1\n  log3\n    /* \"contracts/MasterPool.sol\":293:1306  contract MasterPool is Ownable  {... */\n  sload(0x01)\n  and\n  or\n  0x01\n  sstore\n  dataSize(sub_0)\n  swap1\n  dup2\n  dataOffset(sub_0)\n  dup3\n  codecopy\n  return\ntag_5:\n  0x00\n  dup1\n  revert\ntag_1:\n  mstore(0x00, shl(0xe0, 0x4e487b71))\n  mstore(0x04, 0x41)\n  revert(0x00, 0x24)\nstop\n\nsub_0: assembly {\n        /* \"contracts/MasterPool.sol\":293:1306  contract MasterPool is Ownable  {... */\n      0x80\n      0x40\n      dup2\n      dup2\n      mstore\n      0x04\n      dup1\n      calldatasize\n      lt\n      iszero\n      tag_6\n      jumpi\n      0x00\n      dup1\n      revert\n    tag_6:\n      0x00\n      swap3\n      dup4\n      calldataload\n      0xe0\n      shr\n      swap1\n      dup2\n      0x2f48ab7d\n      eq\n      tag_8\n      jumpi\n      pop\n      dup1\n      0x715018a6\n      eq\n      tag_10\n      jumpi\n      dup1\n      0x8da5cb5b\n      eq\n      tag_12\n      jumpi\n      dup1\n      0x92eefe9b\n      eq\n      tag_14\n      jumpi\n      dup1\n      0xb429afeb\n      eq\n      tag_16\n      jumpi\n      dup1\n      0xd9ea1b22\n      eq\n      tag_18\n      jumpi\n      dup1\n      0xddcd6408\n      eq\n      tag_20\n      jumpi\n      dup1\n      0xe0da260c\n      eq\n      tag_22\n      jumpi\n      0xf2fde38b\n      eq\n      tag_24\n      jumpi\n      0x00\n      dup1\n      revert\n    tag_24:\n      jumpi(tag_28, callvalue)\n      jumpi(tag_28, slt(add(not(0x03), calldatasize), 0x20))\n      tag_30\n      tag_1\n      jump\t// in\n    tag_30:\n        /* \"@openzeppelin/contracts@v4.9.0/access/Ownable.sol\":1063:1125  modifier onlyOwner() {... */\n      swap1\n      tag_31\n      tag_2\n      jump\t// in\n    tag_31:\n      sub(shl(0xa0, 0x01), 0x01)\n        /* \"contracts/MasterPool.sol\":293:1306  contract MasterPool is Ownable  {... */\n      swap2\n      dup3\n      and\n      swap3\n        /* \"@openzeppelin/contracts@v4.9.0/access/Ownable.sol\":2162:2184  newOwner != address(0) */\n      dup4\n      iszero\n        /* \"contracts/MasterPool.sol\":293:1306  contract MasterPool is Ownable  {... */\n      tag_32\n      jumpi\n      pop\n      pop\n      dup3\n      sload\n      not(sub(shl(0xa0, 0x01), 0x01))\n      dup2\n      and\n      dup4\n      or\n      dup5\n      sstore\n      and\n        /* \"@openzeppelin/contracts@v4.9.0/access/Ownable.sol\":2566:2606  OwnershipTransferred(oldOwner, newOwner) */\n      0x8be0079c531659141344cd1fd0a4f28419497f9722a3daafe3b4186f6b6457e0\n        /* \"contracts/MasterPool.sol\":293:1306  contract MasterPool is Ownable  {... */\n      dup4\n      dup1\n        /* \"@openzeppelin/contracts@v4.9.0/access/Ownable.sol\":2566:2606  OwnershipTransferred(oldOwner, newOwner) */\n      log3\n        /* \"contracts/MasterPool.sol\":293:1306  contract MasterPool is Ownable  {... */\n      dup1\n      return\n    tag_32:\n      swap1\n      0x20\n      0x84\n      swap3\n      mload\n      swap2\n      shl(0xe5, 0x461bcd)\n      dup4\n      mstore\n      dup3\n      add\n      mstore\n      0x26\n      0x24\n      dup3\n      add\n      mstore\n      0x4f776e61626c653a206e6577206f776e657220697320746865207a65726f2061\n      0x44\n      dup3\n      add\n      mstore\n      shl(0xd0, 0x646472657373)\n      0x64\n      dup3\n      add\n      mstore\n      revert\n    tag_28:\n      dup3\n      dup1\n      revert\n    tag_22:\n      pop\n      dup3\n      swap1\n      jumpi(tag_36, callvalue)\n      jumpi(tag_36, slt(add(not(0x03), calldatasize), 0x20))\n        /* \"@openzeppelin/contracts@v4.9.0/access/Ownable.sol\":1063:1125  modifier onlyOwner() {... */\n      tag_38\n      tag_2\n      jump\t// in\n    tag_38:\n        /* \"contracts/MasterPool.sol\":293:1306  contract MasterPool is Ownable  {... */\n      and(sub(shl(0xa0, 0x01), 0x01), sload(0x01))\n      swap1\n        /* \"contracts/MasterPool.sol\":1026:1044  usdt != address(0) */\n      dup2\n      iszero\n        /* \"contracts/MasterPool.sol\":293:1306  contract MasterPool is Ownable  {... */\n      tag_39\n      jumpi\n      dup4\n      mload\n      shl(0xe0, 0xa9059cbb)\n        /* \"contracts/MasterPool.sol\":1071:1112  IERC20(usdt).transfer(msg.sender, amount) */\n      dup2\n      mstore\n        /* \"contracts/MasterPool.sol\":1093:1103  msg.sender */\n      caller\n        /* \"contracts/MasterPool.sol\":1071:1112  IERC20(usdt).transfer(msg.sender, amount) */\n      dup2\n      dup4\n      add\n        /* \"contracts/MasterPool.sol\":293:1306  contract MasterPool is Ownable  {... */\n      swap1\n      dup2\n      mstore\n      swap2\n      calldataload\n      0x20\n      dup4\n      dup2\n      add\n      swap2\n      swap1\n      swap2\n      mstore\n      swap4\n      swap5\n      swap1\n      swap4\n      swap1\n      swap3\n      swap1\n      swap2\n      dup5\n      swap2\n      swap1\n      dup3\n      swap1\n      dup8\n      swap1\n      dup3\n      swap1\n      0x40\n      add\n        /* \"contracts/MasterPool.sol\":1071:1112  IERC20(usdt).transfer(msg.sender, amount) */\n      sub\n      swap3\n      gas\n      call\n      swap1\n      dup2\n      iszero\n      tag_42\n      jumpi\n      pop\n      tag_44\n      jumpi\n        /* \"contracts/MasterPool.sol\":293:1306  contract MasterPool is Ownable  {... */\n      pop\n      dup1\n      return\n        /* \"contracts/MasterPool.sol\":1071:1112  IERC20(usdt).transfer(msg.sender, amount) */\n    tag_44:\n      tag_46\n      swap1\n        /* \"contracts/MasterPool.sol\":293:1306  contract MasterPool is Ownable  {... */\n      0x20\n        /* \"contracts/MasterPool.sol\":1071:1112  IERC20(usdt).transfer(msg.sender, amount) */\n      returndatasize\n      dup2\n      gt\n      tag_47\n      jumpi\n    tag_48:\n      tag_49\n      dup2\n      dup4\n      tag_3\n      jump\t// in\n    tag_49:\n      dup2\n      add\n      swap1\n      tag_4\n      jump\t// in\n    tag_46:\n      pop\n        /* \"contracts/MasterPool.sol\":293:1306  contract MasterPool is Ownable  {... */\n      dup1\n      return\n        /* \"contracts/MasterPool.sol\":1071:1112  IERC20(usdt).transfer(msg.sender, amount) */\n    tag_47:\n      pop\n      returndatasize\n      jump(tag_48)\n    tag_42:\n        /* \"contracts/MasterPool.sol\":293:1306  contract MasterPool is Ownable  {... */\n      mload\n      returndatasize\n      dup5\n      dup3\n      returndatacopy\n      returndatasize\n      swap1\n      revert\n    tag_39:\n      0x64\n      swap1\n      0x20\n      dup6\n      mload\n      swap2\n      shl(0xe5, 0x461bcd)\n      dup4\n      mstore\n      dup3\n      add\n      mstore\n      0x0c\n      0x24\n      dup3\n      add\n      mstore\n      shl(0xa2, 0x125b9d985b1a59081d5cd91d)\n      0x44\n      dup3\n      add\n      mstore\n      revert\n    tag_36:\n      pop\n      dup1\n      revert\n    tag_20:\n      dup4\n      jumpi(tag_52, callvalue)\n      jumpi(tag_52, slt(add(not(0x03), calldatasize), 0x20))\n      tag_54\n      tag_1\n      jump\t// in\n    tag_54:\n        /* \"@openzeppelin/contracts@v4.9.0/access/Ownable.sol\":1063:1125  modifier onlyOwner() {... */\n      tag_55\n      tag_2\n      jump\t// in\n    tag_55:\n        /* \"contracts/MasterPool.sol\":293:1306  contract MasterPool is Ownable  {... */\n      0x01\n      dup1\n      0xa0\n      shl\n      sub\n      and\n      and(sload(0x01), shl(0xa0, 0xffffffffffffffffffffffff))\n      or\n      0x01\n      sstore\n      dup1\n      return\n    tag_52:\n      dup1\n      revert\n    tag_18:\n      pop\n      swap2\n      swap1\n      jumpi(tag_36, callvalue)\n      dup1\n      add(calldatasize, not(0x03))\n      slt\n      tag_36\n      jumpi\n      tag_60\n      tag_1\n      jump\t// in\n    tag_60:\n        /* \"contracts/MasterPool.sol\":891:901  msg.sender */\n      swap3\n      caller\n        /* \"contracts/MasterPool.sol\":293:1306  contract MasterPool is Ownable  {... */\n      dup4\n      mstore\n      0x20\n      swap4\n        /* \"contracts/MasterPool.sol\":878:890  isController */\n      0x02\n        /* \"contracts/MasterPool.sol\":293:1306  contract MasterPool is Ownable  {... */\n      dup6\n      mstore\n      0x01\n      0xff\n      dup5\n      dup7\n      keccak256\n      sload\n      and\n      iszero\n      iszero\n        /* \"contracts/MasterPool.sol\":878:910  isController[msg.sender] == true */\n      sub\n        /* \"contracts/MasterPool.sol\":293:1306  contract MasterPool is Ownable  {... */\n      tag_61\n      jumpi\n      sload(0x01)\n      dup4\n      mload\n      shl(0xe0, 0xa9059cbb)\n        /* \"contracts/MasterPool.sol\":1263:1297  IERC20(usdt).transfer(_to, amount) */\n      dup2\n      mstore\n      sub(shl(0xa0, 0x01), 0x01)\n        /* \"contracts/MasterPool.sol\":293:1306  contract MasterPool is Ownable  {... */\n      swap3\n      dup4\n      and\n        /* \"contracts/MasterPool.sol\":1263:1297  IERC20(usdt).transfer(_to, amount) */\n      swap4\n      dup2\n      add\n        /* \"contracts/MasterPool.sol\":293:1306  contract MasterPool is Ownable  {... */\n      swap4\n      dup5\n      mstore\n      calldataload(0x24)\n      0x20\n      dup6\n      add\n      mstore\n      swap3\n      dup7\n      swap3\n      dup5\n      swap3\n      and\n      swap1\n      dup3\n      swap1\n      dup8\n      swap1\n      dup3\n      swap1\n      0x40\n      add\n        /* \"contracts/MasterPool.sol\":1263:1297  IERC20(usdt).transfer(_to, amount) */\n      sub\n      swap3\n      gas\n      call\n      swap3\n      dup4\n      iszero\n      tag_64\n      jumpi\n      swap3\n      tag_66\n      jumpi\n        /* \"contracts/MasterPool.sol\":293:1306  contract MasterPool is Ownable  {... */\n    tag_67:\n      pop\n      mload\n      swap1\n      iszero\n      iszero\n      dup2\n      mstore\n      return\n        /* \"contracts/MasterPool.sol\":1263:1297  IERC20(usdt).transfer(_to, amount) */\n    tag_66:\n      tag_68\n      swap2\n      swap3\n      pop\n      dup4\n      returndatasize\n      dup6\n      gt\n      tag_47\n      jumpi\n      tag_49\n      dup2\n      dup4\n      tag_3\n      jump\t// in\n    tag_68:\n      swap1\n      codesize\n      jump(tag_67)\n    tag_64:\n        /* \"contracts/MasterPool.sol\":293:1306  contract MasterPool is Ownable  {... */\n      dup3\n      mload\n      swap1\n      returndatasize\n      swap1\n      dup3\n      returndatacopy\n      returndatasize\n      swap1\n      revert\n    tag_61:\n      pop\n      dup4\n      0x64\n      swap3\n      mload\n      swap2\n      shl(0xe5, 0x461bcd)\n      dup4\n      mstore\n      dup3\n      add\n      mstore\n      0x0f\n      0x24\n      dup3\n      add\n      mstore\n      shl(0x89, 0x27b7363c9021b7b73a3937b63632b9)\n      0x44\n      dup3\n      add\n      mstore\n      revert\n    tag_16:\n      pop\n      pop\n      jumpi(tag_36, callvalue)\n      jumpi(tag_36, slt(add(not(0x03), calldatasize), 0x20))\n      0x20\n      swap2\n      0xff\n      swap1\n      dup3\n      swap1\n      sub(shl(0xa0, 0x01), 0x01)\n      tag_76\n      tag_1\n      jump\t// in\n    tag_76:\n      and\n      dup2\n      mstore\n        /* \"contracts/MasterPool.sol\":396:440  mapping(address => bool) public isController */\n      0x02\n        /* \"contracts/MasterPool.sol\":293:1306  contract MasterPool is Ownable  {... */\n      dup6\n      mstore\n      keccak256\n      sload\n      and\n      swap1\n      mload\n      swap1\n      iszero\n      iszero\n      dup2\n      mstore\n      return\n    tag_14:\n      pop\n      pop\n      jumpi(tag_36, callvalue)\n      jumpi(tag_36, slt(add(not(0x03), calldatasize), 0x20))\n      tag_81\n      tag_1\n      jump\t// in\n    tag_81:\n        /* \"@openzeppelin/contracts@v4.9.0/access/Ownable.sol\":1063:1125  modifier onlyOwner() {... */\n      tag_82\n      tag_2\n      jump\t// in\n    tag_82:\n      sub(shl(0xa0, 0x01), 0x01)\n        /* \"contracts/MasterPool.sol\":293:1306  contract MasterPool is Ownable  {... */\n      and\n      dup3\n      mstore\n        /* \"contracts/MasterPool.sol\":586:598  isController */\n      0x02\n        /* \"contracts/MasterPool.sol\":293:1306  contract MasterPool is Ownable  {... */\n      0x20\n      mstore\n      dup2\n      keccak256\n      dup1\n      sload\n      not(0xff)\n      and\n      0x01\n      or\n      swap1\n      sstore\n      dup1\n      return\n    tag_12:\n      pop\n      pop\n      jumpi(tag_36, callvalue)\n      dup2\n      add(calldatasize, not(0x03))\n      slt\n      tag_36\n      jumpi\n      swap1\n      sload\n      swap1\n      mload\n      sub(shl(0xa0, 0x01), 0x01)\n      swap1\n      swap2\n      and\n      dup2\n      mstore\n      0x20\n      swap1\n      return\n    tag_10:\n      dup4\n      jumpi(tag_52, callvalue)\n      dup1\n      add(calldatasize, not(0x03))\n      slt\n      tag_52\n      jumpi\n        /* \"@openzeppelin/contracts@v4.9.0/access/Ownable.sol\":1063:1125  modifier onlyOwner() {... */\n      tag_91\n      tag_2\n      jump\t// in\n    tag_91:\n        /* \"contracts/MasterPool.sol\":293:1306  contract MasterPool is Ownable  {... */\n      dup1\n      sload\n      not(sub(shl(0xa0, 0x01), 0x01))\n      dup2\n      and\n      dup3\n      sstore\n      dup2\n      swap1\n      sub(shl(0xa0, 0x01), 0x01)\n      and\n        /* \"@openzeppelin/contracts@v4.9.0/access/Ownable.sol\":2566:2606  OwnershipTransferred(oldOwner, newOwner) */\n      0x8be0079c531659141344cd1fd0a4f28419497f9722a3daafe3b4186f6b6457e0\n        /* \"contracts/MasterPool.sol\":293:1306  contract MasterPool is Ownable  {... */\n      dup3\n      dup1\n        /* \"@openzeppelin/contracts@v4.9.0/access/Ownable.sol\":2566:2606  OwnershipTransferred(oldOwner, newOwner) */\n      log3\n        /* \"contracts/MasterPool.sol\":293:1306  contract MasterPool is Ownable  {... */\n      dup1\n      return\n    tag_8:\n      dup5\n      swap1\n      jumpi(tag_36, callvalue)\n      dup2\n      add(calldatasize, not(0x03))\n      slt\n      tag_36\n      jumpi\n      and(sub(shl(0xa0, 0x01), 0x01), sload(0x01))\n      dup2\n      mstore\n      0x20\n      swap1\n      return\n    tag_1:\n      calldataload(0x04)\n      swap1\n      sub(shl(0xa0, 0x01), 0x01)\n      dup3\n      and\n      dup3\n      sub\n      tag_96\n      jumpi\n      jump\t// out\n    tag_96:\n      0x00\n      dup1\n      revert\n        /* \"@openzeppelin/contracts@v4.9.0/access/Ownable.sol\":1359:1489  function _checkOwner() internal view virtual {... */\n    tag_2:\n        /* \"@openzeppelin/contracts@v4.9.0/access/Ownable.sol\":1273:1279  _owner */\n      0x00\n        /* \"contracts/MasterPool.sol\":293:1306  contract MasterPool is Ownable  {... */\n      sload\n      sub(shl(0xa0, 0x01), 0x01)\n      and\n        /* \"@openzeppelin/contracts@v4.9.0/utils/Context.sol\":719:729  msg.sender */\n      caller\n        /* \"@openzeppelin/contracts@v4.9.0/access/Ownable.sol\":1422:1445  owner() == _msgSender() */\n      sub\n        /* \"contracts/MasterPool.sol\":293:1306  contract MasterPool is Ownable  {... */\n      tag_98\n      jumpi\n        /* \"@openzeppelin/contracts@v4.9.0/access/Ownable.sol\":1359:1489  function _checkOwner() internal view virtual {... */\n      jump\t// out\n        /* \"contracts/MasterPool.sol\":293:1306  contract MasterPool is Ownable  {... */\n    tag_98:\n      0x64\n      mload(0x40)\n      shl(0xe5, 0x461bcd)\n      dup2\n      mstore\n      0x20\n      0x04\n      dup3\n      add\n      mstore\n      0x20\n      0x24\n      dup3\n      add\n      mstore\n      0x4f776e61626c653a2063616c6c6572206973206e6f7420746865206f776e6572\n      0x44\n      dup3\n      add\n      mstore\n      revert\n    tag_3:\n      swap1\n      0x1f\n      dup1\n      not\n      swap2\n      add\n      and\n      dup2\n      add\n      swap1\n      dup2\n      lt\n      0xffffffffffffffff\n      dup3\n      gt\n      or\n      tag_100\n      jumpi\n      0x40\n      mstore\n      jump\t// out\n    tag_100:\n      mstore(0x00, shl(0xe0, 0x4e487b71))\n      mstore(0x04, 0x41)\n      revert(0x00, 0x24)\n    tag_4:\n      swap1\n      dup2\n      0x20\n      swap2\n      sub\n      slt\n      tag_96\n      jumpi\n      mload\n      dup1\n      iszero\n      iszero\n      dup2\n      sub\n      tag_96\n      jumpi\n      swap1\n      jump\t// out\n\n    auxdata: 0xa26469706673582212203dee68f27150cfc6f23ef9c996346eed8b6225c59c5ae78e2d3970d97b1b049d64736f6c63430008130033\n}\n",
				"bytecode": {
					"linkReferences": {},
					"object": "6080601f61063738819003918201601f19168301916001600160401b038311848410176100a7578084926020946040528339810103126100a257516001600160a01b0390818116908190036100a25760005460018060a01b0319903382821617600055604051933391167f8be0079c531659141344cd1fd0a4f28419497f9722a3daafe3b4186f6b6457e0600080a3600154161760015561057990816100be8239f35b600080fd5b634e487b7160e01b600052604160045260246000fdfe6080604081815260048036101561001557600080fd5b600092833560e01c9081632f48ab7d1461045b57508063715018a6146104015780638da5cb5b146103d957806392eefe9b14610396578063b429afeb14610358578063d9ea1b2214610272578063ddcd64081461022a578063e0da260c1461014b5763f2fde38b1461008657600080fd5b346101475760203660031901126101475761009f610480565b906100a861049b565b6001600160a01b039182169283156100f557505082546001600160a01b0319811683178455167f8be0079c531659141344cd1fd0a4f28419497f9722a3daafe3b4186f6b6457e08380a380f35b906020608492519162461bcd60e51b8352820152602660248201527f4f776e61626c653a206e6577206f776e657220697320746865207a65726f206160448201526564647265737360d01b6064820152fd5b8280fd5b508290346102265760203660031901126102265761016761049b565b6001546001600160a01b03169081156101f457835163a9059cbb60e01b8152338183019081529135602083810191909152939490939092909184919082908790829060400103925af19081156101eb57506101c0575080f35b6101e09060203d81116101e4575b6101d881836104f3565b81019061052b565b5080f35b503d6101ce565b513d84823e3d90fd5b606490602085519162461bcd60e51b8352820152600c60248201526b125b9d985b1a59081d5cd91d60a21b6044820152fd5b5080fd5b833461026f57602036600319011261026f57610244610480565b61024c61049b565b60018060a01b03166bffffffffffffffffffffffff60a01b600154161760015580f35b80fd5b5091903461022657806003193601126102265761028d610480565b9233835260209360028552600160ff848620541615150361032457600154835163a9059cbb60e01b81526001600160a01b0392831693810193845260243560208501529286928492169082908790829060400103925af192831561031957926102fa575b50519015158152f35b610312919250833d85116101e4576101d881836104f3565b90386102f1565b8251903d90823e3d90fd5b5083606492519162461bcd60e51b8352820152600f60248201526e27b7363c9021b7b73a3937b63632b960891b6044820152fd5b5050346102265760203660031901126102265760209160ff9082906001600160a01b03610383610480565b1681526002855220541690519015158152f35b505034610226576020366003190112610226576103b1610480565b6103b961049b565b6001600160a01b0316825260026020528120805460ff1916600117905580f35b505034610226578160031936011261022657905490516001600160a01b039091168152602090f35b833461026f578060031936011261026f5761041a61049b565b80546001600160a01b03198116825581906001600160a01b03167f8be0079c531659141344cd1fd0a4f28419497f9722a3daafe3b4186f6b6457e08280a380f35b8490346102265781600319360112610226576001546001600160a01b03168152602090f35b600435906001600160a01b038216820361049657565b600080fd5b6000546001600160a01b031633036104af57565b606460405162461bcd60e51b815260206004820152602060248201527f4f776e61626c653a2063616c6c6572206973206e6f7420746865206f776e65726044820152fd5b90601f8019910116810190811067ffffffffffffffff82111761051557604052565b634e487b7160e01b600052604160045260246000fd5b9081602091031261049657518015158103610496579056fea26469706673582212203dee68f27150cfc6f23ef9c996346eed8b6225c59c5ae78e2d3970d97b1b049d64736f6c63430008130033",
					"opcodes": "PUSH1 0x80 PUSH1 0x1F PUSH2 0x637 CODESIZE DUP2 SWAP1 SUB SWAP2 DUP3 ADD PUSH1 0x1F NOT AND DUP4 ADD SWAP2 PUSH1 0x1 PUSH1 0x1 PUSH1 0x40 SHL SUB DUP4 GT DUP5 DUP5 LT OR PUSH2 0xA7 JUMPI DUP1 DUP5 SWAP3 PUSH1 0x20 SWAP5 PUSH1 0x40 MSTORE DUP4 CODECOPY DUP2 ADD SUB SLT PUSH2 0xA2 JUMPI MLOAD PUSH1 0x1 PUSH1 0x1 PUSH1 0xA0 SHL SUB SWAP1 DUP2 DUP2 AND SWAP1 DUP2 SWAP1 SUB PUSH2 0xA2 JUMPI PUSH1 0x0 SLOAD PUSH1 0x1 DUP1 PUSH1 0xA0 SHL SUB NOT SWAP1 CALLER DUP3 DUP3 AND OR PUSH1 0x0 SSTORE PUSH1 0x40 MLOAD SWAP4 CALLER SWAP2 AND PUSH32 0x8BE0079C531659141344CD1FD0A4F28419497F9722A3DAAFE3B4186F6B6457E0 PUSH1 0x0 DUP1 LOG3 PUSH1 0x1 SLOAD AND OR PUSH1 0x1 SSTORE PUSH2 0x579 SWAP1 DUP2 PUSH2 0xBE DUP3 CODECOPY RETURN JUMPDEST PUSH1 0x0 DUP1 REVERT JUMPDEST PUSH4 0x4E487B71 PUSH1 0xE0 SHL PUSH1 0x0 MSTORE PUSH1 0x41 PUSH1 0x4 MSTORE PUSH1 0x24 PUSH1 0x0 REVERT INVALID PUSH1 0x80 PUSH1 0x40 DUP2 DUP2 MSTORE PUSH1 0x4 DUP1 CALLDATASIZE LT ISZERO PUSH2 0x15 JUMPI PUSH1 0x0 DUP1 REVERT JUMPDEST PUSH1 0x0 SWAP3 DUP4 CALLDATALOAD PUSH1 0xE0 SHR SWAP1 DUP2 PUSH4 0x2F48AB7D EQ PUSH2 0x45B JUMPI POP DUP1 PUSH4 0x715018A6 EQ PUSH2 0x401 JUMPI DUP1 PUSH4 0x8DA5CB5B EQ PUSH2 0x3D9 JUMPI DUP1 PUSH4 0x92EEFE9B EQ PUSH2 0x396 JUMPI DUP1 PUSH4 0xB429AFEB EQ PUSH2 0x358 JUMPI DUP1 PUSH4 0xD9EA1B22 EQ PUSH2 0x272 JUMPI DUP1 PUSH4 0xDDCD6408 EQ PUSH2 0x22A JUMPI DUP1 PUSH4 0xE0DA260C EQ PUSH2 0x14B JUMPI PUSH4 0xF2FDE38B EQ PUSH2 0x86 JUMPI PUSH1 0x0 DUP1 REVERT JUMPDEST CALLVALUE PUSH2 0x147 JUMPI PUSH1 0x20 CALLDATASIZE PUSH1 0x3 NOT ADD SLT PUSH2 0x147 JUMPI PUSH2 0x9F PUSH2 0x480 JUMP JUMPDEST SWAP1 PUSH2 0xA8 PUSH2 0x49B JUMP JUMPDEST PUSH1 0x1 PUSH1 0x1 PUSH1 0xA0 SHL SUB SWAP2 DUP3 AND SWAP3 DUP4 ISZERO PUSH2 0xF5 JUMPI POP POP DUP3 SLOAD PUSH1 0x1 PUSH1 0x1 PUSH1 0xA0 SHL SUB NOT DUP2 AND DUP4 OR DUP5 SSTORE AND PUSH32 0x8BE0079C531659141344CD1FD0A4F28419497F9722A3DAAFE3B4186F6B6457E0 DUP4 DUP1 LOG3 DUP1 RETURN JUMPDEST SWAP1 PUSH1 0x20 PUSH1 0x84 SWAP3 MLOAD SWAP2 PUSH3 0x461BCD PUSH1 0xE5 SHL DUP4 MSTORE DUP3 ADD MSTORE PUSH1 0x26 PUSH1 0x24 DUP3 ADD MSTORE PUSH32 0x4F776E61626C653A206E6577206F776E657220697320746865207A65726F2061 PUSH1 0x44 DUP3 ADD MSTORE PUSH6 0x646472657373 PUSH1 0xD0 SHL PUSH1 0x64 DUP3 ADD MSTORE REVERT JUMPDEST DUP3 DUP1 REVERT JUMPDEST POP DUP3 SWAP1 CALLVALUE PUSH2 0x226 JUMPI PUSH1 0x20 CALLDATASIZE PUSH1 0x3 NOT ADD SLT PUSH2 0x226 JUMPI PUSH2 0x167 PUSH2 0x49B JUMP JUMPDEST PUSH1 0x1 SLOAD PUSH1 0x1 PUSH1 0x1 PUSH1 0xA0 SHL SUB AND SWAP1 DUP2 ISZERO PUSH2 0x1F4 JUMPI DUP4 MLOAD PUSH4 0xA9059CBB PUSH1 0xE0 SHL DUP2 MSTORE CALLER DUP2 DUP4 ADD SWAP1 DUP2 MSTORE SWAP2 CALLDATALOAD PUSH1 0x20 DUP4 DUP2 ADD SWAP2 SWAP1 SWAP2 MSTORE SWAP4 SWAP5 SWAP1 SWAP4 SWAP1 SWAP3 SWAP1 SWAP2 DUP5 SWAP2 SWAP1 DUP3 SWAP1 DUP8 SWAP1 DUP3 SWAP1 PUSH1 0x40 ADD SUB SWAP3 GAS CALL SWAP1 DUP2 ISZERO PUSH2 0x1EB JUMPI POP PUSH2 0x1C0 JUMPI POP DUP1 RETURN JUMPDEST PUSH2 0x1E0 SWAP1 PUSH1 0x20 RETURNDATASIZE DUP2 GT PUSH2 0x1E4 JUMPI JUMPDEST PUSH2 0x1D8 DUP2 DUP4 PUSH2 0x4F3 JUMP JUMPDEST DUP2 ADD SWAP1 PUSH2 0x52B JUMP JUMPDEST POP DUP1 RETURN JUMPDEST POP RETURNDATASIZE PUSH2 0x1CE JUMP JUMPDEST MLOAD RETURNDATASIZE DUP5 DUP3 RETURNDATACOPY RETURNDATASIZE SWAP1 REVERT JUMPDEST PUSH1 0x64 SWAP1 PUSH1 0x20 DUP6 MLOAD SWAP2 PUSH3 0x461BCD PUSH1 0xE5 SHL DUP4 MSTORE DUP3 ADD MSTORE PUSH1 0xC PUSH1 0x24 DUP3 ADD MSTORE PUSH12 0x125B9D985B1A59081D5CD91D PUSH1 0xA2 SHL PUSH1 0x44 DUP3 ADD MSTORE REVERT JUMPDEST POP DUP1 REVERT JUMPDEST DUP4 CALLVALUE PUSH2 0x26F JUMPI PUSH1 0x20 CALLDATASIZE PUSH1 0x3 NOT ADD SLT PUSH2 0x26F JUMPI PUSH2 0x244 PUSH2 0x480 JUMP JUMPDEST PUSH2 0x24C PUSH2 0x49B JUMP JUMPDEST PUSH1 0x1 DUP1 PUSH1 0xA0 SHL SUB AND PUSH12 0xFFFFFFFFFFFFFFFFFFFFFFFF PUSH1 0xA0 SHL PUSH1 0x1 SLOAD AND OR PUSH1 0x1 SSTORE DUP1 RETURN JUMPDEST DUP1 REVERT JUMPDEST POP SWAP2 SWAP1 CALLVALUE PUSH2 0x226 JUMPI DUP1 PUSH1 0x3 NOT CALLDATASIZE ADD SLT PUSH2 0x226 JUMPI PUSH2 0x28D PUSH2 0x480 JUMP JUMPDEST SWAP3 CALLER DUP4 MSTORE PUSH1 0x20 SWAP4 PUSH1 0x2 DUP6 MSTORE PUSH1 0x1 PUSH1 0xFF DUP5 DUP7 KECCAK256 SLOAD AND ISZERO ISZERO SUB PUSH2 0x324 JUMPI PUSH1 0x1 SLOAD DUP4 MLOAD PUSH4 0xA9059CBB PUSH1 0xE0 SHL DUP2 MSTORE PUSH1 0x1 PUSH1 0x1 PUSH1 0xA0 SHL SUB SWAP3 DUP4 AND SWAP4 DUP2 ADD SWAP4 DUP5 MSTORE PUSH1 0x24 CALLDATALOAD PUSH1 0x20 DUP6 ADD MSTORE SWAP3 DUP7 SWAP3 DUP5 SWAP3 AND SWAP1 DUP3 SWAP1 DUP8 SWAP1 DUP3 SWAP1 PUSH1 0x40 ADD SUB SWAP3 GAS CALL SWAP3 DUP4 ISZERO PUSH2 0x319 JUMPI SWAP3 PUSH2 0x2FA JUMPI JUMPDEST POP MLOAD SWAP1 ISZERO ISZERO DUP2 MSTORE RETURN JUMPDEST PUSH2 0x312 SWAP2 SWAP3 POP DUP4 RETURNDATASIZE DUP6 GT PUSH2 0x1E4 JUMPI PUSH2 0x1D8 DUP2 DUP4 PUSH2 0x4F3 JUMP JUMPDEST SWAP1 CODESIZE PUSH2 0x2F1 JUMP JUMPDEST DUP3 MLOAD SWAP1 RETURNDATASIZE SWAP1 DUP3 RETURNDATACOPY RETURNDATASIZE SWAP1 REVERT JUMPDEST POP DUP4 PUSH1 0x64 SWAP3 MLOAD SWAP2 PUSH3 0x461BCD PUSH1 0xE5 SHL DUP4 MSTORE DUP3 ADD MSTORE PUSH1 0xF PUSH1 0x24 DUP3 ADD MSTORE PUSH15 0x27B7363C9021B7B73A3937B63632B9 PUSH1 0x89 SHL PUSH1 0x44 DUP3 ADD MSTORE REVERT JUMPDEST POP POP CALLVALUE PUSH2 0x226 JUMPI PUSH1 0x20 CALLDATASIZE PUSH1 0x3 NOT ADD SLT PUSH2 0x226 JUMPI PUSH1 0x20 SWAP2 PUSH1 0xFF SWAP1 DUP3 SWAP1 PUSH1 0x1 PUSH1 0x1 PUSH1 0xA0 SHL SUB PUSH2 0x383 PUSH2 0x480 JUMP JUMPDEST AND DUP2 MSTORE PUSH1 0x2 DUP6 MSTORE KECCAK256 SLOAD AND SWAP1 MLOAD SWAP1 ISZERO ISZERO DUP2 MSTORE RETURN JUMPDEST POP POP CALLVALUE PUSH2 0x226 JUMPI PUSH1 0x20 CALLDATASIZE PUSH1 0x3 NOT ADD SLT PUSH2 0x226 JUMPI PUSH2 0x3B1 PUSH2 0x480 JUMP JUMPDEST PUSH2 0x3B9 PUSH2 0x49B JUMP JUMPDEST PUSH1 0x1 PUSH1 0x1 PUSH1 0xA0 SHL SUB AND DUP3 MSTORE PUSH1 0x2 PUSH1 0x20 MSTORE DUP2 KECCAK256 DUP1 SLOAD PUSH1 0xFF NOT AND PUSH1 0x1 OR SWAP1 SSTORE DUP1 RETURN JUMPDEST POP POP CALLVALUE PUSH2 0x226 JUMPI DUP2 PUSH1 0x3 NOT CALLDATASIZE ADD SLT PUSH2 0x226 JUMPI SWAP1 SLOAD SWAP1 MLOAD PUSH1 0x1 PUSH1 0x1 PUSH1 0xA0 SHL SUB SWAP1 SWAP2 AND DUP2 MSTORE PUSH1 0x20 SWAP1 RETURN JUMPDEST DUP4 CALLVALUE PUSH2 0x26F JUMPI DUP1 PUSH1 0x3 NOT CALLDATASIZE ADD SLT PUSH2 0x26F JUMPI PUSH2 0x41A PUSH2 0x49B JUMP JUMPDEST DUP1 SLOAD PUSH1 0x1 PUSH1 0x1 PUSH1 0xA0 SHL SUB NOT DUP2 AND DUP3 SSTORE DUP2 SWAP1 PUSH1 0x1 PUSH1 0x1 PUSH1 0xA0 SHL SUB AND PUSH32 0x8BE0079C531659141344CD1FD0A4F28419497F9722A3DAAFE3B4186F6B6457E0 DUP3 DUP1 LOG3 DUP1 RETURN JUMPDEST DUP5 SWAP1 CALLVALUE PUSH2 0x226 JUMPI DUP2 PUSH1 0x3 NOT CALLDATASIZE ADD SLT PUSH2 0x226 JUMPI PUSH1 0x1 SLOAD PUSH1 0x1 PUSH1 0x1 PUSH1 0xA0 SHL SUB AND DUP2 MSTORE PUSH1 0x20 SWAP1 RETURN JUMPDEST PUSH1 0x4 CALLDATALOAD SWAP1 PUSH1 0x1 PUSH1 0x1 PUSH1 0xA0 SHL SUB DUP3 AND DUP3 SUB PUSH2 0x496 JUMPI JUMP JUMPDEST PUSH1 0x0 DUP1 REVERT JUMPDEST PUSH1 0x0 SLOAD PUSH1 0x1 PUSH1 0x1 PUSH1 0xA0 SHL SUB AND CALLER SUB PUSH2 0x4AF JUMPI JUMP JUMPDEST PUSH1 0x64 PUSH1 0x40 MLOAD PUSH3 0x461BCD PUSH1 0xE5 SHL DUP2 MSTORE PUSH1 0x20 PUSH1 0x4 DUP3 ADD MSTORE PUSH1 0x20 PUSH1 0x24 DUP3 ADD MSTORE PUSH32 0x4F776E61626C653A2063616C6C6572206973206E6F7420746865206F776E6572 PUSH1 0x44 DUP3 ADD MSTORE REVERT JUMPDEST SWAP1 PUSH1 0x1F DUP1 NOT SWAP2 ADD AND DUP2 ADD SWAP1 DUP2 LT PUSH8 0xFFFFFFFFFFFFFFFF DUP3 GT OR PUSH2 0x515 JUMPI PUSH1 0x40 MSTORE JUMP JUMPDEST PUSH4 0x4E487B71 PUSH1 0xE0 SHL PUSH1 0x0 MSTORE PUSH1 0x41 PUSH1 0x4 MSTORE PUSH1 0x24 PUSH1 0x0 REVERT JUMPDEST SWAP1 DUP2 PUSH1 0x20 SWAP2 SUB SLT PUSH2 0x496 JUMPI MLOAD DUP1 ISZERO ISZERO DUP2 SUB PUSH2 0x496 JUMPI SWAP1 JUMP INVALID LOG2 PUSH5 0x6970667358 0x22 SLT KECCAK256 RETURNDATASIZE 0xEE PUSH9 0xF27150CFC6F23EF9C9 SWAP7 CALLVALUE PUSH15 0xED8B6225C59C5AE78E2D3970D97B1B DIV SWAP14 PUSH5 0x736F6C6343 STOP ADDMOD SGT STOP CALLER "
				},
				"gasEstimates": {
					"creation": {
						"codeDepositCost": "280200",
						"executionCost": "infinite",
						"totalCost": "infinite"
					},
					"external": {
						"SetUsdt(address)": "26756",
						"isController(address)": "2531",
						"owner()": "2342",
						"renounceOwnership()": "28097",
						"setController(address)": "26751",
						"transferCommission(address,uint256)": "infinite",
						"transferOwnership(address)": "28356",
						"usdt()": "2286",
						"widthdraw(uint256)": "infinite"
					}
				},
				"methodIdentifiers": {
					"SetUsdt(address)": "ddcd6408",
					"isController(address)": "b429afeb",
					"owner()": "8da5cb5b",
					"renounceOwnership()": "715018a6",
					"setController(address)": "92eefe9b",
					"transferCommission(address,uint256)": "d9ea1b22",
					"transferOwnership(address)": "f2fde38b",
					"usdt()": "2f48ab7d",
					"widthdraw(uint256)": "e0da260c"
				}
			},
			"storageLayout": {
				"storage": [
					{
						"astId": 7,
						"contract": "contracts/MasterPool.sol:MasterPool",
						"label": "_owner",
						"offset": 0,
						"slot": "0",
						"type": "t_address"
					},
					{
						"astId": 230,
						"contract": "contracts/MasterPool.sol:MasterPool",
						"label": "usdt",
						"offset": 0,
						"slot": "1",
						"type": "t_address"
					},
					{
						"astId": 234,
						"contract": "contracts/MasterPool.sol:MasterPool",
						"label": "isController",
						"offset": 0,
						"slot": "2",
						"type": "t_mapping(t_address,t_bool)"
					}
				],
				"types": {
					"t_address": {
						"encoding": "inplace",
						"label": "address",
						"numberOfBytes": "20"
					},
					"t_bool": {
						"encoding": "inplace",
						"label": "bool",
						"numberOfBytes": "1"
					},
					"t_mapping(t_address,t_bool)": {
						"encoding": "mapping",
						"key": "t_address",
						"label": "mapping(address => bool)",
						"numberOfBytes": "32",
						"value": "t_bool"
					}
				}
			},
			"userdoc": {
				"kind": "user",
				"methods": {},
				"version": 1
			}
		}
	}
}