{
	"data": {
		"bytecode": {
			"linkReferences": {},
			"object": "60808060405260018060a01b03193381600354161760035560028160045416176004556000338152600860205260408120600160ff198254161790556005549068010000000000000000821015620000b15760018201806005558210156200009d57600590527f036b6384b5eca791c62761152d0c79bb0604c104a5fb6f4eb0703f3154bb3db0018054909116331790556168899081620000c68239f35b634e487b7160e01b81526032600452602490fd5b634e487b7160e01b81526041600452602490fdfe6080604052600436101561001257600080fd5b60003560e01c806302b572d614613488578063041cbb161461341157806305d0af0b14612fda5780630b0fe44c14612fa95780630c2ed96714612f375780630f8472ff14612efa578063103bb2b514612ebd57806312ee84ef14612dba5780631c787f3e14612d9c5780631e98fd1c14612d4157806327b5084514611edf57806330d51a3214611ea3578063350f31ea14611dbc57806339fea8ef14610fb45780633f81714c14611bfc57806351d0487614611bd057806352023610146114b9578063598ed31a146112fd5780635a272403146112315780635c8d05a4146111905780635d977ee1146110e2578063673047ba1461103c5780636f0243f31461101357806370b9e00214610fea5780637cd4f59014610fb45780637cf388ee14610e785780637f7c080814610e2c5780637f8c678f14610de257806394284cbd14610db9578063951a566214610d225780639d6ffce014610b425780639f89a4b214610ae7578063a2b2fb5514610a96578063a559934e14610a4a578063aaedfcd114610980578063acfa58d21461024d578063af66932614610779578063b11e3c1a1461073a578063b358fa8e146106c6578063b46b9a2d14610679578063b4a99a4e14610650578063bfbe3ef714610624578063cb4e841b146105fb578063d888e7dc14610584578063da31f88a146103c0578063dc9a04cf14610374578063ddcd640814610328578063f09610c7146102d0578063f29155ef146102a7578063fb7ef3771461027e5763fdd719b11461024d57600080fd5b3461027957602036600319011261027957600435600052600f6020526020604060002054604051908152f35b600080fd5b34610279576000366003190112610279576002546040516001600160a01b039091168152602090f35b34610279576000366003190112610279576017546040516001600160a01b039091168152602090f35b34610279576040366003190112610279576102e96134d2565b6001600160a01b03166000908152600e60205260409020805460243591908210156102795760209161031a91613569565b90546040519160031b1c8152f35b34610279576020366003190112610279576103416134d2565b6003546001600160a01b03919061035b9083163314613e13565b166001600160601b0360a01b6004541617600455600080f35b346102795760203660031901126102795761038d6134d2565b6003546001600160a01b0391906103a79083163314613e13565b166001600160601b0360a01b6017541617601755600080f35b346102795760203660031901126102795760043560005260096020526040600020604051806103ef8184613ab3565b036103fa908261360a565b604051918261040c8160018401613ab3565b03610417908461360a565b604051806104288160028501613ab3565b03610433908261360a565b604051806104448160038601613ab3565b0361044f908261360a565b604051806104608160048701613ab3565b0361046b908261360a565b604051908161047d8160058801613ab3565b03610488908361360a565b604051928361049a8160068901613ab3565b036104a5908561360a565b60405194856104b78160078a01613ab3565b036104c2908761360a565b604051806008819901906104d591613ab3565b036104e0908861360a565b604051988998610120808b528a016104f7916136c6565b89810360208b0152610508916136c6565b88810360408a0152610519916136c6565b878103606089015261052a916136c6565b868103608088015261053b916136c6565b85810360a087015261054c916136c6565b84810360c086015261055d916136c6565b83810360e085015261056e916136c6565b828103610100840152610580916136c6565b0390f35b34610279576040366003190112610279576004356001600160401b038111610279576105b4903690600401613646565b6024356002811015610279576105e7610580926105d960405193849260208401615010565b03601f19810183528261360a565b6040519182916020835260208301906136c6565b34610279576020366003190112610279576004356000548110156102795761031a6020916134e8565b3461027957602036600319011261027957600435600052600c6020526020604060002054604051908152f35b34610279576000366003190112610279576003546040516001600160a01b039091168152602090f35b346102795760403660031901126102795760043563ffffffff81168103610279576106a79060243590614bb2565b9061058060405192839215158352604060208401526040830190613dbe565b346102795760603660031901126102795760406106e16134d2565b6001600160a01b0316600081815260136020908152838220602435808452908252848320604435808552908352858420549484526012835285842091845290825284832090835281529083902054835192835290820152f35b34610279576020366003190112610279576001600160a01b0361075b6134d2565b166000526008602052602060ff604060002054166040519015158152f35b34610279576107873661368d565b6000828152600a60209081526040808320600101546001600160a01b039081168085526013845282852087865284528285208686528452828520546004805460025495516323b872dd60e01b815233928101929092529484166024820152604481018290529497909695909491939192889284926064928492165af1801561097457610947575b5080600052601485526040600020826000528552604060002083600052855260ff6002604060002001541681600052601286526040600020836000528652604060002084600052865261086f60406000205461086983614851565b90616340565b82600052601287526040600020846000528752604060002085600052875260406000205581600052601286526040600020836000528652604060002084600052865260406000205494600482101561093157604080516001600160a01b03949094168452602084019490945292820193909352426060820152608081019390935260a083015260c0820152600060e08201527f7a349466f0b119934b2376706bf145e6fabe7eb4b8c4cba23bb8f5dc9cb74b759061010090a160405160018152f35b634e487b7160e01b600052602160045260246000fd5b61096690863d881161096d575b61095e818361360a565b810190614512565b508561080e565b503d610954565b6040513d6000823e3d90fd5b34610279576060366003190112610279576004356001600160401b038111610279576109b0903690600401613646565b6017546001600160a01b031633036109df576109d5602091604435906024359061506a565b6040519015158152f35b60405162461bcd60e51b815260206004820152603760248201527f7b2266726f6d223a2022466943616d2e736f6c222c2022636f6465223a20332c60448201527f20226d657373616765223a20224f6e6c7920504f53227d0000000000000000006064820152608490fd5b3461027957602036600319011261027957610a636134d2565b6003546001600160a01b039190610a7d9083163314613e13565b166001600160601b0360a01b6002541617600255600080f35b34610279576020366003190112610279576004356016548110156102795760209060166000527fd833147d7dc355ba459fc788f669e58cfaf9dc25ddcd0702e87d69c7b51242890154604051908152f35b34610279576020366003190112610279576004356005548110156102795760056000527f036b6384b5eca791c62761152d0c79bb0604c104a5fb6f4eb0703f3154bb3db001546040516001600160a01b039091168152602090f35b3461027957602036600319011261027957610b5b6134d2565b336000526008602052610b7a600160ff60406000205416151514613efa565b6001600160a01b0381166000908152600e6020526040902054610b9c90614b62565b9060005b6001600160a01b0382166000908152600e602052604090208054821015610d0c5781610bcb91613569565b90549060031b1c600052600a602052604060002060405190610bec826135b8565b8054825260018101546001600160a01b031660208301526002810154610c1181613849565b90610c1f604051928361360a565b80825260208201906002840160005260206000206000925b828410610c9257505050508291600d916040610c8d9695015260038101546060840152610c66600482016148d2565b6080840152015460a0820152610c7c82866142b0565b52610c8781856142b0565b5061406b565b610ba0565b60056020600192604051610ca58161359d565b855481528486015483820152610cc560ff60028801541660408301614493565b604051610ce081610cd98160038b01613ab3565b038261360a565b6060820152604051610cf981610cd98160048b01613ab3565b6080820152815201920193019290610c37565b6040516020808252819061058090820187613dbe565b34610279576060366003190112610279576044356001600160401b0381116102795736602382011215610279578060040135610d5d81613849565b610d6a604051918261360a565b81815260209260248483019360051b82010192368411610279576024859201905b848210610daa5782610da2856024356004356149f7565b604051908152f35b81358152908201908201610d8b565b34610279576000366003190112610279576004546040516001600160a01b039091168152602090f35b3461027957610df03661368d565b90336000526008602052610e10600160ff60406000205416151514613efa565b600052600b602052601060406000200155602060405160018152f35b3461027957602036600319011261027957610e4561488e565b50600435600052600a602052610580610e6460046040600020016148d2565b604051918291602083526020830190613c0d565b346102795760208060031936011261027957610e926149be565b50600435600052600a815260406000209060405191610eb0836135b8565b805483526001808201546001600160a01b0316838501526002808301805491929190610edb82613849565b93610ee9604051958661360a565b828552600091825286822090878087015b858510610f42578a82600d8b8b604085015260038101546060850152610f22600482016148d2565b6080850152015460a0830152610580604051928284938452830190613ccf565b8691600591604051610f538161359d565b865481528487015483820152610f7260ff878901541660408301614493565b604051610f8681610cd98160038c01613ab3565b6060820152604051610f9f81610cd98160048c01613ab3565b60808201528152019301930192918890610efa565b34610279576020366003190112610279576004356000526015602052610580610cd96105e7604060002060405192838092613ab3565b34610279576105806105d96105e761100136613a1f565b60409491945194859360208501614f8b565b34610279576020366003190112610279576004356001548110156102795761031a602091613532565b34610279576020806003193601126102795760043560005260108152604060002060405190818382549182815201908192600052846000209060005b868282106110ce57868661108e8288038361360a565b604051928392818401908285525180915260408401929160005b8281106110b757505050500390f35b8351855286955093810193928101926001016110a8565b835485529093019260019283019201611078565b34610279576020366003190112610279576110fb6141d8565b50600435600052600b602052610580604060002060ff60116040519261112084613581565b8054845261113060018201613b49565b6020850152600b8101546040850152600c8101546060850152600d8101546080850152600e81015460a0850152600f81015460c0850152601081015460e0850152015416151561010082015260405191829160208352602083019061378a565b3461027957602036600319011261027957600435600052600b602052604060002080546111bf60018301613b49565b91600b81015490600c81015490600d810154600e820154600f8301549160ff601160108601549501541694611206604051998a998a526101208060208c01528a01906136eb565b9660408901526060880152608087015260a086015260c085015260e084015215156101008301520390f35b346102795760203660031901126102795761124a6134d2565b6003546001600160a01b0391906112649083163314613e13565b168060005260086020526040600020600160ff19825416179055600554600160401b8110156112e75760018101806005558110156112d1577f036b6384b5eca791c62761152d0c79bb0604c104a5fb6f4eb0703f3154bb3db00180546001600160a01b0319169091179055005b634e487b7160e01b600052603260045260246000fd5b634e487b7160e01b600052604160045260246000fd5b34610279576080366003190112610279576001600160401b036004358181116102795761132e903690600401613860565b90602435818111610279576113479036906004016138f9565b60443591906001600160a01b03831683036102795760643590600282101561027957816113b4859261138360405197889260209a8b8501614f8b565b0395611397601f199788810183528261360a565b6113a86040519586928a8401615010565b0386810185528461360a565b60405190868201926001600160601b03199060601b16835260f81b6034820152426035820152603581526113e7816135ef565b51902091826000526015855260406000209180519182116112e757611416826114108554613a79565b85613f94565b8594601f83116001146114585750938192939460009261144d575b50508160011b916000199060031b1c1916179055604051908152f35b015190508580611431565b82169483600052866000209160005b888882106114a35750508360019596971061148a575b505050811b019055610da2565b015160001960f88460031b161c1916905585808061147d565b6001849582939585015181550194019201611467565b34610279576101a0366003190112610279576004356001600160401b038111610279576114ea903690600401613646565b6024356001600160401b03811161027957611509903690600401613646565b6044356001600160401b03811161027957611528903690600401613646565b6064356001600160401b03811161027957611547903690600401613646565b6084356001600160401b03811161027957611566903690600401613646565b906101843592831515840361027957336000526008602052611594600160ff60406000205416151514613efa565b60405160208101906115e6602082816115b38c878151938492016136a3565b8a519082016115c782858301868f016136a3565b018651906115da82858301868b016136a3565b0103808452018261360a565b51902094604051966115f7886135d3565b8752602087015260408601526060850152608084015260a43560a084015260c43560c084015260e43560e084015261010435610100840152610124356101208401526040519261164684613581565b82845260208401526101443560408401526000606084015260006080840152600060a08401526101643560c08401524260e084015280151561010084015281600052600b6020526040600020928051845560208101519384518051906001600160401b0382116112e75781906116cc826116c36001870154613a79565b60018701613f94565b602090601f8311600114611b5e57600092611b53575b50508160011b916000199060031b1c19161760018201555b60208501518051906001600160401b0382116112e757819061172c826117236002870154613a79565b60028701613f94565b602090601f8311600114611ae157600092611ad6575b50508160011b916000199060031b1c19161760028201555b60408501518051906001600160401b0382116112e757819061178c826117836003870154613a79565b60038701613f94565b602090601f8311600114611a6457600092611a59575b50508160011b916000199060031b1c19161760038201555b60608501518051906001600160401b0382116112e75781906117ec826117e36004870154613a79565b60048701613f94565b602090601f83116001146119e7576000926119dc575b50508160011b916000199060031b1c19161760048201555b60808501519485516001600160401b0381116112e75761184a816118416005860154613a79565b60058601613f94565b6020601f8211600114611961576011928261010095936101209360019a9b600092611956575b5050600019600383901b1c191690891b1760058401555b60a0810151600684015560c0810151600784015560e081015160088401558481015160098401550151600a8201556040840151600b8201556060840151600c8201556080840151600d82015560a0840151600e82015560c0840151600f82015560e0840151601082015501910151151560ff80198354169116179055151514611948575b600054600160401b8110156112e75761192d81600161194493016000556134e8565b819391549060031b91821b91600019901b19161790565b9055005b61195181614023565b61190b565b015190508b80611870565b6005840160005260206000209760005b601f19841681106119c457509260018381999a610120946011976101009997601f198116106119ab575b505050811b016005840155611887565b015160001960f88460031b161c191690558b808061199b565b828201518a5560019099019860209283019201611971565b015190508780611802565b9250600484016000526020600020906000935b601f1984168510611a3e576001945083601f19811610611a25575b505050811b01600482015561181a565b015160001960f88460031b161c19169055878080611a15565b818101518355602094850194600190930192909101906119fa565b0151905087806117a2565b9250600384016000526020600020906000935b601f1984168510611abb576001945083601f19811610611aa2575b505050811b0160038201556117ba565b015160001960f88460031b161c19169055878080611a92565b81810151835560209485019460019093019290910190611a77565b015190508780611742565b9250600284016000526020600020906000935b601f1984168510611b38576001945083601f19811610611b1f575b505050811b01600282015561175a565b015160001960f88460031b161c19169055878080611b0f565b81810151835560209485019460019093019290910190611af4565b0151905087806116e2565b9250600184016000526020600020906000935b601f1984168510611bb5576001945083601f19811610611b9c575b505050811b0160018201556116fa565b015160001960f88460031b161c19169055878080611b8c565b81810151835560209485019460019093019290910190611b71565b3461027957610580611be13661368d565b6040519160208301526040820152604081526105e7816135ef565b346102795760608060031936011261027957602435906004356000604435611c2381614260565b946000936000926001918254935b848110611ca3575b5050505050611c4781614260565b9460005b828110611c7a57505050611c696040519484869586528501906137f4565b911515602084015260408301520390f35b80611c88611c9e92846142b0565b51611c93828a6142b0565b52610c8781896142b0565b611c4b565b611cac81613532565b9054600391821b1c600052600b6020918183526010908160406000200154861115611ce4575b50505050611cdf9061406b565b611c31565b909192939899868b10600014611da557509160119160ff93611d058b613532565b9054911b1c60005281855260406000209160405195611d2387613581565b83548752611d328a8501613b49565b908701528201546040860152600c8201548d860152600d8201546080860152600e82015460a0860152600f82015460c086015281015460e08501520154161515610100820152611d82878b6142b0565b52611d8d868a6142b0565b50611cdf611d9b869761406b565b95908b8080611cd2565b999a50505050505050915050918580808080611c39565b346102795760003660031901126102795760018054611dda81614260565b9160005b828110611dfb5760405160208082528190610580908201876137f4565b80611e08611e9e92613532565b90549060031b1c600052600b60ff601160209280845260406000209060405194611e3186613581565b82548652611e40898401613b49565b908601528101546040850152600c8101546060850152600d8101546080850152600e81015460a0850152600f81015460c0850152601081015460e08501520154161515610100820152611e9382876142b0565b52610c8781866142b0565b611dde565b34610279576020366003190112610279576004356001600160401b03811161027957611ed3903690600401613646565b50602060405160018152f35b3461027957611eed36613a1f565b8251604051606083901b6bffffffffffffffffffffffff191660208201908152603482019290925242605482015292939192611f2c81607481016105d9565b519020906000611f3c82516142c4565b9360005b835181101561217657611f5381856142b0565b518051600052600b602052611f6e6040600020541515614336565b6004604082015110801561093157611f85906143db565b8051600052600b602052604060002093600b850190611fa682541515614427565b604083015160048110156109315761216057611ff2611ff8926020850190611fd0825182546140dd565b90558051611fe3600c8a01918254614473565b90556006880154905190614480565b90614473565b935b602082015160068201546040840151936004851015610931575160028054604051929491936001600160a01b0391821692909161203685613581565b8a1684526020840152604083015260609561205390878401614493565b608093428584015260a08301523360c083015260e082015261010081016000905260405161208281928261449f565b037f0d0cb37444e42a97b69191186cac71d299bf85a8f4472c9e55cd9f7eb26c5b1e91a16120b085896142b0565b5151936120bd868a6142b0565b51602001516120cc878b6142b0565b516040016120d9906143ce565b90604051966120e78861359d565b875260208701526120fb9060408701614493565b60405180809386019061210d91613ab3565b03612118908361360a565b8401526040518060018194019061212e91613ab3565b03612139908361360a565b82015261214682886142b0565b5261215181876142b0565b5061215b9061406b565b611f40565b6121709150611ff28589856145b9565b93611ffa565b50600480546002546040516323b872dd60e01b815233938101939093526001600160a01b039081166024840152604483018590529297969450909160209183916064918391600091165af190811561097457600091612d22575b5015612ce557604051916121e3836135b8565b83835260018060a01b03861660208401526040830152426060830152836080830152600560a083015282600052600a602052604060002094825186556001860160018060a01b036020850151166001600160601b0360a01b8254161790556040830151805190600160401b82116112e75760028801548260028a0155808310612c5e575b5060200190600288016000526020600020916000905b828210612a5f575050505060608301516003870155608083015180518051906001600160401b0382116112e75781906122c6826122bd60048d0154613a79565b60048d01613f94565b602090601f83116001146129ed576000926129e2575b50508160011b916000199060031b1c19161760048801555b60208101518051906001600160401b0382116112e75781906123268261231d60058d0154613a79565b60058d01613f94565b602090601f831160011461297057600092612965575b50508160011b916000199060031b1c19161760058801555b604081015180516001600160401b0381116112e7578060068a01926123838261237d8654613a79565b86613f94565b602090601f83116001146128ff576000926128f4575b50508160011b916000199060031b1c19161790555b606081015180516001600160401b0381116112e7578060078a01926123d78261237d8654613a79565b602090601f831160011461288e57600092612883575b50508160011b916000199060031b1c19161790555b608081015180516001600160401b0381116112e7578060088a019261242b8261237d8654613a79565b602090601f831160011461281d57600092612812575b50508160011b916000199060031b1c19161790555b60a081015180516001600160401b0381116112e7578060098a019261247f8261237d8654613a79565b602090601f83116001146127ac576000926127a1575b50508160011b916000199060031b1c19161790555b60c081015180516001600160401b0381116112e75780600a8a01926124d38261237d8654613a79565b602090601f831160011461273b57600092612730575b50508160011b916000199060031b1c19161790555b60e081015180516001600160401b0381116112e757600b890191612526826114108554613a79565b602090601f83116001146126c35761010094939291600091836126b8575b50508160011b916000199060031b1c19161790555b01519586516001600160401b0381116112e75760209761258982612580600c860154613a79565b600c8601613f94565b8890601f831160011461262f579360409383600080516020616834833981519152999a946126019461261998600092612624575b50508160011b916000199060031b1c191617600c8201555b600d60a089015191015560018060a01b038116600052600e8a526125fc8985600020614049565b613e96565b61260a87613fdb565b0151916040519384938461458b565b0390a1604051908152f35b015190508d806125bd565b90600c8401600052896000209160005b601f19851681106126a15750936001846126019461261998946040986000805160206168348339815191529d9e98601f19811610612688575b505050811b01600c8201556125d5565b015160001960f88460031b161c191690558d8080612678565b91928b60018192868501518155019401920161263f565b015190508b80612544565b90601f198316918460005260206000209260005b818110612718575091600193918561010098979694106126ff575b505050811b019055612559565b015160001960f88460031b161c191690558b80806126f2565b929360206001819287860151815501950193016126d7565b015190508a806124e9565b6000858152602081209350601f198516905b8181106127895750908460019594939210612770575b505050811b0190556124fe565b015160001960f88460031b161c191690558a8080612763565b9293602060018192878601518155019501930161274d565b015190508a80612495565b6000858152602081209350601f198516905b8181106127fa57509084600195949392106127e1575b505050811b0190556124aa565b015160001960f88460031b161c191690558a80806127d4565b929360206001819287860151815501950193016127be565b015190508a80612441565b6000858152602081209350601f198516905b81811061286b5750908460019594939210612852575b505050811b019055612456565b015160001960f88460031b161c191690558a8080612845565b9293602060018192878601518155019501930161282f565b015190508a806123ed565b6000858152602081209350601f198516905b8181106128dc57509084600195949392106128c3575b505050811b019055612402565b015160001960f88460031b161c191690558a80806128b6565b929360206001819287860151815501950193016128a0565b015190508a80612399565b6000858152602081209350601f198516905b81811061294d5750908460019594939210612934575b505050811b0190556123ae565b015160001960f88460031b161c191690558a8080612927565b92936020600181928786015181550195019301612911565b01519050898061233c565b925060058a016000526020600020906000935b601f19841685106129c7576001945083601f198116106129ae575b505050811b016005880155612354565b015160001960f88460031b161c1916905589808061299e565b81810151835560209485019460019093019290910190612983565b0151905089806122dc565b925060048a016000526020600020906000935b601f1984168510612a44576001945083601f19811610612a2b575b505050811b0160048801556122f4565b015160001960f88460031b161c19169055898080612a1b565b81810151835560209485019460019093019290910190612a00565b805180518555602081015160018601556040810151600481101561093157612a8a9060028701614573565b60608101518051906001600160401b0382116112e757612aba82612ab160038a0154613a79565b60038a01613f94565b602090601f8311600114612beb57608093929160009183612be0575b50508160011b916000199060031b1c19161760038701555b01518051906001600160401b0382116112e757612b1b82612b126004890154613a79565b60048901613f94565b602090601f8311600114612b6a579282600593602093600196600092612b5f575b5050600019600383901b1c191690851b1760048801555b0194019101909261227d565b015190508f80612b3c565b906004870160005260206000209160005b601f1985168110612bc8575083602093600196938793600597601f19811610612baf575b505050811b016004880155612b53565b015160001960f88460031b161c191690558f8080612b9f565b91926020600181928685015181550194019201612b7b565b015190508e80612ad6565b906003880160005260206000209160005b601f1985168110612c46575091839160019360809695601f19811610612c2d575b505050811b016003870155612aee565b015160001960f88460031b161c191690558e8080612c1d565b91926020600181928685015181550194019201612bfc565b6005818102048103612ccf576005838102048303612ccf576002890160005260206000208360050281015b8260050282018110612c9c575050612267565b806000600592556000600182015560006002820155612cbd6003820161452a565b612cc96004820161452a565b01612c89565b634e487b7160e01b600052601160045260246000fd5b60405162461bcd60e51b8152602060048201526015602482015274151bdad95b881d1c985b9cd9995c8819985a5b1959605a1b6044820152606490fd5b612d3b915060203d60201161096d5761095e818361360a565b866121d0565b34610279576020366003190112610279576004356006548110156102795760066000527ff652222313e28459528d920b65115c16c04f3efc82aaedc97be59f3f377c0d3f01546040516001600160a01b039091168152602090f35b34610279576000366003190112610279576020600754604051908152f35b34610279576000366003190112610279573360005260206008815260019060ff91612def818460406000205416151514613efa565b60005490612dfc82614260565b9360005b838110612e1a5760405185815280610580818801896137f4565b80612e27612eb8926134e8565b90549060031b1c600052600b808752836011604060002060405193612e4b85613581565b81548552612e5a898301613b49565b8b8601528101546040850152600c8101546060850152600d8101546080850152600e81015460a0850152600f81015460c0850152601081015460e08501520154161515610100820152612ead82896142b0565b52610c8781886142b0565b612e00565b3461027957602036600319011261027957336000526008602052612eed600160ff60406000205416151514613efa565b60206109d560043561407a565b3461027957602036600319011261027957336000526008602052612f2a600160ff60406000205416151514613efa565b60206109d56004356140ea565b346102795760603660031901126102795760043560005260206010815260406000206040519081838254918281520191600052836000209060005b85828210612f9557610da286612f8a8188038261360a565b6044356024356149f7565b835485529093019260019283019201612f72565b3461027957612fb73661368d565b906000526010602052604060002080548210156102795760209161031a91613569565b3461027957610180366003190112610279576024356001600160401b0381116102795761300b903690600401613646565b6044356001600160401b0381116102795761302a903690600401613646565b906064356001600160401b0381116102795761304a903690600401613646565b906084356001600160401b0381116102795761306a903690600401613646565b9033600052600860205261308a600160ff60406000205416151514613efa565b600435600052600b60205260406000209060018201908051906001600160401b0382116112e75781906130c18261237d8654613a79565b602090601f83116001146133a55760009261339a575b50508160011b916000199060031b1c19161790555b83516001600160401b0381116112e7576131168161310d6003850154613a79565b60038501613f94565b6020601f821160011461332b578192939495600092613320575b50508160011b916000199060031b1c19161760038201555b6004810183516001600160401b0381116112e7576131708161316a8454613a79565b84613f94565b602094601f82116001146132ba579481929394956000926132af575b50508160011b916000199060031b1c19161790555b6005810182516001600160401b0381116112e7576131c38161316a8454613a79565b6020601f8211600114613249578192939460009261323e575b50508160011b916000199060031b1c19161790555b60a435600682015560c435600782015560e435600882015561010435600982015561012435600a82015561014435600b82015561016435600f820155601042910155602060405160018152f35b0151905084806131dc565b601f198216908360005260206000209160005b8181106132975750958360019596971061327e575b505050811b0190556131f1565b015160001960f88460031b161c19169055848080613271565b9192602060018192868b01518155019401920161325c565b01519050858061318c565b601f198216958360005260206000209160005b888110613308575083600195969798106132ef575b505050811b0190556131a1565b015160001960f88460031b161c191690558580806132e2565b919260206001819286850151815501940192016132cd565b015190508580613130565b6003830160005260206000209060005b601f1984168110613382575060019394959683601f19811610613369575b505050811b016003820155613148565b015160001960f88460031b161c19169055858080613359565b9091602060018192858b01518155019301910161333b565b0151905087806130d7565b9250836000526020600020906000935b601f19841685106133f6576001945083601f198116106133dd575b505050811b0190556130ec565b015160001960f88460031b161c191690558780806133d0565b818101518355602094850194600190930192909101906133b5565b346102795760203660031901126102795760043580600052600f602052604060002061343d815461406b565b905560005260106020526040600020805490600160401b8210156112e7578161346e91600161194494018155613569565b919091429083549060031b91821b91600019901b19161790565b34610279576040366003190112610279576134a16134d2565b6001600160a01b03166000908152600d60205260409020805460243591908210156102795760209161031a91613569565b600435906001600160a01b038216820361027957565b90600091825481101561351e578280527f290decd9548b62a8d60345a988386fc84ba6bc95484008f6362f93160ef3e563019190565b634e487b7160e01b83526032600452602483fd5b6001548110156112d15760016000527fb10e2d527612073b26eecdfd717e6a320cf44b4afac2b0732d9fcbe2b7fa0cf60190600090565b80548210156112d15760005260206000200190600090565b61012081019081106001600160401b038211176112e757604052565b60a081019081106001600160401b038211176112e757604052565b60c081019081106001600160401b038211176112e757604052565b61014081019081106001600160401b038211176112e757604052565b606081019081106001600160401b038211176112e757604052565b90601f801991011681019081106001600160401b038211176112e757604052565b6001600160401b0381116112e757601f01601f191660200190565b81601f820112156102795780359061365d8261362b565b9261366b604051948561360a565b8284526020838301011161027957816000926020809301838601378301015290565b6040906003190112610279576004359060243590565b60005b8381106136b65750506000910152565b81810151838201526020016136a6565b906020916136df815180928185528580860191016136a3565b601f01601f1916010190565b9061375361374161372f61371d61370b86516101408088528701906136c6565b602087015186820360208801526136c6565b604086015185820360408701526136c6565b606085015184820360608601526136c6565b608084015183820360808501526136c6565b9160a081015160a083015260c081015160c083015260e081015160e083015261010080820151908301526101208091015191015290565b90815181526137a860208301516101208060208501528301906136eb565b9160408101516040830152606081015160608301526080810151608083015260a081015160a083015260c081015160c083015260e081015160e083015261010080910151151591015290565b90815180825260208092019182818360051b85019501936000915b84831061381f5750505050505090565b909192939495848061383983856001950387528a5161378a565b980193019301919493929061380f565b6001600160401b0381116112e75760051b60200190565b81601f820112156102795780359061387782613849565b926040906138878251958661360a565b8385526020918286019183606080970286010194818611610279578401925b8584106138b7575050505050505090565b8684830312610279578251906138cc826135ef565b8435825285850135868301528385013590600482101561027957828792868b9501528152019301926138a6565b919061012083820312610279576040519061391382613581565b81938035916001600160401b03928381116102795781613934918401613646565b84526020820135838111610279578161394e918401613646565b60208501526040820135838111610279578161396b918401613646565b604085015260608201358381116102795781613988918401613646565b6060850152608082013583811161027957816139a5918401613646565b608085015260a082013583811161027957816139c2918401613646565b60a085015260c082013583811161027957816139df918401613646565b60c085015260e082013583811161027957816139fc918401613646565b60e0850152610100928383013590811161027957613a1a9201613646565b910152565b906060600319830112610279576001600160401b036004358181116102795783613a4b91600401613860565b9260243591821161027957613a62916004016138f9565b906044356001600160a01b03811681036102795790565b90600182811c92168015613aa9575b6020831014613a9357565b634e487b7160e01b600052602260045260246000fd5b91607f1691613a88565b9060009291805491613ac483613a79565b918282526001938481169081600014613b265750600114613ae6575b50505050565b90919394506000526020928360002092846000945b838610613b12575050505001019038808080613ae0565b805485870183015294019385908201613afb565b9294505050602093945060ff191683830152151560051b01019038808080613ae0565b906040916101206009845192613b5e846135d3565b83958051613b7081610cd98186613ab3565b85528051613b8581610cd98160018701613ab3565b60208601528051613b9d81610cd98160028701613ab3565b818601528051613bb481610cd98160038701613ab3565b606086015251613bcb81610cd98160048601613ab3565b6080850152600581015460a0850152600681015460c0850152600781015460e085015260088101546101008501520154910152565b9060048210156109315752565b90613ccc91613cb8613ca6613c94613c82613c70613c5e613c4c613c3a8851610120808c528b01906136c6565b60208901518a820360208c01526136c6565b604088015189820360408b01526136c6565b606087015188820360608a01526136c6565b608086015187820360808901526136c6565b60a085015186820360a08801526136c6565b60c084015185820360c08701526136c6565b60e083015184820360e08601526136c6565b9161010080920151918184039101526136c6565b90565b9060c081018251825260209060018060a01b03828501511682840152604090818501519260c083860152835180925260e08501928160e08460051b8801019501936000915b848310613d4d5750505050505060a0613d4481926060860151606086015260808601518582036080870152613c0d565b93015191015290565b9091929394958480613dae60019360df198c82030187528a51805182528381015184830152613d828782015188840190613c00565b613d9b6060808301519060a080918601528401906136c6565b91608080920151918184039101526136c6565b9801930193019194939290613d14565b90815180825260208092019182818360051b82019501936000915b848310613de95750505050505090565b9091929394958480613e0383856001950387528a51613ccf565b9801930193019194939290613dd9565b15613e1a57565b60405162461bcd60e51b815260206004820152604860248201527f7b2266726f6d223a2022466943616d2e736f6c222c2022636f6465223a20312c60448201527f20226d657373616765223a2022496e76616c69642063616c6c65722d4f6e6c79606482015267204f776e6572227d60c01b608482015260a490fd5b600654600160401b8110156112e75760018101806006558110156112d15760066000527ff652222313e28459528d920b65115c16c04f3efc82aaedc97be59f3f377c0d3f0180546001600160a01b0319166001600160a01b03909216919091179055565b15613f0157565b60405162461bcd60e51b815260206004820152604860248201527f7b2266726f6d223a2022466943616d2e736f6c222c2022636f6465223a20322c60448201527f20226d657373616765223a2022496e76616c69642063616c6c65722d4f6e6c796064820152672041646d696e227d60c01b608482015260a490fd5b818110613f88575050565b60008155600101613f7d565b9190601f8111613fa357505050565b613fcf926000526020600020906020601f840160051c83019310613fd1575b601f0160051c0190613f7d565b565b9091508190613fc2565b601654600160401b8110156112e75760018101806016558110156112d15760166000527fd833147d7dc355ba459fc788f669e58cfaf9dc25ddcd0702e87d69c7b51242890155565b600154600160401b8110156112e75761192d8160016140459301600155613532565b9055565b805490600160401b8210156112e7578161192d91600161404594018155613569565b6000198114612ccf5760010190565b80600052600b60205260116040600020016001908160ff198254161790556000918154925b8381106140b25750613ccc919250614023565b816140bc82613532565b90549060031b1c146140d6576140d19061406b565b61409f565b5050905090565b91908203918211612ccf57565b6000818152600b60205260119182604083200160ff198154169055815b60018054808310156141cd57839061411e84613532565b929054600393841b1c1461413d575050506141389061406b565b614107565b90949291959350600019938482019182116141bb5750808210614197575b50508354908115614183575081019161417383613532565b81939154921b1b19169055815590565b634e487b7160e01b81526031600452602490fd5b61192d6141a66141b292613532565b905490871b1c92613532565b9055388061415b565b634e487b7160e01b8452600452602483fd5b505050505050600190565b604051906141e582613581565b6000808352604051836141f7826135d3565b82606080845280602085015280604085015280808501528060808501528160a08501528160c08501528160e08501526101009382858201528261012082015260208401528160408401528201528260808201528260a08201528260c08201528260e08201520152565b9061426a82613849565b614277604051918261360a565b8281528092614288601f1991613849565b019060005b82811061429957505050565b6020906142a46141d8565b8282850101520161428d565b80518210156112d15760209160051b010190565b906142ce82613849565b6040906142dd8251918261360a565b83815280936142ee601f1991613849565b0191600091825b848110614303575050505050565b60209083516143118161359d565b85815282868183015286868301526060808084015260808301528285010152016142f5565b1561433d57565b60405162461bcd60e51b815260206004820152605b60248201527f7b2266726f6d223a2022466943616d2e736f6c222c2022636f6465223a20342c60448201527f20226d657373616765223a2022496e76616c69642070726f647563742049442060648201527f6f722070726f6475637420646f6573206e6f74206578697374227d0000000000608482015260a490fd5b5160048110156109315790565b156143e257565b60405162461bcd60e51b815260206004820152601960248201527f496e76616c696420737562736372697074696f6e2074797065000000000000006044820152606490fd5b1561442e57565b60405162461bcd60e51b815260206004820152601d60248201527f70726f647563742073746f72616765206973206e6f7420656e6f7567680000006044820152606490fd5b91908201809211612ccf57565b81810292918115918404141715612ccf57565b60048210156109315752565b91909161012081019260018060a01b0380825116835260208201516020840152604082015160408401526144db60608301516060850190613c00565b6080820151608084015260a082015160a08401528060c08301511660c084015260e08201511660e083015261010080910151910152565b90816020910312610279575180151581036102795790565b6145348154613a79565b908161453e575050565b81601f60009311600114614550575055565b90808391825261456f601f60208420940160051c840160018501613f7d565b5555565b9060048110156109315760ff80198354169116179055565b9392916145b4906145a66040936060885260608801906136c6565b908682036020880152613ccf565b930152565b92909160009260009480518652602095600b87526040918282209482938083019283519a60049b8c8110156147f65760011461482d575b84518c8110156147f657600214614809575b84518c8110156147f6576003146147bd575b808201988951614629600b83019182546140dd565b905561463c600d8b519201918254614473565b90556001600160a01b03841680875260118252838720898852825283872083518852825283872042905585519099908d8110156147a95761467f61468591614851565b42616340565b8a8852601283528488208a8952835284882084518952835284882055898752601382528387208988528252838720835188528252878488205589875260148252838720898852825283872083518852825283872090835182555160018201558551908d8210156147a9579060026146fc9201614573565b81519886526012815282862088875281528286209151865252808420549251938a8510156147965750516001600160a01b0391909116815260208101949094526040840194909452426060840152608083019390935260a082019290925260c0810191909152600060e0820152919250907f7a349466f0b119934b2376706bf145e6fabe7eb4b8c4cba23bb8f5dc9cb74b759061010090a1565b634e487b7160e01b815260218b52602490fd5b50634e487b7160e01b875260218d52602487fd5b99506147eb95506147f0600a8901546147db8c840191825190614480565b97889160078c0154905190614480565b614473565b99614614565b634e487b7160e01b875260218d52602487fd5b99506147eb955061482760098901546147db8c840191825190614480565b99614602565b99506147eb955061484b60088901546147db8c840191825190614480565b996145f0565b9060009160048110156109315780600114614885575b6003148061487c575b61487657565b600c9150565b60069250614870565b60019250614867565b6040519061489b82613581565b8161010060609182815282602082015282604082015282808201528260808201528260a08201528260c08201528260e08201520152565b9060086101006040936149ba8551916148ea83613581565b6149b3839780516148ff81610cd98187613ab3565b8552805161491481610cd98160018801613ab3565b6020860152805161492c81610cd98160028801613ab3565b81860152805161494381610cd98160038801613ab3565b6060860152805161495b81610cd98160048801613ab3565b6080860152805161497381610cd98160058801613ab3565b60a0860152805161498b81610cd98160068801613ab3565b60c086015280516149a381610cd98160078801613ab3565b60e0860152518096819301613ab3565b038461360a565b0152565b604051906149cb826135b8565b600060a083828152826020820152606060408201528260608201526149ee61488e565b60808201520152565b60009392849290818311614b2857805184935b818510614ae1575050839181515b808410614a885750505080614a675750815b80821115614a3757505050565b614a43929394506140dd565b9060018201809211614a53575090565b634e487b7160e01b81526011600452602490fd5b600019810190811115614a2a57634e487b7160e01b83526011600452602483fd5b614a9284826140dd565b90614aa1600192831c86614473565b9183614aad84876142b0565b511115614abb575050614a18565b9094508101809111614acd5792614a18565b634e487b7160e01b86526011600452602486fd5b9093614aed81866140dd565b614afb600191821c83614473565b9183614b0784876142b0565b511015614b2057508101809111614acd57935b90614a0a565b955050614b1a565b60405162461bcd60e51b8152602060048201526012602482015271496e76616c69642074696d652072616e676560701b6044820152606490fd5b90614b6c82613849565b614b79604051918261360a565b8281528092614b8a601f1991613849565b019060005b828110614b9b57505050565b602090614ba66149be565b82828501015201614b8f565b91909160609233600052600e602052604060002054614bd081613849565b90614bde604051928361360a565b808252614bed601f1991613849565b019060203691013733600052600e6020526040600020906040518083602082955493848152019060005260206000209260005b818110614f72575050614c359250038361360a565b614c458163ffffffff8516614480565b614c50828451614473565b1015614c5f5750505060009190565b909193614c728263ffffffff8716614480565b83511115614de75750614c8481614b62565b9360005b8551811015614ddd57614cb7614cb1826147eb86614cac8163ffffffff8916614480565b6140dd565b856142b0565b51600052600a602052604060002060405190614cd2826135b8565b805482526001808201546001600160a01b0316602084015260028083018054909291614cfd82613849565b93614d0b604051958661360a565b82855260208501906000526020600020916000915b848310614d6c575050505050508291600d916040614d679695015260038101546060840152614d51600482016148d2565b6080840152015460a0820152612ead82896142b0565b614c88565b600560208792604051614d7e8161359d565b875481528488015483820152614d9d60ff878a01541660408301614493565b604051614db181610cd98160038d01613ab3565b6060820152604051614dca81610cd98160048d01613ab3565b6080820152815201940192019192614d20565b5050505060019190565b9190614e15614e10614e0a614e028463ffffffff8a16614480565b8551906140dd565b836140dd565b614b62565b9460005b8651811015614f6757614e3d614cb1826147eb86614cac8163ffffffff8916614480565b51600052600a602052604060002060405190614e58826135b8565b8054825260018101546001600160a01b03166020830152600281018054614e7e81613849565b91614e8c604051938461360a565b81835260208301906000526020600020906000905b8b848310614eec5750505050508291600d916040614ee796950152600381015489840152614ed1600482016148d2565b6080840152015460a0820152611c93828a6142b0565b614e19565b602060019260059260405190614f018261359d565b875482528588015484830152614f2160ff60028a01541660408401614493565b60405190614f3d82614f368160038d01613ab3565b038361360a565b820152604051614f5481610cd98160048c01613ab3565b6080820152815201930191019091614ea1565b505050505060009190565b8454835260019485019487945060209093019201614c20565b9193929360609182840192808552815180945260808501936020809301916000905b828210614fdb575050505083830390840152604091614fcb91613c0d565b6001600160a01b03909416910152565b9091929584826001926150048a5180518352848101518584015260408091015190830190613c00565b01970193920190614fad565b929190615025906040855260408501906136c6565b9260028210156109315760200152565b909291926150428161362b565b91615050604051938461360a565b829482845282820111610279576020613fcf9301906136a3565b80518101604082602083019203126102795760208201516001600160401b03811161027957820181603f8201121561027957604091818360206150b09401519101615035565b910151600281101561027957801561523f576001146150d157505050600090565b6040818051810103126102795760406020820151910151926000828152600a60205260018060a01b0360016040832001541694858252601360205260408220848352602052604082208183526020526151316040832054809410156162bb565b8582526014602052604082208483526020526040822081835260205260ff6002604084200154169386835260126020526040832081845260205260408320828452602052615186604084205461086987614851565b87845260126020526040842082855260205260408420838552602052604084205586835260126020526040832081845260205260408320828452602052604083205492600486101561522b5750604080519788526020880191909152860152426060860152608085015260a084015260c083015260e08201527f7a349466f0b119934b2376706bf145e6fabe7eb4b8c4cba23bb8f5dc9cb74b759061010090a1600190565b634e487b7160e01b81526021600452602490fd5b50919082518301916060848403126102795760208401516001600160401b0381116102795784019260208101603f8501121561027957602084015161528381613849565b94615291604051968761360a565b818652604060606020880193028201019060208401821161027957604001915b818310616254575050506040850151946001600160401b0386116102795761012086820183031261027957604051956152e987613581565b602081830101516001600160401b038111610279576153129060208086019184860101016162a1565b8752604081830101516001600160401b0381116102795761533d9060208086019184860101016162a1565b6020880152606081830101516001600160401b0381116102795761536b9060208086019184860101016162a1565b6040880152608081830101516001600160401b038111610279576153999060208086019184860101016162a1565b606088015260a081830101516001600160401b038111610279576153c79060208086019184860101016162a1565b608088015260c081830101516001600160401b038111610279576153f59060208086019184860101016162a1565b60a088015260e081830101516001600160401b038111610279576154239060208086019184860101016162a1565b60c088015261010081830101516001600160401b038111610279576154529060208086019184860101016162a1565b60e08801526101208183010151906001600160401b03821161027957602061548392816060960192850101016162a1565b6101008701520151926001600160a01b0384168403610279578051604051606086901b6bffffffffffffffffffffffff19166020820190815260348201929092524260548201526154d781607481016105d9565b519020956000906154e883516142c4565b93825b8451811015615705576154fe81866142b0565b51908151600052600b60205261551a6040600020541515614336565b6004604083015110801561093157615531906143db565b8151600052600b602052604060002094615550600b8701541515614427565b60408301516004811015610931576156e7576155a190611ff26020850161557c8151600b8b01546140dd565b600b8a01558051615592600c8b01918254614473565b90556006890154905190614480565b945b60208301519260068201549060408101516004811015610931576156e2957f0d0cb37444e42a97b69191186cac71d299bf85a8f4472c9e55cd9f7eb26c5b1e936156258f9361564e95519260018060a01b0360025416946040519661560788613581565b6001600160a01b031687526020870152604086015260608501614493565b42608084015260a08301523360c083015260e08201528b6101008201526040519182918261449f565b0390a160016156d3615660848a6142b0565b5151926156aa8a61568c604061568589602061567c82876142b0565b510151946142b0565b51016143ce565b906040519661569a8861359d565b8752602087015260408601614493565b6040516156be81610cd98160028601613ab3565b6060850152610cd96040518094819301613ab3565b6080820152612ead82896142b0565b6154eb565b6156ff90611ff26001600160a01b038c168e866145b9565b946155a3565b50945095929496915061571a908410156162bb565b60405193615727856135b8565b81855260018060a01b03871660208601526040850152426060850152816080850152600560a085015280600052600a602052604060002095845187556001870160018060a01b036020870151166001600160601b0360a01b8254161790556040850151805190600160401b82116112e75760028901548260028b01558083106161e3575b5060200190600289016000526020600020916000905b828210615ff6575050505060608501516003880155608085015180518051906001600160401b0382116112e757819061580a828c600461580381830154613a79565b9101613f94565b602090601f8311600114615f8457600092615f79575b50508160011b916000199060031b1c19161760048901555b60208101518051906001600160401b0382116112e7578190615863828c600561580381830154613a79565b602090601f8311600114615f0757600092615efc575b50508160011b916000199060031b1c19161760058901555b60408101518051906001600160401b0382116112e75781906158bc828c600661580381830154613a79565b602090601f8311600114615e8a57600092615e7f575b50508160011b916000199060031b1c19161760068901555b60608101518051906001600160401b0382116112e7578190615915828c600761580381830154613a79565b602090601f8311600114615e0d57600092615e02575b50508160011b916000199060031b1c19161760078901555b60808101518051906001600160401b0382116112e757819061596e828c600861580381830154613a79565b602090601f8311600114615d9057600092615d85575b50508160011b916000199060031b1c19161760088901555b60a08101518051906001600160401b0382116112e75781906159c7828c600961580381830154613a79565b602090601f8311600114615d1357600092615d08575b50508160011b916000199060031b1c19161760098901555b60c08101518051906001600160401b0382116112e7578190615a20828c600a61580381830154613a79565b602090601f8311600114615c9657600092615c8b575b50508160011b916000199060031b1c191617600a8901555b60e08101518051906001600160401b0382116112e757615a7e82615a75600b8d0154613a79565b600b8d01613f94565b602090601f8311600114615c175761010093929160009183615c0c575b50508160011b916000199060031b1c191617600b8a01555b01519687516001600160401b0381116112e757615ae081615ad7600c850154613a79565b600c8501613f94565b6020601f8211600114615b7e57615b6b959361260a938360409794615b66946000805160206168348339815191529d9e600092615b73575b50508160011b916000199060031b1c191617600c8201555b600d60a08b015191015560018060a01b038116600052600e602052615b588387600020614049565b6001600160a01b0316613e96565b613fdb565b0390a1600190565b015190503880615b18565b600c830160005260206000209960005b601f1984168110615bf457509361260a936001846000805160206168348339815191529c9d615b6695615b6b9b9960409b98601f19811610615bdb575b505050811b01600c820155615b30565b015160001960f88460031b161c19169055388080615bcb565b828201518c556001909b019a60209283019201615b8e565b015190503880615a9b565b90600b8b0160005260206000209160005b601f1985168110615c7357509183916001936101009695601f19811610615c5a575b505050811b01600b8a0155615ab3565b015160001960f88460031b161c19169055388080615c4a565b91926020600181928685015181550194019201615c28565b015190503880615a36565b9250600a8b016000526020600020906000935b601f1984168510615ced576001945083601f19811610615cd4575b505050811b01600a890155615a4e565b015160001960f88460031b161c19169055388080615cc4565b81810151835560209485019460019093019290910190615ca9565b0151905038806159dd565b925060098b016000526020600020906000935b601f1984168510615d6a576001945083601f19811610615d51575b505050811b0160098901556159f5565b015160001960f88460031b161c19169055388080615d41565b81810151835560209485019460019093019290910190615d26565b015190503880615984565b925060088b016000526020600020906000935b601f1984168510615de7576001945083601f19811610615dce575b505050811b01600889015561599c565b015160001960f88460031b161c19169055388080615dbe565b81810151835560209485019460019093019290910190615da3565b01519050388061592b565b925060078b016000526020600020906000935b601f1984168510615e64576001945083601f19811610615e4b575b505050811b016007890155615943565b015160001960f88460031b161c19169055388080615e3b565b81810151835560209485019460019093019290910190615e20565b0151905038806158d2565b925060068b016000526020600020906000935b601f1984168510615ee1576001945083601f19811610615ec8575b505050811b0160068901556158ea565b015160001960f88460031b161c19169055388080615eb8565b81810151835560209485019460019093019290910190615e9d565b015190503880615879565b925060058b016000526020600020906000935b601f1984168510615f5e576001945083601f19811610615f45575b505050811b016005890155615891565b015160001960f88460031b161c19169055388080615f35565b81810151835560209485019460019093019290910190615f1a565b015190503880615820565b925060048b016000526020600020906000935b601f1984168510615fdb576001945083601f19811610615fc2575b505050811b016004890155615838565b015160001960f88460031b161c19169055388080615fb2565b81810151835560209485019460019093019290910190615f97565b8051805185556020810151600186015560408101516004811015610931576160219060028701614573565b60608101518051906001600160401b0382116112e75761604882612ab160038a0154613a79565b602090601f831160011461617057608093929160009183616165575b50508160011b916000199060031b1c19161760038701555b01518051906001600160401b0382116112e7576160a082612b126004890154613a79565b602090601f83116001146160ef5792826005936020936001966000926160e4575b5050600019600383901b1c191690851b1760048801555b019401910190926157c1565b0151905038806160c1565b906004870160005260206000209160005b601f198516811061614d575083602093600196938793600597601f19811610616134575b505050811b0160048801556160d8565b015160001960f88460031b161c19169055388080616124565b91926020600181928685015181550194019201616100565b015190503880616064565b906003880160005260206000209160005b601f19851681106161cb575091839160019360809695601f198116106161b2575b505050811b01600387015561607c565b015160001960f88460031b161c191690553880806161a2565b91926020600181928685015181550194019201616181565b6005818102048103612ccf576005838102048303612ccf5760028a0160005260206000208360050281015b82600502820181106162215750506157ab565b8060006005925560006001820155600060028201556162426003820161452a565b61624e6004820161452a565b0161620e565b606060208486030112610279576040519061626e826135ef565b835182526020840151602083015260408401519060048210156102795782602092604060609501528152019201916152b1565b9080601f83011215610279578151613ccc92602001615035565b156162c257565b60405162461bcd60e51b815260206004820152604a60248201527f7b2266726f6d223a2022466943616d2e736f6c222c2022636f6465223a20382c60448201527f20226d657373616765223a2022496e73756666696369656e74207061796d656e6064820152697420616d6f756e74227d60b01b608482015260a490fd5b919060009062010bd9620151808086048281019391928582128015918612918216911516176167c6576226496501928462253d8c851291129080158216911516176167b2578260021b90600491828105850361666c5762023ab180910594858202918205860361679f576003918281019088848312911290801582169115161761678c5790846163d19205906167ec565b9460019586810187811289831290801582169115161761667f57610fa0908082029182050361667f5762164b096164159105918661640e84616821565b05906167ec565b90601f82019189601f8412911290801582169115161761667f5781605002916050830581036167795761098f8093059283810290810584036166cb5790605061645f9205906167ec565b90600b83059060028401938b6002861291129080158216911516176166cb57600c938285029085820584036166a55790616498916167ec565b9460301981019081138b16616692578060640290606482050361669257916164c66164cb926164d394616805565b616805565b958294614473565b60001995868201949185116166cb576164f0849182870490614473565b940689810192838211616692578a84148015616770575b8015616766575b801561675c575b8015616752575b8015616748575b801561673f575b156166ea57601f80915b116166e2575b506107b285106166de57617d4a1982019182138a166166cb578a8512968715926112c087810190811285811690158b16176166b857908a61658561658c616591948a6165858b6167da565b0590616805565b616821565b91018381138b1661669257846165a6856167da565b0590858202918083058714901517156166a557906165c3916167ec565b61016f90808202918205036166925790846165df920590616805565b956113248095019485129081151691161761667f5791616604916165856064946167da565b058082029182050361666c57908261661d9205906167ec565b62253d8b1981019390841316616659578183029280840483149015171561665957509061664c91850690614473565b9283106166565750565b80fd5b634e487b7160e01b845260119052602483fd5b634e487b7160e01b865260118352602486fd5b634e487b7160e01b895260118652602489fd5b634e487b7160e01b8c526011895260248cfd5b634e487b7160e01b8d5260118a5260248dfd5b634e487b7160e01b8e5260118b5260248efd5b634e487b7160e01b8b526011885260248bfd5b8a80fd5b91503861653a565b600284146166fb57601e8091616534565b8686161580616733575b8015616727575b1561671e5760ff601d5b168091616534565b60ff601c616716565b5061019086061561670c565b50606486061515616705565b5084841461652a565b50600a8414616523565b506008841461651c565b5060078414616515565b506005841461650e565b50868414616507565b634e487b7160e01b8a526011875260248afd5b634e487b7160e01b885260118552602488fd5b634e487b7160e01b875260118452602487fd5b634e487b7160e01b84526011600452602484fd5b634e487b7160e01b85526011600452602485fd5b90600d198201918213600116612ccf57565b81810392916000138015828513169184121617612ccf57565b91909160008382019384129112908015821691151617612ccf57565b906105b59180830292830503612ccf5756fe09cfb29ba89972ccaac331801646fb46cf877571081a07c992a559a1a6f58509a2646970667358221220cd01e94538a2fc867f335ed19c4980155f2334666522ad30bb18d97fc3f410cd64736f6c63430008130033",
			"opcodes": "PUSH1 0x80 DUP1 PUSH1 0x40 MSTORE PUSH1 0x1 DUP1 PUSH1 0xA0 SHL SUB NOT CALLER DUP2 PUSH1 0x3 SLOAD AND OR PUSH1 0x3 SSTORE PUSH1 0x2 DUP2 PUSH1 0x4 SLOAD AND OR PUSH1 0x4 SSTORE PUSH1 0x0 CALLER DUP2 MSTORE PUSH1 0x8 PUSH1 0x20 MSTORE PUSH1 0x40 DUP2 KECCAK256 PUSH1 0x1 PUSH1 0xFF NOT DUP3 SLOAD AND OR SWAP1 SSTORE PUSH1 0x5 SLOAD SWAP1 PUSH9 0x10000000000000000 DUP3 LT ISZERO PUSH3 0xB1 JUMPI PUSH1 0x1 DUP3 ADD DUP1 PUSH1 0x5 SSTORE DUP3 LT ISZERO PUSH3 0x9D JUMPI PUSH1 0x5 SWAP1 MSTORE PUSH32 0x36B6384B5ECA791C62761152D0C79BB0604C104A5FB6F4EB0703F3154BB3DB0 ADD DUP1 SLOAD SWAP1 SWAP2 AND CALLER OR SWAP1 SSTORE PUSH2 0x6889 SWAP1 DUP2 PUSH3 0xC6 DUP3 CODECOPY RETURN JUMPDEST PUSH4 0x4E487B71 PUSH1 0xE0 SHL DUP2 MSTORE PUSH1 0x32 PUSH1 0x4 MSTORE PUSH1 0x24 SWAP1 REVERT JUMPDEST PUSH4 0x4E487B71 PUSH1 0xE0 SHL DUP2 MSTORE PUSH1 0x41 PUSH1 0x4 MSTORE PUSH1 0x24 SWAP1 REVERT INVALID PUSH1 0x80 PUSH1 0x40 MSTORE PUSH1 0x4 CALLDATASIZE LT ISZERO PUSH2 0x12 JUMPI PUSH1 0x0 DUP1 REVERT JUMPDEST PUSH1 0x0 CALLDATALOAD PUSH1 0xE0 SHR DUP1 PUSH4 0x2B572D6 EQ PUSH2 0x3488 JUMPI DUP1 PUSH4 0x41CBB16 EQ PUSH2 0x3411 JUMPI DUP1 PUSH4 0x5D0AF0B EQ PUSH2 0x2FDA JUMPI DUP1 PUSH4 0xB0FE44C EQ PUSH2 0x2FA9 JUMPI DUP1 PUSH4 0xC2ED967 EQ PUSH2 0x2F37 JUMPI DUP1 PUSH4 0xF8472FF EQ PUSH2 0x2EFA JUMPI DUP1 PUSH4 0x103BB2B5 EQ PUSH2 0x2EBD JUMPI DUP1 PUSH4 0x12EE84EF EQ PUSH2 0x2DBA JUMPI DUP1 PUSH4 0x1C787F3E EQ PUSH2 0x2D9C JUMPI DUP1 PUSH4 0x1E98FD1C EQ PUSH2 0x2D41 JUMPI DUP1 PUSH4 0x27B50845 EQ PUSH2 0x1EDF JUMPI DUP1 PUSH4 0x30D51A32 EQ PUSH2 0x1EA3 JUMPI DUP1 PUSH4 0x350F31EA EQ PUSH2 0x1DBC JUMPI DUP1 PUSH4 0x39FEA8EF EQ PUSH2 0xFB4 JUMPI DUP1 PUSH4 0x3F81714C EQ PUSH2 0x1BFC JUMPI DUP1 PUSH4 0x51D04876 EQ PUSH2 0x1BD0 JUMPI DUP1 PUSH4 0x52023610 EQ PUSH2 0x14B9 JUMPI DUP1 PUSH4 0x598ED31A EQ PUSH2 0x12FD JUMPI DUP1 PUSH4 0x5A272403 EQ PUSH2 0x1231 JUMPI DUP1 PUSH4 0x5C8D05A4 EQ PUSH2 0x1190 JUMPI DUP1 PUSH4 0x5D977EE1 EQ PUSH2 0x10E2 JUMPI DUP1 PUSH4 0x673047BA EQ PUSH2 0x103C JUMPI DUP1 PUSH4 0x6F0243F3 EQ PUSH2 0x1013 JUMPI DUP1 PUSH4 0x70B9E002 EQ PUSH2 0xFEA JUMPI DUP1 PUSH4 0x7CD4F590 EQ PUSH2 0xFB4 JUMPI DUP1 PUSH4 0x7CF388EE EQ PUSH2 0xE78 JUMPI DUP1 PUSH4 0x7F7C0808 EQ PUSH2 0xE2C JUMPI DUP1 PUSH4 0x7F8C678F EQ PUSH2 0xDE2 JUMPI DUP1 PUSH4 0x94284CBD EQ PUSH2 0xDB9 JUMPI DUP1 PUSH4 0x951A5662 EQ PUSH2 0xD22 JUMPI DUP1 PUSH4 0x9D6FFCE0 EQ PUSH2 0xB42 JUMPI DUP1 PUSH4 0x9F89A4B2 EQ PUSH2 0xAE7 JUMPI DUP1 PUSH4 0xA2B2FB55 EQ PUSH2 0xA96 JUMPI DUP1 PUSH4 0xA559934E EQ PUSH2 0xA4A JUMPI DUP1 PUSH4 0xAAEDFCD1 EQ PUSH2 0x980 JUMPI DUP1 PUSH4 0xACFA58D2 EQ PUSH2 0x24D JUMPI DUP1 PUSH4 0xAF669326 EQ PUSH2 0x779 JUMPI DUP1 PUSH4 0xB11E3C1A EQ PUSH2 0x73A JUMPI DUP1 PUSH4 0xB358FA8E EQ PUSH2 0x6C6 JUMPI DUP1 PUSH4 0xB46B9A2D EQ PUSH2 0x679 JUMPI DUP1 PUSH4 0xB4A99A4E EQ PUSH2 0x650 JUMPI DUP1 PUSH4 0xBFBE3EF7 EQ PUSH2 0x624 JUMPI DUP1 PUSH4 0xCB4E841B EQ PUSH2 0x5FB JUMPI DUP1 PUSH4 0xD888E7DC EQ PUSH2 0x584 JUMPI DUP1 PUSH4 0xDA31F88A EQ PUSH2 0x3C0 JUMPI DUP1 PUSH4 0xDC9A04CF EQ PUSH2 0x374 JUMPI DUP1 PUSH4 0xDDCD6408 EQ PUSH2 0x328 JUMPI DUP1 PUSH4 0xF09610C7 EQ PUSH2 0x2D0 JUMPI DUP1 PUSH4 0xF29155EF EQ PUSH2 0x2A7 JUMPI DUP1 PUSH4 0xFB7EF377 EQ PUSH2 0x27E JUMPI PUSH4 0xFDD719B1 EQ PUSH2 0x24D JUMPI PUSH1 0x0 DUP1 REVERT JUMPDEST CALLVALUE PUSH2 0x279 JUMPI PUSH1 0x20 CALLDATASIZE PUSH1 0x3 NOT ADD SLT PUSH2 0x279 JUMPI PUSH1 0x4 CALLDATALOAD PUSH1 0x0 MSTORE PUSH1 0xF PUSH1 0x20 MSTORE PUSH1 0x20 PUSH1 0x40 PUSH1 0x0 KECCAK256 SLOAD PUSH1 0x40 MLOAD SWAP1 DUP2 MSTORE RETURN JUMPDEST PUSH1 0x0 DUP1 REVERT JUMPDEST CALLVALUE PUSH2 0x279 JUMPI PUSH1 0x0 CALLDATASIZE PUSH1 0x3 NOT ADD SLT PUSH2 0x279 JUMPI PUSH1 0x2 SLOAD PUSH1 0x40 MLOAD PUSH1 0x1 PUSH1 0x1 PUSH1 0xA0 SHL SUB SWAP1 SWAP2 AND DUP2 MSTORE PUSH1 0x20 SWAP1 RETURN JUMPDEST CALLVALUE PUSH2 0x279 JUMPI PUSH1 0x0 CALLDATASIZE PUSH1 0x3 NOT ADD SLT PUSH2 0x279 JUMPI PUSH1 0x17 SLOAD PUSH1 0x40 MLOAD PUSH1 0x1 PUSH1 0x1 PUSH1 0xA0 SHL SUB SWAP1 SWAP2 AND DUP2 MSTORE PUSH1 0x20 SWAP1 RETURN JUMPDEST CALLVALUE PUSH2 0x279 JUMPI PUSH1 0x40 CALLDATASIZE PUSH1 0x3 NOT ADD SLT PUSH2 0x279 JUMPI PUSH2 0x2E9 PUSH2 0x34D2 JUMP JUMPDEST PUSH1 0x1 PUSH1 0x1 PUSH1 0xA0 SHL SUB AND PUSH1 0x0 SWAP1 DUP2 MSTORE PUSH1 0xE PUSH1 0x20 MSTORE PUSH1 0x40 SWAP1 KECCAK256 DUP1 SLOAD PUSH1 0x24 CALLDATALOAD SWAP2 SWAP1 DUP3 LT ISZERO PUSH2 0x279 JUMPI PUSH1 0x20 SWAP2 PUSH2 0x31A SWAP2 PUSH2 0x3569 JUMP JUMPDEST SWAP1 SLOAD PUSH1 0x40 MLOAD SWAP2 PUSH1 0x3 SHL SHR DUP2 MSTORE RETURN JUMPDEST CALLVALUE PUSH2 0x279 JUMPI PUSH1 0x20 CALLDATASIZE PUSH1 0x3 NOT ADD SLT PUSH2 0x279 JUMPI PUSH2 0x341 PUSH2 0x34D2 JUMP JUMPDEST PUSH1 0x3 SLOAD PUSH1 0x1 PUSH1 0x1 PUSH1 0xA0 SHL SUB SWAP2 SWAP1 PUSH2 0x35B SWAP1 DUP4 AND CALLER EQ PUSH2 0x3E13 JUMP JUMPDEST AND PUSH1 0x1 PUSH1 0x1 PUSH1 0x60 SHL SUB PUSH1 0xA0 SHL PUSH1 0x4 SLOAD AND OR PUSH1 0x4 SSTORE PUSH1 0x0 DUP1 RETURN JUMPDEST CALLVALUE PUSH2 0x279 JUMPI PUSH1 0x20 CALLDATASIZE PUSH1 0x3 NOT ADD SLT PUSH2 0x279 JUMPI PUSH2 0x38D PUSH2 0x34D2 JUMP JUMPDEST PUSH1 0x3 SLOAD PUSH1 0x1 PUSH1 0x1 PUSH1 0xA0 SHL SUB SWAP2 SWAP1 PUSH2 0x3A7 SWAP1 DUP4 AND CALLER EQ PUSH2 0x3E13 JUMP JUMPDEST AND PUSH1 0x1 PUSH1 0x1 PUSH1 0x60 SHL SUB PUSH1 0xA0 SHL PUSH1 0x17 SLOAD AND OR PUSH1 0x17 SSTORE PUSH1 0x0 DUP1 RETURN JUMPDEST CALLVALUE PUSH2 0x279 JUMPI PUSH1 0x20 CALLDATASIZE PUSH1 0x3 NOT ADD SLT PUSH2 0x279 JUMPI PUSH1 0x4 CALLDATALOAD PUSH1 0x0 MSTORE PUSH1 0x9 PUSH1 0x20 MSTORE PUSH1 0x40 PUSH1 0x0 KECCAK256 PUSH1 0x40 MLOAD DUP1 PUSH2 0x3EF DUP2 DUP5 PUSH2 0x3AB3 JUMP JUMPDEST SUB PUSH2 0x3FA SWAP1 DUP3 PUSH2 0x360A JUMP JUMPDEST PUSH1 0x40 MLOAD SWAP2 DUP3 PUSH2 0x40C DUP2 PUSH1 0x1 DUP5 ADD PUSH2 0x3AB3 JUMP JUMPDEST SUB PUSH2 0x417 SWAP1 DUP5 PUSH2 0x360A JUMP JUMPDEST PUSH1 0x40 MLOAD DUP1 PUSH2 0x428 DUP2 PUSH1 0x2 DUP6 ADD PUSH2 0x3AB3 JUMP JUMPDEST SUB PUSH2 0x433 SWAP1 DUP3 PUSH2 0x360A JUMP JUMPDEST PUSH1 0x40 MLOAD DUP1 PUSH2 0x444 DUP2 PUSH1 0x3 DUP7 ADD PUSH2 0x3AB3 JUMP JUMPDEST SUB PUSH2 0x44F SWAP1 DUP3 PUSH2 0x360A JUMP JUMPDEST PUSH1 0x40 MLOAD DUP1 PUSH2 0x460 DUP2 PUSH1 0x4 DUP8 ADD PUSH2 0x3AB3 JUMP JUMPDEST SUB PUSH2 0x46B SWAP1 DUP3 PUSH2 0x360A JUMP JUMPDEST PUSH1 0x40 MLOAD SWAP1 DUP2 PUSH2 0x47D DUP2 PUSH1 0x5 DUP9 ADD PUSH2 0x3AB3 JUMP JUMPDEST SUB PUSH2 0x488 SWAP1 DUP4 PUSH2 0x360A JUMP JUMPDEST PUSH1 0x40 MLOAD SWAP3 DUP4 PUSH2 0x49A DUP2 PUSH1 0x6 DUP10 ADD PUSH2 0x3AB3 JUMP JUMPDEST SUB PUSH2 0x4A5 SWAP1 DUP6 PUSH2 0x360A JUMP JUMPDEST PUSH1 0x40 MLOAD SWAP5 DUP6 PUSH2 0x4B7 DUP2 PUSH1 0x7 DUP11 ADD PUSH2 0x3AB3 JUMP JUMPDEST SUB PUSH2 0x4C2 SWAP1 DUP8 PUSH2 0x360A JUMP JUMPDEST PUSH1 0x40 MLOAD DUP1 PUSH1 0x8 DUP2 SWAP10 ADD SWAP1 PUSH2 0x4D5 SWAP2 PUSH2 0x3AB3 JUMP JUMPDEST SUB PUSH2 0x4E0 SWAP1 DUP9 PUSH2 0x360A JUMP JUMPDEST PUSH1 0x40 MLOAD SWAP9 DUP10 SWAP9 PUSH2 0x120 DUP1 DUP12 MSTORE DUP11 ADD PUSH2 0x4F7 SWAP2 PUSH2 0x36C6 JUMP JUMPDEST DUP10 DUP2 SUB PUSH1 0x20 DUP12 ADD MSTORE PUSH2 0x508 SWAP2 PUSH2 0x36C6 JUMP JUMPDEST DUP9 DUP2 SUB PUSH1 0x40 DUP11 ADD MSTORE PUSH2 0x519 SWAP2 PUSH2 0x36C6 JUMP JUMPDEST DUP8 DUP2 SUB PUSH1 0x60 DUP10 ADD MSTORE PUSH2 0x52A SWAP2 PUSH2 0x36C6 JUMP JUMPDEST DUP7 DUP2 SUB PUSH1 0x80 DUP9 ADD MSTORE PUSH2 0x53B SWAP2 PUSH2 0x36C6 JUMP JUMPDEST DUP6 DUP2 SUB PUSH1 0xA0 DUP8 ADD MSTORE PUSH2 0x54C SWAP2 PUSH2 0x36C6 JUMP JUMPDEST DUP5 DUP2 SUB PUSH1 0xC0 DUP7 ADD MSTORE PUSH2 0x55D SWAP2 PUSH2 0x36C6 JUMP JUMPDEST DUP4 DUP2 SUB PUSH1 0xE0 DUP6 ADD MSTORE PUSH2 0x56E SWAP2 PUSH2 0x36C6 JUMP JUMPDEST DUP3 DUP2 SUB PUSH2 0x100 DUP5 ADD MSTORE PUSH2 0x580 SWAP2 PUSH2 0x36C6 JUMP JUMPDEST SUB SWAP1 RETURN JUMPDEST CALLVALUE PUSH2 0x279 JUMPI PUSH1 0x40 CALLDATASIZE PUSH1 0x3 NOT ADD SLT PUSH2 0x279 JUMPI PUSH1 0x4 CALLDATALOAD PUSH1 0x1 PUSH1 0x1 PUSH1 0x40 SHL SUB DUP2 GT PUSH2 0x279 JUMPI PUSH2 0x5B4 SWAP1 CALLDATASIZE SWAP1 PUSH1 0x4 ADD PUSH2 0x3646 JUMP JUMPDEST PUSH1 0x24 CALLDATALOAD PUSH1 0x2 DUP2 LT ISZERO PUSH2 0x279 JUMPI PUSH2 0x5E7 PUSH2 0x580 SWAP3 PUSH2 0x5D9 PUSH1 0x40 MLOAD SWAP4 DUP5 SWAP3 PUSH1 0x20 DUP5 ADD PUSH2 0x5010 JUMP JUMPDEST SUB PUSH1 0x1F NOT DUP2 ADD DUP4 MSTORE DUP3 PUSH2 0x360A JUMP JUMPDEST PUSH1 0x40 MLOAD SWAP2 DUP3 SWAP2 PUSH1 0x20 DUP4 MSTORE PUSH1 0x20 DUP4 ADD SWAP1 PUSH2 0x36C6 JUMP JUMPDEST CALLVALUE PUSH2 0x279 JUMPI PUSH1 0x20 CALLDATASIZE PUSH1 0x3 NOT ADD SLT PUSH2 0x279 JUMPI PUSH1 0x4 CALLDATALOAD PUSH1 0x0 SLOAD DUP2 LT ISZERO PUSH2 0x279 JUMPI PUSH2 0x31A PUSH1 0x20 SWAP2 PUSH2 0x34E8 JUMP JUMPDEST CALLVALUE PUSH2 0x279 JUMPI PUSH1 0x20 CALLDATASIZE PUSH1 0x3 NOT ADD SLT PUSH2 0x279 JUMPI PUSH1 0x4 CALLDATALOAD PUSH1 0x0 MSTORE PUSH1 0xC PUSH1 0x20 MSTORE PUSH1 0x20 PUSH1 0x40 PUSH1 0x0 KECCAK256 SLOAD PUSH1 0x40 MLOAD SWAP1 DUP2 MSTORE RETURN JUMPDEST CALLVALUE PUSH2 0x279 JUMPI PUSH1 0x0 CALLDATASIZE PUSH1 0x3 NOT ADD SLT PUSH2 0x279 JUMPI PUSH1 0x3 SLOAD PUSH1 0x40 MLOAD PUSH1 0x1 PUSH1 0x1 PUSH1 0xA0 SHL SUB SWAP1 SWAP2 AND DUP2 MSTORE PUSH1 0x20 SWAP1 RETURN JUMPDEST CALLVALUE PUSH2 0x279 JUMPI PUSH1 0x40 CALLDATASIZE PUSH1 0x3 NOT ADD SLT PUSH2 0x279 JUMPI PUSH1 0x4 CALLDATALOAD PUSH4 0xFFFFFFFF DUP2 AND DUP2 SUB PUSH2 0x279 JUMPI PUSH2 0x6A7 SWAP1 PUSH1 0x24 CALLDATALOAD SWAP1 PUSH2 0x4BB2 JUMP JUMPDEST SWAP1 PUSH2 0x580 PUSH1 0x40 MLOAD SWAP3 DUP4 SWAP3 ISZERO ISZERO DUP4 MSTORE PUSH1 0x40 PUSH1 0x20 DUP5 ADD MSTORE PUSH1 0x40 DUP4 ADD SWAP1 PUSH2 0x3DBE JUMP JUMPDEST CALLVALUE PUSH2 0x279 JUMPI PUSH1 0x60 CALLDATASIZE PUSH1 0x3 NOT ADD SLT PUSH2 0x279 JUMPI PUSH1 0x40 PUSH2 0x6E1 PUSH2 0x34D2 JUMP JUMPDEST PUSH1 0x1 PUSH1 0x1 PUSH1 0xA0 SHL SUB AND PUSH1 0x0 DUP2 DUP2 MSTORE PUSH1 0x13 PUSH1 0x20 SWAP1 DUP2 MSTORE DUP4 DUP3 KECCAK256 PUSH1 0x24 CALLDATALOAD DUP1 DUP5 MSTORE SWAP1 DUP3 MSTORE DUP5 DUP4 KECCAK256 PUSH1 0x44 CALLDATALOAD DUP1 DUP6 MSTORE SWAP1 DUP4 MSTORE DUP6 DUP5 KECCAK256 SLOAD SWAP5 DUP5 MSTORE PUSH1 0x12 DUP4 MSTORE DUP6 DUP5 KECCAK256 SWAP2 DUP5 MSTORE SWAP1 DUP3 MSTORE DUP5 DUP4 KECCAK256 SWAP1 DUP4 MSTORE DUP2 MSTORE SWAP1 DUP4 SWAP1 KECCAK256 SLOAD DUP4 MLOAD SWAP3 DUP4 MSTORE SWAP1 DUP3 ADD MSTORE RETURN JUMPDEST CALLVALUE PUSH2 0x279 JUMPI PUSH1 0x20 CALLDATASIZE PUSH1 0x3 NOT ADD SLT PUSH2 0x279 JUMPI PUSH1 0x1 PUSH1 0x1 PUSH1 0xA0 SHL SUB PUSH2 0x75B PUSH2 0x34D2 JUMP JUMPDEST AND PUSH1 0x0 MSTORE PUSH1 0x8 PUSH1 0x20 MSTORE PUSH1 0x20 PUSH1 0xFF PUSH1 0x40 PUSH1 0x0 KECCAK256 SLOAD AND PUSH1 0x40 MLOAD SWAP1 ISZERO ISZERO DUP2 MSTORE RETURN JUMPDEST CALLVALUE PUSH2 0x279 JUMPI PUSH2 0x787 CALLDATASIZE PUSH2 0x368D JUMP JUMPDEST PUSH1 0x0 DUP3 DUP2 MSTORE PUSH1 0xA PUSH1 0x20 SWAP1 DUP2 MSTORE PUSH1 0x40 DUP1 DUP4 KECCAK256 PUSH1 0x1 ADD SLOAD PUSH1 0x1 PUSH1 0x1 PUSH1 0xA0 SHL SUB SWAP1 DUP2 AND DUP1 DUP6 MSTORE PUSH1 0x13 DUP5 MSTORE DUP3 DUP6 KECCAK256 DUP8 DUP7 MSTORE DUP5 MSTORE DUP3 DUP6 KECCAK256 DUP7 DUP7 MSTORE DUP5 MSTORE DUP3 DUP6 KECCAK256 SLOAD PUSH1 0x4 DUP1 SLOAD PUSH1 0x2 SLOAD SWAP6 MLOAD PUSH4 0x23B872DD PUSH1 0xE0 SHL DUP2 MSTORE CALLER SWAP3 DUP2 ADD SWAP3 SWAP1 SWAP3 MSTORE SWAP5 DUP5 AND PUSH1 0x24 DUP3 ADD MSTORE PUSH1 0x44 DUP2 ADD DUP3 SWAP1 MSTORE SWAP5 SWAP8 SWAP1 SWAP7 SWAP6 SWAP1 SWAP5 SWAP2 SWAP4 SWAP2 SWAP3 DUP9 SWAP3 DUP5 SWAP3 PUSH1 0x64 SWAP3 DUP5 SWAP3 AND GAS CALL DUP1 ISZERO PUSH2 0x974 JUMPI PUSH2 0x947 JUMPI JUMPDEST POP DUP1 PUSH1 0x0 MSTORE PUSH1 0x14 DUP6 MSTORE PUSH1 0x40 PUSH1 0x0 KECCAK256 DUP3 PUSH1 0x0 MSTORE DUP6 MSTORE PUSH1 0x40 PUSH1 0x0 KECCAK256 DUP4 PUSH1 0x0 MSTORE DUP6 MSTORE PUSH1 0xFF PUSH1 0x2 PUSH1 0x40 PUSH1 0x0 KECCAK256 ADD SLOAD AND DUP2 PUSH1 0x0 MSTORE PUSH1 0x12 DUP7 MSTORE PUSH1 0x40 PUSH1 0x0 KECCAK256 DUP4 PUSH1 0x0 MSTORE DUP7 MSTORE PUSH1 0x40 PUSH1 0x0 KECCAK256 DUP5 PUSH1 0x0 MSTORE DUP7 MSTORE PUSH2 0x86F PUSH1 0x40 PUSH1 0x0 KECCAK256 SLOAD PUSH2 0x869 DUP4 PUSH2 0x4851 JUMP JUMPDEST SWAP1 PUSH2 0x6340 JUMP JUMPDEST DUP3 PUSH1 0x0 MSTORE PUSH1 0x12 DUP8 MSTORE PUSH1 0x40 PUSH1 0x0 KECCAK256 DUP5 PUSH1 0x0 MSTORE DUP8 MSTORE PUSH1 0x40 PUSH1 0x0 KECCAK256 DUP6 PUSH1 0x0 MSTORE DUP8 MSTORE PUSH1 0x40 PUSH1 0x0 KECCAK256 SSTORE DUP2 PUSH1 0x0 MSTORE PUSH1 0x12 DUP7 MSTORE PUSH1 0x40 PUSH1 0x0 KECCAK256 DUP4 PUSH1 0x0 MSTORE DUP7 MSTORE PUSH1 0x40 PUSH1 0x0 KECCAK256 DUP5 PUSH1 0x0 MSTORE DUP7 MSTORE PUSH1 0x40 PUSH1 0x0 KECCAK256 SLOAD SWAP5 PUSH1 0x4 DUP3 LT ISZERO PUSH2 0x931 JUMPI PUSH1 0x40 DUP1 MLOAD PUSH1 0x1 PUSH1 0x1 PUSH1 0xA0 SHL SUB SWAP5 SWAP1 SWAP5 AND DUP5 MSTORE PUSH1 0x20 DUP5 ADD SWAP5 SWAP1 SWAP5 MSTORE SWAP3 DUP3 ADD SWAP4 SWAP1 SWAP4 MSTORE TIMESTAMP PUSH1 0x60 DUP3 ADD MSTORE PUSH1 0x80 DUP2 ADD SWAP4 SWAP1 SWAP4 MSTORE PUSH1 0xA0 DUP4 ADD MSTORE PUSH1 0xC0 DUP3 ADD MSTORE PUSH1 0x0 PUSH1 0xE0 DUP3 ADD MSTORE PUSH32 0x7A349466F0B119934B2376706BF145E6FABE7EB4B8C4CBA23BB8F5DC9CB74B75 SWAP1 PUSH2 0x100 SWAP1 LOG1 PUSH1 0x40 MLOAD PUSH1 0x1 DUP2 MSTORE RETURN JUMPDEST PUSH4 0x4E487B71 PUSH1 0xE0 SHL PUSH1 0x0 MSTORE PUSH1 0x21 PUSH1 0x4 MSTORE PUSH1 0x24 PUSH1 0x0 REVERT JUMPDEST PUSH2 0x966 SWAP1 DUP7 RETURNDATASIZE DUP9 GT PUSH2 0x96D JUMPI JUMPDEST PUSH2 0x95E DUP2 DUP4 PUSH2 0x360A JUMP JUMPDEST DUP2 ADD SWAP1 PUSH2 0x4512 JUMP JUMPDEST POP DUP6 PUSH2 0x80E JUMP JUMPDEST POP RETURNDATASIZE PUSH2 0x954 JUMP JUMPDEST PUSH1 0x40 MLOAD RETURNDATASIZE PUSH1 0x0 DUP3 RETURNDATACOPY RETURNDATASIZE SWAP1 REVERT JUMPDEST CALLVALUE PUSH2 0x279 JUMPI PUSH1 0x60 CALLDATASIZE PUSH1 0x3 NOT ADD SLT PUSH2 0x279 JUMPI PUSH1 0x4 CALLDATALOAD PUSH1 0x1 PUSH1 0x1 PUSH1 0x40 SHL SUB DUP2 GT PUSH2 0x279 JUMPI PUSH2 0x9B0 SWAP1 CALLDATASIZE SWAP1 PUSH1 0x4 ADD PUSH2 0x3646 JUMP JUMPDEST PUSH1 0x17 SLOAD PUSH1 0x1 PUSH1 0x1 PUSH1 0xA0 SHL SUB AND CALLER SUB PUSH2 0x9DF JUMPI PUSH2 0x9D5 PUSH1 0x20 SWAP2 PUSH1 0x44 CALLDATALOAD SWAP1 PUSH1 0x24 CALLDATALOAD SWAP1 PUSH2 0x506A JUMP JUMPDEST PUSH1 0x40 MLOAD SWAP1 ISZERO ISZERO DUP2 MSTORE RETURN JUMPDEST PUSH1 0x40 MLOAD PUSH3 0x461BCD PUSH1 0xE5 SHL DUP2 MSTORE PUSH1 0x20 PUSH1 0x4 DUP3 ADD MSTORE PUSH1 0x37 PUSH1 0x24 DUP3 ADD MSTORE PUSH32 0x7B2266726F6D223A2022466943616D2E736F6C222C2022636F6465223A20332C PUSH1 0x44 DUP3 ADD MSTORE PUSH32 0x20226D657373616765223A20224F6E6C7920504F53227D000000000000000000 PUSH1 0x64 DUP3 ADD MSTORE PUSH1 0x84 SWAP1 REVERT JUMPDEST CALLVALUE PUSH2 0x279 JUMPI PUSH1 0x20 CALLDATASIZE PUSH1 0x3 NOT ADD SLT PUSH2 0x279 JUMPI PUSH2 0xA63 PUSH2 0x34D2 JUMP JUMPDEST PUSH1 0x3 SLOAD PUSH1 0x1 PUSH1 0x1 PUSH1 0xA0 SHL SUB SWAP2 SWAP1 PUSH2 0xA7D SWAP1 DUP4 AND CALLER EQ PUSH2 0x3E13 JUMP JUMPDEST AND PUSH1 0x1 PUSH1 0x1 PUSH1 0x60 SHL SUB PUSH1 0xA0 SHL PUSH1 0x2 SLOAD AND OR PUSH1 0x2 SSTORE PUSH1 0x0 DUP1 RETURN JUMPDEST CALLVALUE PUSH2 0x279 JUMPI PUSH1 0x20 CALLDATASIZE PUSH1 0x3 NOT ADD SLT PUSH2 0x279 JUMPI PUSH1 0x4 CALLDATALOAD PUSH1 0x16 SLOAD DUP2 LT ISZERO PUSH2 0x279 JUMPI PUSH1 0x20 SWAP1 PUSH1 0x16 PUSH1 0x0 MSTORE PUSH32 0xD833147D7DC355BA459FC788F669E58CFAF9DC25DDCD0702E87D69C7B5124289 ADD SLOAD PUSH1 0x40 MLOAD SWAP1 DUP2 MSTORE RETURN JUMPDEST CALLVALUE PUSH2 0x279 JUMPI PUSH1 0x20 CALLDATASIZE PUSH1 0x3 NOT ADD SLT PUSH2 0x279 JUMPI PUSH1 0x4 CALLDATALOAD PUSH1 0x5 SLOAD DUP2 LT ISZERO PUSH2 0x279 JUMPI PUSH1 0x5 PUSH1 0x0 MSTORE PUSH32 0x36B6384B5ECA791C62761152D0C79BB0604C104A5FB6F4EB0703F3154BB3DB0 ADD SLOAD PUSH1 0x40 MLOAD PUSH1 0x1 PUSH1 0x1 PUSH1 0xA0 SHL SUB SWAP1 SWAP2 AND DUP2 MSTORE PUSH1 0x20 SWAP1 RETURN JUMPDEST CALLVALUE PUSH2 0x279 JUMPI PUSH1 0x20 CALLDATASIZE PUSH1 0x3 NOT ADD SLT PUSH2 0x279 JUMPI PUSH2 0xB5B PUSH2 0x34D2 JUMP JUMPDEST CALLER PUSH1 0x0 MSTORE PUSH1 0x8 PUSH1 0x20 MSTORE PUSH2 0xB7A PUSH1 0x1 PUSH1 0xFF PUSH1 0x40 PUSH1 0x0 KECCAK256 SLOAD AND ISZERO ISZERO EQ PUSH2 0x3EFA JUMP JUMPDEST PUSH1 0x1 PUSH1 0x1 PUSH1 0xA0 SHL SUB DUP2 AND PUSH1 0x0 SWAP1 DUP2 MSTORE PUSH1 0xE PUSH1 0x20 MSTORE PUSH1 0x40 SWAP1 KECCAK256 SLOAD PUSH2 0xB9C SWAP1 PUSH2 0x4B62 JUMP JUMPDEST SWAP1 PUSH1 0x0 JUMPDEST PUSH1 0x1 PUSH1 0x1 PUSH1 0xA0 SHL SUB DUP3 AND PUSH1 0x0 SWAP1 DUP2 MSTORE PUSH1 0xE PUSH1 0x20 MSTORE PUSH1 0x40 SWAP1 KECCAK256 DUP1 SLOAD DUP3 LT ISZERO PUSH2 0xD0C JUMPI DUP2 PUSH2 0xBCB SWAP2 PUSH2 0x3569 JUMP JUMPDEST SWAP1 SLOAD SWAP1 PUSH1 0x3 SHL SHR PUSH1 0x0 MSTORE PUSH1 0xA PUSH1 0x20 MSTORE PUSH1 0x40 PUSH1 0x0 KECCAK256 PUSH1 0x40 MLOAD SWAP1 PUSH2 0xBEC DUP3 PUSH2 0x35B8 JUMP JUMPDEST DUP1 SLOAD DUP3 MSTORE PUSH1 0x1 DUP2 ADD SLOAD PUSH1 0x1 PUSH1 0x1 PUSH1 0xA0 SHL SUB AND PUSH1 0x20 DUP4 ADD MSTORE PUSH1 0x2 DUP2 ADD SLOAD PUSH2 0xC11 DUP2 PUSH2 0x3849 JUMP JUMPDEST SWAP1 PUSH2 0xC1F PUSH1 0x40 MLOAD SWAP3 DUP4 PUSH2 0x360A JUMP JUMPDEST DUP1 DUP3 MSTORE PUSH1 0x20 DUP3 ADD SWAP1 PUSH1 0x2 DUP5 ADD PUSH1 0x0 MSTORE PUSH1 0x20 PUSH1 0x0 KECCAK256 PUSH1 0x0 SWAP3 JUMPDEST DUP3 DUP5 LT PUSH2 0xC92 JUMPI POP POP POP POP DUP3 SWAP2 PUSH1 0xD SWAP2 PUSH1 0x40 PUSH2 0xC8D SWAP7 SWAP6 ADD MSTORE PUSH1 0x3 DUP2 ADD SLOAD PUSH1 0x60 DUP5 ADD MSTORE PUSH2 0xC66 PUSH1 0x4 DUP3 ADD PUSH2 0x48D2 JUMP JUMPDEST PUSH1 0x80 DUP5 ADD MSTORE ADD SLOAD PUSH1 0xA0 DUP3 ADD MSTORE PUSH2 0xC7C DUP3 DUP7 PUSH2 0x42B0 JUMP JUMPDEST MSTORE PUSH2 0xC87 DUP2 DUP6 PUSH2 0x42B0 JUMP JUMPDEST POP PUSH2 0x406B JUMP JUMPDEST PUSH2 0xBA0 JUMP JUMPDEST PUSH1 0x5 PUSH1 0x20 PUSH1 0x1 SWAP3 PUSH1 0x40 MLOAD PUSH2 0xCA5 DUP2 PUSH2 0x359D JUMP JUMPDEST DUP6 SLOAD DUP2 MSTORE DUP5 DUP7 ADD SLOAD DUP4 DUP3 ADD MSTORE PUSH2 0xCC5 PUSH1 0xFF PUSH1 0x2 DUP9 ADD SLOAD AND PUSH1 0x40 DUP4 ADD PUSH2 0x4493 JUMP JUMPDEST PUSH1 0x40 MLOAD PUSH2 0xCE0 DUP2 PUSH2 0xCD9 DUP2 PUSH1 0x3 DUP12 ADD PUSH2 0x3AB3 JUMP JUMPDEST SUB DUP3 PUSH2 0x360A JUMP JUMPDEST PUSH1 0x60 DUP3 ADD MSTORE PUSH1 0x40 MLOAD PUSH2 0xCF9 DUP2 PUSH2 0xCD9 DUP2 PUSH1 0x4 DUP12 ADD PUSH2 0x3AB3 JUMP JUMPDEST PUSH1 0x80 DUP3 ADD MSTORE DUP2 MSTORE ADD SWAP3 ADD SWAP4 ADD SWAP3 SWAP1 PUSH2 0xC37 JUMP JUMPDEST PUSH1 0x40 MLOAD PUSH1 0x20 DUP1 DUP3 MSTORE DUP2 SWAP1 PUSH2 0x580 SWAP1 DUP3 ADD DUP8 PUSH2 0x3DBE JUMP JUMPDEST CALLVALUE PUSH2 0x279 JUMPI PUSH1 0x60 CALLDATASIZE PUSH1 0x3 NOT ADD SLT PUSH2 0x279 JUMPI PUSH1 0x44 CALLDATALOAD PUSH1 0x1 PUSH1 0x1 PUSH1 0x40 SHL SUB DUP2 GT PUSH2 0x279 JUMPI CALLDATASIZE PUSH1 0x23 DUP3 ADD SLT ISZERO PUSH2 0x279 JUMPI DUP1 PUSH1 0x4 ADD CALLDATALOAD PUSH2 0xD5D DUP2 PUSH2 0x3849 JUMP JUMPDEST PUSH2 0xD6A PUSH1 0x40 MLOAD SWAP2 DUP3 PUSH2 0x360A JUMP JUMPDEST DUP2 DUP2 MSTORE PUSH1 0x20 SWAP3 PUSH1 0x24 DUP5 DUP4 ADD SWAP4 PUSH1 0x5 SHL DUP3 ADD ADD SWAP3 CALLDATASIZE DUP5 GT PUSH2 0x279 JUMPI PUSH1 0x24 DUP6 SWAP3 ADD SWAP1 JUMPDEST DUP5 DUP3 LT PUSH2 0xDAA JUMPI DUP3 PUSH2 0xDA2 DUP6 PUSH1 0x24 CALLDATALOAD PUSH1 0x4 CALLDATALOAD PUSH2 0x49F7 JUMP JUMPDEST PUSH1 0x40 MLOAD SWAP1 DUP2 MSTORE RETURN JUMPDEST DUP2 CALLDATALOAD DUP2 MSTORE SWAP1 DUP3 ADD SWAP1 DUP3 ADD PUSH2 0xD8B JUMP JUMPDEST CALLVALUE PUSH2 0x279 JUMPI PUSH1 0x0 CALLDATASIZE PUSH1 0x3 NOT ADD SLT PUSH2 0x279 JUMPI PUSH1 0x4 SLOAD PUSH1 0x40 MLOAD PUSH1 0x1 PUSH1 0x1 PUSH1 0xA0 SHL SUB SWAP1 SWAP2 AND DUP2 MSTORE PUSH1 0x20 SWAP1 RETURN JUMPDEST CALLVALUE PUSH2 0x279 JUMPI PUSH2 0xDF0 CALLDATASIZE PUSH2 0x368D JUMP JUMPDEST SWAP1 CALLER PUSH1 0x0 MSTORE PUSH1 0x8 PUSH1 0x20 MSTORE PUSH2 0xE10 PUSH1 0x1 PUSH1 0xFF PUSH1 0x40 PUSH1 0x0 KECCAK256 SLOAD AND ISZERO ISZERO EQ PUSH2 0x3EFA JUMP JUMPDEST PUSH1 0x0 MSTORE PUSH1 0xB PUSH1 0x20 MSTORE PUSH1 0x10 PUSH1 0x40 PUSH1 0x0 KECCAK256 ADD SSTORE PUSH1 0x20 PUSH1 0x40 MLOAD PUSH1 0x1 DUP2 MSTORE RETURN JUMPDEST CALLVALUE PUSH2 0x279 JUMPI PUSH1 0x20 CALLDATASIZE PUSH1 0x3 NOT ADD SLT PUSH2 0x279 JUMPI PUSH2 0xE45 PUSH2 0x488E JUMP JUMPDEST POP PUSH1 0x4 CALLDATALOAD PUSH1 0x0 MSTORE PUSH1 0xA PUSH1 0x20 MSTORE PUSH2 0x580 PUSH2 0xE64 PUSH1 0x4 PUSH1 0x40 PUSH1 0x0 KECCAK256 ADD PUSH2 0x48D2 JUMP JUMPDEST PUSH1 0x40 MLOAD SWAP2 DUP3 SWAP2 PUSH1 0x20 DUP4 MSTORE PUSH1 0x20 DUP4 ADD SWAP1 PUSH2 0x3C0D JUMP JUMPDEST CALLVALUE PUSH2 0x279 JUMPI PUSH1 0x20 DUP1 PUSH1 0x3 NOT CALLDATASIZE ADD SLT PUSH2 0x279 JUMPI PUSH2 0xE92 PUSH2 0x49BE JUMP JUMPDEST POP PUSH1 0x4 CALLDATALOAD PUSH1 0x0 MSTORE PUSH1 0xA DUP2 MSTORE PUSH1 0x40 PUSH1 0x0 KECCAK256 SWAP1 PUSH1 0x40 MLOAD SWAP2 PUSH2 0xEB0 DUP4 PUSH2 0x35B8 JUMP JUMPDEST DUP1 SLOAD DUP4 MSTORE PUSH1 0x1 DUP1 DUP3 ADD SLOAD PUSH1 0x1 PUSH1 0x1 PUSH1 0xA0 SHL SUB AND DUP4 DUP6 ADD MSTORE PUSH1 0x2 DUP1 DUP4 ADD DUP1 SLOAD SWAP2 SWAP3 SWAP2 SWAP1 PUSH2 0xEDB DUP3 PUSH2 0x3849 JUMP JUMPDEST SWAP4 PUSH2 0xEE9 PUSH1 0x40 MLOAD SWAP6 DUP7 PUSH2 0x360A JUMP JUMPDEST DUP3 DUP6 MSTORE PUSH1 0x0 SWAP2 DUP3 MSTORE DUP7 DUP3 KECCAK256 SWAP1 DUP8 DUP1 DUP8 ADD JUMPDEST DUP6 DUP6 LT PUSH2 0xF42 JUMPI DUP11 DUP3 PUSH1 0xD DUP12 DUP12 PUSH1 0x40 DUP6 ADD MSTORE PUSH1 0x3 DUP2 ADD SLOAD PUSH1 0x60 DUP6 ADD MSTORE PUSH2 0xF22 PUSH1 0x4 DUP3 ADD PUSH2 0x48D2 JUMP JUMPDEST PUSH1 0x80 DUP6 ADD MSTORE ADD SLOAD PUSH1 0xA0 DUP4 ADD MSTORE PUSH2 0x580 PUSH1 0x40 MLOAD SWAP3 DUP3 DUP5 SWAP4 DUP5 MSTORE DUP4 ADD SWAP1 PUSH2 0x3CCF JUMP JUMPDEST DUP7 SWAP2 PUSH1 0x5 SWAP2 PUSH1 0x40 MLOAD PUSH2 0xF53 DUP2 PUSH2 0x359D JUMP JUMPDEST DUP7 SLOAD DUP2 MSTORE DUP5 DUP8 ADD SLOAD DUP4 DUP3 ADD MSTORE PUSH2 0xF72 PUSH1 0xFF DUP8 DUP10 ADD SLOAD AND PUSH1 0x40 DUP4 ADD PUSH2 0x4493 JUMP JUMPDEST PUSH1 0x40 MLOAD PUSH2 0xF86 DUP2 PUSH2 0xCD9 DUP2 PUSH1 0x3 DUP13 ADD PUSH2 0x3AB3 JUMP JUMPDEST PUSH1 0x60 DUP3 ADD MSTORE PUSH1 0x40 MLOAD PUSH2 0xF9F DUP2 PUSH2 0xCD9 DUP2 PUSH1 0x4 DUP13 ADD PUSH2 0x3AB3 JUMP JUMPDEST PUSH1 0x80 DUP3 ADD MSTORE DUP2 MSTORE ADD SWAP4 ADD SWAP4 ADD SWAP3 SWAP2 DUP9 SWAP1 PUSH2 0xEFA JUMP JUMPDEST CALLVALUE PUSH2 0x279 JUMPI PUSH1 0x20 CALLDATASIZE PUSH1 0x3 NOT ADD SLT PUSH2 0x279 JUMPI PUSH1 0x4 CALLDATALOAD PUSH1 0x0 MSTORE PUSH1 0x15 PUSH1 0x20 MSTORE PUSH2 0x580 PUSH2 0xCD9 PUSH2 0x5E7 PUSH1 0x40 PUSH1 0x0 KECCAK256 PUSH1 0x40 MLOAD SWAP3 DUP4 DUP1 SWAP3 PUSH2 0x3AB3 JUMP JUMPDEST CALLVALUE PUSH2 0x279 JUMPI PUSH2 0x580 PUSH2 0x5D9 PUSH2 0x5E7 PUSH2 0x1001 CALLDATASIZE PUSH2 0x3A1F JUMP JUMPDEST PUSH1 0x40 SWAP5 SWAP2 SWAP5 MLOAD SWAP5 DUP6 SWAP4 PUSH1 0x20 DUP6 ADD PUSH2 0x4F8B JUMP JUMPDEST CALLVALUE PUSH2 0x279 JUMPI PUSH1 0x20 CALLDATASIZE PUSH1 0x3 NOT ADD SLT PUSH2 0x279 JUMPI PUSH1 0x4 CALLDATALOAD PUSH1 0x1 SLOAD DUP2 LT ISZERO PUSH2 0x279 JUMPI PUSH2 0x31A PUSH1 0x20 SWAP2 PUSH2 0x3532 JUMP JUMPDEST CALLVALUE PUSH2 0x279 JUMPI PUSH1 0x20 DUP1 PUSH1 0x3 NOT CALLDATASIZE ADD SLT PUSH2 0x279 JUMPI PUSH1 0x4 CALLDATALOAD PUSH1 0x0 MSTORE PUSH1 0x10 DUP2 MSTORE PUSH1 0x40 PUSH1 0x0 KECCAK256 PUSH1 0x40 MLOAD SWAP1 DUP2 DUP4 DUP3 SLOAD SWAP2 DUP3 DUP2 MSTORE ADD SWAP1 DUP2 SWAP3 PUSH1 0x0 MSTORE DUP5 PUSH1 0x0 KECCAK256 SWAP1 PUSH1 0x0 JUMPDEST DUP7 DUP3 DUP3 LT PUSH2 0x10CE JUMPI DUP7 DUP7 PUSH2 0x108E DUP3 DUP9 SUB DUP4 PUSH2 0x360A JUMP JUMPDEST PUSH1 0x40 MLOAD SWAP3 DUP4 SWAP3 DUP2 DUP5 ADD SWAP1 DUP3 DUP6 MSTORE MLOAD DUP1 SWAP2 MSTORE PUSH1 0x40 DUP5 ADD SWAP3 SWAP2 PUSH1 0x0 JUMPDEST DUP3 DUP2 LT PUSH2 0x10B7 JUMPI POP POP POP POP SUB SWAP1 RETURN JUMPDEST DUP4 MLOAD DUP6 MSTORE DUP7 SWAP6 POP SWAP4 DUP2 ADD SWAP4 SWAP3 DUP2 ADD SWAP3 PUSH1 0x1 ADD PUSH2 0x10A8 JUMP JUMPDEST DUP4 SLOAD DUP6 MSTORE SWAP1 SWAP4 ADD SWAP3 PUSH1 0x1 SWAP3 DUP4 ADD SWAP3 ADD PUSH2 0x1078 JUMP JUMPDEST CALLVALUE PUSH2 0x279 JUMPI PUSH1 0x20 CALLDATASIZE PUSH1 0x3 NOT ADD SLT PUSH2 0x279 JUMPI PUSH2 0x10FB PUSH2 0x41D8 JUMP JUMPDEST POP PUSH1 0x4 CALLDATALOAD PUSH1 0x0 MSTORE PUSH1 0xB PUSH1 0x20 MSTORE PUSH2 0x580 PUSH1 0x40 PUSH1 0x0 KECCAK256 PUSH1 0xFF PUSH1 0x11 PUSH1 0x40 MLOAD SWAP3 PUSH2 0x1120 DUP5 PUSH2 0x3581 JUMP JUMPDEST DUP1 SLOAD DUP5 MSTORE PUSH2 0x1130 PUSH1 0x1 DUP3 ADD PUSH2 0x3B49 JUMP JUMPDEST PUSH1 0x20 DUP6 ADD MSTORE PUSH1 0xB DUP2 ADD SLOAD PUSH1 0x40 DUP6 ADD MSTORE PUSH1 0xC DUP2 ADD SLOAD PUSH1 0x60 DUP6 ADD MSTORE PUSH1 0xD DUP2 ADD SLOAD PUSH1 0x80 DUP6 ADD MSTORE PUSH1 0xE DUP2 ADD SLOAD PUSH1 0xA0 DUP6 ADD MSTORE PUSH1 0xF DUP2 ADD SLOAD PUSH1 0xC0 DUP6 ADD MSTORE PUSH1 0x10 DUP2 ADD SLOAD PUSH1 0xE0 DUP6 ADD MSTORE ADD SLOAD AND ISZERO ISZERO PUSH2 0x100 DUP3 ADD MSTORE PUSH1 0x40 MLOAD SWAP2 DUP3 SWAP2 PUSH1 0x20 DUP4 MSTORE PUSH1 0x20 DUP4 ADD SWAP1 PUSH2 0x378A JUMP JUMPDEST CALLVALUE PUSH2 0x279 JUMPI PUSH1 0x20 CALLDATASIZE PUSH1 0x3 NOT ADD SLT PUSH2 0x279 JUMPI PUSH1 0x4 CALLDATALOAD PUSH1 0x0 MSTORE PUSH1 0xB PUSH1 0x20 MSTORE PUSH1 0x40 PUSH1 0x0 KECCAK256 DUP1 SLOAD PUSH2 0x11BF PUSH1 0x1 DUP4 ADD PUSH2 0x3B49 JUMP JUMPDEST SWAP2 PUSH1 0xB DUP2 ADD SLOAD SWAP1 PUSH1 0xC DUP2 ADD SLOAD SWAP1 PUSH1 0xD DUP2 ADD SLOAD PUSH1 0xE DUP3 ADD SLOAD PUSH1 0xF DUP4 ADD SLOAD SWAP2 PUSH1 0xFF PUSH1 0x11 PUSH1 0x10 DUP7 ADD SLOAD SWAP6 ADD SLOAD AND SWAP5 PUSH2 0x1206 PUSH1 0x40 MLOAD SWAP10 DUP11 SWAP10 DUP11 MSTORE PUSH2 0x120 DUP1 PUSH1 0x20 DUP13 ADD MSTORE DUP11 ADD SWAP1 PUSH2 0x36EB JUMP JUMPDEST SWAP7 PUSH1 0x40 DUP10 ADD MSTORE PUSH1 0x60 DUP9 ADD MSTORE PUSH1 0x80 DUP8 ADD MSTORE PUSH1 0xA0 DUP7 ADD MSTORE PUSH1 0xC0 DUP6 ADD MSTORE PUSH1 0xE0 DUP5 ADD MSTORE ISZERO ISZERO PUSH2 0x100 DUP4 ADD MSTORE SUB SWAP1 RETURN JUMPDEST CALLVALUE PUSH2 0x279 JUMPI PUSH1 0x20 CALLDATASIZE PUSH1 0x3 NOT ADD SLT PUSH2 0x279 JUMPI PUSH2 0x124A PUSH2 0x34D2 JUMP JUMPDEST PUSH1 0x3 SLOAD PUSH1 0x1 PUSH1 0x1 PUSH1 0xA0 SHL SUB SWAP2 SWAP1 PUSH2 0x1264 SWAP1 DUP4 AND CALLER EQ PUSH2 0x3E13 JUMP JUMPDEST AND DUP1 PUSH1 0x0 MSTORE PUSH1 0x8 PUSH1 0x20 MSTORE PUSH1 0x40 PUSH1 0x0 KECCAK256 PUSH1 0x1 PUSH1 0xFF NOT DUP3 SLOAD AND OR SWAP1 SSTORE PUSH1 0x5 SLOAD PUSH1 0x1 PUSH1 0x40 SHL DUP2 LT ISZERO PUSH2 0x12E7 JUMPI PUSH1 0x1 DUP2 ADD DUP1 PUSH1 0x5 SSTORE DUP2 LT ISZERO PUSH2 0x12D1 JUMPI PUSH32 0x36B6384B5ECA791C62761152D0C79BB0604C104A5FB6F4EB0703F3154BB3DB0 ADD DUP1 SLOAD PUSH1 0x1 PUSH1 0x1 PUSH1 0xA0 SHL SUB NOT AND SWAP1 SWAP2 OR SWAP1 SSTORE STOP JUMPDEST PUSH4 0x4E487B71 PUSH1 0xE0 SHL PUSH1 0x0 MSTORE PUSH1 0x32 PUSH1 0x4 MSTORE PUSH1 0x24 PUSH1 0x0 REVERT JUMPDEST PUSH4 0x4E487B71 PUSH1 0xE0 SHL PUSH1 0x0 MSTORE PUSH1 0x41 PUSH1 0x4 MSTORE PUSH1 0x24 PUSH1 0x0 REVERT JUMPDEST CALLVALUE PUSH2 0x279 JUMPI PUSH1 0x80 CALLDATASIZE PUSH1 0x3 NOT ADD SLT PUSH2 0x279 JUMPI PUSH1 0x1 PUSH1 0x1 PUSH1 0x40 SHL SUB PUSH1 0x4 CALLDATALOAD DUP2 DUP2 GT PUSH2 0x279 JUMPI PUSH2 0x132E SWAP1 CALLDATASIZE SWAP1 PUSH1 0x4 ADD PUSH2 0x3860 JUMP JUMPDEST SWAP1 PUSH1 0x24 CALLDATALOAD DUP2 DUP2 GT PUSH2 0x279 JUMPI PUSH2 0x1347 SWAP1 CALLDATASIZE SWAP1 PUSH1 0x4 ADD PUSH2 0x38F9 JUMP JUMPDEST PUSH1 0x44 CALLDATALOAD SWAP2 SWAP1 PUSH1 0x1 PUSH1 0x1 PUSH1 0xA0 SHL SUB DUP4 AND DUP4 SUB PUSH2 0x279 JUMPI PUSH1 0x64 CALLDATALOAD SWAP1 PUSH1 0x2 DUP3 LT ISZERO PUSH2 0x279 JUMPI DUP2 PUSH2 0x13B4 DUP6 SWAP3 PUSH2 0x1383 PUSH1 0x40 MLOAD SWAP8 DUP9 SWAP3 PUSH1 0x20 SWAP11 DUP12 DUP6 ADD PUSH2 0x4F8B JUMP JUMPDEST SUB SWAP6 PUSH2 0x1397 PUSH1 0x1F NOT SWAP8 DUP9 DUP2 ADD DUP4 MSTORE DUP3 PUSH2 0x360A JUMP JUMPDEST PUSH2 0x13A8 PUSH1 0x40 MLOAD SWAP6 DUP7 SWAP3 DUP11 DUP5 ADD PUSH2 0x5010 JUMP JUMPDEST SUB DUP7 DUP2 ADD DUP6 MSTORE DUP5 PUSH2 0x360A JUMP JUMPDEST PUSH1 0x40 MLOAD SWAP1 DUP7 DUP3 ADD SWAP3 PUSH1 0x1 PUSH1 0x1 PUSH1 0x60 SHL SUB NOT SWAP1 PUSH1 0x60 SHL AND DUP4 MSTORE PUSH1 0xF8 SHL PUSH1 0x34 DUP3 ADD MSTORE TIMESTAMP PUSH1 0x35 DUP3 ADD MSTORE PUSH1 0x35 DUP2 MSTORE PUSH2 0x13E7 DUP2 PUSH2 0x35EF JUMP JUMPDEST MLOAD SWAP1 KECCAK256 SWAP2 DUP3 PUSH1 0x0 MSTORE PUSH1 0x15 DUP6 MSTORE PUSH1 0x40 PUSH1 0x0 KECCAK256 SWAP2 DUP1 MLOAD SWAP2 DUP3 GT PUSH2 0x12E7 JUMPI PUSH2 0x1416 DUP3 PUSH2 0x1410 DUP6 SLOAD PUSH2 0x3A79 JUMP JUMPDEST DUP6 PUSH2 0x3F94 JUMP JUMPDEST DUP6 SWAP5 PUSH1 0x1F DUP4 GT PUSH1 0x1 EQ PUSH2 0x1458 JUMPI POP SWAP4 DUP2 SWAP3 SWAP4 SWAP5 PUSH1 0x0 SWAP3 PUSH2 0x144D JUMPI JUMPDEST POP POP DUP2 PUSH1 0x1 SHL SWAP2 PUSH1 0x0 NOT SWAP1 PUSH1 0x3 SHL SHR NOT AND OR SWAP1 SSTORE PUSH1 0x40 MLOAD SWAP1 DUP2 MSTORE RETURN JUMPDEST ADD MLOAD SWAP1 POP DUP6 DUP1 PUSH2 0x1431 JUMP JUMPDEST DUP3 AND SWAP5 DUP4 PUSH1 0x0 MSTORE DUP7 PUSH1 0x0 KECCAK256 SWAP2 PUSH1 0x0 JUMPDEST DUP9 DUP9 DUP3 LT PUSH2 0x14A3 JUMPI POP POP DUP4 PUSH1 0x1 SWAP6 SWAP7 SWAP8 LT PUSH2 0x148A JUMPI JUMPDEST POP POP POP DUP2 SHL ADD SWAP1 SSTORE PUSH2 0xDA2 JUMP JUMPDEST ADD MLOAD PUSH1 0x0 NOT PUSH1 0xF8 DUP5 PUSH1 0x3 SHL AND SHR NOT AND SWAP1 SSTORE DUP6 DUP1 DUP1 PUSH2 0x147D JUMP JUMPDEST PUSH1 0x1 DUP5 SWAP6 DUP3 SWAP4 SWAP6 DUP6 ADD MLOAD DUP2 SSTORE ADD SWAP5 ADD SWAP3 ADD PUSH2 0x1467 JUMP JUMPDEST CALLVALUE PUSH2 0x279 JUMPI PUSH2 0x1A0 CALLDATASIZE PUSH1 0x3 NOT ADD SLT PUSH2 0x279 JUMPI PUSH1 0x4 CALLDATALOAD PUSH1 0x1 PUSH1 0x1 PUSH1 0x40 SHL SUB DUP2 GT PUSH2 0x279 JUMPI PUSH2 0x14EA SWAP1 CALLDATASIZE SWAP1 PUSH1 0x4 ADD PUSH2 0x3646 JUMP JUMPDEST PUSH1 0x24 CALLDATALOAD PUSH1 0x1 PUSH1 0x1 PUSH1 0x40 SHL SUB DUP2 GT PUSH2 0x279 JUMPI PUSH2 0x1509 SWAP1 CALLDATASIZE SWAP1 PUSH1 0x4 ADD PUSH2 0x3646 JUMP JUMPDEST PUSH1 0x44 CALLDATALOAD PUSH1 0x1 PUSH1 0x1 PUSH1 0x40 SHL SUB DUP2 GT PUSH2 0x279 JUMPI PUSH2 0x1528 SWAP1 CALLDATASIZE SWAP1 PUSH1 0x4 ADD PUSH2 0x3646 JUMP JUMPDEST PUSH1 0x64 CALLDATALOAD PUSH1 0x1 PUSH1 0x1 PUSH1 0x40 SHL SUB DUP2 GT PUSH2 0x279 JUMPI PUSH2 0x1547 SWAP1 CALLDATASIZE SWAP1 PUSH1 0x4 ADD PUSH2 0x3646 JUMP JUMPDEST PUSH1 0x84 CALLDATALOAD PUSH1 0x1 PUSH1 0x1 PUSH1 0x40 SHL SUB DUP2 GT PUSH2 0x279 JUMPI PUSH2 0x1566 SWAP1 CALLDATASIZE SWAP1 PUSH1 0x4 ADD PUSH2 0x3646 JUMP JUMPDEST SWAP1 PUSH2 0x184 CALLDATALOAD SWAP3 DUP4 ISZERO ISZERO DUP5 SUB PUSH2 0x279 JUMPI CALLER PUSH1 0x0 MSTORE PUSH1 0x8 PUSH1 0x20 MSTORE PUSH2 0x1594 PUSH1 0x1 PUSH1 0xFF PUSH1 0x40 PUSH1 0x0 KECCAK256 SLOAD AND ISZERO ISZERO EQ PUSH2 0x3EFA JUMP JUMPDEST PUSH1 0x40 MLOAD PUSH1 0x20 DUP2 ADD SWAP1 PUSH2 0x15E6 PUSH1 0x20 DUP3 DUP2 PUSH2 0x15B3 DUP13 DUP8 DUP2 MLOAD SWAP4 DUP5 SWAP3 ADD PUSH2 0x36A3 JUMP JUMPDEST DUP11 MLOAD SWAP1 DUP3 ADD PUSH2 0x15C7 DUP3 DUP6 DUP4 ADD DUP7 DUP16 ADD PUSH2 0x36A3 JUMP JUMPDEST ADD DUP7 MLOAD SWAP1 PUSH2 0x15DA DUP3 DUP6 DUP4 ADD DUP7 DUP12 ADD PUSH2 0x36A3 JUMP JUMPDEST ADD SUB DUP1 DUP5 MSTORE ADD DUP3 PUSH2 0x360A JUMP JUMPDEST MLOAD SWAP1 KECCAK256 SWAP5 PUSH1 0x40 MLOAD SWAP7 PUSH2 0x15F7 DUP9 PUSH2 0x35D3 JUMP JUMPDEST DUP8 MSTORE PUSH1 0x20 DUP8 ADD MSTORE PUSH1 0x40 DUP7 ADD MSTORE PUSH1 0x60 DUP6 ADD MSTORE PUSH1 0x80 DUP5 ADD MSTORE PUSH1 0xA4 CALLDATALOAD PUSH1 0xA0 DUP5 ADD MSTORE PUSH1 0xC4 CALLDATALOAD PUSH1 0xC0 DUP5 ADD MSTORE PUSH1 0xE4 CALLDATALOAD PUSH1 0xE0 DUP5 ADD MSTORE PUSH2 0x104 CALLDATALOAD PUSH2 0x100 DUP5 ADD MSTORE PUSH2 0x124 CALLDATALOAD PUSH2 0x120 DUP5 ADD MSTORE PUSH1 0x40 MLOAD SWAP3 PUSH2 0x1646 DUP5 PUSH2 0x3581 JUMP JUMPDEST DUP3 DUP5 MSTORE PUSH1 0x20 DUP5 ADD MSTORE PUSH2 0x144 CALLDATALOAD PUSH1 0x40 DUP5 ADD MSTORE PUSH1 0x0 PUSH1 0x60 DUP5 ADD MSTORE PUSH1 0x0 PUSH1 0x80 DUP5 ADD MSTORE PUSH1 0x0 PUSH1 0xA0 DUP5 ADD MSTORE PUSH2 0x164 CALLDATALOAD PUSH1 0xC0 DUP5 ADD MSTORE TIMESTAMP PUSH1 0xE0 DUP5 ADD MSTORE DUP1 ISZERO ISZERO PUSH2 0x100 DUP5 ADD MSTORE DUP2 PUSH1 0x0 MSTORE PUSH1 0xB PUSH1 0x20 MSTORE PUSH1 0x40 PUSH1 0x0 KECCAK256 SWAP3 DUP1 MLOAD DUP5 SSTORE PUSH1 0x20 DUP2 ADD MLOAD SWAP4 DUP5 MLOAD DUP1 MLOAD SWAP1 PUSH1 0x1 PUSH1 0x1 PUSH1 0x40 SHL SUB DUP3 GT PUSH2 0x12E7 JUMPI DUP2 SWAP1 PUSH2 0x16CC DUP3 PUSH2 0x16C3 PUSH1 0x1 DUP8 ADD SLOAD PUSH2 0x3A79 JUMP JUMPDEST PUSH1 0x1 DUP8 ADD PUSH2 0x3F94 JUMP JUMPDEST PUSH1 0x20 SWAP1 PUSH1 0x1F DUP4 GT PUSH1 0x1 EQ PUSH2 0x1B5E JUMPI PUSH1 0x0 SWAP3 PUSH2 0x1B53 JUMPI JUMPDEST POP POP DUP2 PUSH1 0x1 SHL SWAP2 PUSH1 0x0 NOT SWAP1 PUSH1 0x3 SHL SHR NOT AND OR PUSH1 0x1 DUP3 ADD SSTORE JUMPDEST PUSH1 0x20 DUP6 ADD MLOAD DUP1 MLOAD SWAP1 PUSH1 0x1 PUSH1 0x1 PUSH1 0x40 SHL SUB DUP3 GT PUSH2 0x12E7 JUMPI DUP2 SWAP1 PUSH2 0x172C DUP3 PUSH2 0x1723 PUSH1 0x2 DUP8 ADD SLOAD PUSH2 0x3A79 JUMP JUMPDEST PUSH1 0x2 DUP8 ADD PUSH2 0x3F94 JUMP JUMPDEST PUSH1 0x20 SWAP1 PUSH1 0x1F DUP4 GT PUSH1 0x1 EQ PUSH2 0x1AE1 JUMPI PUSH1 0x0 SWAP3 PUSH2 0x1AD6 JUMPI JUMPDEST POP POP DUP2 PUSH1 0x1 SHL SWAP2 PUSH1 0x0 NOT SWAP1 PUSH1 0x3 SHL SHR NOT AND OR PUSH1 0x2 DUP3 ADD SSTORE JUMPDEST PUSH1 0x40 DUP6 ADD MLOAD DUP1 MLOAD SWAP1 PUSH1 0x1 PUSH1 0x1 PUSH1 0x40 SHL SUB DUP3 GT PUSH2 0x12E7 JUMPI DUP2 SWAP1 PUSH2 0x178C DUP3 PUSH2 0x1783 PUSH1 0x3 DUP8 ADD SLOAD PUSH2 0x3A79 JUMP JUMPDEST PUSH1 0x3 DUP8 ADD PUSH2 0x3F94 JUMP JUMPDEST PUSH1 0x20 SWAP1 PUSH1 0x1F DUP4 GT PUSH1 0x1 EQ PUSH2 0x1A64 JUMPI PUSH1 0x0 SWAP3 PUSH2 0x1A59 JUMPI JUMPDEST POP POP DUP2 PUSH1 0x1 SHL SWAP2 PUSH1 0x0 NOT SWAP1 PUSH1 0x3 SHL SHR NOT AND OR PUSH1 0x3 DUP3 ADD SSTORE JUMPDEST PUSH1 0x60 DUP6 ADD MLOAD DUP1 MLOAD SWAP1 PUSH1 0x1 PUSH1 0x1 PUSH1 0x40 SHL SUB DUP3 GT PUSH2 0x12E7 JUMPI DUP2 SWAP1 PUSH2 0x17EC DUP3 PUSH2 0x17E3 PUSH1 0x4 DUP8 ADD SLOAD PUSH2 0x3A79 JUMP JUMPDEST PUSH1 0x4 DUP8 ADD PUSH2 0x3F94 JUMP JUMPDEST PUSH1 0x20 SWAP1 PUSH1 0x1F DUP4 GT PUSH1 0x1 EQ PUSH2 0x19E7 JUMPI PUSH1 0x0 SWAP3 PUSH2 0x19DC JUMPI JUMPDEST POP POP DUP2 PUSH1 0x1 SHL SWAP2 PUSH1 0x0 NOT SWAP1 PUSH1 0x3 SHL SHR NOT AND OR PUSH1 0x4 DUP3 ADD SSTORE JUMPDEST PUSH1 0x80 DUP6 ADD MLOAD SWAP5 DUP6 MLOAD PUSH1 0x1 PUSH1 0x1 PUSH1 0x40 SHL SUB DUP2 GT PUSH2 0x12E7 JUMPI PUSH2 0x184A DUP2 PUSH2 0x1841 PUSH1 0x5 DUP7 ADD SLOAD PUSH2 0x3A79 JUMP JUMPDEST PUSH1 0x5 DUP7 ADD PUSH2 0x3F94 JUMP JUMPDEST PUSH1 0x20 PUSH1 0x1F DUP3 GT PUSH1 0x1 EQ PUSH2 0x1961 JUMPI PUSH1 0x11 SWAP3 DUP3 PUSH2 0x100 SWAP6 SWAP4 PUSH2 0x120 SWAP4 PUSH1 0x1 SWAP11 SWAP12 PUSH1 0x0 SWAP3 PUSH2 0x1956 JUMPI JUMPDEST POP POP PUSH1 0x0 NOT PUSH1 0x3 DUP4 SWAP1 SHL SHR NOT AND SWAP1 DUP10 SHL OR PUSH1 0x5 DUP5 ADD SSTORE JUMPDEST PUSH1 0xA0 DUP2 ADD MLOAD PUSH1 0x6 DUP5 ADD SSTORE PUSH1 0xC0 DUP2 ADD MLOAD PUSH1 0x7 DUP5 ADD SSTORE PUSH1 0xE0 DUP2 ADD MLOAD PUSH1 0x8 DUP5 ADD SSTORE DUP5 DUP2 ADD MLOAD PUSH1 0x9 DUP5 ADD SSTORE ADD MLOAD PUSH1 0xA DUP3 ADD SSTORE PUSH1 0x40 DUP5 ADD MLOAD PUSH1 0xB DUP3 ADD SSTORE PUSH1 0x60 DUP5 ADD MLOAD PUSH1 0xC DUP3 ADD SSTORE PUSH1 0x80 DUP5 ADD MLOAD PUSH1 0xD DUP3 ADD SSTORE PUSH1 0xA0 DUP5 ADD MLOAD PUSH1 0xE DUP3 ADD SSTORE PUSH1 0xC0 DUP5 ADD MLOAD PUSH1 0xF DUP3 ADD SSTORE PUSH1 0xE0 DUP5 ADD MLOAD PUSH1 0x10 DUP3 ADD SSTORE ADD SWAP2 ADD MLOAD ISZERO ISZERO PUSH1 0xFF DUP1 NOT DUP4 SLOAD AND SWAP2 AND OR SWAP1 SSTORE ISZERO ISZERO EQ PUSH2 0x1948 JUMPI JUMPDEST PUSH1 0x0 SLOAD PUSH1 0x1 PUSH1 0x40 SHL DUP2 LT ISZERO PUSH2 0x12E7 JUMPI PUSH2 0x192D DUP2 PUSH1 0x1 PUSH2 0x1944 SWAP4 ADD PUSH1 0x0 SSTORE PUSH2 0x34E8 JUMP JUMPDEST DUP2 SWAP4 SWAP2 SLOAD SWAP1 PUSH1 0x3 SHL SWAP2 DUP3 SHL SWAP2 PUSH1 0x0 NOT SWAP1 SHL NOT AND OR SWAP1 JUMP JUMPDEST SWAP1 SSTORE STOP JUMPDEST PUSH2 0x1951 DUP2 PUSH2 0x4023 JUMP JUMPDEST PUSH2 0x190B JUMP JUMPDEST ADD MLOAD SWAP1 POP DUP12 DUP1 PUSH2 0x1870 JUMP JUMPDEST PUSH1 0x5 DUP5 ADD PUSH1 0x0 MSTORE PUSH1 0x20 PUSH1 0x0 KECCAK256 SWAP8 PUSH1 0x0 JUMPDEST PUSH1 0x1F NOT DUP5 AND DUP2 LT PUSH2 0x19C4 JUMPI POP SWAP3 PUSH1 0x1 DUP4 DUP2 SWAP10 SWAP11 PUSH2 0x120 SWAP5 PUSH1 0x11 SWAP8 PUSH2 0x100 SWAP10 SWAP8 PUSH1 0x1F NOT DUP2 AND LT PUSH2 0x19AB JUMPI JUMPDEST POP POP POP DUP2 SHL ADD PUSH1 0x5 DUP5 ADD SSTORE PUSH2 0x1887 JUMP JUMPDEST ADD MLOAD PUSH1 0x0 NOT PUSH1 0xF8 DUP5 PUSH1 0x3 SHL AND SHR NOT AND SWAP1 SSTORE DUP12 DUP1 DUP1 PUSH2 0x199B JUMP JUMPDEST DUP3 DUP3 ADD MLOAD DUP11 SSTORE PUSH1 0x1 SWAP1 SWAP10 ADD SWAP9 PUSH1 0x20 SWAP3 DUP4 ADD SWAP3 ADD PUSH2 0x1971 JUMP JUMPDEST ADD MLOAD SWAP1 POP DUP8 DUP1 PUSH2 0x1802 JUMP JUMPDEST SWAP3 POP PUSH1 0x4 DUP5 ADD PUSH1 0x0 MSTORE PUSH1 0x20 PUSH1 0x0 KECCAK256 SWAP1 PUSH1 0x0 SWAP4 JUMPDEST PUSH1 0x1F NOT DUP5 AND DUP6 LT PUSH2 0x1A3E JUMPI PUSH1 0x1 SWAP5 POP DUP4 PUSH1 0x1F NOT DUP2 AND LT PUSH2 0x1A25 JUMPI JUMPDEST POP POP POP DUP2 SHL ADD PUSH1 0x4 DUP3 ADD SSTORE PUSH2 0x181A JUMP JUMPDEST ADD MLOAD PUSH1 0x0 NOT PUSH1 0xF8 DUP5 PUSH1 0x3 SHL AND SHR NOT AND SWAP1 SSTORE DUP8 DUP1 DUP1 PUSH2 0x1A15 JUMP JUMPDEST DUP2 DUP2 ADD MLOAD DUP4 SSTORE PUSH1 0x20 SWAP5 DUP6 ADD SWAP5 PUSH1 0x1 SWAP1 SWAP4 ADD SWAP3 SWAP1 SWAP2 ADD SWAP1 PUSH2 0x19FA JUMP JUMPDEST ADD MLOAD SWAP1 POP DUP8 DUP1 PUSH2 0x17A2 JUMP JUMPDEST SWAP3 POP PUSH1 0x3 DUP5 ADD PUSH1 0x0 MSTORE PUSH1 0x20 PUSH1 0x0 KECCAK256 SWAP1 PUSH1 0x0 SWAP4 JUMPDEST PUSH1 0x1F NOT DUP5 AND DUP6 LT PUSH2 0x1ABB JUMPI PUSH1 0x1 SWAP5 POP DUP4 PUSH1 0x1F NOT DUP2 AND LT PUSH2 0x1AA2 JUMPI JUMPDEST POP POP POP DUP2 SHL ADD PUSH1 0x3 DUP3 ADD SSTORE PUSH2 0x17BA JUMP JUMPDEST ADD MLOAD PUSH1 0x0 NOT PUSH1 0xF8 DUP5 PUSH1 0x3 SHL AND SHR NOT AND SWAP1 SSTORE DUP8 DUP1 DUP1 PUSH2 0x1A92 JUMP JUMPDEST DUP2 DUP2 ADD MLOAD DUP4 SSTORE PUSH1 0x20 SWAP5 DUP6 ADD SWAP5 PUSH1 0x1 SWAP1 SWAP4 ADD SWAP3 SWAP1 SWAP2 ADD SWAP1 PUSH2 0x1A77 JUMP JUMPDEST ADD MLOAD SWAP1 POP DUP8 DUP1 PUSH2 0x1742 JUMP JUMPDEST SWAP3 POP PUSH1 0x2 DUP5 ADD PUSH1 0x0 MSTORE PUSH1 0x20 PUSH1 0x0 KECCAK256 SWAP1 PUSH1 0x0 SWAP4 JUMPDEST PUSH1 0x1F NOT DUP5 AND DUP6 LT PUSH2 0x1B38 JUMPI PUSH1 0x1 SWAP5 POP DUP4 PUSH1 0x1F NOT DUP2 AND LT PUSH2 0x1B1F JUMPI JUMPDEST POP POP POP DUP2 SHL ADD PUSH1 0x2 DUP3 ADD SSTORE PUSH2 0x175A JUMP JUMPDEST ADD MLOAD PUSH1 0x0 NOT PUSH1 0xF8 DUP5 PUSH1 0x3 SHL AND SHR NOT AND SWAP1 SSTORE DUP8 DUP1 DUP1 PUSH2 0x1B0F JUMP JUMPDEST DUP2 DUP2 ADD MLOAD DUP4 SSTORE PUSH1 0x20 SWAP5 DUP6 ADD SWAP5 PUSH1 0x1 SWAP1 SWAP4 ADD SWAP3 SWAP1 SWAP2 ADD SWAP1 PUSH2 0x1AF4 JUMP JUMPDEST ADD MLOAD SWAP1 POP DUP8 DUP1 PUSH2 0x16E2 JUMP JUMPDEST SWAP3 POP PUSH1 0x1 DUP5 ADD PUSH1 0x0 MSTORE PUSH1 0x20 PUSH1 0x0 KECCAK256 SWAP1 PUSH1 0x0 SWAP4 JUMPDEST PUSH1 0x1F NOT DUP5 AND DUP6 LT PUSH2 0x1BB5 JUMPI PUSH1 0x1 SWAP5 POP DUP4 PUSH1 0x1F NOT DUP2 AND LT PUSH2 0x1B9C JUMPI JUMPDEST POP POP POP DUP2 SHL ADD PUSH1 0x1 DUP3 ADD SSTORE PUSH2 0x16FA JUMP JUMPDEST ADD MLOAD PUSH1 0x0 NOT PUSH1 0xF8 DUP5 PUSH1 0x3 SHL AND SHR NOT AND SWAP1 SSTORE DUP8 DUP1 DUP1 PUSH2 0x1B8C JUMP JUMPDEST DUP2 DUP2 ADD MLOAD DUP4 SSTORE PUSH1 0x20 SWAP5 DUP6 ADD SWAP5 PUSH1 0x1 SWAP1 SWAP4 ADD SWAP3 SWAP1 SWAP2 ADD SWAP1 PUSH2 0x1B71 JUMP JUMPDEST CALLVALUE PUSH2 0x279 JUMPI PUSH2 0x580 PUSH2 0x1BE1 CALLDATASIZE PUSH2 0x368D JUMP JUMPDEST PUSH1 0x40 MLOAD SWAP2 PUSH1 0x20 DUP4 ADD MSTORE PUSH1 0x40 DUP3 ADD MSTORE PUSH1 0x40 DUP2 MSTORE PUSH2 0x5E7 DUP2 PUSH2 0x35EF JUMP JUMPDEST CALLVALUE PUSH2 0x279 JUMPI PUSH1 0x60 DUP1 PUSH1 0x3 NOT CALLDATASIZE ADD SLT PUSH2 0x279 JUMPI PUSH1 0x24 CALLDATALOAD SWAP1 PUSH1 0x4 CALLDATALOAD PUSH1 0x0 PUSH1 0x44 CALLDATALOAD PUSH2 0x1C23 DUP2 PUSH2 0x4260 JUMP JUMPDEST SWAP5 PUSH1 0x0 SWAP4 PUSH1 0x0 SWAP3 PUSH1 0x1 SWAP2 DUP3 SLOAD SWAP4 JUMPDEST DUP5 DUP2 LT PUSH2 0x1CA3 JUMPI JUMPDEST POP POP POP POP POP PUSH2 0x1C47 DUP2 PUSH2 0x4260 JUMP JUMPDEST SWAP5 PUSH1 0x0 JUMPDEST DUP3 DUP2 LT PUSH2 0x1C7A JUMPI POP POP POP PUSH2 0x1C69 PUSH1 0x40 MLOAD SWAP5 DUP5 DUP7 SWAP6 DUP7 MSTORE DUP6 ADD SWAP1 PUSH2 0x37F4 JUMP JUMPDEST SWAP2 ISZERO ISZERO PUSH1 0x20 DUP5 ADD MSTORE PUSH1 0x40 DUP4 ADD MSTORE SUB SWAP1 RETURN JUMPDEST DUP1 PUSH2 0x1C88 PUSH2 0x1C9E SWAP3 DUP5 PUSH2 0x42B0 JUMP JUMPDEST MLOAD PUSH2 0x1C93 DUP3 DUP11 PUSH2 0x42B0 JUMP JUMPDEST MSTORE PUSH2 0xC87 DUP2 DUP10 PUSH2 0x42B0 JUMP JUMPDEST PUSH2 0x1C4B JUMP JUMPDEST PUSH2 0x1CAC DUP2 PUSH2 0x3532 JUMP JUMPDEST SWAP1 SLOAD PUSH1 0x3 SWAP2 DUP3 SHL SHR PUSH1 0x0 MSTORE PUSH1 0xB PUSH1 0x20 SWAP2 DUP2 DUP4 MSTORE PUSH1 0x10 SWAP1 DUP2 PUSH1 0x40 PUSH1 0x0 KECCAK256 ADD SLOAD DUP7 GT ISZERO PUSH2 0x1CE4 JUMPI JUMPDEST POP POP POP POP PUSH2 0x1CDF SWAP1 PUSH2 0x406B JUMP JUMPDEST PUSH2 0x1C31 JUMP JUMPDEST SWAP1 SWAP2 SWAP3 SWAP4 SWAP9 SWAP10 DUP7 DUP12 LT PUSH1 0x0 EQ PUSH2 0x1DA5 JUMPI POP SWAP2 PUSH1 0x11 SWAP2 PUSH1 0xFF SWAP4 PUSH2 0x1D05 DUP12 PUSH2 0x3532 JUMP JUMPDEST SWAP1 SLOAD SWAP2 SHL SHR PUSH1 0x0 MSTORE DUP2 DUP6 MSTORE PUSH1 0x40 PUSH1 0x0 KECCAK256 SWAP2 PUSH1 0x40 MLOAD SWAP6 PUSH2 0x1D23 DUP8 PUSH2 0x3581 JUMP JUMPDEST DUP4 SLOAD DUP8 MSTORE PUSH2 0x1D32 DUP11 DUP6 ADD PUSH2 0x3B49 JUMP JUMPDEST SWAP1 DUP8 ADD MSTORE DUP3 ADD SLOAD PUSH1 0x40 DUP7 ADD MSTORE PUSH1 0xC DUP3 ADD SLOAD DUP14 DUP7 ADD MSTORE PUSH1 0xD DUP3 ADD SLOAD PUSH1 0x80 DUP7 ADD MSTORE PUSH1 0xE DUP3 ADD SLOAD PUSH1 0xA0 DUP7 ADD MSTORE PUSH1 0xF DUP3 ADD SLOAD PUSH1 0xC0 DUP7 ADD MSTORE DUP2 ADD SLOAD PUSH1 0xE0 DUP6 ADD MSTORE ADD SLOAD AND ISZERO ISZERO PUSH2 0x100 DUP3 ADD MSTORE PUSH2 0x1D82 DUP8 DUP12 PUSH2 0x42B0 JUMP JUMPDEST MSTORE PUSH2 0x1D8D DUP7 DUP11 PUSH2 0x42B0 JUMP JUMPDEST POP PUSH2 0x1CDF PUSH2 0x1D9B DUP7 SWAP8 PUSH2 0x406B JUMP JUMPDEST SWAP6 SWAP1 DUP12 DUP1 DUP1 PUSH2 0x1CD2 JUMP JUMPDEST SWAP10 SWAP11 POP POP POP POP POP POP POP SWAP2 POP POP SWAP2 DUP6 DUP1 DUP1 DUP1 DUP1 PUSH2 0x1C39 JUMP JUMPDEST CALLVALUE PUSH2 0x279 JUMPI PUSH1 0x0 CALLDATASIZE PUSH1 0x3 NOT ADD SLT PUSH2 0x279 JUMPI PUSH1 0x1 DUP1 SLOAD PUSH2 0x1DDA DUP2 PUSH2 0x4260 JUMP JUMPDEST SWAP2 PUSH1 0x0 JUMPDEST DUP3 DUP2 LT PUSH2 0x1DFB JUMPI PUSH1 0x40 MLOAD PUSH1 0x20 DUP1 DUP3 MSTORE DUP2 SWAP1 PUSH2 0x580 SWAP1 DUP3 ADD DUP8 PUSH2 0x37F4 JUMP JUMPDEST DUP1 PUSH2 0x1E08 PUSH2 0x1E9E SWAP3 PUSH2 0x3532 JUMP JUMPDEST SWAP1 SLOAD SWAP1 PUSH1 0x3 SHL SHR PUSH1 0x0 MSTORE PUSH1 0xB PUSH1 0xFF PUSH1 0x11 PUSH1 0x20 SWAP3 DUP1 DUP5 MSTORE PUSH1 0x40 PUSH1 0x0 KECCAK256 SWAP1 PUSH1 0x40 MLOAD SWAP5 PUSH2 0x1E31 DUP7 PUSH2 0x3581 JUMP JUMPDEST DUP3 SLOAD DUP7 MSTORE PUSH2 0x1E40 DUP10 DUP5 ADD PUSH2 0x3B49 JUMP JUMPDEST SWAP1 DUP7 ADD MSTORE DUP2 ADD SLOAD PUSH1 0x40 DUP6 ADD MSTORE PUSH1 0xC DUP2 ADD SLOAD PUSH1 0x60 DUP6 ADD MSTORE PUSH1 0xD DUP2 ADD SLOAD PUSH1 0x80 DUP6 ADD MSTORE PUSH1 0xE DUP2 ADD SLOAD PUSH1 0xA0 DUP6 ADD MSTORE PUSH1 0xF DUP2 ADD SLOAD PUSH1 0xC0 DUP6 ADD MSTORE PUSH1 0x10 DUP2 ADD SLOAD PUSH1 0xE0 DUP6 ADD MSTORE ADD SLOAD AND ISZERO ISZERO PUSH2 0x100 DUP3 ADD MSTORE PUSH2 0x1E93 DUP3 DUP8 PUSH2 0x42B0 JUMP JUMPDEST MSTORE PUSH2 0xC87 DUP2 DUP7 PUSH2 0x42B0 JUMP JUMPDEST PUSH2 0x1DDE JUMP JUMPDEST CALLVALUE PUSH2 0x279 JUMPI PUSH1 0x20 CALLDATASIZE PUSH1 0x3 NOT ADD SLT PUSH2 0x279 JUMPI PUSH1 0x4 CALLDATALOAD PUSH1 0x1 PUSH1 0x1 PUSH1 0x40 SHL SUB DUP2 GT PUSH2 0x279 JUMPI PUSH2 0x1ED3 SWAP1 CALLDATASIZE SWAP1 PUSH1 0x4 ADD PUSH2 0x3646 JUMP JUMPDEST POP PUSH1 0x20 PUSH1 0x40 MLOAD PUSH1 0x1 DUP2 MSTORE RETURN JUMPDEST CALLVALUE PUSH2 0x279 JUMPI PUSH2 0x1EED CALLDATASIZE PUSH2 0x3A1F JUMP JUMPDEST DUP3 MLOAD PUSH1 0x40 MLOAD PUSH1 0x60 DUP4 SWAP1 SHL PUSH12 0xFFFFFFFFFFFFFFFFFFFFFFFF NOT AND PUSH1 0x20 DUP3 ADD SWAP1 DUP2 MSTORE PUSH1 0x34 DUP3 ADD SWAP3 SWAP1 SWAP3 MSTORE TIMESTAMP PUSH1 0x54 DUP3 ADD MSTORE SWAP3 SWAP4 SWAP2 SWAP3 PUSH2 0x1F2C DUP2 PUSH1 0x74 DUP2 ADD PUSH2 0x5D9 JUMP JUMPDEST MLOAD SWAP1 KECCAK256 SWAP1 PUSH1 0x0 PUSH2 0x1F3C DUP3 MLOAD PUSH2 0x42C4 JUMP JUMPDEST SWAP4 PUSH1 0x0 JUMPDEST DUP4 MLOAD DUP2 LT ISZERO PUSH2 0x2176 JUMPI PUSH2 0x1F53 DUP2 DUP6 PUSH2 0x42B0 JUMP JUMPDEST MLOAD DUP1 MLOAD PUSH1 0x0 MSTORE PUSH1 0xB PUSH1 0x20 MSTORE PUSH2 0x1F6E PUSH1 0x40 PUSH1 0x0 KECCAK256 SLOAD ISZERO ISZERO PUSH2 0x4336 JUMP JUMPDEST PUSH1 0x4 PUSH1 0x40 DUP3 ADD MLOAD LT DUP1 ISZERO PUSH2 0x931 JUMPI PUSH2 0x1F85 SWAP1 PUSH2 0x43DB JUMP JUMPDEST DUP1 MLOAD PUSH1 0x0 MSTORE PUSH1 0xB PUSH1 0x20 MSTORE PUSH1 0x40 PUSH1 0x0 KECCAK256 SWAP4 PUSH1 0xB DUP6 ADD SWAP1 PUSH2 0x1FA6 DUP3 SLOAD ISZERO ISZERO PUSH2 0x4427 JUMP JUMPDEST PUSH1 0x40 DUP4 ADD MLOAD PUSH1 0x4 DUP2 LT ISZERO PUSH2 0x931 JUMPI PUSH2 0x2160 JUMPI PUSH2 0x1FF2 PUSH2 0x1FF8 SWAP3 PUSH1 0x20 DUP6 ADD SWAP1 PUSH2 0x1FD0 DUP3 MLOAD DUP3 SLOAD PUSH2 0x40DD JUMP JUMPDEST SWAP1 SSTORE DUP1 MLOAD PUSH2 0x1FE3 PUSH1 0xC DUP11 ADD SWAP2 DUP3 SLOAD PUSH2 0x4473 JUMP JUMPDEST SWAP1 SSTORE PUSH1 0x6 DUP9 ADD SLOAD SWAP1 MLOAD SWAP1 PUSH2 0x4480 JUMP JUMPDEST SWAP1 PUSH2 0x4473 JUMP JUMPDEST SWAP4 JUMPDEST PUSH1 0x20 DUP3 ADD MLOAD PUSH1 0x6 DUP3 ADD SLOAD PUSH1 0x40 DUP5 ADD MLOAD SWAP4 PUSH1 0x4 DUP6 LT ISZERO PUSH2 0x931 JUMPI MLOAD PUSH1 0x2 DUP1 SLOAD PUSH1 0x40 MLOAD SWAP3 SWAP5 SWAP2 SWAP4 PUSH1 0x1 PUSH1 0x1 PUSH1 0xA0 SHL SUB SWAP2 DUP3 AND SWAP3 SWAP1 SWAP2 PUSH2 0x2036 DUP6 PUSH2 0x3581 JUMP JUMPDEST DUP11 AND DUP5 MSTORE PUSH1 0x20 DUP5 ADD MSTORE PUSH1 0x40 DUP4 ADD MSTORE PUSH1 0x60 SWAP6 PUSH2 0x2053 SWAP1 DUP8 DUP5 ADD PUSH2 0x4493 JUMP JUMPDEST PUSH1 0x80 SWAP4 TIMESTAMP DUP6 DUP5 ADD MSTORE PUSH1 0xA0 DUP4 ADD MSTORE CALLER PUSH1 0xC0 DUP4 ADD MSTORE PUSH1 0xE0 DUP3 ADD MSTORE PUSH2 0x100 DUP2 ADD PUSH1 0x0 SWAP1 MSTORE PUSH1 0x40 MLOAD PUSH2 0x2082 DUP2 SWAP3 DUP3 PUSH2 0x449F JUMP JUMPDEST SUB PUSH32 0xD0CB37444E42A97B69191186CAC71D299BF85A8F4472C9E55CD9F7EB26C5B1E SWAP2 LOG1 PUSH2 0x20B0 DUP6 DUP10 PUSH2 0x42B0 JUMP JUMPDEST MLOAD MLOAD SWAP4 PUSH2 0x20BD DUP7 DUP11 PUSH2 0x42B0 JUMP JUMPDEST MLOAD PUSH1 0x20 ADD MLOAD PUSH2 0x20CC DUP8 DUP12 PUSH2 0x42B0 JUMP JUMPDEST MLOAD PUSH1 0x40 ADD PUSH2 0x20D9 SWAP1 PUSH2 0x43CE JUMP JUMPDEST SWAP1 PUSH1 0x40 MLOAD SWAP7 PUSH2 0x20E7 DUP9 PUSH2 0x359D JUMP JUMPDEST DUP8 MSTORE PUSH1 0x20 DUP8 ADD MSTORE PUSH2 0x20FB SWAP1 PUSH1 0x40 DUP8 ADD PUSH2 0x4493 JUMP JUMPDEST PUSH1 0x40 MLOAD DUP1 DUP1 SWAP4 DUP7 ADD SWAP1 PUSH2 0x210D SWAP2 PUSH2 0x3AB3 JUMP JUMPDEST SUB PUSH2 0x2118 SWAP1 DUP4 PUSH2 0x360A JUMP JUMPDEST DUP5 ADD MSTORE PUSH1 0x40 MLOAD DUP1 PUSH1 0x1 DUP2 SWAP5 ADD SWAP1 PUSH2 0x212E SWAP2 PUSH2 0x3AB3 JUMP JUMPDEST SUB PUSH2 0x2139 SWAP1 DUP4 PUSH2 0x360A JUMP JUMPDEST DUP3 ADD MSTORE PUSH2 0x2146 DUP3 DUP9 PUSH2 0x42B0 JUMP JUMPDEST MSTORE PUSH2 0x2151 DUP2 DUP8 PUSH2 0x42B0 JUMP JUMPDEST POP PUSH2 0x215B SWAP1 PUSH2 0x406B JUMP JUMPDEST PUSH2 0x1F40 JUMP JUMPDEST PUSH2 0x2170 SWAP2 POP PUSH2 0x1FF2 DUP6 DUP10 DUP6 PUSH2 0x45B9 JUMP JUMPDEST SWAP4 PUSH2 0x1FFA JUMP JUMPDEST POP PUSH1 0x4 DUP1 SLOAD PUSH1 0x2 SLOAD PUSH1 0x40 MLOAD PUSH4 0x23B872DD PUSH1 0xE0 SHL DUP2 MSTORE CALLER SWAP4 DUP2 ADD SWAP4 SWAP1 SWAP4 MSTORE PUSH1 0x1 PUSH1 0x1 PUSH1 0xA0 SHL SUB SWAP1 DUP2 AND PUSH1 0x24 DUP5 ADD MSTORE PUSH1 0x44 DUP4 ADD DUP6 SWAP1 MSTORE SWAP3 SWAP8 SWAP7 SWAP5 POP SWAP1 SWAP2 PUSH1 0x20 SWAP2 DUP4 SWAP2 PUSH1 0x64 SWAP2 DUP4 SWAP2 PUSH1 0x0 SWAP2 AND GAS CALL SWAP1 DUP2 ISZERO PUSH2 0x974 JUMPI PUSH1 0x0 SWAP2 PUSH2 0x2D22 JUMPI JUMPDEST POP ISZERO PUSH2 0x2CE5 JUMPI PUSH1 0x40 MLOAD SWAP2 PUSH2 0x21E3 DUP4 PUSH2 0x35B8 JUMP JUMPDEST DUP4 DUP4 MSTORE PUSH1 0x1 DUP1 PUSH1 0xA0 SHL SUB DUP7 AND PUSH1 0x20 DUP5 ADD MSTORE PUSH1 0x40 DUP4 ADD MSTORE TIMESTAMP PUSH1 0x60 DUP4 ADD MSTORE DUP4 PUSH1 0x80 DUP4 ADD MSTORE PUSH1 0x5 PUSH1 0xA0 DUP4 ADD MSTORE DUP3 PUSH1 0x0 MSTORE PUSH1 0xA PUSH1 0x20 MSTORE PUSH1 0x40 PUSH1 0x0 KECCAK256 SWAP5 DUP3 MLOAD DUP7 SSTORE PUSH1 0x1 DUP7 ADD PUSH1 0x1 DUP1 PUSH1 0xA0 SHL SUB PUSH1 0x20 DUP6 ADD MLOAD AND PUSH1 0x1 PUSH1 0x1 PUSH1 0x60 SHL SUB PUSH1 0xA0 SHL DUP3 SLOAD AND OR SWAP1 SSTORE PUSH1 0x40 DUP4 ADD MLOAD DUP1 MLOAD SWAP1 PUSH1 0x1 PUSH1 0x40 SHL DUP3 GT PUSH2 0x12E7 JUMPI PUSH1 0x2 DUP9 ADD SLOAD DUP3 PUSH1 0x2 DUP11 ADD SSTORE DUP1 DUP4 LT PUSH2 0x2C5E JUMPI JUMPDEST POP PUSH1 0x20 ADD SWAP1 PUSH1 0x2 DUP9 ADD PUSH1 0x0 MSTORE PUSH1 0x20 PUSH1 0x0 KECCAK256 SWAP2 PUSH1 0x0 SWAP1 JUMPDEST DUP3 DUP3 LT PUSH2 0x2A5F JUMPI POP POP POP POP PUSH1 0x60 DUP4 ADD MLOAD PUSH1 0x3 DUP8 ADD SSTORE PUSH1 0x80 DUP4 ADD MLOAD DUP1 MLOAD DUP1 MLOAD SWAP1 PUSH1 0x1 PUSH1 0x1 PUSH1 0x40 SHL SUB DUP3 GT PUSH2 0x12E7 JUMPI DUP2 SWAP1 PUSH2 0x22C6 DUP3 PUSH2 0x22BD PUSH1 0x4 DUP14 ADD SLOAD PUSH2 0x3A79 JUMP JUMPDEST PUSH1 0x4 DUP14 ADD PUSH2 0x3F94 JUMP JUMPDEST PUSH1 0x20 SWAP1 PUSH1 0x1F DUP4 GT PUSH1 0x1 EQ PUSH2 0x29ED JUMPI PUSH1 0x0 SWAP3 PUSH2 0x29E2 JUMPI JUMPDEST POP POP DUP2 PUSH1 0x1 SHL SWAP2 PUSH1 0x0 NOT SWAP1 PUSH1 0x3 SHL SHR NOT AND OR PUSH1 0x4 DUP9 ADD SSTORE JUMPDEST PUSH1 0x20 DUP2 ADD MLOAD DUP1 MLOAD SWAP1 PUSH1 0x1 PUSH1 0x1 PUSH1 0x40 SHL SUB DUP3 GT PUSH2 0x12E7 JUMPI DUP2 SWAP1 PUSH2 0x2326 DUP3 PUSH2 0x231D PUSH1 0x5 DUP14 ADD SLOAD PUSH2 0x3A79 JUMP JUMPDEST PUSH1 0x5 DUP14 ADD PUSH2 0x3F94 JUMP JUMPDEST PUSH1 0x20 SWAP1 PUSH1 0x1F DUP4 GT PUSH1 0x1 EQ PUSH2 0x2970 JUMPI PUSH1 0x0 SWAP3 PUSH2 0x2965 JUMPI JUMPDEST POP POP DUP2 PUSH1 0x1 SHL SWAP2 PUSH1 0x0 NOT SWAP1 PUSH1 0x3 SHL SHR NOT AND OR PUSH1 0x5 DUP9 ADD SSTORE JUMPDEST PUSH1 0x40 DUP2 ADD MLOAD DUP1 MLOAD PUSH1 0x1 PUSH1 0x1 PUSH1 0x40 SHL SUB DUP2 GT PUSH2 0x12E7 JUMPI DUP1 PUSH1 0x6 DUP11 ADD SWAP3 PUSH2 0x2383 DUP3 PUSH2 0x237D DUP7 SLOAD PUSH2 0x3A79 JUMP JUMPDEST DUP7 PUSH2 0x3F94 JUMP JUMPDEST PUSH1 0x20 SWAP1 PUSH1 0x1F DUP4 GT PUSH1 0x1 EQ PUSH2 0x28FF JUMPI PUSH1 0x0 SWAP3 PUSH2 0x28F4 JUMPI JUMPDEST POP POP DUP2 PUSH1 0x1 SHL SWAP2 PUSH1 0x0 NOT SWAP1 PUSH1 0x3 SHL SHR NOT AND OR SWAP1 SSTORE JUMPDEST PUSH1 0x60 DUP2 ADD MLOAD DUP1 MLOAD PUSH1 0x1 PUSH1 0x1 PUSH1 0x40 SHL SUB DUP2 GT PUSH2 0x12E7 JUMPI DUP1 PUSH1 0x7 DUP11 ADD SWAP3 PUSH2 0x23D7 DUP3 PUSH2 0x237D DUP7 SLOAD PUSH2 0x3A79 JUMP JUMPDEST PUSH1 0x20 SWAP1 PUSH1 0x1F DUP4 GT PUSH1 0x1 EQ PUSH2 0x288E JUMPI PUSH1 0x0 SWAP3 PUSH2 0x2883 JUMPI JUMPDEST POP POP DUP2 PUSH1 0x1 SHL SWAP2 PUSH1 0x0 NOT SWAP1 PUSH1 0x3 SHL SHR NOT AND OR SWAP1 SSTORE JUMPDEST PUSH1 0x80 DUP2 ADD MLOAD DUP1 MLOAD PUSH1 0x1 PUSH1 0x1 PUSH1 0x40 SHL SUB DUP2 GT PUSH2 0x12E7 JUMPI DUP1 PUSH1 0x8 DUP11 ADD SWAP3 PUSH2 0x242B DUP3 PUSH2 0x237D DUP7 SLOAD PUSH2 0x3A79 JUMP JUMPDEST PUSH1 0x20 SWAP1 PUSH1 0x1F DUP4 GT PUSH1 0x1 EQ PUSH2 0x281D JUMPI PUSH1 0x0 SWAP3 PUSH2 0x2812 JUMPI JUMPDEST POP POP DUP2 PUSH1 0x1 SHL SWAP2 PUSH1 0x0 NOT SWAP1 PUSH1 0x3 SHL SHR NOT AND OR SWAP1 SSTORE JUMPDEST PUSH1 0xA0 DUP2 ADD MLOAD DUP1 MLOAD PUSH1 0x1 PUSH1 0x1 PUSH1 0x40 SHL SUB DUP2 GT PUSH2 0x12E7 JUMPI DUP1 PUSH1 0x9 DUP11 ADD SWAP3 PUSH2 0x247F DUP3 PUSH2 0x237D DUP7 SLOAD PUSH2 0x3A79 JUMP JUMPDEST PUSH1 0x20 SWAP1 PUSH1 0x1F DUP4 GT PUSH1 0x1 EQ PUSH2 0x27AC JUMPI PUSH1 0x0 SWAP3 PUSH2 0x27A1 JUMPI JUMPDEST POP POP DUP2 PUSH1 0x1 SHL SWAP2 PUSH1 0x0 NOT SWAP1 PUSH1 0x3 SHL SHR NOT AND OR SWAP1 SSTORE JUMPDEST PUSH1 0xC0 DUP2 ADD MLOAD DUP1 MLOAD PUSH1 0x1 PUSH1 0x1 PUSH1 0x40 SHL SUB DUP2 GT PUSH2 0x12E7 JUMPI DUP1 PUSH1 0xA DUP11 ADD SWAP3 PUSH2 0x24D3 DUP3 PUSH2 0x237D DUP7 SLOAD PUSH2 0x3A79 JUMP JUMPDEST PUSH1 0x20 SWAP1 PUSH1 0x1F DUP4 GT PUSH1 0x1 EQ PUSH2 0x273B JUMPI PUSH1 0x0 SWAP3 PUSH2 0x2730 JUMPI JUMPDEST POP POP DUP2 PUSH1 0x1 SHL SWAP2 PUSH1 0x0 NOT SWAP1 PUSH1 0x3 SHL SHR NOT AND OR SWAP1 SSTORE JUMPDEST PUSH1 0xE0 DUP2 ADD MLOAD DUP1 MLOAD PUSH1 0x1 PUSH1 0x1 PUSH1 0x40 SHL SUB DUP2 GT PUSH2 0x12E7 JUMPI PUSH1 0xB DUP10 ADD SWAP2 PUSH2 0x2526 DUP3 PUSH2 0x1410 DUP6 SLOAD PUSH2 0x3A79 JUMP JUMPDEST PUSH1 0x20 SWAP1 PUSH1 0x1F DUP4 GT PUSH1 0x1 EQ PUSH2 0x26C3 JUMPI PUSH2 0x100 SWAP5 SWAP4 SWAP3 SWAP2 PUSH1 0x0 SWAP2 DUP4 PUSH2 0x26B8 JUMPI JUMPDEST POP POP DUP2 PUSH1 0x1 SHL SWAP2 PUSH1 0x0 NOT SWAP1 PUSH1 0x3 SHL SHR NOT AND OR SWAP1 SSTORE JUMPDEST ADD MLOAD SWAP6 DUP7 MLOAD PUSH1 0x1 PUSH1 0x1 PUSH1 0x40 SHL SUB DUP2 GT PUSH2 0x12E7 JUMPI PUSH1 0x20 SWAP8 PUSH2 0x2589 DUP3 PUSH2 0x2580 PUSH1 0xC DUP7 ADD SLOAD PUSH2 0x3A79 JUMP JUMPDEST PUSH1 0xC DUP7 ADD PUSH2 0x3F94 JUMP JUMPDEST DUP9 SWAP1 PUSH1 0x1F DUP4 GT PUSH1 0x1 EQ PUSH2 0x262F JUMPI SWAP4 PUSH1 0x40 SWAP4 DUP4 PUSH1 0x0 DUP1 MLOAD PUSH1 0x20 PUSH2 0x6834 DUP4 CODECOPY DUP2 MLOAD SWAP2 MSTORE SWAP10 SWAP11 SWAP5 PUSH2 0x2601 SWAP5 PUSH2 0x2619 SWAP9 PUSH1 0x0 SWAP3 PUSH2 0x2624 JUMPI JUMPDEST POP POP DUP2 PUSH1 0x1 SHL SWAP2 PUSH1 0x0 NOT SWAP1 PUSH1 0x3 SHL SHR NOT AND OR PUSH1 0xC DUP3 ADD SSTORE JUMPDEST PUSH1 0xD PUSH1 0xA0 DUP10 ADD MLOAD SWAP2 ADD SSTORE PUSH1 0x1 DUP1 PUSH1 0xA0 SHL SUB DUP2 AND PUSH1 0x0 MSTORE PUSH1 0xE DUP11 MSTORE PUSH2 0x25FC DUP10 DUP6 PUSH1 0x0 KECCAK256 PUSH2 0x4049 JUMP JUMPDEST PUSH2 0x3E96 JUMP JUMPDEST PUSH2 0x260A DUP8 PUSH2 0x3FDB JUMP JUMPDEST ADD MLOAD SWAP2 PUSH1 0x40 MLOAD SWAP4 DUP5 SWAP4 DUP5 PUSH2 0x458B JUMP JUMPDEST SUB SWAP1 LOG1 PUSH1 0x40 MLOAD SWAP1 DUP2 MSTORE RETURN JUMPDEST ADD MLOAD SWAP1 POP DUP14 DUP1 PUSH2 0x25BD JUMP JUMPDEST SWAP1 PUSH1 0xC DUP5 ADD PUSH1 0x0 MSTORE DUP10 PUSH1 0x0 KECCAK256 SWAP2 PUSH1 0x0 JUMPDEST PUSH1 0x1F NOT DUP6 AND DUP2 LT PUSH2 0x26A1 JUMPI POP SWAP4 PUSH1 0x1 DUP5 PUSH2 0x2601 SWAP5 PUSH2 0x2619 SWAP9 SWAP5 PUSH1 0x40 SWAP9 PUSH1 0x0 DUP1 MLOAD PUSH1 0x20 PUSH2 0x6834 DUP4 CODECOPY DUP2 MLOAD SWAP2 MSTORE SWAP14 SWAP15 SWAP9 PUSH1 0x1F NOT DUP2 AND LT PUSH2 0x2688 JUMPI JUMPDEST POP POP POP DUP2 SHL ADD PUSH1 0xC DUP3 ADD SSTORE PUSH2 0x25D5 JUMP JUMPDEST ADD MLOAD PUSH1 0x0 NOT PUSH1 0xF8 DUP5 PUSH1 0x3 SHL AND SHR NOT AND SWAP1 SSTORE DUP14 DUP1 DUP1 PUSH2 0x2678 JUMP JUMPDEST SWAP2 SWAP3 DUP12 PUSH1 0x1 DUP2 SWAP3 DUP7 DUP6 ADD MLOAD DUP2 SSTORE ADD SWAP5 ADD SWAP3 ADD PUSH2 0x263F JUMP JUMPDEST ADD MLOAD SWAP1 POP DUP12 DUP1 PUSH2 0x2544 JUMP JUMPDEST SWAP1 PUSH1 0x1F NOT DUP4 AND SWAP2 DUP5 PUSH1 0x0 MSTORE PUSH1 0x20 PUSH1 0x0 KECCAK256 SWAP3 PUSH1 0x0 JUMPDEST DUP2 DUP2 LT PUSH2 0x2718 JUMPI POP SWAP2 PUSH1 0x1 SWAP4 SWAP2 DUP6 PUSH2 0x100 SWAP9 SWAP8 SWAP7 SWAP5 LT PUSH2 0x26FF JUMPI JUMPDEST POP POP POP DUP2 SHL ADD SWAP1 SSTORE PUSH2 0x2559 JUMP JUMPDEST ADD MLOAD PUSH1 0x0 NOT PUSH1 0xF8 DUP5 PUSH1 0x3 SHL AND SHR NOT AND SWAP1 SSTORE DUP12 DUP1 DUP1 PUSH2 0x26F2 JUMP JUMPDEST SWAP3 SWAP4 PUSH1 0x20 PUSH1 0x1 DUP2 SWAP3 DUP8 DUP7 ADD MLOAD DUP2 SSTORE ADD SWAP6 ADD SWAP4 ADD PUSH2 0x26D7 JUMP JUMPDEST ADD MLOAD SWAP1 POP DUP11 DUP1 PUSH2 0x24E9 JUMP JUMPDEST PUSH1 0x0 DUP6 DUP2 MSTORE PUSH1 0x20 DUP2 KECCAK256 SWAP4 POP PUSH1 0x1F NOT DUP6 AND SWAP1 JUMPDEST DUP2 DUP2 LT PUSH2 0x2789 JUMPI POP SWAP1 DUP5 PUSH1 0x1 SWAP6 SWAP5 SWAP4 SWAP3 LT PUSH2 0x2770 JUMPI JUMPDEST POP POP POP DUP2 SHL ADD SWAP1 SSTORE PUSH2 0x24FE JUMP JUMPDEST ADD MLOAD PUSH1 0x0 NOT PUSH1 0xF8 DUP5 PUSH1 0x3 SHL AND SHR NOT AND SWAP1 SSTORE DUP11 DUP1 DUP1 PUSH2 0x2763 JUMP JUMPDEST SWAP3 SWAP4 PUSH1 0x20 PUSH1 0x1 DUP2 SWAP3 DUP8 DUP7 ADD MLOAD DUP2 SSTORE ADD SWAP6 ADD SWAP4 ADD PUSH2 0x274D JUMP JUMPDEST ADD MLOAD SWAP1 POP DUP11 DUP1 PUSH2 0x2495 JUMP JUMPDEST PUSH1 0x0 DUP6 DUP2 MSTORE PUSH1 0x20 DUP2 KECCAK256 SWAP4 POP PUSH1 0x1F NOT DUP6 AND SWAP1 JUMPDEST DUP2 DUP2 LT PUSH2 0x27FA JUMPI POP SWAP1 DUP5 PUSH1 0x1 SWAP6 SWAP5 SWAP4 SWAP3 LT PUSH2 0x27E1 JUMPI JUMPDEST POP POP POP DUP2 SHL ADD SWAP1 SSTORE PUSH2 0x24AA JUMP JUMPDEST ADD MLOAD PUSH1 0x0 NOT PUSH1 0xF8 DUP5 PUSH1 0x3 SHL AND SHR NOT AND SWAP1 SSTORE DUP11 DUP1 DUP1 PUSH2 0x27D4 JUMP JUMPDEST SWAP3 SWAP4 PUSH1 0x20 PUSH1 0x1 DUP2 SWAP3 DUP8 DUP7 ADD MLOAD DUP2 SSTORE ADD SWAP6 ADD SWAP4 ADD PUSH2 0x27BE JUMP JUMPDEST ADD MLOAD SWAP1 POP DUP11 DUP1 PUSH2 0x2441 JUMP JUMPDEST PUSH1 0x0 DUP6 DUP2 MSTORE PUSH1 0x20 DUP2 KECCAK256 SWAP4 POP PUSH1 0x1F NOT DUP6 AND SWAP1 JUMPDEST DUP2 DUP2 LT PUSH2 0x286B JUMPI POP SWAP1 DUP5 PUSH1 0x1 SWAP6 SWAP5 SWAP4 SWAP3 LT PUSH2 0x2852 JUMPI JUMPDEST POP POP POP DUP2 SHL ADD SWAP1 SSTORE PUSH2 0x2456 JUMP JUMPDEST ADD MLOAD PUSH1 0x0 NOT PUSH1 0xF8 DUP5 PUSH1 0x3 SHL AND SHR NOT AND SWAP1 SSTORE DUP11 DUP1 DUP1 PUSH2 0x2845 JUMP JUMPDEST SWAP3 SWAP4 PUSH1 0x20 PUSH1 0x1 DUP2 SWAP3 DUP8 DUP7 ADD MLOAD DUP2 SSTORE ADD SWAP6 ADD SWAP4 ADD PUSH2 0x282F JUMP JUMPDEST ADD MLOAD SWAP1 POP DUP11 DUP1 PUSH2 0x23ED JUMP JUMPDEST PUSH1 0x0 DUP6 DUP2 MSTORE PUSH1 0x20 DUP2 KECCAK256 SWAP4 POP PUSH1 0x1F NOT DUP6 AND SWAP1 JUMPDEST DUP2 DUP2 LT PUSH2 0x28DC JUMPI POP SWAP1 DUP5 PUSH1 0x1 SWAP6 SWAP5 SWAP4 SWAP3 LT PUSH2 0x28C3 JUMPI JUMPDEST POP POP POP DUP2 SHL ADD SWAP1 SSTORE PUSH2 0x2402 JUMP JUMPDEST ADD MLOAD PUSH1 0x0 NOT PUSH1 0xF8 DUP5 PUSH1 0x3 SHL AND SHR NOT AND SWAP1 SSTORE DUP11 DUP1 DUP1 PUSH2 0x28B6 JUMP JUMPDEST SWAP3 SWAP4 PUSH1 0x20 PUSH1 0x1 DUP2 SWAP3 DUP8 DUP7 ADD MLOAD DUP2 SSTORE ADD SWAP6 ADD SWAP4 ADD PUSH2 0x28A0 JUMP JUMPDEST ADD MLOAD SWAP1 POP DUP11 DUP1 PUSH2 0x2399 JUMP JUMPDEST PUSH1 0x0 DUP6 DUP2 MSTORE PUSH1 0x20 DUP2 KECCAK256 SWAP4 POP PUSH1 0x1F NOT DUP6 AND SWAP1 JUMPDEST DUP2 DUP2 LT PUSH2 0x294D JUMPI POP SWAP1 DUP5 PUSH1 0x1 SWAP6 SWAP5 SWAP4 SWAP3 LT PUSH2 0x2934 JUMPI JUMPDEST POP POP POP DUP2 SHL ADD SWAP1 SSTORE PUSH2 0x23AE JUMP JUMPDEST ADD MLOAD PUSH1 0x0 NOT PUSH1 0xF8 DUP5 PUSH1 0x3 SHL AND SHR NOT AND SWAP1 SSTORE DUP11 DUP1 DUP1 PUSH2 0x2927 JUMP JUMPDEST SWAP3 SWAP4 PUSH1 0x20 PUSH1 0x1 DUP2 SWAP3 DUP8 DUP7 ADD MLOAD DUP2 SSTORE ADD SWAP6 ADD SWAP4 ADD PUSH2 0x2911 JUMP JUMPDEST ADD MLOAD SWAP1 POP DUP10 DUP1 PUSH2 0x233C JUMP JUMPDEST SWAP3 POP PUSH1 0x5 DUP11 ADD PUSH1 0x0 MSTORE PUSH1 0x20 PUSH1 0x0 KECCAK256 SWAP1 PUSH1 0x0 SWAP4 JUMPDEST PUSH1 0x1F NOT DUP5 AND DUP6 LT PUSH2 0x29C7 JUMPI PUSH1 0x1 SWAP5 POP DUP4 PUSH1 0x1F NOT DUP2 AND LT PUSH2 0x29AE JUMPI JUMPDEST POP POP POP DUP2 SHL ADD PUSH1 0x5 DUP9 ADD SSTORE PUSH2 0x2354 JUMP JUMPDEST ADD MLOAD PUSH1 0x0 NOT PUSH1 0xF8 DUP5 PUSH1 0x3 SHL AND SHR NOT AND SWAP1 SSTORE DUP10 DUP1 DUP1 PUSH2 0x299E JUMP JUMPDEST DUP2 DUP2 ADD MLOAD DUP4 SSTORE PUSH1 0x20 SWAP5 DUP6 ADD SWAP5 PUSH1 0x1 SWAP1 SWAP4 ADD SWAP3 SWAP1 SWAP2 ADD SWAP1 PUSH2 0x2983 JUMP JUMPDEST ADD MLOAD SWAP1 POP DUP10 DUP1 PUSH2 0x22DC JUMP JUMPDEST SWAP3 POP PUSH1 0x4 DUP11 ADD PUSH1 0x0 MSTORE PUSH1 0x20 PUSH1 0x0 KECCAK256 SWAP1 PUSH1 0x0 SWAP4 JUMPDEST PUSH1 0x1F NOT DUP5 AND DUP6 LT PUSH2 0x2A44 JUMPI PUSH1 0x1 SWAP5 POP DUP4 PUSH1 0x1F NOT DUP2 AND LT PUSH2 0x2A2B JUMPI JUMPDEST POP POP POP DUP2 SHL ADD PUSH1 0x4 DUP9 ADD SSTORE PUSH2 0x22F4 JUMP JUMPDEST ADD MLOAD PUSH1 0x0 NOT PUSH1 0xF8 DUP5 PUSH1 0x3 SHL AND SHR NOT AND SWAP1 SSTORE DUP10 DUP1 DUP1 PUSH2 0x2A1B JUMP JUMPDEST DUP2 DUP2 ADD MLOAD DUP4 SSTORE PUSH1 0x20 SWAP5 DUP6 ADD SWAP5 PUSH1 0x1 SWAP1 SWAP4 ADD SWAP3 SWAP1 SWAP2 ADD SWAP1 PUSH2 0x2A00 JUMP JUMPDEST DUP1 MLOAD DUP1 MLOAD DUP6 SSTORE PUSH1 0x20 DUP2 ADD MLOAD PUSH1 0x1 DUP7 ADD SSTORE PUSH1 0x40 DUP2 ADD MLOAD PUSH1 0x4 DUP2 LT ISZERO PUSH2 0x931 JUMPI PUSH2 0x2A8A SWAP1 PUSH1 0x2 DUP8 ADD PUSH2 0x4573 JUMP JUMPDEST PUSH1 0x60 DUP2 ADD MLOAD DUP1 MLOAD SWAP1 PUSH1 0x1 PUSH1 0x1 PUSH1 0x40 SHL SUB DUP3 GT PUSH2 0x12E7 JUMPI PUSH2 0x2ABA DUP3 PUSH2 0x2AB1 PUSH1 0x3 DUP11 ADD SLOAD PUSH2 0x3A79 JUMP JUMPDEST PUSH1 0x3 DUP11 ADD PUSH2 0x3F94 JUMP JUMPDEST PUSH1 0x20 SWAP1 PUSH1 0x1F DUP4 GT PUSH1 0x1 EQ PUSH2 0x2BEB JUMPI PUSH1 0x80 SWAP4 SWAP3 SWAP2 PUSH1 0x0 SWAP2 DUP4 PUSH2 0x2BE0 JUMPI JUMPDEST POP POP DUP2 PUSH1 0x1 SHL SWAP2 PUSH1 0x0 NOT SWAP1 PUSH1 0x3 SHL SHR NOT AND OR PUSH1 0x3 DUP8 ADD SSTORE JUMPDEST ADD MLOAD DUP1 MLOAD SWAP1 PUSH1 0x1 PUSH1 0x1 PUSH1 0x40 SHL SUB DUP3 GT PUSH2 0x12E7 JUMPI PUSH2 0x2B1B DUP3 PUSH2 0x2B12 PUSH1 0x4 DUP10 ADD SLOAD PUSH2 0x3A79 JUMP JUMPDEST PUSH1 0x4 DUP10 ADD PUSH2 0x3F94 JUMP JUMPDEST PUSH1 0x20 SWAP1 PUSH1 0x1F DUP4 GT PUSH1 0x1 EQ PUSH2 0x2B6A JUMPI SWAP3 DUP3 PUSH1 0x5 SWAP4 PUSH1 0x20 SWAP4 PUSH1 0x1 SWAP7 PUSH1 0x0 SWAP3 PUSH2 0x2B5F JUMPI JUMPDEST POP POP PUSH1 0x0 NOT PUSH1 0x3 DUP4 SWAP1 SHL SHR NOT AND SWAP1 DUP6 SHL OR PUSH1 0x4 DUP9 ADD SSTORE JUMPDEST ADD SWAP5 ADD SWAP2 ADD SWAP1 SWAP3 PUSH2 0x227D JUMP JUMPDEST ADD MLOAD SWAP1 POP DUP16 DUP1 PUSH2 0x2B3C JUMP JUMPDEST SWAP1 PUSH1 0x4 DUP8 ADD PUSH1 0x0 MSTORE PUSH1 0x20 PUSH1 0x0 KECCAK256 SWAP2 PUSH1 0x0 JUMPDEST PUSH1 0x1F NOT DUP6 AND DUP2 LT PUSH2 0x2BC8 JUMPI POP DUP4 PUSH1 0x20 SWAP4 PUSH1 0x1 SWAP7 SWAP4 DUP8 SWAP4 PUSH1 0x5 SWAP8 PUSH1 0x1F NOT DUP2 AND LT PUSH2 0x2BAF JUMPI JUMPDEST POP POP POP DUP2 SHL ADD PUSH1 0x4 DUP9 ADD SSTORE PUSH2 0x2B53 JUMP JUMPDEST ADD MLOAD PUSH1 0x0 NOT PUSH1 0xF8 DUP5 PUSH1 0x3 SHL AND SHR NOT AND SWAP1 SSTORE DUP16 DUP1 DUP1 PUSH2 0x2B9F JUMP JUMPDEST SWAP2 SWAP3 PUSH1 0x20 PUSH1 0x1 DUP2 SWAP3 DUP7 DUP6 ADD MLOAD DUP2 SSTORE ADD SWAP5 ADD SWAP3 ADD PUSH2 0x2B7B JUMP JUMPDEST ADD MLOAD SWAP1 POP DUP15 DUP1 PUSH2 0x2AD6 JUMP JUMPDEST SWAP1 PUSH1 0x3 DUP9 ADD PUSH1 0x0 MSTORE PUSH1 0x20 PUSH1 0x0 KECCAK256 SWAP2 PUSH1 0x0 JUMPDEST PUSH1 0x1F NOT DUP6 AND DUP2 LT PUSH2 0x2C46 JUMPI POP SWAP2 DUP4 SWAP2 PUSH1 0x1 SWAP4 PUSH1 0x80 SWAP7 SWAP6 PUSH1 0x1F NOT DUP2 AND LT PUSH2 0x2C2D JUMPI JUMPDEST POP POP POP DUP2 SHL ADD PUSH1 0x3 DUP8 ADD SSTORE PUSH2 0x2AEE JUMP JUMPDEST ADD MLOAD PUSH1 0x0 NOT PUSH1 0xF8 DUP5 PUSH1 0x3 SHL AND SHR NOT AND SWAP1 SSTORE DUP15 DUP1 DUP1 PUSH2 0x2C1D JUMP JUMPDEST SWAP2 SWAP3 PUSH1 0x20 PUSH1 0x1 DUP2 SWAP3 DUP7 DUP6 ADD MLOAD DUP2 SSTORE ADD SWAP5 ADD SWAP3 ADD PUSH2 0x2BFC JUMP JUMPDEST PUSH1 0x5 DUP2 DUP2 MUL DIV DUP2 SUB PUSH2 0x2CCF JUMPI PUSH1 0x5 DUP4 DUP2 MUL DIV DUP4 SUB PUSH2 0x2CCF JUMPI PUSH1 0x2 DUP10 ADD PUSH1 0x0 MSTORE PUSH1 0x20 PUSH1 0x0 KECCAK256 DUP4 PUSH1 0x5 MUL DUP2 ADD JUMPDEST DUP3 PUSH1 0x5 MUL DUP3 ADD DUP2 LT PUSH2 0x2C9C JUMPI POP POP PUSH2 0x2267 JUMP JUMPDEST DUP1 PUSH1 0x0 PUSH1 0x5 SWAP3 SSTORE PUSH1 0x0 PUSH1 0x1 DUP3 ADD SSTORE PUSH1 0x0 PUSH1 0x2 DUP3 ADD SSTORE PUSH2 0x2CBD PUSH1 0x3 DUP3 ADD PUSH2 0x452A JUMP JUMPDEST PUSH2 0x2CC9 PUSH1 0x4 DUP3 ADD PUSH2 0x452A JUMP JUMPDEST ADD PUSH2 0x2C89 JUMP JUMPDEST PUSH4 0x4E487B71 PUSH1 0xE0 SHL PUSH1 0x0 MSTORE PUSH1 0x11 PUSH1 0x4 MSTORE PUSH1 0x24 PUSH1 0x0 REVERT JUMPDEST PUSH1 0x40 MLOAD PUSH3 0x461BCD PUSH1 0xE5 SHL DUP2 MSTORE PUSH1 0x20 PUSH1 0x4 DUP3 ADD MSTORE PUSH1 0x15 PUSH1 0x24 DUP3 ADD MSTORE PUSH21 0x151BDAD95B881D1C985B9CD9995C8819985A5B1959 PUSH1 0x5A SHL PUSH1 0x44 DUP3 ADD MSTORE PUSH1 0x64 SWAP1 REVERT JUMPDEST PUSH2 0x2D3B SWAP2 POP PUSH1 0x20 RETURNDATASIZE PUSH1 0x20 GT PUSH2 0x96D JUMPI PUSH2 0x95E DUP2 DUP4 PUSH2 0x360A JUMP JUMPDEST DUP7 PUSH2 0x21D0 JUMP JUMPDEST CALLVALUE PUSH2 0x279 JUMPI PUSH1 0x20 CALLDATASIZE PUSH1 0x3 NOT ADD SLT PUSH2 0x279 JUMPI PUSH1 0x4 CALLDATALOAD PUSH1 0x6 SLOAD DUP2 LT ISZERO PUSH2 0x279 JUMPI PUSH1 0x6 PUSH1 0x0 MSTORE PUSH32 0xF652222313E28459528D920B65115C16C04F3EFC82AAEDC97BE59F3F377C0D3F ADD SLOAD PUSH1 0x40 MLOAD PUSH1 0x1 PUSH1 0x1 PUSH1 0xA0 SHL SUB SWAP1 SWAP2 AND DUP2 MSTORE PUSH1 0x20 SWAP1 RETURN JUMPDEST CALLVALUE PUSH2 0x279 JUMPI PUSH1 0x0 CALLDATASIZE PUSH1 0x3 NOT ADD SLT PUSH2 0x279 JUMPI PUSH1 0x20 PUSH1 0x7 SLOAD PUSH1 0x40 MLOAD SWAP1 DUP2 MSTORE RETURN JUMPDEST CALLVALUE PUSH2 0x279 JUMPI PUSH1 0x0 CALLDATASIZE PUSH1 0x3 NOT ADD SLT PUSH2 0x279 JUMPI CALLER PUSH1 0x0 MSTORE PUSH1 0x20 PUSH1 0x8 DUP2 MSTORE PUSH1 0x1 SWAP1 PUSH1 0xFF SWAP2 PUSH2 0x2DEF DUP2 DUP5 PUSH1 0x40 PUSH1 0x0 KECCAK256 SLOAD AND ISZERO ISZERO EQ PUSH2 0x3EFA JUMP JUMPDEST PUSH1 0x0 SLOAD SWAP1 PUSH2 0x2DFC DUP3 PUSH2 0x4260 JUMP JUMPDEST SWAP4 PUSH1 0x0 JUMPDEST DUP4 DUP2 LT PUSH2 0x2E1A JUMPI PUSH1 0x40 MLOAD DUP6 DUP2 MSTORE DUP1 PUSH2 0x580 DUP2 DUP9 ADD DUP10 PUSH2 0x37F4 JUMP JUMPDEST DUP1 PUSH2 0x2E27 PUSH2 0x2EB8 SWAP3 PUSH2 0x34E8 JUMP JUMPDEST SWAP1 SLOAD SWAP1 PUSH1 0x3 SHL SHR PUSH1 0x0 MSTORE PUSH1 0xB DUP1 DUP8 MSTORE DUP4 PUSH1 0x11 PUSH1 0x40 PUSH1 0x0 KECCAK256 PUSH1 0x40 MLOAD SWAP4 PUSH2 0x2E4B DUP6 PUSH2 0x3581 JUMP JUMPDEST DUP2 SLOAD DUP6 MSTORE PUSH2 0x2E5A DUP10 DUP4 ADD PUSH2 0x3B49 JUMP JUMPDEST DUP12 DUP7 ADD MSTORE DUP2 ADD SLOAD PUSH1 0x40 DUP6 ADD MSTORE PUSH1 0xC DUP2 ADD SLOAD PUSH1 0x60 DUP6 ADD MSTORE PUSH1 0xD DUP2 ADD SLOAD PUSH1 0x80 DUP6 ADD MSTORE PUSH1 0xE DUP2 ADD SLOAD PUSH1 0xA0 DUP6 ADD MSTORE PUSH1 0xF DUP2 ADD SLOAD PUSH1 0xC0 DUP6 ADD MSTORE PUSH1 0x10 DUP2 ADD SLOAD PUSH1 0xE0 DUP6 ADD MSTORE ADD SLOAD AND ISZERO ISZERO PUSH2 0x100 DUP3 ADD MSTORE PUSH2 0x2EAD DUP3 DUP10 PUSH2 0x42B0 JUMP JUMPDEST MSTORE PUSH2 0xC87 DUP2 DUP9 PUSH2 0x42B0 JUMP JUMPDEST PUSH2 0x2E00 JUMP JUMPDEST CALLVALUE PUSH2 0x279 JUMPI PUSH1 0x20 CALLDATASIZE PUSH1 0x3 NOT ADD SLT PUSH2 0x279 JUMPI CALLER PUSH1 0x0 MSTORE PUSH1 0x8 PUSH1 0x20 MSTORE PUSH2 0x2EED PUSH1 0x1 PUSH1 0xFF PUSH1 0x40 PUSH1 0x0 KECCAK256 SLOAD AND ISZERO ISZERO EQ PUSH2 0x3EFA JUMP JUMPDEST PUSH1 0x20 PUSH2 0x9D5 PUSH1 0x4 CALLDATALOAD PUSH2 0x407A JUMP JUMPDEST CALLVALUE PUSH2 0x279 JUMPI PUSH1 0x20 CALLDATASIZE PUSH1 0x3 NOT ADD SLT PUSH2 0x279 JUMPI CALLER PUSH1 0x0 MSTORE PUSH1 0x8 PUSH1 0x20 MSTORE PUSH2 0x2F2A PUSH1 0x1 PUSH1 0xFF PUSH1 0x40 PUSH1 0x0 KECCAK256 SLOAD AND ISZERO ISZERO EQ PUSH2 0x3EFA JUMP JUMPDEST PUSH1 0x20 PUSH2 0x9D5 PUSH1 0x4 CALLDATALOAD PUSH2 0x40EA JUMP JUMPDEST CALLVALUE PUSH2 0x279 JUMPI PUSH1 0x60 CALLDATASIZE PUSH1 0x3 NOT ADD SLT PUSH2 0x279 JUMPI PUSH1 0x4 CALLDATALOAD PUSH1 0x0 MSTORE PUSH1 0x20 PUSH1 0x10 DUP2 MSTORE PUSH1 0x40 PUSH1 0x0 KECCAK256 PUSH1 0x40 MLOAD SWAP1 DUP2 DUP4 DUP3 SLOAD SWAP2 DUP3 DUP2 MSTORE ADD SWAP2 PUSH1 0x0 MSTORE DUP4 PUSH1 0x0 KECCAK256 SWAP1 PUSH1 0x0 JUMPDEST DUP6 DUP3 DUP3 LT PUSH2 0x2F95 JUMPI PUSH2 0xDA2 DUP7 PUSH2 0x2F8A DUP2 DUP9 SUB DUP3 PUSH2 0x360A JUMP JUMPDEST PUSH1 0x44 CALLDATALOAD PUSH1 0x24 CALLDATALOAD PUSH2 0x49F7 JUMP JUMPDEST DUP4 SLOAD DUP6 MSTORE SWAP1 SWAP4 ADD SWAP3 PUSH1 0x1 SWAP3 DUP4 ADD SWAP3 ADD PUSH2 0x2F72 JUMP JUMPDEST CALLVALUE PUSH2 0x279 JUMPI PUSH2 0x2FB7 CALLDATASIZE PUSH2 0x368D JUMP JUMPDEST SWAP1 PUSH1 0x0 MSTORE PUSH1 0x10 PUSH1 0x20 MSTORE PUSH1 0x40 PUSH1 0x0 KECCAK256 DUP1 SLOAD DUP3 LT ISZERO PUSH2 0x279 JUMPI PUSH1 0x20 SWAP2 PUSH2 0x31A SWAP2 PUSH2 0x3569 JUMP JUMPDEST CALLVALUE PUSH2 0x279 JUMPI PUSH2 0x180 CALLDATASIZE PUSH1 0x3 NOT ADD SLT PUSH2 0x279 JUMPI PUSH1 0x24 CALLDATALOAD PUSH1 0x1 PUSH1 0x1 PUSH1 0x40 SHL SUB DUP2 GT PUSH2 0x279 JUMPI PUSH2 0x300B SWAP1 CALLDATASIZE SWAP1 PUSH1 0x4 ADD PUSH2 0x3646 JUMP JUMPDEST PUSH1 0x44 CALLDATALOAD PUSH1 0x1 PUSH1 0x1 PUSH1 0x40 SHL SUB DUP2 GT PUSH2 0x279 JUMPI PUSH2 0x302A SWAP1 CALLDATASIZE SWAP1 PUSH1 0x4 ADD PUSH2 0x3646 JUMP JUMPDEST SWAP1 PUSH1 0x64 CALLDATALOAD PUSH1 0x1 PUSH1 0x1 PUSH1 0x40 SHL SUB DUP2 GT PUSH2 0x279 JUMPI PUSH2 0x304A SWAP1 CALLDATASIZE SWAP1 PUSH1 0x4 ADD PUSH2 0x3646 JUMP JUMPDEST SWAP1 PUSH1 0x84 CALLDATALOAD PUSH1 0x1 PUSH1 0x1 PUSH1 0x40 SHL SUB DUP2 GT PUSH2 0x279 JUMPI PUSH2 0x306A SWAP1 CALLDATASIZE SWAP1 PUSH1 0x4 ADD PUSH2 0x3646 JUMP JUMPDEST SWAP1 CALLER PUSH1 0x0 MSTORE PUSH1 0x8 PUSH1 0x20 MSTORE PUSH2 0x308A PUSH1 0x1 PUSH1 0xFF PUSH1 0x40 PUSH1 0x0 KECCAK256 SLOAD AND ISZERO ISZERO EQ PUSH2 0x3EFA JUMP JUMPDEST PUSH1 0x4 CALLDATALOAD PUSH1 0x0 MSTORE PUSH1 0xB PUSH1 0x20 MSTORE PUSH1 0x40 PUSH1 0x0 KECCAK256 SWAP1 PUSH1 0x1 DUP3 ADD SWAP1 DUP1 MLOAD SWAP1 PUSH1 0x1 PUSH1 0x1 PUSH1 0x40 SHL SUB DUP3 GT PUSH2 0x12E7 JUMPI DUP2 SWAP1 PUSH2 0x30C1 DUP3 PUSH2 0x237D DUP7 SLOAD PUSH2 0x3A79 JUMP JUMPDEST PUSH1 0x20 SWAP1 PUSH1 0x1F DUP4 GT PUSH1 0x1 EQ PUSH2 0x33A5 JUMPI PUSH1 0x0 SWAP3 PUSH2 0x339A JUMPI JUMPDEST POP POP DUP2 PUSH1 0x1 SHL SWAP2 PUSH1 0x0 NOT SWAP1 PUSH1 0x3 SHL SHR NOT AND OR SWAP1 SSTORE JUMPDEST DUP4 MLOAD PUSH1 0x1 PUSH1 0x1 PUSH1 0x40 SHL SUB DUP2 GT PUSH2 0x12E7 JUMPI PUSH2 0x3116 DUP2 PUSH2 0x310D PUSH1 0x3 DUP6 ADD SLOAD PUSH2 0x3A79 JUMP JUMPDEST PUSH1 0x3 DUP6 ADD PUSH2 0x3F94 JUMP JUMPDEST PUSH1 0x20 PUSH1 0x1F DUP3 GT PUSH1 0x1 EQ PUSH2 0x332B JUMPI DUP2 SWAP3 SWAP4 SWAP5 SWAP6 PUSH1 0x0 SWAP3 PUSH2 0x3320 JUMPI JUMPDEST POP POP DUP2 PUSH1 0x1 SHL SWAP2 PUSH1 0x0 NOT SWAP1 PUSH1 0x3 SHL SHR NOT AND OR PUSH1 0x3 DUP3 ADD SSTORE JUMPDEST PUSH1 0x4 DUP2 ADD DUP4 MLOAD PUSH1 0x1 PUSH1 0x1 PUSH1 0x40 SHL SUB DUP2 GT PUSH2 0x12E7 JUMPI PUSH2 0x3170 DUP2 PUSH2 0x316A DUP5 SLOAD PUSH2 0x3A79 JUMP JUMPDEST DUP5 PUSH2 0x3F94 JUMP JUMPDEST PUSH1 0x20 SWAP5 PUSH1 0x1F DUP3 GT PUSH1 0x1 EQ PUSH2 0x32BA JUMPI SWAP5 DUP2 SWAP3 SWAP4 SWAP5 SWAP6 PUSH1 0x0 SWAP3 PUSH2 0x32AF JUMPI JUMPDEST POP POP DUP2 PUSH1 0x1 SHL SWAP2 PUSH1 0x0 NOT SWAP1 PUSH1 0x3 SHL SHR NOT AND OR SWAP1 SSTORE JUMPDEST PUSH1 0x5 DUP2 ADD DUP3 MLOAD PUSH1 0x1 PUSH1 0x1 PUSH1 0x40 SHL SUB DUP2 GT PUSH2 0x12E7 JUMPI PUSH2 0x31C3 DUP2 PUSH2 0x316A DUP5 SLOAD PUSH2 0x3A79 JUMP JUMPDEST PUSH1 0x20 PUSH1 0x1F DUP3 GT PUSH1 0x1 EQ PUSH2 0x3249 JUMPI DUP2 SWAP3 SWAP4 SWAP5 PUSH1 0x0 SWAP3 PUSH2 0x323E JUMPI JUMPDEST POP POP DUP2 PUSH1 0x1 SHL SWAP2 PUSH1 0x0 NOT SWAP1 PUSH1 0x3 SHL SHR NOT AND OR SWAP1 SSTORE JUMPDEST PUSH1 0xA4 CALLDATALOAD PUSH1 0x6 DUP3 ADD SSTORE PUSH1 0xC4 CALLDATALOAD PUSH1 0x7 DUP3 ADD SSTORE PUSH1 0xE4 CALLDATALOAD PUSH1 0x8 DUP3 ADD SSTORE PUSH2 0x104 CALLDATALOAD PUSH1 0x9 DUP3 ADD SSTORE PUSH2 0x124 CALLDATALOAD PUSH1 0xA DUP3 ADD SSTORE PUSH2 0x144 CALLDATALOAD PUSH1 0xB DUP3 ADD SSTORE PUSH2 0x164 CALLDATALOAD PUSH1 0xF DUP3 ADD SSTORE PUSH1 0x10 TIMESTAMP SWAP2 ADD SSTORE PUSH1 0x20 PUSH1 0x40 MLOAD PUSH1 0x1 DUP2 MSTORE RETURN JUMPDEST ADD MLOAD SWAP1 POP DUP5 DUP1 PUSH2 0x31DC JUMP JUMPDEST PUSH1 0x1F NOT DUP3 AND SWAP1 DUP4 PUSH1 0x0 MSTORE PUSH1 0x20 PUSH1 0x0 KECCAK256 SWAP2 PUSH1 0x0 JUMPDEST DUP2 DUP2 LT PUSH2 0x3297 JUMPI POP SWAP6 DUP4 PUSH1 0x1 SWAP6 SWAP7 SWAP8 LT PUSH2 0x327E JUMPI JUMPDEST POP POP POP DUP2 SHL ADD SWAP1 SSTORE PUSH2 0x31F1 JUMP JUMPDEST ADD MLOAD PUSH1 0x0 NOT PUSH1 0xF8 DUP5 PUSH1 0x3 SHL AND SHR NOT AND SWAP1 SSTORE DUP5 DUP1 DUP1 PUSH2 0x3271 JUMP JUMPDEST SWAP2 SWAP3 PUSH1 0x20 PUSH1 0x1 DUP2 SWAP3 DUP7 DUP12 ADD MLOAD DUP2 SSTORE ADD SWAP5 ADD SWAP3 ADD PUSH2 0x325C JUMP JUMPDEST ADD MLOAD SWAP1 POP DUP6 DUP1 PUSH2 0x318C JUMP JUMPDEST PUSH1 0x1F NOT DUP3 AND SWAP6 DUP4 PUSH1 0x0 MSTORE PUSH1 0x20 PUSH1 0x0 KECCAK256 SWAP2 PUSH1 0x0 JUMPDEST DUP9 DUP2 LT PUSH2 0x3308 JUMPI POP DUP4 PUSH1 0x1 SWAP6 SWAP7 SWAP8 SWAP9 LT PUSH2 0x32EF JUMPI JUMPDEST POP POP POP DUP2 SHL ADD SWAP1 SSTORE PUSH2 0x31A1 JUMP JUMPDEST ADD MLOAD PUSH1 0x0 NOT PUSH1 0xF8 DUP5 PUSH1 0x3 SHL AND SHR NOT AND SWAP1 SSTORE DUP6 DUP1 DUP1 PUSH2 0x32E2 JUMP JUMPDEST SWAP2 SWAP3 PUSH1 0x20 PUSH1 0x1 DUP2 SWAP3 DUP7 DUP6 ADD MLOAD DUP2 SSTORE ADD SWAP5 ADD SWAP3 ADD PUSH2 0x32CD JUMP JUMPDEST ADD MLOAD SWAP1 POP DUP6 DUP1 PUSH2 0x3130 JUMP JUMPDEST PUSH1 0x3 DUP4 ADD PUSH1 0x0 MSTORE PUSH1 0x20 PUSH1 0x0 KECCAK256 SWAP1 PUSH1 0x0 JUMPDEST PUSH1 0x1F NOT DUP5 AND DUP2 LT PUSH2 0x3382 JUMPI POP PUSH1 0x1 SWAP4 SWAP5 SWAP6 SWAP7 DUP4 PUSH1 0x1F NOT DUP2 AND LT PUSH2 0x3369 JUMPI JUMPDEST POP POP POP DUP2 SHL ADD PUSH1 0x3 DUP3 ADD SSTORE PUSH2 0x3148 JUMP JUMPDEST ADD MLOAD PUSH1 0x0 NOT PUSH1 0xF8 DUP5 PUSH1 0x3 SHL AND SHR NOT AND SWAP1 SSTORE DUP6 DUP1 DUP1 PUSH2 0x3359 JUMP JUMPDEST SWAP1 SWAP2 PUSH1 0x20 PUSH1 0x1 DUP2 SWAP3 DUP6 DUP12 ADD MLOAD DUP2 SSTORE ADD SWAP4 ADD SWAP2 ADD PUSH2 0x333B JUMP JUMPDEST ADD MLOAD SWAP1 POP DUP8 DUP1 PUSH2 0x30D7 JUMP JUMPDEST SWAP3 POP DUP4 PUSH1 0x0 MSTORE PUSH1 0x20 PUSH1 0x0 KECCAK256 SWAP1 PUSH1 0x0 SWAP4 JUMPDEST PUSH1 0x1F NOT DUP5 AND DUP6 LT PUSH2 0x33F6 JUMPI PUSH1 0x1 SWAP5 POP DUP4 PUSH1 0x1F NOT DUP2 AND LT PUSH2 0x33DD JUMPI JUMPDEST POP POP POP DUP2 SHL ADD SWAP1 SSTORE PUSH2 0x30EC JUMP JUMPDEST ADD MLOAD PUSH1 0x0 NOT PUSH1 0xF8 DUP5 PUSH1 0x3 SHL AND SHR NOT AND SWAP1 SSTORE DUP8 DUP1 DUP1 PUSH2 0x33D0 JUMP JUMPDEST DUP2 DUP2 ADD MLOAD DUP4 SSTORE PUSH1 0x20 SWAP5 DUP6 ADD SWAP5 PUSH1 0x1 SWAP1 SWAP4 ADD SWAP3 SWAP1 SWAP2 ADD SWAP1 PUSH2 0x33B5 JUMP JUMPDEST CALLVALUE PUSH2 0x279 JUMPI PUSH1 0x20 CALLDATASIZE PUSH1 0x3 NOT ADD SLT PUSH2 0x279 JUMPI PUSH1 0x4 CALLDATALOAD DUP1 PUSH1 0x0 MSTORE PUSH1 0xF PUSH1 0x20 MSTORE PUSH1 0x40 PUSH1 0x0 KECCAK256 PUSH2 0x343D DUP2 SLOAD PUSH2 0x406B JUMP JUMPDEST SWAP1 SSTORE PUSH1 0x0 MSTORE PUSH1 0x10 PUSH1 0x20 MSTORE PUSH1 0x40 PUSH1 0x0 KECCAK256 DUP1 SLOAD SWAP1 PUSH1 0x1 PUSH1 0x40 SHL DUP3 LT ISZERO PUSH2 0x12E7 JUMPI DUP2 PUSH2 0x346E SWAP2 PUSH1 0x1 PUSH2 0x1944 SWAP5 ADD DUP2 SSTORE PUSH2 0x3569 JUMP JUMPDEST SWAP2 SWAP1 SWAP2 TIMESTAMP SWAP1 DUP4 SLOAD SWAP1 PUSH1 0x3 SHL SWAP2 DUP3 SHL SWAP2 PUSH1 0x0 NOT SWAP1 SHL NOT AND OR SWAP1 JUMP JUMPDEST CALLVALUE PUSH2 0x279 JUMPI PUSH1 0x40 CALLDATASIZE PUSH1 0x3 NOT ADD SLT PUSH2 0x279 JUMPI PUSH2 0x34A1 PUSH2 0x34D2 JUMP JUMPDEST PUSH1 0x1 PUSH1 0x1 PUSH1 0xA0 SHL SUB AND PUSH1 0x0 SWAP1 DUP2 MSTORE PUSH1 0xD PUSH1 0x20 MSTORE PUSH1 0x40 SWAP1 KECCAK256 DUP1 SLOAD PUSH1 0x24 CALLDATALOAD SWAP2 SWAP1 DUP3 LT ISZERO PUSH2 0x279 JUMPI PUSH1 0x20 SWAP2 PUSH2 0x31A SWAP2 PUSH2 0x3569 JUMP JUMPDEST PUSH1 0x4 CALLDATALOAD SWAP1 PUSH1 0x1 PUSH1 0x1 PUSH1 0xA0 SHL SUB DUP3 AND DUP3 SUB PUSH2 0x279 JUMPI JUMP JUMPDEST SWAP1 PUSH1 0x0 SWAP2 DUP3 SLOAD DUP2 LT ISZERO PUSH2 0x351E JUMPI DUP3 DUP1 MSTORE PUSH32 0x290DECD9548B62A8D60345A988386FC84BA6BC95484008F6362F93160EF3E563 ADD SWAP2 SWAP1 JUMP JUMPDEST PUSH4 0x4E487B71 PUSH1 0xE0 SHL DUP4 MSTORE PUSH1 0x32 PUSH1 0x4 MSTORE PUSH1 0x24 DUP4 REVERT JUMPDEST PUSH1 0x1 SLOAD DUP2 LT ISZERO PUSH2 0x12D1 JUMPI PUSH1 0x1 PUSH1 0x0 MSTORE PUSH32 0xB10E2D527612073B26EECDFD717E6A320CF44B4AFAC2B0732D9FCBE2B7FA0CF6 ADD SWAP1 PUSH1 0x0 SWAP1 JUMP JUMPDEST DUP1 SLOAD DUP3 LT ISZERO PUSH2 0x12D1 JUMPI PUSH1 0x0 MSTORE PUSH1 0x20 PUSH1 0x0 KECCAK256 ADD SWAP1 PUSH1 0x0 SWAP1 JUMP JUMPDEST PUSH2 0x120 DUP2 ADD SWAP1 DUP2 LT PUSH1 0x1 PUSH1 0x1 PUSH1 0x40 SHL SUB DUP3 GT OR PUSH2 0x12E7 JUMPI PUSH1 0x40 MSTORE JUMP JUMPDEST PUSH1 0xA0 DUP2 ADD SWAP1 DUP2 LT PUSH1 0x1 PUSH1 0x1 PUSH1 0x40 SHL SUB DUP3 GT OR PUSH2 0x12E7 JUMPI PUSH1 0x40 MSTORE JUMP JUMPDEST PUSH1 0xC0 DUP2 ADD SWAP1 DUP2 LT PUSH1 0x1 PUSH1 0x1 PUSH1 0x40 SHL SUB DUP3 GT OR PUSH2 0x12E7 JUMPI PUSH1 0x40 MSTORE JUMP JUMPDEST PUSH2 0x140 DUP2 ADD SWAP1 DUP2 LT PUSH1 0x1 PUSH1 0x1 PUSH1 0x40 SHL SUB DUP3 GT OR PUSH2 0x12E7 JUMPI PUSH1 0x40 MSTORE JUMP JUMPDEST PUSH1 0x60 DUP2 ADD SWAP1 DUP2 LT PUSH1 0x1 PUSH1 0x1 PUSH1 0x40 SHL SUB DUP3 GT OR PUSH2 0x12E7 JUMPI PUSH1 0x40 MSTORE JUMP JUMPDEST SWAP1 PUSH1 0x1F DUP1 NOT SWAP2 ADD AND DUP2 ADD SWAP1 DUP2 LT PUSH1 0x1 PUSH1 0x1 PUSH1 0x40 SHL SUB DUP3 GT OR PUSH2 0x12E7 JUMPI PUSH1 0x40 MSTORE JUMP JUMPDEST PUSH1 0x1 PUSH1 0x1 PUSH1 0x40 SHL SUB DUP2 GT PUSH2 0x12E7 JUMPI PUSH1 0x1F ADD PUSH1 0x1F NOT AND PUSH1 0x20 ADD SWAP1 JUMP JUMPDEST DUP2 PUSH1 0x1F DUP3 ADD SLT ISZERO PUSH2 0x279 JUMPI DUP1 CALLDATALOAD SWAP1 PUSH2 0x365D DUP3 PUSH2 0x362B JUMP JUMPDEST SWAP3 PUSH2 0x366B PUSH1 0x40 MLOAD SWAP5 DUP6 PUSH2 0x360A JUMP JUMPDEST DUP3 DUP5 MSTORE PUSH1 0x20 DUP4 DUP4 ADD ADD GT PUSH2 0x279 JUMPI DUP2 PUSH1 0x0 SWAP3 PUSH1 0x20 DUP1 SWAP4 ADD DUP4 DUP7 ADD CALLDATACOPY DUP4 ADD ADD MSTORE SWAP1 JUMP JUMPDEST PUSH1 0x40 SWAP1 PUSH1 0x3 NOT ADD SLT PUSH2 0x279 JUMPI PUSH1 0x4 CALLDATALOAD SWAP1 PUSH1 0x24 CALLDATALOAD SWAP1 JUMP JUMPDEST PUSH1 0x0 JUMPDEST DUP4 DUP2 LT PUSH2 0x36B6 JUMPI POP POP PUSH1 0x0 SWAP2 ADD MSTORE JUMP JUMPDEST DUP2 DUP2 ADD MLOAD DUP4 DUP3 ADD MSTORE PUSH1 0x20 ADD PUSH2 0x36A6 JUMP JUMPDEST SWAP1 PUSH1 0x20 SWAP2 PUSH2 0x36DF DUP2 MLOAD DUP1 SWAP3 DUP2 DUP6 MSTORE DUP6 DUP1 DUP7 ADD SWAP2 ADD PUSH2 0x36A3 JUMP JUMPDEST PUSH1 0x1F ADD PUSH1 0x1F NOT AND ADD ADD SWAP1 JUMP JUMPDEST SWAP1 PUSH2 0x3753 PUSH2 0x3741 PUSH2 0x372F PUSH2 0x371D PUSH2 0x370B DUP7 MLOAD PUSH2 0x140 DUP1 DUP9 MSTORE DUP8 ADD SWAP1 PUSH2 0x36C6 JUMP JUMPDEST PUSH1 0x20 DUP8 ADD MLOAD DUP7 DUP3 SUB PUSH1 0x20 DUP9 ADD MSTORE PUSH2 0x36C6 JUMP JUMPDEST PUSH1 0x40 DUP7 ADD MLOAD DUP6 DUP3 SUB PUSH1 0x40 DUP8 ADD MSTORE PUSH2 0x36C6 JUMP JUMPDEST PUSH1 0x60 DUP6 ADD MLOAD DUP5 DUP3 SUB PUSH1 0x60 DUP7 ADD MSTORE PUSH2 0x36C6 JUMP JUMPDEST PUSH1 0x80 DUP5 ADD MLOAD DUP4 DUP3 SUB PUSH1 0x80 DUP6 ADD MSTORE PUSH2 0x36C6 JUMP JUMPDEST SWAP2 PUSH1 0xA0 DUP2 ADD MLOAD PUSH1 0xA0 DUP4 ADD MSTORE PUSH1 0xC0 DUP2 ADD MLOAD PUSH1 0xC0 DUP4 ADD MSTORE PUSH1 0xE0 DUP2 ADD MLOAD PUSH1 0xE0 DUP4 ADD MSTORE PUSH2 0x100 DUP1 DUP3 ADD MLOAD SWAP1 DUP4 ADD MSTORE PUSH2 0x120 DUP1 SWAP2 ADD MLOAD SWAP2 ADD MSTORE SWAP1 JUMP JUMPDEST SWAP1 DUP2 MLOAD DUP2 MSTORE PUSH2 0x37A8 PUSH1 0x20 DUP4 ADD MLOAD PUSH2 0x120 DUP1 PUSH1 0x20 DUP6 ADD MSTORE DUP4 ADD SWAP1 PUSH2 0x36EB JUMP JUMPDEST SWAP2 PUSH1 0x40 DUP2 ADD MLOAD PUSH1 0x40 DUP4 ADD MSTORE PUSH1 0x60 DUP2 ADD MLOAD PUSH1 0x60 DUP4 ADD MSTORE PUSH1 0x80 DUP2 ADD MLOAD PUSH1 0x80 DUP4 ADD MSTORE PUSH1 0xA0 DUP2 ADD MLOAD PUSH1 0xA0 DUP4 ADD MSTORE PUSH1 0xC0 DUP2 ADD MLOAD PUSH1 0xC0 DUP4 ADD MSTORE PUSH1 0xE0 DUP2 ADD MLOAD PUSH1 0xE0 DUP4 ADD MSTORE PUSH2 0x100 DUP1 SWAP2 ADD MLOAD ISZERO ISZERO SWAP2 ADD MSTORE SWAP1 JUMP JUMPDEST SWAP1 DUP2 MLOAD DUP1 DUP3 MSTORE PUSH1 0x20 DUP1 SWAP3 ADD SWAP2 DUP3 DUP2 DUP4 PUSH1 0x5 SHL DUP6 ADD SWAP6 ADD SWAP4 PUSH1 0x0 SWAP2 JUMPDEST DUP5 DUP4 LT PUSH2 0x381F JUMPI POP POP POP POP POP POP SWAP1 JUMP JUMPDEST SWAP1 SWAP2 SWAP3 SWAP4 SWAP5 SWAP6 DUP5 DUP1 PUSH2 0x3839 DUP4 DUP6 PUSH1 0x1 SWAP6 SUB DUP8 MSTORE DUP11 MLOAD PUSH2 0x378A JUMP JUMPDEST SWAP9 ADD SWAP4 ADD SWAP4 ADD SWAP2 SWAP5 SWAP4 SWAP3 SWAP1 PUSH2 0x380F JUMP JUMPDEST PUSH1 0x1 PUSH1 0x1 PUSH1 0x40 SHL SUB DUP2 GT PUSH2 0x12E7 JUMPI PUSH1 0x5 SHL PUSH1 0x20 ADD SWAP1 JUMP JUMPDEST DUP2 PUSH1 0x1F DUP3 ADD SLT ISZERO PUSH2 0x279 JUMPI DUP1 CALLDATALOAD SWAP1 PUSH2 0x3877 DUP3 PUSH2 0x3849 JUMP JUMPDEST SWAP3 PUSH1 0x40 SWAP1 PUSH2 0x3887 DUP3 MLOAD SWAP6 DUP7 PUSH2 0x360A JUMP JUMPDEST DUP4 DUP6 MSTORE PUSH1 0x20 SWAP2 DUP3 DUP7 ADD SWAP2 DUP4 PUSH1 0x60 DUP1 SWAP8 MUL DUP7 ADD ADD SWAP5 DUP2 DUP7 GT PUSH2 0x279 JUMPI DUP5 ADD SWAP3 JUMPDEST DUP6 DUP5 LT PUSH2 0x38B7 JUMPI POP POP POP POP POP POP POP SWAP1 JUMP JUMPDEST DUP7 DUP5 DUP4 SUB SLT PUSH2 0x279 JUMPI DUP3 MLOAD SWAP1 PUSH2 0x38CC DUP3 PUSH2 0x35EF JUMP JUMPDEST DUP5 CALLDATALOAD DUP3 MSTORE DUP6 DUP6 ADD CALLDATALOAD DUP7 DUP4 ADD MSTORE DUP4 DUP6 ADD CALLDATALOAD SWAP1 PUSH1 0x4 DUP3 LT ISZERO PUSH2 0x279 JUMPI DUP3 DUP8 SWAP3 DUP7 DUP12 SWAP6 ADD MSTORE DUP2 MSTORE ADD SWAP4 ADD SWAP3 PUSH2 0x38A6 JUMP JUMPDEST SWAP2 SWAP1 PUSH2 0x120 DUP4 DUP3 SUB SLT PUSH2 0x279 JUMPI PUSH1 0x40 MLOAD SWAP1 PUSH2 0x3913 DUP3 PUSH2 0x3581 JUMP JUMPDEST DUP2 SWAP4 DUP1 CALLDATALOAD SWAP2 PUSH1 0x1 PUSH1 0x1 PUSH1 0x40 SHL SUB SWAP3 DUP4 DUP2 GT PUSH2 0x279 JUMPI DUP2 PUSH2 0x3934 SWAP2 DUP5 ADD PUSH2 0x3646 JUMP JUMPDEST DUP5 MSTORE PUSH1 0x20 DUP3 ADD CALLDATALOAD DUP4 DUP2 GT PUSH2 0x279 JUMPI DUP2 PUSH2 0x394E SWAP2 DUP5 ADD PUSH2 0x3646 JUMP JUMPDEST PUSH1 0x20 DUP6 ADD MSTORE PUSH1 0x40 DUP3 ADD CALLDATALOAD DUP4 DUP2 GT PUSH2 0x279 JUMPI DUP2 PUSH2 0x396B SWAP2 DUP5 ADD PUSH2 0x3646 JUMP JUMPDEST PUSH1 0x40 DUP6 ADD MSTORE PUSH1 0x60 DUP3 ADD CALLDATALOAD DUP4 DUP2 GT PUSH2 0x279 JUMPI DUP2 PUSH2 0x3988 SWAP2 DUP5 ADD PUSH2 0x3646 JUMP JUMPDEST PUSH1 0x60 DUP6 ADD MSTORE PUSH1 0x80 DUP3 ADD CALLDATALOAD DUP4 DUP2 GT PUSH2 0x279 JUMPI DUP2 PUSH2 0x39A5 SWAP2 DUP5 ADD PUSH2 0x3646 JUMP JUMPDEST PUSH1 0x80 DUP6 ADD MSTORE PUSH1 0xA0 DUP3 ADD CALLDATALOAD DUP4 DUP2 GT PUSH2 0x279 JUMPI DUP2 PUSH2 0x39C2 SWAP2 DUP5 ADD PUSH2 0x3646 JUMP JUMPDEST PUSH1 0xA0 DUP6 ADD MSTORE PUSH1 0xC0 DUP3 ADD CALLDATALOAD DUP4 DUP2 GT PUSH2 0x279 JUMPI DUP2 PUSH2 0x39DF SWAP2 DUP5 ADD PUSH2 0x3646 JUMP JUMPDEST PUSH1 0xC0 DUP6 ADD MSTORE PUSH1 0xE0 DUP3 ADD CALLDATALOAD DUP4 DUP2 GT PUSH2 0x279 JUMPI DUP2 PUSH2 0x39FC SWAP2 DUP5 ADD PUSH2 0x3646 JUMP JUMPDEST PUSH1 0xE0 DUP6 ADD MSTORE PUSH2 0x100 SWAP3 DUP4 DUP4 ADD CALLDATALOAD SWAP1 DUP2 GT PUSH2 0x279 JUMPI PUSH2 0x3A1A SWAP3 ADD PUSH2 0x3646 JUMP JUMPDEST SWAP2 ADD MSTORE JUMP JUMPDEST SWAP1 PUSH1 0x60 PUSH1 0x3 NOT DUP4 ADD SLT PUSH2 0x279 JUMPI PUSH1 0x1 PUSH1 0x1 PUSH1 0x40 SHL SUB PUSH1 0x4 CALLDATALOAD DUP2 DUP2 GT PUSH2 0x279 JUMPI DUP4 PUSH2 0x3A4B SWAP2 PUSH1 0x4 ADD PUSH2 0x3860 JUMP JUMPDEST SWAP3 PUSH1 0x24 CALLDATALOAD SWAP2 DUP3 GT PUSH2 0x279 JUMPI PUSH2 0x3A62 SWAP2 PUSH1 0x4 ADD PUSH2 0x38F9 JUMP JUMPDEST SWAP1 PUSH1 0x44 CALLDATALOAD PUSH1 0x1 PUSH1 0x1 PUSH1 0xA0 SHL SUB DUP2 AND DUP2 SUB PUSH2 0x279 JUMPI SWAP1 JUMP JUMPDEST SWAP1 PUSH1 0x1 DUP3 DUP2 SHR SWAP3 AND DUP1 ISZERO PUSH2 0x3AA9 JUMPI JUMPDEST PUSH1 0x20 DUP4 LT EQ PUSH2 0x3A93 JUMPI JUMP JUMPDEST PUSH4 0x4E487B71 PUSH1 0xE0 SHL PUSH1 0x0 MSTORE PUSH1 0x22 PUSH1 0x4 MSTORE PUSH1 0x24 PUSH1 0x0 REVERT JUMPDEST SWAP2 PUSH1 0x7F AND SWAP2 PUSH2 0x3A88 JUMP JUMPDEST SWAP1 PUSH1 0x0 SWAP3 SWAP2 DUP1 SLOAD SWAP2 PUSH2 0x3AC4 DUP4 PUSH2 0x3A79 JUMP JUMPDEST SWAP2 DUP3 DUP3 MSTORE PUSH1 0x1 SWAP4 DUP5 DUP2 AND SWAP1 DUP2 PUSH1 0x0 EQ PUSH2 0x3B26 JUMPI POP PUSH1 0x1 EQ PUSH2 0x3AE6 JUMPI JUMPDEST POP POP POP POP JUMP JUMPDEST SWAP1 SWAP2 SWAP4 SWAP5 POP PUSH1 0x0 MSTORE PUSH1 0x20 SWAP3 DUP4 PUSH1 0x0 KECCAK256 SWAP3 DUP5 PUSH1 0x0 SWAP5 JUMPDEST DUP4 DUP7 LT PUSH2 0x3B12 JUMPI POP POP POP POP ADD ADD SWAP1 CODESIZE DUP1 DUP1 DUP1 PUSH2 0x3AE0 JUMP JUMPDEST DUP1 SLOAD DUP6 DUP8 ADD DUP4 ADD MSTORE SWAP5 ADD SWAP4 DUP6 SWAP1 DUP3 ADD PUSH2 0x3AFB JUMP JUMPDEST SWAP3 SWAP5 POP POP POP PUSH1 0x20 SWAP4 SWAP5 POP PUSH1 0xFF NOT AND DUP4 DUP4 ADD MSTORE ISZERO ISZERO PUSH1 0x5 SHL ADD ADD SWAP1 CODESIZE DUP1 DUP1 DUP1 PUSH2 0x3AE0 JUMP JUMPDEST SWAP1 PUSH1 0x40 SWAP2 PUSH2 0x120 PUSH1 0x9 DUP5 MLOAD SWAP3 PUSH2 0x3B5E DUP5 PUSH2 0x35D3 JUMP JUMPDEST DUP4 SWAP6 DUP1 MLOAD PUSH2 0x3B70 DUP2 PUSH2 0xCD9 DUP2 DUP7 PUSH2 0x3AB3 JUMP JUMPDEST DUP6 MSTORE DUP1 MLOAD PUSH2 0x3B85 DUP2 PUSH2 0xCD9 DUP2 PUSH1 0x1 DUP8 ADD PUSH2 0x3AB3 JUMP JUMPDEST PUSH1 0x20 DUP7 ADD MSTORE DUP1 MLOAD PUSH2 0x3B9D DUP2 PUSH2 0xCD9 DUP2 PUSH1 0x2 DUP8 ADD PUSH2 0x3AB3 JUMP JUMPDEST DUP2 DUP7 ADD MSTORE DUP1 MLOAD PUSH2 0x3BB4 DUP2 PUSH2 0xCD9 DUP2 PUSH1 0x3 DUP8 ADD PUSH2 0x3AB3 JUMP JUMPDEST PUSH1 0x60 DUP7 ADD MSTORE MLOAD PUSH2 0x3BCB DUP2 PUSH2 0xCD9 DUP2 PUSH1 0x4 DUP7 ADD PUSH2 0x3AB3 JUMP JUMPDEST PUSH1 0x80 DUP6 ADD MSTORE PUSH1 0x5 DUP2 ADD SLOAD PUSH1 0xA0 DUP6 ADD MSTORE PUSH1 0x6 DUP2 ADD SLOAD PUSH1 0xC0 DUP6 ADD MSTORE PUSH1 0x7 DUP2 ADD SLOAD PUSH1 0xE0 DUP6 ADD MSTORE PUSH1 0x8 DUP2 ADD SLOAD PUSH2 0x100 DUP6 ADD MSTORE ADD SLOAD SWAP2 ADD MSTORE JUMP JUMPDEST SWAP1 PUSH1 0x4 DUP3 LT ISZERO PUSH2 0x931 JUMPI MSTORE JUMP JUMPDEST SWAP1 PUSH2 0x3CCC SWAP2 PUSH2 0x3CB8 PUSH2 0x3CA6 PUSH2 0x3C94 PUSH2 0x3C82 PUSH2 0x3C70 PUSH2 0x3C5E PUSH2 0x3C4C PUSH2 0x3C3A DUP9 MLOAD PUSH2 0x120 DUP1 DUP13 MSTORE DUP12 ADD SWAP1 PUSH2 0x36C6 JUMP JUMPDEST PUSH1 0x20 DUP10 ADD MLOAD DUP11 DUP3 SUB PUSH1 0x20 DUP13 ADD MSTORE PUSH2 0x36C6 JUMP JUMPDEST PUSH1 0x40 DUP9 ADD MLOAD DUP10 DUP3 SUB PUSH1 0x40 DUP12 ADD MSTORE PUSH2 0x36C6 JUMP JUMPDEST PUSH1 0x60 DUP8 ADD MLOAD DUP9 DUP3 SUB PUSH1 0x60 DUP11 ADD MSTORE PUSH2 0x36C6 JUMP JUMPDEST PUSH1 0x80 DUP7 ADD MLOAD DUP8 DUP3 SUB PUSH1 0x80 DUP10 ADD MSTORE PUSH2 0x36C6 JUMP JUMPDEST PUSH1 0xA0 DUP6 ADD MLOAD DUP7 DUP3 SUB PUSH1 0xA0 DUP9 ADD MSTORE PUSH2 0x36C6 JUMP JUMPDEST PUSH1 0xC0 DUP5 ADD MLOAD DUP6 DUP3 SUB PUSH1 0xC0 DUP8 ADD MSTORE PUSH2 0x36C6 JUMP JUMPDEST PUSH1 0xE0 DUP4 ADD MLOAD DUP5 DUP3 SUB PUSH1 0xE0 DUP7 ADD MSTORE PUSH2 0x36C6 JUMP JUMPDEST SWAP2 PUSH2 0x100 DUP1 SWAP3 ADD MLOAD SWAP2 DUP2 DUP5 SUB SWAP2 ADD MSTORE PUSH2 0x36C6 JUMP JUMPDEST SWAP1 JUMP JUMPDEST SWAP1 PUSH1 0xC0 DUP2 ADD DUP3 MLOAD DUP3 MSTORE PUSH1 0x20 SWAP1 PUSH1 0x1 DUP1 PUSH1 0xA0 SHL SUB DUP3 DUP6 ADD MLOAD AND DUP3 DUP5 ADD MSTORE PUSH1 0x40 SWAP1 DUP2 DUP6 ADD MLOAD SWAP3 PUSH1 0xC0 DUP4 DUP7 ADD MSTORE DUP4 MLOAD DUP1 SWAP3 MSTORE PUSH1 0xE0 DUP6 ADD SWAP3 DUP2 PUSH1 0xE0 DUP5 PUSH1 0x5 SHL DUP9 ADD ADD SWAP6 ADD SWAP4 PUSH1 0x0 SWAP2 JUMPDEST DUP5 DUP4 LT PUSH2 0x3D4D JUMPI POP POP POP POP POP POP PUSH1 0xA0 PUSH2 0x3D44 DUP2 SWAP3 PUSH1 0x60 DUP7 ADD MLOAD PUSH1 0x60 DUP7 ADD MSTORE PUSH1 0x80 DUP7 ADD MLOAD DUP6 DUP3 SUB PUSH1 0x80 DUP8 ADD MSTORE PUSH2 0x3C0D JUMP JUMPDEST SWAP4 ADD MLOAD SWAP2 ADD MSTORE SWAP1 JUMP JUMPDEST SWAP1 SWAP2 SWAP3 SWAP4 SWAP5 SWAP6 DUP5 DUP1 PUSH2 0x3DAE PUSH1 0x1 SWAP4 PUSH1 0xDF NOT DUP13 DUP3 SUB ADD DUP8 MSTORE DUP11 MLOAD DUP1 MLOAD DUP3 MSTORE DUP4 DUP2 ADD MLOAD DUP5 DUP4 ADD MSTORE PUSH2 0x3D82 DUP8 DUP3 ADD MLOAD DUP9 DUP5 ADD SWAP1 PUSH2 0x3C00 JUMP JUMPDEST PUSH2 0x3D9B PUSH1 0x60 DUP1 DUP4 ADD MLOAD SWAP1 PUSH1 0xA0 DUP1 SWAP2 DUP7 ADD MSTORE DUP5 ADD SWAP1 PUSH2 0x36C6 JUMP JUMPDEST SWAP2 PUSH1 0x80 DUP1 SWAP3 ADD MLOAD SWAP2 DUP2 DUP5 SUB SWAP2 ADD MSTORE PUSH2 0x36C6 JUMP JUMPDEST SWAP9 ADD SWAP4 ADD SWAP4 ADD SWAP2 SWAP5 SWAP4 SWAP3 SWAP1 PUSH2 0x3D14 JUMP JUMPDEST SWAP1 DUP2 MLOAD DUP1 DUP3 MSTORE PUSH1 0x20 DUP1 SWAP3 ADD SWAP2 DUP3 DUP2 DUP4 PUSH1 0x5 SHL DUP3 ADD SWAP6 ADD SWAP4 PUSH1 0x0 SWAP2 JUMPDEST DUP5 DUP4 LT PUSH2 0x3DE9 JUMPI POP POP POP POP POP POP SWAP1 JUMP JUMPDEST SWAP1 SWAP2 SWAP3 SWAP4 SWAP5 SWAP6 DUP5 DUP1 PUSH2 0x3E03 DUP4 DUP6 PUSH1 0x1 SWAP6 SUB DUP8 MSTORE DUP11 MLOAD PUSH2 0x3CCF JUMP JUMPDEST SWAP9 ADD SWAP4 ADD SWAP4 ADD SWAP2 SWAP5 SWAP4 SWAP3 SWAP1 PUSH2 0x3DD9 JUMP JUMPDEST ISZERO PUSH2 0x3E1A JUMPI JUMP JUMPDEST PUSH1 0x40 MLOAD PUSH3 0x461BCD PUSH1 0xE5 SHL DUP2 MSTORE PUSH1 0x20 PUSH1 0x4 DUP3 ADD MSTORE PUSH1 0x48 PUSH1 0x24 DUP3 ADD MSTORE PUSH32 0x7B2266726F6D223A2022466943616D2E736F6C222C2022636F6465223A20312C PUSH1 0x44 DUP3 ADD MSTORE PUSH32 0x20226D657373616765223A2022496E76616C69642063616C6C65722D4F6E6C79 PUSH1 0x64 DUP3 ADD MSTORE PUSH8 0x204F776E6572227D PUSH1 0xC0 SHL PUSH1 0x84 DUP3 ADD MSTORE PUSH1 0xA4 SWAP1 REVERT JUMPDEST PUSH1 0x6 SLOAD PUSH1 0x1 PUSH1 0x40 SHL DUP2 LT ISZERO PUSH2 0x12E7 JUMPI PUSH1 0x1 DUP2 ADD DUP1 PUSH1 0x6 SSTORE DUP2 LT ISZERO PUSH2 0x12D1 JUMPI PUSH1 0x6 PUSH1 0x0 MSTORE PUSH32 0xF652222313E28459528D920B65115C16C04F3EFC82AAEDC97BE59F3F377C0D3F ADD DUP1 SLOAD PUSH1 0x1 PUSH1 0x1 PUSH1 0xA0 SHL SUB NOT AND PUSH1 0x1 PUSH1 0x1 PUSH1 0xA0 SHL SUB SWAP1 SWAP3 AND SWAP2 SWAP1 SWAP2 OR SWAP1 SSTORE JUMP JUMPDEST ISZERO PUSH2 0x3F01 JUMPI JUMP JUMPDEST PUSH1 0x40 MLOAD PUSH3 0x461BCD PUSH1 0xE5 SHL DUP2 MSTORE PUSH1 0x20 PUSH1 0x4 DUP3 ADD MSTORE PUSH1 0x48 PUSH1 0x24 DUP3 ADD MSTORE PUSH32 0x7B2266726F6D223A2022466943616D2E736F6C222C2022636F6465223A20322C PUSH1 0x44 DUP3 ADD MSTORE PUSH32 0x20226D657373616765223A2022496E76616C69642063616C6C65722D4F6E6C79 PUSH1 0x64 DUP3 ADD MSTORE PUSH8 0x2041646D696E227D PUSH1 0xC0 SHL PUSH1 0x84 DUP3 ADD MSTORE PUSH1 0xA4 SWAP1 REVERT JUMPDEST DUP2 DUP2 LT PUSH2 0x3F88 JUMPI POP POP JUMP JUMPDEST PUSH1 0x0 DUP2 SSTORE PUSH1 0x1 ADD PUSH2 0x3F7D JUMP JUMPDEST SWAP2 SWAP1 PUSH1 0x1F DUP2 GT PUSH2 0x3FA3 JUMPI POP POP POP JUMP JUMPDEST PUSH2 0x3FCF SWAP3 PUSH1 0x0 MSTORE PUSH1 0x20 PUSH1 0x0 KECCAK256 SWAP1 PUSH1 0x20 PUSH1 0x1F DUP5 ADD PUSH1 0x5 SHR DUP4 ADD SWAP4 LT PUSH2 0x3FD1 JUMPI JUMPDEST PUSH1 0x1F ADD PUSH1 0x5 SHR ADD SWAP1 PUSH2 0x3F7D JUMP JUMPDEST JUMP JUMPDEST SWAP1 SWAP2 POP DUP2 SWAP1 PUSH2 0x3FC2 JUMP JUMPDEST PUSH1 0x16 SLOAD PUSH1 0x1 PUSH1 0x40 SHL DUP2 LT ISZERO PUSH2 0x12E7 JUMPI PUSH1 0x1 DUP2 ADD DUP1 PUSH1 0x16 SSTORE DUP2 LT ISZERO PUSH2 0x12D1 JUMPI PUSH1 0x16 PUSH1 0x0 MSTORE PUSH32 0xD833147D7DC355BA459FC788F669E58CFAF9DC25DDCD0702E87D69C7B5124289 ADD SSTORE JUMP JUMPDEST PUSH1 0x1 SLOAD PUSH1 0x1 PUSH1 0x40 SHL DUP2 LT ISZERO PUSH2 0x12E7 JUMPI PUSH2 0x192D DUP2 PUSH1 0x1 PUSH2 0x4045 SWAP4 ADD PUSH1 0x1 SSTORE PUSH2 0x3532 JUMP JUMPDEST SWAP1 SSTORE JUMP JUMPDEST DUP1 SLOAD SWAP1 PUSH1 0x1 PUSH1 0x40 SHL DUP3 LT ISZERO PUSH2 0x12E7 JUMPI DUP2 PUSH2 0x192D SWAP2 PUSH1 0x1 PUSH2 0x4045 SWAP5 ADD DUP2 SSTORE PUSH2 0x3569 JUMP JUMPDEST PUSH1 0x0 NOT DUP2 EQ PUSH2 0x2CCF JUMPI PUSH1 0x1 ADD SWAP1 JUMP JUMPDEST DUP1 PUSH1 0x0 MSTORE PUSH1 0xB PUSH1 0x20 MSTORE PUSH1 0x11 PUSH1 0x40 PUSH1 0x0 KECCAK256 ADD PUSH1 0x1 SWAP1 DUP2 PUSH1 0xFF NOT DUP3 SLOAD AND OR SWAP1 SSTORE PUSH1 0x0 SWAP2 DUP2 SLOAD SWAP3 JUMPDEST DUP4 DUP2 LT PUSH2 0x40B2 JUMPI POP PUSH2 0x3CCC SWAP2 SWAP3 POP PUSH2 0x4023 JUMP JUMPDEST DUP2 PUSH2 0x40BC DUP3 PUSH2 0x3532 JUMP JUMPDEST SWAP1 SLOAD SWAP1 PUSH1 0x3 SHL SHR EQ PUSH2 0x40D6 JUMPI PUSH2 0x40D1 SWAP1 PUSH2 0x406B JUMP JUMPDEST PUSH2 0x409F JUMP JUMPDEST POP POP SWAP1 POP SWAP1 JUMP JUMPDEST SWAP2 SWAP1 DUP3 SUB SWAP2 DUP3 GT PUSH2 0x2CCF JUMPI JUMP JUMPDEST PUSH1 0x0 DUP2 DUP2 MSTORE PUSH1 0xB PUSH1 0x20 MSTORE PUSH1 0x11 SWAP2 DUP3 PUSH1 0x40 DUP4 KECCAK256 ADD PUSH1 0xFF NOT DUP2 SLOAD AND SWAP1 SSTORE DUP2 JUMPDEST PUSH1 0x1 DUP1 SLOAD DUP1 DUP4 LT ISZERO PUSH2 0x41CD JUMPI DUP4 SWAP1 PUSH2 0x411E DUP5 PUSH2 0x3532 JUMP JUMPDEST SWAP3 SWAP1 SLOAD PUSH1 0x3 SWAP4 DUP5 SHL SHR EQ PUSH2 0x413D JUMPI POP POP POP PUSH2 0x4138 SWAP1 PUSH2 0x406B JUMP JUMPDEST PUSH2 0x4107 JUMP JUMPDEST SWAP1 SWAP5 SWAP3 SWAP2 SWAP6 SWAP4 POP PUSH1 0x0 NOT SWAP4 DUP5 DUP3 ADD SWAP2 DUP3 GT PUSH2 0x41BB JUMPI POP DUP1 DUP3 LT PUSH2 0x4197 JUMPI JUMPDEST POP POP DUP4 SLOAD SWAP1 DUP2 ISZERO PUSH2 0x4183 JUMPI POP DUP2 ADD SWAP2 PUSH2 0x4173 DUP4 PUSH2 0x3532 JUMP JUMPDEST DUP2 SWAP4 SWAP2 SLOAD SWAP3 SHL SHL NOT AND SWAP1 SSTORE DUP2 SSTORE SWAP1 JUMP JUMPDEST PUSH4 0x4E487B71 PUSH1 0xE0 SHL DUP2 MSTORE PUSH1 0x31 PUSH1 0x4 MSTORE PUSH1 0x24 SWAP1 REVERT JUMPDEST PUSH2 0x192D PUSH2 0x41A6 PUSH2 0x41B2 SWAP3 PUSH2 0x3532 JUMP JUMPDEST SWAP1 SLOAD SWAP1 DUP8 SHL SHR SWAP3 PUSH2 0x3532 JUMP JUMPDEST SWAP1 SSTORE CODESIZE DUP1 PUSH2 0x415B JUMP JUMPDEST PUSH4 0x4E487B71 PUSH1 0xE0 SHL DUP5 MSTORE PUSH1 0x4 MSTORE PUSH1 0x24 DUP4 REVERT JUMPDEST POP POP POP POP POP POP PUSH1 0x1 SWAP1 JUMP JUMPDEST PUSH1 0x40 MLOAD SWAP1 PUSH2 0x41E5 DUP3 PUSH2 0x3581 JUMP JUMPDEST PUSH1 0x0 DUP1 DUP4 MSTORE PUSH1 0x40 MLOAD DUP4 PUSH2 0x41F7 DUP3 PUSH2 0x35D3 JUMP JUMPDEST DUP3 PUSH1 0x60 DUP1 DUP5 MSTORE DUP1 PUSH1 0x20 DUP6 ADD MSTORE DUP1 PUSH1 0x40 DUP6 ADD MSTORE DUP1 DUP1 DUP6 ADD MSTORE DUP1 PUSH1 0x80 DUP6 ADD MSTORE DUP2 PUSH1 0xA0 DUP6 ADD MSTORE DUP2 PUSH1 0xC0 DUP6 ADD MSTORE DUP2 PUSH1 0xE0 DUP6 ADD MSTORE PUSH2 0x100 SWAP4 DUP3 DUP6 DUP3 ADD MSTORE DUP3 PUSH2 0x120 DUP3 ADD MSTORE PUSH1 0x20 DUP5 ADD MSTORE DUP2 PUSH1 0x40 DUP5 ADD MSTORE DUP3 ADD MSTORE DUP3 PUSH1 0x80 DUP3 ADD MSTORE DUP3 PUSH1 0xA0 DUP3 ADD MSTORE DUP3 PUSH1 0xC0 DUP3 ADD MSTORE DUP3 PUSH1 0xE0 DUP3 ADD MSTORE ADD MSTORE JUMP JUMPDEST SWAP1 PUSH2 0x426A DUP3 PUSH2 0x3849 JUMP JUMPDEST PUSH2 0x4277 PUSH1 0x40 MLOAD SWAP2 DUP3 PUSH2 0x360A JUMP JUMPDEST DUP3 DUP2 MSTORE DUP1 SWAP3 PUSH2 0x4288 PUSH1 0x1F NOT SWAP2 PUSH2 0x3849 JUMP JUMPDEST ADD SWAP1 PUSH1 0x0 JUMPDEST DUP3 DUP2 LT PUSH2 0x4299 JUMPI POP POP POP JUMP JUMPDEST PUSH1 0x20 SWAP1 PUSH2 0x42A4 PUSH2 0x41D8 JUMP JUMPDEST DUP3 DUP3 DUP6 ADD ADD MSTORE ADD PUSH2 0x428D JUMP JUMPDEST DUP1 MLOAD DUP3 LT ISZERO PUSH2 0x12D1 JUMPI PUSH1 0x20 SWAP2 PUSH1 0x5 SHL ADD ADD SWAP1 JUMP JUMPDEST SWAP1 PUSH2 0x42CE DUP3 PUSH2 0x3849 JUMP JUMPDEST PUSH1 0x40 SWAP1 PUSH2 0x42DD DUP3 MLOAD SWAP2 DUP3 PUSH2 0x360A JUMP JUMPDEST DUP4 DUP2 MSTORE DUP1 SWAP4 PUSH2 0x42EE PUSH1 0x1F NOT SWAP2 PUSH2 0x3849 JUMP JUMPDEST ADD SWAP2 PUSH1 0x0 SWAP2 DUP3 JUMPDEST DUP5 DUP2 LT PUSH2 0x4303 JUMPI POP POP POP POP POP JUMP JUMPDEST PUSH1 0x20 SWAP1 DUP4 MLOAD PUSH2 0x4311 DUP2 PUSH2 0x359D JUMP JUMPDEST DUP6 DUP2 MSTORE DUP3 DUP7 DUP2 DUP4 ADD MSTORE DUP7 DUP7 DUP4 ADD MSTORE PUSH1 0x60 DUP1 DUP1 DUP5 ADD MSTORE PUSH1 0x80 DUP4 ADD MSTORE DUP3 DUP6 ADD ADD MSTORE ADD PUSH2 0x42F5 JUMP JUMPDEST ISZERO PUSH2 0x433D JUMPI JUMP JUMPDEST PUSH1 0x40 MLOAD PUSH3 0x461BCD PUSH1 0xE5 SHL DUP2 MSTORE PUSH1 0x20 PUSH1 0x4 DUP3 ADD MSTORE PUSH1 0x5B PUSH1 0x24 DUP3 ADD MSTORE PUSH32 0x7B2266726F6D223A2022466943616D2E736F6C222C2022636F6465223A20342C PUSH1 0x44 DUP3 ADD MSTORE PUSH32 0x20226D657373616765223A2022496E76616C69642070726F6475637420494420 PUSH1 0x64 DUP3 ADD MSTORE PUSH32 0x6F722070726F6475637420646F6573206E6F74206578697374227D0000000000 PUSH1 0x84 DUP3 ADD MSTORE PUSH1 0xA4 SWAP1 REVERT JUMPDEST MLOAD PUSH1 0x4 DUP2 LT ISZERO PUSH2 0x931 JUMPI SWAP1 JUMP JUMPDEST ISZERO PUSH2 0x43E2 JUMPI JUMP JUMPDEST PUSH1 0x40 MLOAD PUSH3 0x461BCD PUSH1 0xE5 SHL DUP2 MSTORE PUSH1 0x20 PUSH1 0x4 DUP3 ADD MSTORE PUSH1 0x19 PUSH1 0x24 DUP3 ADD MSTORE PUSH32 0x496E76616C696420737562736372697074696F6E207479706500000000000000 PUSH1 0x44 DUP3 ADD MSTORE PUSH1 0x64 SWAP1 REVERT JUMPDEST ISZERO PUSH2 0x442E JUMPI JUMP JUMPDEST PUSH1 0x40 MLOAD PUSH3 0x461BCD PUSH1 0xE5 SHL DUP2 MSTORE PUSH1 0x20 PUSH1 0x4 DUP3 ADD MSTORE PUSH1 0x1D PUSH1 0x24 DUP3 ADD MSTORE PUSH32 0x70726F647563742073746F72616765206973206E6F7420656E6F756768000000 PUSH1 0x44 DUP3 ADD MSTORE PUSH1 0x64 SWAP1 REVERT JUMPDEST SWAP2 SWAP1 DUP3 ADD DUP1 SWAP3 GT PUSH2 0x2CCF JUMPI JUMP JUMPDEST DUP2 DUP2 MUL SWAP3 SWAP2 DUP2 ISZERO SWAP2 DUP5 DIV EQ OR ISZERO PUSH2 0x2CCF JUMPI JUMP JUMPDEST PUSH1 0x4 DUP3 LT ISZERO PUSH2 0x931 JUMPI MSTORE JUMP JUMPDEST SWAP2 SWAP1 SWAP2 PUSH2 0x120 DUP2 ADD SWAP3 PUSH1 0x1 DUP1 PUSH1 0xA0 SHL SUB DUP1 DUP3 MLOAD AND DUP4 MSTORE PUSH1 0x20 DUP3 ADD MLOAD PUSH1 0x20 DUP5 ADD MSTORE PUSH1 0x40 DUP3 ADD MLOAD PUSH1 0x40 DUP5 ADD MSTORE PUSH2 0x44DB PUSH1 0x60 DUP4 ADD MLOAD PUSH1 0x60 DUP6 ADD SWAP1 PUSH2 0x3C00 JUMP JUMPDEST PUSH1 0x80 DUP3 ADD MLOAD PUSH1 0x80 DUP5 ADD MSTORE PUSH1 0xA0 DUP3 ADD MLOAD PUSH1 0xA0 DUP5 ADD MSTORE DUP1 PUSH1 0xC0 DUP4 ADD MLOAD AND PUSH1 0xC0 DUP5 ADD MSTORE PUSH1 0xE0 DUP3 ADD MLOAD AND PUSH1 0xE0 DUP4 ADD MSTORE PUSH2 0x100 DUP1 SWAP2 ADD MLOAD SWAP2 ADD MSTORE JUMP JUMPDEST SWAP1 DUP2 PUSH1 0x20 SWAP2 SUB SLT PUSH2 0x279 JUMPI MLOAD DUP1 ISZERO ISZERO DUP2 SUB PUSH2 0x279 JUMPI SWAP1 JUMP JUMPDEST PUSH2 0x4534 DUP2 SLOAD PUSH2 0x3A79 JUMP JUMPDEST SWAP1 DUP2 PUSH2 0x453E JUMPI POP POP JUMP JUMPDEST DUP2 PUSH1 0x1F PUSH1 0x0 SWAP4 GT PUSH1 0x1 EQ PUSH2 0x4550 JUMPI POP SSTORE JUMP JUMPDEST SWAP1 DUP1 DUP4 SWAP2 DUP3 MSTORE PUSH2 0x456F PUSH1 0x1F PUSH1 0x20 DUP5 KECCAK256 SWAP5 ADD PUSH1 0x5 SHR DUP5 ADD PUSH1 0x1 DUP6 ADD PUSH2 0x3F7D JUMP JUMPDEST SSTORE SSTORE JUMP JUMPDEST SWAP1 PUSH1 0x4 DUP2 LT ISZERO PUSH2 0x931 JUMPI PUSH1 0xFF DUP1 NOT DUP4 SLOAD AND SWAP2 AND OR SWAP1 SSTORE JUMP JUMPDEST SWAP4 SWAP3 SWAP2 PUSH2 0x45B4 SWAP1 PUSH2 0x45A6 PUSH1 0x40 SWAP4 PUSH1 0x60 DUP9 MSTORE PUSH1 0x60 DUP9 ADD SWAP1 PUSH2 0x36C6 JUMP JUMPDEST SWAP1 DUP7 DUP3 SUB PUSH1 0x20 DUP9 ADD MSTORE PUSH2 0x3CCF JUMP JUMPDEST SWAP4 ADD MSTORE JUMP JUMPDEST SWAP3 SWAP1 SWAP2 PUSH1 0x0 SWAP3 PUSH1 0x0 SWAP5 DUP1 MLOAD DUP7 MSTORE PUSH1 0x20 SWAP6 PUSH1 0xB DUP8 MSTORE PUSH1 0x40 SWAP2 DUP3 DUP3 KECCAK256 SWAP5 DUP3 SWAP4 DUP1 DUP4 ADD SWAP3 DUP4 MLOAD SWAP11 PUSH1 0x4 SWAP12 DUP13 DUP2 LT ISZERO PUSH2 0x47F6 JUMPI PUSH1 0x1 EQ PUSH2 0x482D JUMPI JUMPDEST DUP5 MLOAD DUP13 DUP2 LT ISZERO PUSH2 0x47F6 JUMPI PUSH1 0x2 EQ PUSH2 0x4809 JUMPI JUMPDEST DUP5 MLOAD DUP13 DUP2 LT ISZERO PUSH2 0x47F6 JUMPI PUSH1 0x3 EQ PUSH2 0x47BD JUMPI JUMPDEST DUP1 DUP3 ADD SWAP9 DUP10 MLOAD PUSH2 0x4629 PUSH1 0xB DUP4 ADD SWAP2 DUP3 SLOAD PUSH2 0x40DD JUMP JUMPDEST SWAP1 SSTORE PUSH2 0x463C PUSH1 0xD DUP12 MLOAD SWAP3 ADD SWAP2 DUP3 SLOAD PUSH2 0x4473 JUMP JUMPDEST SWAP1 SSTORE PUSH1 0x1 PUSH1 0x1 PUSH1 0xA0 SHL SUB DUP5 AND DUP1 DUP8 MSTORE PUSH1 0x11 DUP3 MSTORE DUP4 DUP8 KECCAK256 DUP10 DUP9 MSTORE DUP3 MSTORE DUP4 DUP8 KECCAK256 DUP4 MLOAD DUP9 MSTORE DUP3 MSTORE DUP4 DUP8 KECCAK256 TIMESTAMP SWAP1 SSTORE DUP6 MLOAD SWAP1 SWAP10 SWAP1 DUP14 DUP2 LT ISZERO PUSH2 0x47A9 JUMPI PUSH2 0x467F PUSH2 0x4685 SWAP2 PUSH2 0x4851 JUMP JUMPDEST TIMESTAMP PUSH2 0x6340 JUMP JUMPDEST DUP11 DUP9 MSTORE PUSH1 0x12 DUP4 MSTORE DUP5 DUP9 KECCAK256 DUP11 DUP10 MSTORE DUP4 MSTORE DUP5 DUP9 KECCAK256 DUP5 MLOAD DUP10 MSTORE DUP4 MSTORE DUP5 DUP9 KECCAK256 SSTORE DUP10 DUP8 MSTORE PUSH1 0x13 DUP3 MSTORE DUP4 DUP8 KECCAK256 DUP10 DUP9 MSTORE DUP3 MSTORE DUP4 DUP8 KECCAK256 DUP4 MLOAD DUP9 MSTORE DUP3 MSTORE DUP8 DUP5 DUP9 KECCAK256 SSTORE DUP10 DUP8 MSTORE PUSH1 0x14 DUP3 MSTORE DUP4 DUP8 KECCAK256 DUP10 DUP9 MSTORE DUP3 MSTORE DUP4 DUP8 KECCAK256 DUP4 MLOAD DUP9 MSTORE DUP3 MSTORE DUP4 DUP8 KECCAK256 SWAP1 DUP4 MLOAD DUP3 SSTORE MLOAD PUSH1 0x1 DUP3 ADD SSTORE DUP6 MLOAD SWAP1 DUP14 DUP3 LT ISZERO PUSH2 0x47A9 JUMPI SWAP1 PUSH1 0x2 PUSH2 0x46FC SWAP3 ADD PUSH2 0x4573 JUMP JUMPDEST DUP2 MLOAD SWAP9 DUP7 MSTORE PUSH1 0x12 DUP2 MSTORE DUP3 DUP7 KECCAK256 DUP9 DUP8 MSTORE DUP2 MSTORE DUP3 DUP7 KECCAK256 SWAP2 MLOAD DUP7 MSTORE MSTORE DUP1 DUP5 KECCAK256 SLOAD SWAP3 MLOAD SWAP4 DUP11 DUP6 LT ISZERO PUSH2 0x4796 JUMPI POP MLOAD PUSH1 0x1 PUSH1 0x1 PUSH1 0xA0 SHL SUB SWAP2 SWAP1 SWAP2 AND DUP2 MSTORE PUSH1 0x20 DUP2 ADD SWAP5 SWAP1 SWAP5 MSTORE PUSH1 0x40 DUP5 ADD SWAP5 SWAP1 SWAP5 MSTORE TIMESTAMP PUSH1 0x60 DUP5 ADD MSTORE PUSH1 0x80 DUP4 ADD SWAP4 SWAP1 SWAP4 MSTORE PUSH1 0xA0 DUP3 ADD SWAP3 SWAP1 SWAP3 MSTORE PUSH1 0xC0 DUP2 ADD SWAP2 SWAP1 SWAP2 MSTORE PUSH1 0x0 PUSH1 0xE0 DUP3 ADD MSTORE SWAP2 SWAP3 POP SWAP1 PUSH32 0x7A349466F0B119934B2376706BF145E6FABE7EB4B8C4CBA23BB8F5DC9CB74B75 SWAP1 PUSH2 0x100 SWAP1 LOG1 JUMP JUMPDEST PUSH4 0x4E487B71 PUSH1 0xE0 SHL DUP2 MSTORE PUSH1 0x21 DUP12 MSTORE PUSH1 0x24 SWAP1 REVERT JUMPDEST POP PUSH4 0x4E487B71 PUSH1 0xE0 SHL DUP8 MSTORE PUSH1 0x21 DUP14 MSTORE PUSH1 0x24 DUP8 REVERT JUMPDEST SWAP10 POP PUSH2 0x47EB SWAP6 POP PUSH2 0x47F0 PUSH1 0xA DUP10 ADD SLOAD PUSH2 0x47DB DUP13 DUP5 ADD SWAP2 DUP3 MLOAD SWAP1 PUSH2 0x4480 JUMP JUMPDEST SWAP8 DUP9 SWAP2 PUSH1 0x7 DUP13 ADD SLOAD SWAP1 MLOAD SWAP1 PUSH2 0x4480 JUMP JUMPDEST PUSH2 0x4473 JUMP JUMPDEST SWAP10 PUSH2 0x4614 JUMP JUMPDEST PUSH4 0x4E487B71 PUSH1 0xE0 SHL DUP8 MSTORE PUSH1 0x21 DUP14 MSTORE PUSH1 0x24 DUP8 REVERT JUMPDEST SWAP10 POP PUSH2 0x47EB SWAP6 POP PUSH2 0x4827 PUSH1 0x9 DUP10 ADD SLOAD PUSH2 0x47DB DUP13 DUP5 ADD SWAP2 DUP3 MLOAD SWAP1 PUSH2 0x4480 JUMP JUMPDEST SWAP10 PUSH2 0x4602 JUMP JUMPDEST SWAP10 POP PUSH2 0x47EB SWAP6 POP PUSH2 0x484B PUSH1 0x8 DUP10 ADD SLOAD PUSH2 0x47DB DUP13 DUP5 ADD SWAP2 DUP3 MLOAD SWAP1 PUSH2 0x4480 JUMP JUMPDEST SWAP10 PUSH2 0x45F0 JUMP JUMPDEST SWAP1 PUSH1 0x0 SWAP2 PUSH1 0x4 DUP2 LT ISZERO PUSH2 0x931 JUMPI DUP1 PUSH1 0x1 EQ PUSH2 0x4885 JUMPI JUMPDEST PUSH1 0x3 EQ DUP1 PUSH2 0x487C JUMPI JUMPDEST PUSH2 0x4876 JUMPI JUMP JUMPDEST PUSH1 0xC SWAP2 POP JUMP JUMPDEST PUSH1 0x6 SWAP3 POP PUSH2 0x4870 JUMP JUMPDEST PUSH1 0x1 SWAP3 POP PUSH2 0x4867 JUMP JUMPDEST PUSH1 0x40 MLOAD SWAP1 PUSH2 0x489B DUP3 PUSH2 0x3581 JUMP JUMPDEST DUP2 PUSH2 0x100 PUSH1 0x60 SWAP2 DUP3 DUP2 MSTORE DUP3 PUSH1 0x20 DUP3 ADD MSTORE DUP3 PUSH1 0x40 DUP3 ADD MSTORE DUP3 DUP1 DUP3 ADD MSTORE DUP3 PUSH1 0x80 DUP3 ADD MSTORE DUP3 PUSH1 0xA0 DUP3 ADD MSTORE DUP3 PUSH1 0xC0 DUP3 ADD MSTORE DUP3 PUSH1 0xE0 DUP3 ADD MSTORE ADD MSTORE JUMP JUMPDEST SWAP1 PUSH1 0x8 PUSH2 0x100 PUSH1 0x40 SWAP4 PUSH2 0x49BA DUP6 MLOAD SWAP2 PUSH2 0x48EA DUP4 PUSH2 0x3581 JUMP JUMPDEST PUSH2 0x49B3 DUP4 SWAP8 DUP1 MLOAD PUSH2 0x48FF DUP2 PUSH2 0xCD9 DUP2 DUP8 PUSH2 0x3AB3 JUMP JUMPDEST DUP6 MSTORE DUP1 MLOAD PUSH2 0x4914 DUP2 PUSH2 0xCD9 DUP2 PUSH1 0x1 DUP9 ADD PUSH2 0x3AB3 JUMP JUMPDEST PUSH1 0x20 DUP7 ADD MSTORE DUP1 MLOAD PUSH2 0x492C DUP2 PUSH2 0xCD9 DUP2 PUSH1 0x2 DUP9 ADD PUSH2 0x3AB3 JUMP JUMPDEST DUP2 DUP7 ADD MSTORE DUP1 MLOAD PUSH2 0x4943 DUP2 PUSH2 0xCD9 DUP2 PUSH1 0x3 DUP9 ADD PUSH2 0x3AB3 JUMP JUMPDEST PUSH1 0x60 DUP7 ADD MSTORE DUP1 MLOAD PUSH2 0x495B DUP2 PUSH2 0xCD9 DUP2 PUSH1 0x4 DUP9 ADD PUSH2 0x3AB3 JUMP JUMPDEST PUSH1 0x80 DUP7 ADD MSTORE DUP1 MLOAD PUSH2 0x4973 DUP2 PUSH2 0xCD9 DUP2 PUSH1 0x5 DUP9 ADD PUSH2 0x3AB3 JUMP JUMPDEST PUSH1 0xA0 DUP7 ADD MSTORE DUP1 MLOAD PUSH2 0x498B DUP2 PUSH2 0xCD9 DUP2 PUSH1 0x6 DUP9 ADD PUSH2 0x3AB3 JUMP JUMPDEST PUSH1 0xC0 DUP7 ADD MSTORE DUP1 MLOAD PUSH2 0x49A3 DUP2 PUSH2 0xCD9 DUP2 PUSH1 0x7 DUP9 ADD PUSH2 0x3AB3 JUMP JUMPDEST PUSH1 0xE0 DUP7 ADD MSTORE MLOAD DUP1 SWAP7 DUP2 SWAP4 ADD PUSH2 0x3AB3 JUMP JUMPDEST SUB DUP5 PUSH2 0x360A JUMP JUMPDEST ADD MSTORE JUMP JUMPDEST PUSH1 0x40 MLOAD SWAP1 PUSH2 0x49CB DUP3 PUSH2 0x35B8 JUMP JUMPDEST PUSH1 0x0 PUSH1 0xA0 DUP4 DUP3 DUP2 MSTORE DUP3 PUSH1 0x20 DUP3 ADD MSTORE PUSH1 0x60 PUSH1 0x40 DUP3 ADD MSTORE DUP3 PUSH1 0x60 DUP3 ADD MSTORE PUSH2 0x49EE PUSH2 0x488E JUMP JUMPDEST PUSH1 0x80 DUP3 ADD MSTORE ADD MSTORE JUMP JUMPDEST PUSH1 0x0 SWAP4 SWAP3 DUP5 SWAP3 SWAP1 DUP2 DUP4 GT PUSH2 0x4B28 JUMPI DUP1 MLOAD DUP5 SWAP4 JUMPDEST DUP2 DUP6 LT PUSH2 0x4AE1 JUMPI POP POP DUP4 SWAP2 DUP2 MLOAD JUMPDEST DUP1 DUP5 LT PUSH2 0x4A88 JUMPI POP POP POP DUP1 PUSH2 0x4A67 JUMPI POP DUP2 JUMPDEST DUP1 DUP3 GT ISZERO PUSH2 0x4A37 JUMPI POP POP POP JUMP JUMPDEST PUSH2 0x4A43 SWAP3 SWAP4 SWAP5 POP PUSH2 0x40DD JUMP JUMPDEST SWAP1 PUSH1 0x1 DUP3 ADD DUP1 SWAP3 GT PUSH2 0x4A53 JUMPI POP SWAP1 JUMP JUMPDEST PUSH4 0x4E487B71 PUSH1 0xE0 SHL DUP2 MSTORE PUSH1 0x11 PUSH1 0x4 MSTORE PUSH1 0x24 SWAP1 REVERT JUMPDEST PUSH1 0x0 NOT DUP2 ADD SWAP1 DUP2 GT ISZERO PUSH2 0x4A2A JUMPI PUSH4 0x4E487B71 PUSH1 0xE0 SHL DUP4 MSTORE PUSH1 0x11 PUSH1 0x4 MSTORE PUSH1 0x24 DUP4 REVERT JUMPDEST PUSH2 0x4A92 DUP5 DUP3 PUSH2 0x40DD JUMP JUMPDEST SWAP1 PUSH2 0x4AA1 PUSH1 0x1 SWAP3 DUP4 SHR DUP7 PUSH2 0x4473 JUMP JUMPDEST SWAP2 DUP4 PUSH2 0x4AAD DUP5 DUP8 PUSH2 0x42B0 JUMP JUMPDEST MLOAD GT ISZERO PUSH2 0x4ABB JUMPI POP POP PUSH2 0x4A18 JUMP JUMPDEST SWAP1 SWAP5 POP DUP2 ADD DUP1 SWAP2 GT PUSH2 0x4ACD JUMPI SWAP3 PUSH2 0x4A18 JUMP JUMPDEST PUSH4 0x4E487B71 PUSH1 0xE0 SHL DUP7 MSTORE PUSH1 0x11 PUSH1 0x4 MSTORE PUSH1 0x24 DUP7 REVERT JUMPDEST SWAP1 SWAP4 PUSH2 0x4AED DUP2 DUP7 PUSH2 0x40DD JUMP JUMPDEST PUSH2 0x4AFB PUSH1 0x1 SWAP2 DUP3 SHR DUP4 PUSH2 0x4473 JUMP JUMPDEST SWAP2 DUP4 PUSH2 0x4B07 DUP5 DUP8 PUSH2 0x42B0 JUMP JUMPDEST MLOAD LT ISZERO PUSH2 0x4B20 JUMPI POP DUP2 ADD DUP1 SWAP2 GT PUSH2 0x4ACD JUMPI SWAP4 JUMPDEST SWAP1 PUSH2 0x4A0A JUMP JUMPDEST SWAP6 POP POP PUSH2 0x4B1A JUMP JUMPDEST PUSH1 0x40 MLOAD PUSH3 0x461BCD PUSH1 0xE5 SHL DUP2 MSTORE PUSH1 0x20 PUSH1 0x4 DUP3 ADD MSTORE PUSH1 0x12 PUSH1 0x24 DUP3 ADD MSTORE PUSH18 0x496E76616C69642074696D652072616E6765 PUSH1 0x70 SHL PUSH1 0x44 DUP3 ADD MSTORE PUSH1 0x64 SWAP1 REVERT JUMPDEST SWAP1 PUSH2 0x4B6C DUP3 PUSH2 0x3849 JUMP JUMPDEST PUSH2 0x4B79 PUSH1 0x40 MLOAD SWAP2 DUP3 PUSH2 0x360A JUMP JUMPDEST DUP3 DUP2 MSTORE DUP1 SWAP3 PUSH2 0x4B8A PUSH1 0x1F NOT SWAP2 PUSH2 0x3849 JUMP JUMPDEST ADD SWAP1 PUSH1 0x0 JUMPDEST DUP3 DUP2 LT PUSH2 0x4B9B JUMPI POP POP POP JUMP JUMPDEST PUSH1 0x20 SWAP1 PUSH2 0x4BA6 PUSH2 0x49BE JUMP JUMPDEST DUP3 DUP3 DUP6 ADD ADD MSTORE ADD PUSH2 0x4B8F JUMP JUMPDEST SWAP2 SWAP1 SWAP2 PUSH1 0x60 SWAP3 CALLER PUSH1 0x0 MSTORE PUSH1 0xE PUSH1 0x20 MSTORE PUSH1 0x40 PUSH1 0x0 KECCAK256 SLOAD PUSH2 0x4BD0 DUP2 PUSH2 0x3849 JUMP JUMPDEST SWAP1 PUSH2 0x4BDE PUSH1 0x40 MLOAD SWAP3 DUP4 PUSH2 0x360A JUMP JUMPDEST DUP1 DUP3 MSTORE PUSH2 0x4BED PUSH1 0x1F NOT SWAP2 PUSH2 0x3849 JUMP JUMPDEST ADD SWAP1 PUSH1 0x20 CALLDATASIZE SWAP2 ADD CALLDATACOPY CALLER PUSH1 0x0 MSTORE PUSH1 0xE PUSH1 0x20 MSTORE PUSH1 0x40 PUSH1 0x0 KECCAK256 SWAP1 PUSH1 0x40 MLOAD DUP1 DUP4 PUSH1 0x20 DUP3 SWAP6 SLOAD SWAP4 DUP5 DUP2 MSTORE ADD SWAP1 PUSH1 0x0 MSTORE PUSH1 0x20 PUSH1 0x0 KECCAK256 SWAP3 PUSH1 0x0 JUMPDEST DUP2 DUP2 LT PUSH2 0x4F72 JUMPI POP POP PUSH2 0x4C35 SWAP3 POP SUB DUP4 PUSH2 0x360A JUMP JUMPDEST PUSH2 0x4C45 DUP2 PUSH4 0xFFFFFFFF DUP6 AND PUSH2 0x4480 JUMP JUMPDEST PUSH2 0x4C50 DUP3 DUP5 MLOAD PUSH2 0x4473 JUMP JUMPDEST LT ISZERO PUSH2 0x4C5F JUMPI POP POP POP PUSH1 0x0 SWAP2 SWAP1 JUMP JUMPDEST SWAP1 SWAP2 SWAP4 PUSH2 0x4C72 DUP3 PUSH4 0xFFFFFFFF DUP8 AND PUSH2 0x4480 JUMP JUMPDEST DUP4 MLOAD GT ISZERO PUSH2 0x4DE7 JUMPI POP PUSH2 0x4C84 DUP2 PUSH2 0x4B62 JUMP JUMPDEST SWAP4 PUSH1 0x0 JUMPDEST DUP6 MLOAD DUP2 LT ISZERO PUSH2 0x4DDD JUMPI PUSH2 0x4CB7 PUSH2 0x4CB1 DUP3 PUSH2 0x47EB DUP7 PUSH2 0x4CAC DUP2 PUSH4 0xFFFFFFFF DUP10 AND PUSH2 0x4480 JUMP JUMPDEST PUSH2 0x40DD JUMP JUMPDEST DUP6 PUSH2 0x42B0 JUMP JUMPDEST MLOAD PUSH1 0x0 MSTORE PUSH1 0xA PUSH1 0x20 MSTORE PUSH1 0x40 PUSH1 0x0 KECCAK256 PUSH1 0x40 MLOAD SWAP1 PUSH2 0x4CD2 DUP3 PUSH2 0x35B8 JUMP JUMPDEST DUP1 SLOAD DUP3 MSTORE PUSH1 0x1 DUP1 DUP3 ADD SLOAD PUSH1 0x1 PUSH1 0x1 PUSH1 0xA0 SHL SUB AND PUSH1 0x20 DUP5 ADD MSTORE PUSH1 0x2 DUP1 DUP4 ADD DUP1 SLOAD SWAP1 SWAP3 SWAP2 PUSH2 0x4CFD DUP3 PUSH2 0x3849 JUMP JUMPDEST SWAP4 PUSH2 0x4D0B PUSH1 0x40 MLOAD SWAP6 DUP7 PUSH2 0x360A JUMP JUMPDEST DUP3 DUP6 MSTORE PUSH1 0x20 DUP6 ADD SWAP1 PUSH1 0x0 MSTORE PUSH1 0x20 PUSH1 0x0 KECCAK256 SWAP2 PUSH1 0x0 SWAP2 JUMPDEST DUP5 DUP4 LT PUSH2 0x4D6C JUMPI POP POP POP POP POP POP DUP3 SWAP2 PUSH1 0xD SWAP2 PUSH1 0x40 PUSH2 0x4D67 SWAP7 SWAP6 ADD MSTORE PUSH1 0x3 DUP2 ADD SLOAD PUSH1 0x60 DUP5 ADD MSTORE PUSH2 0x4D51 PUSH1 0x4 DUP3 ADD PUSH2 0x48D2 JUMP JUMPDEST PUSH1 0x80 DUP5 ADD MSTORE ADD SLOAD PUSH1 0xA0 DUP3 ADD MSTORE PUSH2 0x2EAD DUP3 DUP10 PUSH2 0x42B0 JUMP JUMPDEST PUSH2 0x4C88 JUMP JUMPDEST PUSH1 0x5 PUSH1 0x20 DUP8 SWAP3 PUSH1 0x40 MLOAD PUSH2 0x4D7E DUP2 PUSH2 0x359D JUMP JUMPDEST DUP8 SLOAD DUP2 MSTORE DUP5 DUP9 ADD SLOAD DUP4 DUP3 ADD MSTORE PUSH2 0x4D9D PUSH1 0xFF DUP8 DUP11 ADD SLOAD AND PUSH1 0x40 DUP4 ADD PUSH2 0x4493 JUMP JUMPDEST PUSH1 0x40 MLOAD PUSH2 0x4DB1 DUP2 PUSH2 0xCD9 DUP2 PUSH1 0x3 DUP14 ADD PUSH2 0x3AB3 JUMP JUMPDEST PUSH1 0x60 DUP3 ADD MSTORE PUSH1 0x40 MLOAD PUSH2 0x4DCA DUP2 PUSH2 0xCD9 DUP2 PUSH1 0x4 DUP14 ADD PUSH2 0x3AB3 JUMP JUMPDEST PUSH1 0x80 DUP3 ADD MSTORE DUP2 MSTORE ADD SWAP5 ADD SWAP3 ADD SWAP2 SWAP3 PUSH2 0x4D20 JUMP JUMPDEST POP POP POP POP PUSH1 0x1 SWAP2 SWAP1 JUMP JUMPDEST SWAP2 SWAP1 PUSH2 0x4E15 PUSH2 0x4E10 PUSH2 0x4E0A PUSH2 0x4E02 DUP5 PUSH4 0xFFFFFFFF DUP11 AND PUSH2 0x4480 JUMP JUMPDEST DUP6 MLOAD SWAP1 PUSH2 0x40DD JUMP JUMPDEST DUP4 PUSH2 0x40DD JUMP JUMPDEST PUSH2 0x4B62 JUMP JUMPDEST SWAP5 PUSH1 0x0 JUMPDEST DUP7 MLOAD DUP2 LT ISZERO PUSH2 0x4F67 JUMPI PUSH2 0x4E3D PUSH2 0x4CB1 DUP3 PUSH2 0x47EB DUP7 PUSH2 0x4CAC DUP2 PUSH4 0xFFFFFFFF DUP10 AND PUSH2 0x4480 JUMP JUMPDEST MLOAD PUSH1 0x0 MSTORE PUSH1 0xA PUSH1 0x20 MSTORE PUSH1 0x40 PUSH1 0x0 KECCAK256 PUSH1 0x40 MLOAD SWAP1 PUSH2 0x4E58 DUP3 PUSH2 0x35B8 JUMP JUMPDEST DUP1 SLOAD DUP3 MSTORE PUSH1 0x1 DUP2 ADD SLOAD PUSH1 0x1 PUSH1 0x1 PUSH1 0xA0 SHL SUB AND PUSH1 0x20 DUP4 ADD MSTORE PUSH1 0x2 DUP2 ADD DUP1 SLOAD PUSH2 0x4E7E DUP2 PUSH2 0x3849 JUMP JUMPDEST SWAP2 PUSH2 0x4E8C PUSH1 0x40 MLOAD SWAP4 DUP5 PUSH2 0x360A JUMP JUMPDEST DUP2 DUP4 MSTORE PUSH1 0x20 DUP4 ADD SWAP1 PUSH1 0x0 MSTORE PUSH1 0x20 PUSH1 0x0 KECCAK256 SWAP1 PUSH1 0x0 SWAP1 JUMPDEST DUP12 DUP5 DUP4 LT PUSH2 0x4EEC JUMPI POP POP POP POP POP DUP3 SWAP2 PUSH1 0xD SWAP2 PUSH1 0x40 PUSH2 0x4EE7 SWAP7 SWAP6 ADD MSTORE PUSH1 0x3 DUP2 ADD SLOAD DUP10 DUP5 ADD MSTORE PUSH2 0x4ED1 PUSH1 0x4 DUP3 ADD PUSH2 0x48D2 JUMP JUMPDEST PUSH1 0x80 DUP5 ADD MSTORE ADD SLOAD PUSH1 0xA0 DUP3 ADD MSTORE PUSH2 0x1C93 DUP3 DUP11 PUSH2 0x42B0 JUMP JUMPDEST PUSH2 0x4E19 JUMP JUMPDEST PUSH1 0x20 PUSH1 0x1 SWAP3 PUSH1 0x5 SWAP3 PUSH1 0x40 MLOAD SWAP1 PUSH2 0x4F01 DUP3 PUSH2 0x359D JUMP JUMPDEST DUP8 SLOAD DUP3 MSTORE DUP6 DUP9 ADD SLOAD DUP5 DUP4 ADD MSTORE PUSH2 0x4F21 PUSH1 0xFF PUSH1 0x2 DUP11 ADD SLOAD AND PUSH1 0x40 DUP5 ADD PUSH2 0x4493 JUMP JUMPDEST PUSH1 0x40 MLOAD SWAP1 PUSH2 0x4F3D DUP3 PUSH2 0x4F36 DUP2 PUSH1 0x3 DUP14 ADD PUSH2 0x3AB3 JUMP JUMPDEST SUB DUP4 PUSH2 0x360A JUMP JUMPDEST DUP3 ADD MSTORE PUSH1 0x40 MLOAD PUSH2 0x4F54 DUP2 PUSH2 0xCD9 DUP2 PUSH1 0x4 DUP13 ADD PUSH2 0x3AB3 JUMP JUMPDEST PUSH1 0x80 DUP3 ADD MSTORE DUP2 MSTORE ADD SWAP4 ADD SWAP2 ADD SWAP1 SWAP2 PUSH2 0x4EA1 JUMP JUMPDEST POP POP POP POP POP PUSH1 0x0 SWAP2 SWAP1 JUMP JUMPDEST DUP5 SLOAD DUP4 MSTORE PUSH1 0x1 SWAP5 DUP6 ADD SWAP5 DUP8 SWAP5 POP PUSH1 0x20 SWAP1 SWAP4 ADD SWAP3 ADD PUSH2 0x4C20 JUMP JUMPDEST SWAP2 SWAP4 SWAP3 SWAP4 PUSH1 0x60 SWAP2 DUP3 DUP5 ADD SWAP3 DUP1 DUP6 MSTORE DUP2 MLOAD DUP1 SWAP5 MSTORE PUSH1 0x80 DUP6 ADD SWAP4 PUSH1 0x20 DUP1 SWAP4 ADD SWAP2 PUSH1 0x0 SWAP1 JUMPDEST DUP3 DUP3 LT PUSH2 0x4FDB JUMPI POP POP POP POP DUP4 DUP4 SUB SWAP1 DUP5 ADD MSTORE PUSH1 0x40 SWAP2 PUSH2 0x4FCB SWAP2 PUSH2 0x3C0D JUMP JUMPDEST PUSH1 0x1 PUSH1 0x1 PUSH1 0xA0 SHL SUB SWAP1 SWAP5 AND SWAP2 ADD MSTORE JUMP JUMPDEST SWAP1 SWAP2 SWAP3 SWAP6 DUP5 DUP3 PUSH1 0x1 SWAP3 PUSH2 0x5004 DUP11 MLOAD DUP1 MLOAD DUP4 MSTORE DUP5 DUP2 ADD MLOAD DUP6 DUP5 ADD MSTORE PUSH1 0x40 DUP1 SWAP2 ADD MLOAD SWAP1 DUP4 ADD SWAP1 PUSH2 0x3C00 JUMP JUMPDEST ADD SWAP8 ADD SWAP4 SWAP3 ADD SWAP1 PUSH2 0x4FAD JUMP JUMPDEST SWAP3 SWAP2 SWAP1 PUSH2 0x5025 SWAP1 PUSH1 0x40 DUP6 MSTORE PUSH1 0x40 DUP6 ADD SWAP1 PUSH2 0x36C6 JUMP JUMPDEST SWAP3 PUSH1 0x2 DUP3 LT ISZERO PUSH2 0x931 JUMPI PUSH1 0x20 ADD MSTORE JUMP JUMPDEST SWAP1 SWAP3 SWAP2 SWAP3 PUSH2 0x5042 DUP2 PUSH2 0x362B JUMP JUMPDEST SWAP2 PUSH2 0x5050 PUSH1 0x40 MLOAD SWAP4 DUP5 PUSH2 0x360A JUMP JUMPDEST DUP3 SWAP5 DUP3 DUP5 MSTORE DUP3 DUP3 ADD GT PUSH2 0x279 JUMPI PUSH1 0x20 PUSH2 0x3FCF SWAP4 ADD SWAP1 PUSH2 0x36A3 JUMP JUMPDEST DUP1 MLOAD DUP2 ADD PUSH1 0x40 DUP3 PUSH1 0x20 DUP4 ADD SWAP3 SUB SLT PUSH2 0x279 JUMPI PUSH1 0x20 DUP3 ADD MLOAD PUSH1 0x1 PUSH1 0x1 PUSH1 0x40 SHL SUB DUP2 GT PUSH2 0x279 JUMPI DUP3 ADD DUP2 PUSH1 0x3F DUP3 ADD SLT ISZERO PUSH2 0x279 JUMPI PUSH1 0x40 SWAP2 DUP2 DUP4 PUSH1 0x20 PUSH2 0x50B0 SWAP5 ADD MLOAD SWAP2 ADD PUSH2 0x5035 JUMP JUMPDEST SWAP2 ADD MLOAD PUSH1 0x2 DUP2 LT ISZERO PUSH2 0x279 JUMPI DUP1 ISZERO PUSH2 0x523F JUMPI PUSH1 0x1 EQ PUSH2 0x50D1 JUMPI POP POP POP PUSH1 0x0 SWAP1 JUMP JUMPDEST PUSH1 0x40 DUP2 DUP1 MLOAD DUP2 ADD SUB SLT PUSH2 0x279 JUMPI PUSH1 0x40 PUSH1 0x20 DUP3 ADD MLOAD SWAP2 ADD MLOAD SWAP3 PUSH1 0x0 DUP3 DUP2 MSTORE PUSH1 0xA PUSH1 0x20 MSTORE PUSH1 0x1 DUP1 PUSH1 0xA0 SHL SUB PUSH1 0x1 PUSH1 0x40 DUP4 KECCAK256 ADD SLOAD AND SWAP5 DUP6 DUP3 MSTORE PUSH1 0x13 PUSH1 0x20 MSTORE PUSH1 0x40 DUP3 KECCAK256 DUP5 DUP4 MSTORE PUSH1 0x20 MSTORE PUSH1 0x40 DUP3 KECCAK256 DUP2 DUP4 MSTORE PUSH1 0x20 MSTORE PUSH2 0x5131 PUSH1 0x40 DUP4 KECCAK256 SLOAD DUP1 SWAP5 LT ISZERO PUSH2 0x62BB JUMP JUMPDEST DUP6 DUP3 MSTORE PUSH1 0x14 PUSH1 0x20 MSTORE PUSH1 0x40 DUP3 KECCAK256 DUP5 DUP4 MSTORE PUSH1 0x20 MSTORE PUSH1 0x40 DUP3 KECCAK256 DUP2 DUP4 MSTORE PUSH1 0x20 MSTORE PUSH1 0xFF PUSH1 0x2 PUSH1 0x40 DUP5 KECCAK256 ADD SLOAD AND SWAP4 DUP7 DUP4 MSTORE PUSH1 0x12 PUSH1 0x20 MSTORE PUSH1 0x40 DUP4 KECCAK256 DUP2 DUP5 MSTORE PUSH1 0x20 MSTORE PUSH1 0x40 DUP4 KECCAK256 DUP3 DUP5 MSTORE PUSH1 0x20 MSTORE PUSH2 0x5186 PUSH1 0x40 DUP5 KECCAK256 SLOAD PUSH2 0x869 DUP8 PUSH2 0x4851 JUMP JUMPDEST DUP8 DUP5 MSTORE PUSH1 0x12 PUSH1 0x20 MSTORE PUSH1 0x40 DUP5 KECCAK256 DUP3 DUP6 MSTORE PUSH1 0x20 MSTORE PUSH1 0x40 DUP5 KECCAK256 DUP4 DUP6 MSTORE PUSH1 0x20 MSTORE PUSH1 0x40 DUP5 KECCAK256 SSTORE DUP7 DUP4 MSTORE PUSH1 0x12 PUSH1 0x20 MSTORE PUSH1 0x40 DUP4 KECCAK256 DUP2 DUP5 MSTORE PUSH1 0x20 MSTORE PUSH1 0x40 DUP4 KECCAK256 DUP3 DUP5 MSTORE PUSH1 0x20 MSTORE PUSH1 0x40 DUP4 KECCAK256 SLOAD SWAP3 PUSH1 0x4 DUP7 LT ISZERO PUSH2 0x522B JUMPI POP PUSH1 0x40 DUP1 MLOAD SWAP8 DUP9 MSTORE PUSH1 0x20 DUP9 ADD SWAP2 SWAP1 SWAP2 MSTORE DUP7 ADD MSTORE TIMESTAMP PUSH1 0x60 DUP7 ADD MSTORE PUSH1 0x80 DUP6 ADD MSTORE PUSH1 0xA0 DUP5 ADD MSTORE PUSH1 0xC0 DUP4 ADD MSTORE PUSH1 0xE0 DUP3 ADD MSTORE PUSH32 0x7A349466F0B119934B2376706BF145E6FABE7EB4B8C4CBA23BB8F5DC9CB74B75 SWAP1 PUSH2 0x100 SWAP1 LOG1 PUSH1 0x1 SWAP1 JUMP JUMPDEST PUSH4 0x4E487B71 PUSH1 0xE0 SHL DUP2 MSTORE PUSH1 0x21 PUSH1 0x4 MSTORE PUSH1 0x24 SWAP1 REVERT JUMPDEST POP SWAP2 SWAP1 DUP3 MLOAD DUP4 ADD SWAP2 PUSH1 0x60 DUP5 DUP5 SUB SLT PUSH2 0x279 JUMPI PUSH1 0x20 DUP5 ADD MLOAD PUSH1 0x1 PUSH1 0x1 PUSH1 0x40 SHL SUB DUP2 GT PUSH2 0x279 JUMPI DUP5 ADD SWAP3 PUSH1 0x20 DUP2 ADD PUSH1 0x3F DUP6 ADD SLT ISZERO PUSH2 0x279 JUMPI PUSH1 0x20 DUP5 ADD MLOAD PUSH2 0x5283 DUP2 PUSH2 0x3849 JUMP JUMPDEST SWAP5 PUSH2 0x5291 PUSH1 0x40 MLOAD SWAP7 DUP8 PUSH2 0x360A JUMP JUMPDEST DUP2 DUP7 MSTORE PUSH1 0x40 PUSH1 0x60 PUSH1 0x20 DUP9 ADD SWAP4 MUL DUP3 ADD ADD SWAP1 PUSH1 0x20 DUP5 ADD DUP3 GT PUSH2 0x279 JUMPI PUSH1 0x40 ADD SWAP2 JUMPDEST DUP2 DUP4 LT PUSH2 0x6254 JUMPI POP POP POP PUSH1 0x40 DUP6 ADD MLOAD SWAP5 PUSH1 0x1 PUSH1 0x1 PUSH1 0x40 SHL SUB DUP7 GT PUSH2 0x279 JUMPI PUSH2 0x120 DUP7 DUP3 ADD DUP4 SUB SLT PUSH2 0x279 JUMPI PUSH1 0x40 MLOAD SWAP6 PUSH2 0x52E9 DUP8 PUSH2 0x3581 JUMP JUMPDEST PUSH1 0x20 DUP2 DUP4 ADD ADD MLOAD PUSH1 0x1 PUSH1 0x1 PUSH1 0x40 SHL SUB DUP2 GT PUSH2 0x279 JUMPI PUSH2 0x5312 SWAP1 PUSH1 0x20 DUP1 DUP7 ADD SWAP2 DUP5 DUP7 ADD ADD ADD PUSH2 0x62A1 JUMP JUMPDEST DUP8 MSTORE PUSH1 0x40 DUP2 DUP4 ADD ADD MLOAD PUSH1 0x1 PUSH1 0x1 PUSH1 0x40 SHL SUB DUP2 GT PUSH2 0x279 JUMPI PUSH2 0x533D SWAP1 PUSH1 0x20 DUP1 DUP7 ADD SWAP2 DUP5 DUP7 ADD ADD ADD PUSH2 0x62A1 JUMP JUMPDEST PUSH1 0x20 DUP9 ADD MSTORE PUSH1 0x60 DUP2 DUP4 ADD ADD MLOAD PUSH1 0x1 PUSH1 0x1 PUSH1 0x40 SHL SUB DUP2 GT PUSH2 0x279 JUMPI PUSH2 0x536B SWAP1 PUSH1 0x20 DUP1 DUP7 ADD SWAP2 DUP5 DUP7 ADD ADD ADD PUSH2 0x62A1 JUMP JUMPDEST PUSH1 0x40 DUP9 ADD MSTORE PUSH1 0x80 DUP2 DUP4 ADD ADD MLOAD PUSH1 0x1 PUSH1 0x1 PUSH1 0x40 SHL SUB DUP2 GT PUSH2 0x279 JUMPI PUSH2 0x5399 SWAP1 PUSH1 0x20 DUP1 DUP7 ADD SWAP2 DUP5 DUP7 ADD ADD ADD PUSH2 0x62A1 JUMP JUMPDEST PUSH1 0x60 DUP9 ADD MSTORE PUSH1 0xA0 DUP2 DUP4 ADD ADD MLOAD PUSH1 0x1 PUSH1 0x1 PUSH1 0x40 SHL SUB DUP2 GT PUSH2 0x279 JUMPI PUSH2 0x53C7 SWAP1 PUSH1 0x20 DUP1 DUP7 ADD SWAP2 DUP5 DUP7 ADD ADD ADD PUSH2 0x62A1 JUMP JUMPDEST PUSH1 0x80 DUP9 ADD MSTORE PUSH1 0xC0 DUP2 DUP4 ADD ADD MLOAD PUSH1 0x1 PUSH1 0x1 PUSH1 0x40 SHL SUB DUP2 GT PUSH2 0x279 JUMPI PUSH2 0x53F5 SWAP1 PUSH1 0x20 DUP1 DUP7 ADD SWAP2 DUP5 DUP7 ADD ADD ADD PUSH2 0x62A1 JUMP JUMPDEST PUSH1 0xA0 DUP9 ADD MSTORE PUSH1 0xE0 DUP2 DUP4 ADD ADD MLOAD PUSH1 0x1 PUSH1 0x1 PUSH1 0x40 SHL SUB DUP2 GT PUSH2 0x279 JUMPI PUSH2 0x5423 SWAP1 PUSH1 0x20 DUP1 DUP7 ADD SWAP2 DUP5 DUP7 ADD ADD ADD PUSH2 0x62A1 JUMP JUMPDEST PUSH1 0xC0 DUP9 ADD MSTORE PUSH2 0x100 DUP2 DUP4 ADD ADD MLOAD PUSH1 0x1 PUSH1 0x1 PUSH1 0x40 SHL SUB DUP2 GT PUSH2 0x279 JUMPI PUSH2 0x5452 SWAP1 PUSH1 0x20 DUP1 DUP7 ADD SWAP2 DUP5 DUP7 ADD ADD ADD PUSH2 0x62A1 JUMP JUMPDEST PUSH1 0xE0 DUP9 ADD MSTORE PUSH2 0x120 DUP2 DUP4 ADD ADD MLOAD SWAP1 PUSH1 0x1 PUSH1 0x1 PUSH1 0x40 SHL SUB DUP3 GT PUSH2 0x279 JUMPI PUSH1 0x20 PUSH2 0x5483 SWAP3 DUP2 PUSH1 0x60 SWAP7 ADD SWAP3 DUP6 ADD ADD ADD PUSH2 0x62A1 JUMP JUMPDEST PUSH2 0x100 DUP8 ADD MSTORE ADD MLOAD SWAP3 PUSH1 0x1 PUSH1 0x1 PUSH1 0xA0 SHL SUB DUP5 AND DUP5 SUB PUSH2 0x279 JUMPI DUP1 MLOAD PUSH1 0x40 MLOAD PUSH1 0x60 DUP7 SWAP1 SHL PUSH12 0xFFFFFFFFFFFFFFFFFFFFFFFF NOT AND PUSH1 0x20 DUP3 ADD SWAP1 DUP2 MSTORE PUSH1 0x34 DUP3 ADD SWAP3 SWAP1 SWAP3 MSTORE TIMESTAMP PUSH1 0x54 DUP3 ADD MSTORE PUSH2 0x54D7 DUP2 PUSH1 0x74 DUP2 ADD PUSH2 0x5D9 JUMP JUMPDEST MLOAD SWAP1 KECCAK256 SWAP6 PUSH1 0x0 SWAP1 PUSH2 0x54E8 DUP4 MLOAD PUSH2 0x42C4 JUMP JUMPDEST SWAP4 DUP3 JUMPDEST DUP5 MLOAD DUP2 LT ISZERO PUSH2 0x5705 JUMPI PUSH2 0x54FE DUP2 DUP7 PUSH2 0x42B0 JUMP JUMPDEST MLOAD SWAP1 DUP2 MLOAD PUSH1 0x0 MSTORE PUSH1 0xB PUSH1 0x20 MSTORE PUSH2 0x551A PUSH1 0x40 PUSH1 0x0 KECCAK256 SLOAD ISZERO ISZERO PUSH2 0x4336 JUMP JUMPDEST PUSH1 0x4 PUSH1 0x40 DUP4 ADD MLOAD LT DUP1 ISZERO PUSH2 0x931 JUMPI PUSH2 0x5531 SWAP1 PUSH2 0x43DB JUMP JUMPDEST DUP2 MLOAD PUSH1 0x0 MSTORE PUSH1 0xB PUSH1 0x20 MSTORE PUSH1 0x40 PUSH1 0x0 KECCAK256 SWAP5 PUSH2 0x5550 PUSH1 0xB DUP8 ADD SLOAD ISZERO ISZERO PUSH2 0x4427 JUMP JUMPDEST PUSH1 0x40 DUP4 ADD MLOAD PUSH1 0x4 DUP2 LT ISZERO PUSH2 0x931 JUMPI PUSH2 0x56E7 JUMPI PUSH2 0x55A1 SWAP1 PUSH2 0x1FF2 PUSH1 0x20 DUP6 ADD PUSH2 0x557C DUP2 MLOAD PUSH1 0xB DUP12 ADD SLOAD PUSH2 0x40DD JUMP JUMPDEST PUSH1 0xB DUP11 ADD SSTORE DUP1 MLOAD PUSH2 0x5592 PUSH1 0xC DUP12 ADD SWAP2 DUP3 SLOAD PUSH2 0x4473 JUMP JUMPDEST SWAP1 SSTORE PUSH1 0x6 DUP10 ADD SLOAD SWAP1 MLOAD SWAP1 PUSH2 0x4480 JUMP JUMPDEST SWAP5 JUMPDEST PUSH1 0x20 DUP4 ADD MLOAD SWAP3 PUSH1 0x6 DUP3 ADD SLOAD SWAP1 PUSH1 0x40 DUP2 ADD MLOAD PUSH1 0x4 DUP2 LT ISZERO PUSH2 0x931 JUMPI PUSH2 0x56E2 SWAP6 PUSH32 0xD0CB37444E42A97B69191186CAC71D299BF85A8F4472C9E55CD9F7EB26C5B1E SWAP4 PUSH2 0x5625 DUP16 SWAP4 PUSH2 0x564E SWAP6 MLOAD SWAP3 PUSH1 0x1 DUP1 PUSH1 0xA0 SHL SUB PUSH1 0x2 SLOAD AND SWAP5 PUSH1 0x40 MLOAD SWAP7 PUSH2 0x5607 DUP9 PUSH2 0x3581 JUMP JUMPDEST PUSH1 0x1 PUSH1 0x1 PUSH1 0xA0 SHL SUB AND DUP8 MSTORE PUSH1 0x20 DUP8 ADD MSTORE PUSH1 0x40 DUP7 ADD MSTORE PUSH1 0x60 DUP6 ADD PUSH2 0x4493 JUMP JUMPDEST TIMESTAMP PUSH1 0x80 DUP5 ADD MSTORE PUSH1 0xA0 DUP4 ADD MSTORE CALLER PUSH1 0xC0 DUP4 ADD MSTORE PUSH1 0xE0 DUP3 ADD MSTORE DUP12 PUSH2 0x100 DUP3 ADD MSTORE PUSH1 0x40 MLOAD SWAP2 DUP3 SWAP2 DUP3 PUSH2 0x449F JUMP JUMPDEST SUB SWAP1 LOG1 PUSH1 0x1 PUSH2 0x56D3 PUSH2 0x5660 DUP5 DUP11 PUSH2 0x42B0 JUMP JUMPDEST MLOAD MLOAD SWAP3 PUSH2 0x56AA DUP11 PUSH2 0x568C PUSH1 0x40 PUSH2 0x5685 DUP10 PUSH1 0x20 PUSH2 0x567C DUP3 DUP8 PUSH2 0x42B0 JUMP JUMPDEST MLOAD ADD MLOAD SWAP5 PUSH2 0x42B0 JUMP JUMPDEST MLOAD ADD PUSH2 0x43CE JUMP JUMPDEST SWAP1 PUSH1 0x40 MLOAD SWAP7 PUSH2 0x569A DUP9 PUSH2 0x359D JUMP JUMPDEST DUP8 MSTORE PUSH1 0x20 DUP8 ADD MSTORE PUSH1 0x40 DUP7 ADD PUSH2 0x4493 JUMP JUMPDEST PUSH1 0x40 MLOAD PUSH2 0x56BE DUP2 PUSH2 0xCD9 DUP2 PUSH1 0x2 DUP7 ADD PUSH2 0x3AB3 JUMP JUMPDEST PUSH1 0x60 DUP6 ADD MSTORE PUSH2 0xCD9 PUSH1 0x40 MLOAD DUP1 SWAP5 DUP2 SWAP4 ADD PUSH2 0x3AB3 JUMP JUMPDEST PUSH1 0x80 DUP3 ADD MSTORE PUSH2 0x2EAD DUP3 DUP10 PUSH2 0x42B0 JUMP JUMPDEST PUSH2 0x54EB JUMP JUMPDEST PUSH2 0x56FF SWAP1 PUSH2 0x1FF2 PUSH1 0x1 PUSH1 0x1 PUSH1 0xA0 SHL SUB DUP13 AND DUP15 DUP7 PUSH2 0x45B9 JUMP JUMPDEST SWAP5 PUSH2 0x55A3 JUMP JUMPDEST POP SWAP5 POP SWAP6 SWAP3 SWAP5 SWAP7 SWAP2 POP PUSH2 0x571A SWAP1 DUP5 LT ISZERO PUSH2 0x62BB JUMP JUMPDEST PUSH1 0x40 MLOAD SWAP4 PUSH2 0x5727 DUP6 PUSH2 0x35B8 JUMP JUMPDEST DUP2 DUP6 MSTORE PUSH1 0x1 DUP1 PUSH1 0xA0 SHL SUB DUP8 AND PUSH1 0x20 DUP7 ADD MSTORE PUSH1 0x40 DUP6 ADD MSTORE TIMESTAMP PUSH1 0x60 DUP6 ADD MSTORE DUP2 PUSH1 0x80 DUP6 ADD MSTORE PUSH1 0x5 PUSH1 0xA0 DUP6 ADD MSTORE DUP1 PUSH1 0x0 MSTORE PUSH1 0xA PUSH1 0x20 MSTORE PUSH1 0x40 PUSH1 0x0 KECCAK256 SWAP6 DUP5 MLOAD DUP8 SSTORE PUSH1 0x1 DUP8 ADD PUSH1 0x1 DUP1 PUSH1 0xA0 SHL SUB PUSH1 0x20 DUP8 ADD MLOAD AND PUSH1 0x1 PUSH1 0x1 PUSH1 0x60 SHL SUB PUSH1 0xA0 SHL DUP3 SLOAD AND OR SWAP1 SSTORE PUSH1 0x40 DUP6 ADD MLOAD DUP1 MLOAD SWAP1 PUSH1 0x1 PUSH1 0x40 SHL DUP3 GT PUSH2 0x12E7 JUMPI PUSH1 0x2 DUP10 ADD SLOAD DUP3 PUSH1 0x2 DUP12 ADD SSTORE DUP1 DUP4 LT PUSH2 0x61E3 JUMPI JUMPDEST POP PUSH1 0x20 ADD SWAP1 PUSH1 0x2 DUP10 ADD PUSH1 0x0 MSTORE PUSH1 0x20 PUSH1 0x0 KECCAK256 SWAP2 PUSH1 0x0 SWAP1 JUMPDEST DUP3 DUP3 LT PUSH2 0x5FF6 JUMPI POP POP POP POP PUSH1 0x60 DUP6 ADD MLOAD PUSH1 0x3 DUP9 ADD SSTORE PUSH1 0x80 DUP6 ADD MLOAD DUP1 MLOAD DUP1 MLOAD SWAP1 PUSH1 0x1 PUSH1 0x1 PUSH1 0x40 SHL SUB DUP3 GT PUSH2 0x12E7 JUMPI DUP2 SWAP1 PUSH2 0x580A DUP3 DUP13 PUSH1 0x4 PUSH2 0x5803 DUP2 DUP4 ADD SLOAD PUSH2 0x3A79 JUMP JUMPDEST SWAP2 ADD PUSH2 0x3F94 JUMP JUMPDEST PUSH1 0x20 SWAP1 PUSH1 0x1F DUP4 GT PUSH1 0x1 EQ PUSH2 0x5F84 JUMPI PUSH1 0x0 SWAP3 PUSH2 0x5F79 JUMPI JUMPDEST POP POP DUP2 PUSH1 0x1 SHL SWAP2 PUSH1 0x0 NOT SWAP1 PUSH1 0x3 SHL SHR NOT AND OR PUSH1 0x4 DUP10 ADD SSTORE JUMPDEST PUSH1 0x20 DUP2 ADD MLOAD DUP1 MLOAD SWAP1 PUSH1 0x1 PUSH1 0x1 PUSH1 0x40 SHL SUB DUP3 GT PUSH2 0x12E7 JUMPI DUP2 SWAP1 PUSH2 0x5863 DUP3 DUP13 PUSH1 0x5 PUSH2 0x5803 DUP2 DUP4 ADD SLOAD PUSH2 0x3A79 JUMP JUMPDEST PUSH1 0x20 SWAP1 PUSH1 0x1F DUP4 GT PUSH1 0x1 EQ PUSH2 0x5F07 JUMPI PUSH1 0x0 SWAP3 PUSH2 0x5EFC JUMPI JUMPDEST POP POP DUP2 PUSH1 0x1 SHL SWAP2 PUSH1 0x0 NOT SWAP1 PUSH1 0x3 SHL SHR NOT AND OR PUSH1 0x5 DUP10 ADD SSTORE JUMPDEST PUSH1 0x40 DUP2 ADD MLOAD DUP1 MLOAD SWAP1 PUSH1 0x1 PUSH1 0x1 PUSH1 0x40 SHL SUB DUP3 GT PUSH2 0x12E7 JUMPI DUP2 SWAP1 PUSH2 0x58BC DUP3 DUP13 PUSH1 0x6 PUSH2 0x5803 DUP2 DUP4 ADD SLOAD PUSH2 0x3A79 JUMP JUMPDEST PUSH1 0x20 SWAP1 PUSH1 0x1F DUP4 GT PUSH1 0x1 EQ PUSH2 0x5E8A JUMPI PUSH1 0x0 SWAP3 PUSH2 0x5E7F JUMPI JUMPDEST POP POP DUP2 PUSH1 0x1 SHL SWAP2 PUSH1 0x0 NOT SWAP1 PUSH1 0x3 SHL SHR NOT AND OR PUSH1 0x6 DUP10 ADD SSTORE JUMPDEST PUSH1 0x60 DUP2 ADD MLOAD DUP1 MLOAD SWAP1 PUSH1 0x1 PUSH1 0x1 PUSH1 0x40 SHL SUB DUP3 GT PUSH2 0x12E7 JUMPI DUP2 SWAP1 PUSH2 0x5915 DUP3 DUP13 PUSH1 0x7 PUSH2 0x5803 DUP2 DUP4 ADD SLOAD PUSH2 0x3A79 JUMP JUMPDEST PUSH1 0x20 SWAP1 PUSH1 0x1F DUP4 GT PUSH1 0x1 EQ PUSH2 0x5E0D JUMPI PUSH1 0x0 SWAP3 PUSH2 0x5E02 JUMPI JUMPDEST POP POP DUP2 PUSH1 0x1 SHL SWAP2 PUSH1 0x0 NOT SWAP1 PUSH1 0x3 SHL SHR NOT AND OR PUSH1 0x7 DUP10 ADD SSTORE JUMPDEST PUSH1 0x80 DUP2 ADD MLOAD DUP1 MLOAD SWAP1 PUSH1 0x1 PUSH1 0x1 PUSH1 0x40 SHL SUB DUP3 GT PUSH2 0x12E7 JUMPI DUP2 SWAP1 PUSH2 0x596E DUP3 DUP13 PUSH1 0x8 PUSH2 0x5803 DUP2 DUP4 ADD SLOAD PUSH2 0x3A79 JUMP JUMPDEST PUSH1 0x20 SWAP1 PUSH1 0x1F DUP4 GT PUSH1 0x1 EQ PUSH2 0x5D90 JUMPI PUSH1 0x0 SWAP3 PUSH2 0x5D85 JUMPI JUMPDEST POP POP DUP2 PUSH1 0x1 SHL SWAP2 PUSH1 0x0 NOT SWAP1 PUSH1 0x3 SHL SHR NOT AND OR PUSH1 0x8 DUP10 ADD SSTORE JUMPDEST PUSH1 0xA0 DUP2 ADD MLOAD DUP1 MLOAD SWAP1 PUSH1 0x1 PUSH1 0x1 PUSH1 0x40 SHL SUB DUP3 GT PUSH2 0x12E7 JUMPI DUP2 SWAP1 PUSH2 0x59C7 DUP3 DUP13 PUSH1 0x9 PUSH2 0x5803 DUP2 DUP4 ADD SLOAD PUSH2 0x3A79 JUMP JUMPDEST PUSH1 0x20 SWAP1 PUSH1 0x1F DUP4 GT PUSH1 0x1 EQ PUSH2 0x5D13 JUMPI PUSH1 0x0 SWAP3 PUSH2 0x5D08 JUMPI JUMPDEST POP POP DUP2 PUSH1 0x1 SHL SWAP2 PUSH1 0x0 NOT SWAP1 PUSH1 0x3 SHL SHR NOT AND OR PUSH1 0x9 DUP10 ADD SSTORE JUMPDEST PUSH1 0xC0 DUP2 ADD MLOAD DUP1 MLOAD SWAP1 PUSH1 0x1 PUSH1 0x1 PUSH1 0x40 SHL SUB DUP3 GT PUSH2 0x12E7 JUMPI DUP2 SWAP1 PUSH2 0x5A20 DUP3 DUP13 PUSH1 0xA PUSH2 0x5803 DUP2 DUP4 ADD SLOAD PUSH2 0x3A79 JUMP JUMPDEST PUSH1 0x20 SWAP1 PUSH1 0x1F DUP4 GT PUSH1 0x1 EQ PUSH2 0x5C96 JUMPI PUSH1 0x0 SWAP3 PUSH2 0x5C8B JUMPI JUMPDEST POP POP DUP2 PUSH1 0x1 SHL SWAP2 PUSH1 0x0 NOT SWAP1 PUSH1 0x3 SHL SHR NOT AND OR PUSH1 0xA DUP10 ADD SSTORE JUMPDEST PUSH1 0xE0 DUP2 ADD MLOAD DUP1 MLOAD SWAP1 PUSH1 0x1 PUSH1 0x1 PUSH1 0x40 SHL SUB DUP3 GT PUSH2 0x12E7 JUMPI PUSH2 0x5A7E DUP3 PUSH2 0x5A75 PUSH1 0xB DUP14 ADD SLOAD PUSH2 0x3A79 JUMP JUMPDEST PUSH1 0xB DUP14 ADD PUSH2 0x3F94 JUMP JUMPDEST PUSH1 0x20 SWAP1 PUSH1 0x1F DUP4 GT PUSH1 0x1 EQ PUSH2 0x5C17 JUMPI PUSH2 0x100 SWAP4 SWAP3 SWAP2 PUSH1 0x0 SWAP2 DUP4 PUSH2 0x5C0C JUMPI JUMPDEST POP POP DUP2 PUSH1 0x1 SHL SWAP2 PUSH1 0x0 NOT SWAP1 PUSH1 0x3 SHL SHR NOT AND OR PUSH1 0xB DUP11 ADD SSTORE JUMPDEST ADD MLOAD SWAP7 DUP8 MLOAD PUSH1 0x1 PUSH1 0x1 PUSH1 0x40 SHL SUB DUP2 GT PUSH2 0x12E7 JUMPI PUSH2 0x5AE0 DUP2 PUSH2 0x5AD7 PUSH1 0xC DUP6 ADD SLOAD PUSH2 0x3A79 JUMP JUMPDEST PUSH1 0xC DUP6 ADD PUSH2 0x3F94 JUMP JUMPDEST PUSH1 0x20 PUSH1 0x1F DUP3 GT PUSH1 0x1 EQ PUSH2 0x5B7E JUMPI PUSH2 0x5B6B SWAP6 SWAP4 PUSH2 0x260A SWAP4 DUP4 PUSH1 0x40 SWAP8 SWAP5 PUSH2 0x5B66 SWAP5 PUSH1 0x0 DUP1 MLOAD PUSH1 0x20 PUSH2 0x6834 DUP4 CODECOPY DUP2 MLOAD SWAP2 MSTORE SWAP14 SWAP15 PUSH1 0x0 SWAP3 PUSH2 0x5B73 JUMPI JUMPDEST POP POP DUP2 PUSH1 0x1 SHL SWAP2 PUSH1 0x0 NOT SWAP1 PUSH1 0x3 SHL SHR NOT AND OR PUSH1 0xC DUP3 ADD SSTORE JUMPDEST PUSH1 0xD PUSH1 0xA0 DUP12 ADD MLOAD SWAP2 ADD SSTORE PUSH1 0x1 DUP1 PUSH1 0xA0 SHL SUB DUP2 AND PUSH1 0x0 MSTORE PUSH1 0xE PUSH1 0x20 MSTORE PUSH2 0x5B58 DUP4 DUP8 PUSH1 0x0 KECCAK256 PUSH2 0x4049 JUMP JUMPDEST PUSH1 0x1 PUSH1 0x1 PUSH1 0xA0 SHL SUB AND PUSH2 0x3E96 JUMP JUMPDEST PUSH2 0x3FDB JUMP JUMPDEST SUB SWAP1 LOG1 PUSH1 0x1 SWAP1 JUMP JUMPDEST ADD MLOAD SWAP1 POP CODESIZE DUP1 PUSH2 0x5B18 JUMP JUMPDEST PUSH1 0xC DUP4 ADD PUSH1 0x0 MSTORE PUSH1 0x20 PUSH1 0x0 KECCAK256 SWAP10 PUSH1 0x0 JUMPDEST PUSH1 0x1F NOT DUP5 AND DUP2 LT PUSH2 0x5BF4 JUMPI POP SWAP4 PUSH2 0x260A SWAP4 PUSH1 0x1 DUP5 PUSH1 0x0 DUP1 MLOAD PUSH1 0x20 PUSH2 0x6834 DUP4 CODECOPY DUP2 MLOAD SWAP2 MSTORE SWAP13 SWAP14 PUSH2 0x5B66 SWAP6 PUSH2 0x5B6B SWAP12 SWAP10 PUSH1 0x40 SWAP12 SWAP9 PUSH1 0x1F NOT DUP2 AND LT PUSH2 0x5BDB JUMPI JUMPDEST POP POP POP DUP2 SHL ADD PUSH1 0xC DUP3 ADD SSTORE PUSH2 0x5B30 JUMP JUMPDEST ADD MLOAD PUSH1 0x0 NOT PUSH1 0xF8 DUP5 PUSH1 0x3 SHL AND SHR NOT AND SWAP1 SSTORE CODESIZE DUP1 DUP1 PUSH2 0x5BCB JUMP JUMPDEST DUP3 DUP3 ADD MLOAD DUP13 SSTORE PUSH1 0x1 SWAP1 SWAP12 ADD SWAP11 PUSH1 0x20 SWAP3 DUP4 ADD SWAP3 ADD PUSH2 0x5B8E JUMP JUMPDEST ADD MLOAD SWAP1 POP CODESIZE DUP1 PUSH2 0x5A9B JUMP JUMPDEST SWAP1 PUSH1 0xB DUP12 ADD PUSH1 0x0 MSTORE PUSH1 0x20 PUSH1 0x0 KECCAK256 SWAP2 PUSH1 0x0 JUMPDEST PUSH1 0x1F NOT DUP6 AND DUP2 LT PUSH2 0x5C73 JUMPI POP SWAP2 DUP4 SWAP2 PUSH1 0x1 SWAP4 PUSH2 0x100 SWAP7 SWAP6 PUSH1 0x1F NOT DUP2 AND LT PUSH2 0x5C5A JUMPI JUMPDEST POP POP POP DUP2 SHL ADD PUSH1 0xB DUP11 ADD SSTORE PUSH2 0x5AB3 JUMP JUMPDEST ADD MLOAD PUSH1 0x0 NOT PUSH1 0xF8 DUP5 PUSH1 0x3 SHL AND SHR NOT AND SWAP1 SSTORE CODESIZE DUP1 DUP1 PUSH2 0x5C4A JUMP JUMPDEST SWAP2 SWAP3 PUSH1 0x20 PUSH1 0x1 DUP2 SWAP3 DUP7 DUP6 ADD MLOAD DUP2 SSTORE ADD SWAP5 ADD SWAP3 ADD PUSH2 0x5C28 JUMP JUMPDEST ADD MLOAD SWAP1 POP CODESIZE DUP1 PUSH2 0x5A36 JUMP JUMPDEST SWAP3 POP PUSH1 0xA DUP12 ADD PUSH1 0x0 MSTORE PUSH1 0x20 PUSH1 0x0 KECCAK256 SWAP1 PUSH1 0x0 SWAP4 JUMPDEST PUSH1 0x1F NOT DUP5 AND DUP6 LT PUSH2 0x5CED JUMPI PUSH1 0x1 SWAP5 POP DUP4 PUSH1 0x1F NOT DUP2 AND LT PUSH2 0x5CD4 JUMPI JUMPDEST POP POP POP DUP2 SHL ADD PUSH1 0xA DUP10 ADD SSTORE PUSH2 0x5A4E JUMP JUMPDEST ADD MLOAD PUSH1 0x0 NOT PUSH1 0xF8 DUP5 PUSH1 0x3 SHL AND SHR NOT AND SWAP1 SSTORE CODESIZE DUP1 DUP1 PUSH2 0x5CC4 JUMP JUMPDEST DUP2 DUP2 ADD MLOAD DUP4 SSTORE PUSH1 0x20 SWAP5 DUP6 ADD SWAP5 PUSH1 0x1 SWAP1 SWAP4 ADD SWAP3 SWAP1 SWAP2 ADD SWAP1 PUSH2 0x5CA9 JUMP JUMPDEST ADD MLOAD SWAP1 POP CODESIZE DUP1 PUSH2 0x59DD JUMP JUMPDEST SWAP3 POP PUSH1 0x9 DUP12 ADD PUSH1 0x0 MSTORE PUSH1 0x20 PUSH1 0x0 KECCAK256 SWAP1 PUSH1 0x0 SWAP4 JUMPDEST PUSH1 0x1F NOT DUP5 AND DUP6 LT PUSH2 0x5D6A JUMPI PUSH1 0x1 SWAP5 POP DUP4 PUSH1 0x1F NOT DUP2 AND LT PUSH2 0x5D51 JUMPI JUMPDEST POP POP POP DUP2 SHL ADD PUSH1 0x9 DUP10 ADD SSTORE PUSH2 0x59F5 JUMP JUMPDEST ADD MLOAD PUSH1 0x0 NOT PUSH1 0xF8 DUP5 PUSH1 0x3 SHL AND SHR NOT AND SWAP1 SSTORE CODESIZE DUP1 DUP1 PUSH2 0x5D41 JUMP JUMPDEST DUP2 DUP2 ADD MLOAD DUP4 SSTORE PUSH1 0x20 SWAP5 DUP6 ADD SWAP5 PUSH1 0x1 SWAP1 SWAP4 ADD SWAP3 SWAP1 SWAP2 ADD SWAP1 PUSH2 0x5D26 JUMP JUMPDEST ADD MLOAD SWAP1 POP CODESIZE DUP1 PUSH2 0x5984 JUMP JUMPDEST SWAP3 POP PUSH1 0x8 DUP12 ADD PUSH1 0x0 MSTORE PUSH1 0x20 PUSH1 0x0 KECCAK256 SWAP1 PUSH1 0x0 SWAP4 JUMPDEST PUSH1 0x1F NOT DUP5 AND DUP6 LT PUSH2 0x5DE7 JUMPI PUSH1 0x1 SWAP5 POP DUP4 PUSH1 0x1F NOT DUP2 AND LT PUSH2 0x5DCE JUMPI JUMPDEST POP POP POP DUP2 SHL ADD PUSH1 0x8 DUP10 ADD SSTORE PUSH2 0x599C JUMP JUMPDEST ADD MLOAD PUSH1 0x0 NOT PUSH1 0xF8 DUP5 PUSH1 0x3 SHL AND SHR NOT AND SWAP1 SSTORE CODESIZE DUP1 DUP1 PUSH2 0x5DBE JUMP JUMPDEST DUP2 DUP2 ADD MLOAD DUP4 SSTORE PUSH1 0x20 SWAP5 DUP6 ADD SWAP5 PUSH1 0x1 SWAP1 SWAP4 ADD SWAP3 SWAP1 SWAP2 ADD SWAP1 PUSH2 0x5DA3 JUMP JUMPDEST ADD MLOAD SWAP1 POP CODESIZE DUP1 PUSH2 0x592B JUMP JUMPDEST SWAP3 POP PUSH1 0x7 DUP12 ADD PUSH1 0x0 MSTORE PUSH1 0x20 PUSH1 0x0 KECCAK256 SWAP1 PUSH1 0x0 SWAP4 JUMPDEST PUSH1 0x1F NOT DUP5 AND DUP6 LT PUSH2 0x5E64 JUMPI PUSH1 0x1 SWAP5 POP DUP4 PUSH1 0x1F NOT DUP2 AND LT PUSH2 0x5E4B JUMPI JUMPDEST POP POP POP DUP2 SHL ADD PUSH1 0x7 DUP10 ADD SSTORE PUSH2 0x5943 JUMP JUMPDEST ADD MLOAD PUSH1 0x0 NOT PUSH1 0xF8 DUP5 PUSH1 0x3 SHL AND SHR NOT AND SWAP1 SSTORE CODESIZE DUP1 DUP1 PUSH2 0x5E3B JUMP JUMPDEST DUP2 DUP2 ADD MLOAD DUP4 SSTORE PUSH1 0x20 SWAP5 DUP6 ADD SWAP5 PUSH1 0x1 SWAP1 SWAP4 ADD SWAP3 SWAP1 SWAP2 ADD SWAP1 PUSH2 0x5E20 JUMP JUMPDEST ADD MLOAD SWAP1 POP CODESIZE DUP1 PUSH2 0x58D2 JUMP JUMPDEST SWAP3 POP PUSH1 0x6 DUP12 ADD PUSH1 0x0 MSTORE PUSH1 0x20 PUSH1 0x0 KECCAK256 SWAP1 PUSH1 0x0 SWAP4 JUMPDEST PUSH1 0x1F NOT DUP5 AND DUP6 LT PUSH2 0x5EE1 JUMPI PUSH1 0x1 SWAP5 POP DUP4 PUSH1 0x1F NOT DUP2 AND LT PUSH2 0x5EC8 JUMPI JUMPDEST POP POP POP DUP2 SHL ADD PUSH1 0x6 DUP10 ADD SSTORE PUSH2 0x58EA JUMP JUMPDEST ADD MLOAD PUSH1 0x0 NOT PUSH1 0xF8 DUP5 PUSH1 0x3 SHL AND SHR NOT AND SWAP1 SSTORE CODESIZE DUP1 DUP1 PUSH2 0x5EB8 JUMP JUMPDEST DUP2 DUP2 ADD MLOAD DUP4 SSTORE PUSH1 0x20 SWAP5 DUP6 ADD SWAP5 PUSH1 0x1 SWAP1 SWAP4 ADD SWAP3 SWAP1 SWAP2 ADD SWAP1 PUSH2 0x5E9D JUMP JUMPDEST ADD MLOAD SWAP1 POP CODESIZE DUP1 PUSH2 0x5879 JUMP JUMPDEST SWAP3 POP PUSH1 0x5 DUP12 ADD PUSH1 0x0 MSTORE PUSH1 0x20 PUSH1 0x0 KECCAK256 SWAP1 PUSH1 0x0 SWAP4 JUMPDEST PUSH1 0x1F NOT DUP5 AND DUP6 LT PUSH2 0x5F5E JUMPI PUSH1 0x1 SWAP5 POP DUP4 PUSH1 0x1F NOT DUP2 AND LT PUSH2 0x5F45 JUMPI JUMPDEST POP POP POP DUP2 SHL ADD PUSH1 0x5 DUP10 ADD SSTORE PUSH2 0x5891 JUMP JUMPDEST ADD MLOAD PUSH1 0x0 NOT PUSH1 0xF8 DUP5 PUSH1 0x3 SHL AND SHR NOT AND SWAP1 SSTORE CODESIZE DUP1 DUP1 PUSH2 0x5F35 JUMP JUMPDEST DUP2 DUP2 ADD MLOAD DUP4 SSTORE PUSH1 0x20 SWAP5 DUP6 ADD SWAP5 PUSH1 0x1 SWAP1 SWAP4 ADD SWAP3 SWAP1 SWAP2 ADD SWAP1 PUSH2 0x5F1A JUMP JUMPDEST ADD MLOAD SWAP1 POP CODESIZE DUP1 PUSH2 0x5820 JUMP JUMPDEST SWAP3 POP PUSH1 0x4 DUP12 ADD PUSH1 0x0 MSTORE PUSH1 0x20 PUSH1 0x0 KECCAK256 SWAP1 PUSH1 0x0 SWAP4 JUMPDEST PUSH1 0x1F NOT DUP5 AND DUP6 LT PUSH2 0x5FDB JUMPI PUSH1 0x1 SWAP5 POP DUP4 PUSH1 0x1F NOT DUP2 AND LT PUSH2 0x5FC2 JUMPI JUMPDEST POP POP POP DUP2 SHL ADD PUSH1 0x4 DUP10 ADD SSTORE PUSH2 0x5838 JUMP JUMPDEST ADD MLOAD PUSH1 0x0 NOT PUSH1 0xF8 DUP5 PUSH1 0x3 SHL AND SHR NOT AND SWAP1 SSTORE CODESIZE DUP1 DUP1 PUSH2 0x5FB2 JUMP JUMPDEST DUP2 DUP2 ADD MLOAD DUP4 SSTORE PUSH1 0x20 SWAP5 DUP6 ADD SWAP5 PUSH1 0x1 SWAP1 SWAP4 ADD SWAP3 SWAP1 SWAP2 ADD SWAP1 PUSH2 0x5F97 JUMP JUMPDEST DUP1 MLOAD DUP1 MLOAD DUP6 SSTORE PUSH1 0x20 DUP2 ADD MLOAD PUSH1 0x1 DUP7 ADD SSTORE PUSH1 0x40 DUP2 ADD MLOAD PUSH1 0x4 DUP2 LT ISZERO PUSH2 0x931 JUMPI PUSH2 0x6021 SWAP1 PUSH1 0x2 DUP8 ADD PUSH2 0x4573 JUMP JUMPDEST PUSH1 0x60 DUP2 ADD MLOAD DUP1 MLOAD SWAP1 PUSH1 0x1 PUSH1 0x1 PUSH1 0x40 SHL SUB DUP3 GT PUSH2 0x12E7 JUMPI PUSH2 0x6048 DUP3 PUSH2 0x2AB1 PUSH1 0x3 DUP11 ADD SLOAD PUSH2 0x3A79 JUMP JUMPDEST PUSH1 0x20 SWAP1 PUSH1 0x1F DUP4 GT PUSH1 0x1 EQ PUSH2 0x6170 JUMPI PUSH1 0x80 SWAP4 SWAP3 SWAP2 PUSH1 0x0 SWAP2 DUP4 PUSH2 0x6165 JUMPI JUMPDEST POP POP DUP2 PUSH1 0x1 SHL SWAP2 PUSH1 0x0 NOT SWAP1 PUSH1 0x3 SHL SHR NOT AND OR PUSH1 0x3 DUP8 ADD SSTORE JUMPDEST ADD MLOAD DUP1 MLOAD SWAP1 PUSH1 0x1 PUSH1 0x1 PUSH1 0x40 SHL SUB DUP3 GT PUSH2 0x12E7 JUMPI PUSH2 0x60A0 DUP3 PUSH2 0x2B12 PUSH1 0x4 DUP10 ADD SLOAD PUSH2 0x3A79 JUMP JUMPDEST PUSH1 0x20 SWAP1 PUSH1 0x1F DUP4 GT PUSH1 0x1 EQ PUSH2 0x60EF JUMPI SWAP3 DUP3 PUSH1 0x5 SWAP4 PUSH1 0x20 SWAP4 PUSH1 0x1 SWAP7 PUSH1 0x0 SWAP3 PUSH2 0x60E4 JUMPI JUMPDEST POP POP PUSH1 0x0 NOT PUSH1 0x3 DUP4 SWAP1 SHL SHR NOT AND SWAP1 DUP6 SHL OR PUSH1 0x4 DUP9 ADD SSTORE JUMPDEST ADD SWAP5 ADD SWAP2 ADD SWAP1 SWAP3 PUSH2 0x57C1 JUMP JUMPDEST ADD MLOAD SWAP1 POP CODESIZE DUP1 PUSH2 0x60C1 JUMP JUMPDEST SWAP1 PUSH1 0x4 DUP8 ADD PUSH1 0x0 MSTORE PUSH1 0x20 PUSH1 0x0 KECCAK256 SWAP2 PUSH1 0x0 JUMPDEST PUSH1 0x1F NOT DUP6 AND DUP2 LT PUSH2 0x614D JUMPI POP DUP4 PUSH1 0x20 SWAP4 PUSH1 0x1 SWAP7 SWAP4 DUP8 SWAP4 PUSH1 0x5 SWAP8 PUSH1 0x1F NOT DUP2 AND LT PUSH2 0x6134 JUMPI JUMPDEST POP POP POP DUP2 SHL ADD PUSH1 0x4 DUP9 ADD SSTORE PUSH2 0x60D8 JUMP JUMPDEST ADD MLOAD PUSH1 0x0 NOT PUSH1 0xF8 DUP5 PUSH1 0x3 SHL AND SHR NOT AND SWAP1 SSTORE CODESIZE DUP1 DUP1 PUSH2 0x6124 JUMP JUMPDEST SWAP2 SWAP3 PUSH1 0x20 PUSH1 0x1 DUP2 SWAP3 DUP7 DUP6 ADD MLOAD DUP2 SSTORE ADD SWAP5 ADD SWAP3 ADD PUSH2 0x6100 JUMP JUMPDEST ADD MLOAD SWAP1 POP CODESIZE DUP1 PUSH2 0x6064 JUMP JUMPDEST SWAP1 PUSH1 0x3 DUP9 ADD PUSH1 0x0 MSTORE PUSH1 0x20 PUSH1 0x0 KECCAK256 SWAP2 PUSH1 0x0 JUMPDEST PUSH1 0x1F NOT DUP6 AND DUP2 LT PUSH2 0x61CB JUMPI POP SWAP2 DUP4 SWAP2 PUSH1 0x1 SWAP4 PUSH1 0x80 SWAP7 SWAP6 PUSH1 0x1F NOT DUP2 AND LT PUSH2 0x61B2 JUMPI JUMPDEST POP POP POP DUP2 SHL ADD PUSH1 0x3 DUP8 ADD SSTORE PUSH2 0x607C JUMP JUMPDEST ADD MLOAD PUSH1 0x0 NOT PUSH1 0xF8 DUP5 PUSH1 0x3 SHL AND SHR NOT AND SWAP1 SSTORE CODESIZE DUP1 DUP1 PUSH2 0x61A2 JUMP JUMPDEST SWAP2 SWAP3 PUSH1 0x20 PUSH1 0x1 DUP2 SWAP3 DUP7 DUP6 ADD MLOAD DUP2 SSTORE ADD SWAP5 ADD SWAP3 ADD PUSH2 0x6181 JUMP JUMPDEST PUSH1 0x5 DUP2 DUP2 MUL DIV DUP2 SUB PUSH2 0x2CCF JUMPI PUSH1 0x5 DUP4 DUP2 MUL DIV DUP4 SUB PUSH2 0x2CCF JUMPI PUSH1 0x2 DUP11 ADD PUSH1 0x0 MSTORE PUSH1 0x20 PUSH1 0x0 KECCAK256 DUP4 PUSH1 0x5 MUL DUP2 ADD JUMPDEST DUP3 PUSH1 0x5 MUL DUP3 ADD DUP2 LT PUSH2 0x6221 JUMPI POP POP PUSH2 0x57AB JUMP JUMPDEST DUP1 PUSH1 0x0 PUSH1 0x5 SWAP3 SSTORE PUSH1 0x0 PUSH1 0x1 DUP3 ADD SSTORE PUSH1 0x0 PUSH1 0x2 DUP3 ADD SSTORE PUSH2 0x6242 PUSH1 0x3 DUP3 ADD PUSH2 0x452A JUMP JUMPDEST PUSH2 0x624E PUSH1 0x4 DUP3 ADD PUSH2 0x452A JUMP JUMPDEST ADD PUSH2 0x620E JUMP JUMPDEST PUSH1 0x60 PUSH1 0x20 DUP5 DUP7 SUB ADD SLT PUSH2 0x279 JUMPI PUSH1 0x40 MLOAD SWAP1 PUSH2 0x626E DUP3 PUSH2 0x35EF JUMP JUMPDEST DUP4 MLOAD DUP3 MSTORE PUSH1 0x20 DUP5 ADD MLOAD PUSH1 0x20 DUP4 ADD MSTORE PUSH1 0x40 DUP5 ADD MLOAD SWAP1 PUSH1 0x4 DUP3 LT ISZERO PUSH2 0x279 JUMPI DUP3 PUSH1 0x20 SWAP3 PUSH1 0x40 PUSH1 0x60 SWAP6 ADD MSTORE DUP2 MSTORE ADD SWAP3 ADD SWAP2 PUSH2 0x52B1 JUMP JUMPDEST SWAP1 DUP1 PUSH1 0x1F DUP4 ADD SLT ISZERO PUSH2 0x279 JUMPI DUP2 MLOAD PUSH2 0x3CCC SWAP3 PUSH1 0x20 ADD PUSH2 0x5035 JUMP JUMPDEST ISZERO PUSH2 0x62C2 JUMPI JUMP JUMPDEST PUSH1 0x40 MLOAD PUSH3 0x461BCD PUSH1 0xE5 SHL DUP2 MSTORE PUSH1 0x20 PUSH1 0x4 DUP3 ADD MSTORE PUSH1 0x4A PUSH1 0x24 DUP3 ADD MSTORE PUSH32 0x7B2266726F6D223A2022466943616D2E736F6C222C2022636F6465223A20382C PUSH1 0x44 DUP3 ADD MSTORE PUSH32 0x20226D657373616765223A2022496E73756666696369656E74207061796D656E PUSH1 0x64 DUP3 ADD MSTORE PUSH10 0x7420616D6F756E74227D PUSH1 0xB0 SHL PUSH1 0x84 DUP3 ADD MSTORE PUSH1 0xA4 SWAP1 REVERT JUMPDEST SWAP2 SWAP1 PUSH1 0x0 SWAP1 PUSH3 0x10BD9 PUSH3 0x15180 DUP1 DUP7 DIV DUP3 DUP2 ADD SWAP4 SWAP2 SWAP3 DUP6 DUP3 SLT DUP1 ISZERO SWAP2 DUP7 SLT SWAP2 DUP3 AND SWAP2 ISZERO AND OR PUSH2 0x67C6 JUMPI PUSH3 0x264965 ADD SWAP3 DUP5 PUSH3 0x253D8C DUP6 SLT SWAP2 SLT SWAP1 DUP1 ISZERO DUP3 AND SWAP2 ISZERO AND OR PUSH2 0x67B2 JUMPI DUP3 PUSH1 0x2 SHL SWAP1 PUSH1 0x4 SWAP2 DUP3 DUP2 SDIV DUP6 SUB PUSH2 0x666C JUMPI PUSH3 0x23AB1 DUP1 SWAP2 SDIV SWAP5 DUP6 DUP3 MUL SWAP2 DUP3 SDIV DUP7 SUB PUSH2 0x679F JUMPI PUSH1 0x3 SWAP2 DUP3 DUP2 ADD SWAP1 DUP9 DUP5 DUP4 SLT SWAP2 SLT SWAP1 DUP1 ISZERO DUP3 AND SWAP2 ISZERO AND OR PUSH2 0x678C JUMPI SWAP1 DUP5 PUSH2 0x63D1 SWAP3 SDIV SWAP1 PUSH2 0x67EC JUMP JUMPDEST SWAP5 PUSH1 0x1 SWAP6 DUP7 DUP2 ADD DUP8 DUP2 SLT DUP10 DUP4 SLT SWAP1 DUP1 ISZERO DUP3 AND SWAP2 ISZERO AND OR PUSH2 0x667F JUMPI PUSH2 0xFA0 SWAP1 DUP1 DUP3 MUL SWAP2 DUP3 SDIV SUB PUSH2 0x667F JUMPI PUSH3 0x164B09 PUSH2 0x6415 SWAP2 SDIV SWAP2 DUP7 PUSH2 0x640E DUP5 PUSH2 0x6821 JUMP JUMPDEST SDIV SWAP1 PUSH2 0x67EC JUMP JUMPDEST SWAP1 PUSH1 0x1F DUP3 ADD SWAP2 DUP10 PUSH1 0x1F DUP5 SLT SWAP2 SLT SWAP1 DUP1 ISZERO DUP3 AND SWAP2 ISZERO AND OR PUSH2 0x667F JUMPI DUP2 PUSH1 0x50 MUL SWAP2 PUSH1 0x50 DUP4 SDIV DUP2 SUB PUSH2 0x6779 JUMPI PUSH2 0x98F DUP1 SWAP4 SDIV SWAP3 DUP4 DUP2 MUL SWAP1 DUP2 SDIV DUP5 SUB PUSH2 0x66CB JUMPI SWAP1 PUSH1 0x50 PUSH2 0x645F SWAP3 SDIV SWAP1 PUSH2 0x67EC JUMP JUMPDEST SWAP1 PUSH1 0xB DUP4 SDIV SWAP1 PUSH1 0x2 DUP5 ADD SWAP4 DUP12 PUSH1 0x2 DUP7 SLT SWAP2 SLT SWAP1 DUP1 ISZERO DUP3 AND SWAP2 ISZERO AND OR PUSH2 0x66CB JUMPI PUSH1 0xC SWAP4 DUP3 DUP6 MUL SWAP1 DUP6 DUP3 SDIV DUP5 SUB PUSH2 0x66A5 JUMPI SWAP1 PUSH2 0x6498 SWAP2 PUSH2 0x67EC JUMP JUMPDEST SWAP5 PUSH1 0x30 NOT DUP2 ADD SWAP1 DUP2 SGT DUP12 AND PUSH2 0x6692 JUMPI DUP1 PUSH1 0x64 MUL SWAP1 PUSH1 0x64 DUP3 SDIV SUB PUSH2 0x6692 JUMPI SWAP2 PUSH2 0x64C6 PUSH2 0x64CB SWAP3 PUSH2 0x64D3 SWAP5 PUSH2 0x6805 JUMP JUMPDEST PUSH2 0x6805 JUMP JUMPDEST SWAP6 DUP3 SWAP5 PUSH2 0x4473 JUMP JUMPDEST PUSH1 0x0 NOT SWAP6 DUP7 DUP3 ADD SWAP5 SWAP2 DUP6 GT PUSH2 0x66CB JUMPI PUSH2 0x64F0 DUP5 SWAP2 DUP3 DUP8 DIV SWAP1 PUSH2 0x4473 JUMP JUMPDEST SWAP5 MOD DUP10 DUP2 ADD SWAP3 DUP4 DUP3 GT PUSH2 0x6692 JUMPI DUP11 DUP5 EQ DUP1 ISZERO PUSH2 0x6770 JUMPI JUMPDEST DUP1 ISZERO PUSH2 0x6766 JUMPI JUMPDEST DUP1 ISZERO PUSH2 0x675C JUMPI JUMPDEST DUP1 ISZERO PUSH2 0x6752 JUMPI JUMPDEST DUP1 ISZERO PUSH2 0x6748 JUMPI JUMPDEST DUP1 ISZERO PUSH2 0x673F JUMPI JUMPDEST ISZERO PUSH2 0x66EA JUMPI PUSH1 0x1F DUP1 SWAP2 JUMPDEST GT PUSH2 0x66E2 JUMPI JUMPDEST POP PUSH2 0x7B2 DUP6 LT PUSH2 0x66DE JUMPI PUSH2 0x7D4A NOT DUP3 ADD SWAP2 DUP3 SGT DUP11 AND PUSH2 0x66CB JUMPI DUP11 DUP6 SLT SWAP7 DUP8 ISZERO SWAP3 PUSH2 0x12C0 DUP8 DUP2 ADD SWAP1 DUP2 SLT DUP6 DUP2 AND SWAP1 ISZERO DUP12 AND OR PUSH2 0x66B8 JUMPI SWAP1 DUP11 PUSH2 0x6585 PUSH2 0x658C PUSH2 0x6591 SWAP5 DUP11 PUSH2 0x6585 DUP12 PUSH2 0x67DA JUMP JUMPDEST SDIV SWAP1 PUSH2 0x6805 JUMP JUMPDEST PUSH2 0x6821 JUMP JUMPDEST SWAP2 ADD DUP4 DUP2 SGT DUP12 AND PUSH2 0x6692 JUMPI DUP5 PUSH2 0x65A6 DUP6 PUSH2 0x67DA JUMP JUMPDEST SDIV SWAP1 DUP6 DUP3 MUL SWAP2 DUP1 DUP4 SDIV DUP8 EQ SWAP1 ISZERO OR ISZERO PUSH2 0x66A5 JUMPI SWAP1 PUSH2 0x65C3 SWAP2 PUSH2 0x67EC JUMP JUMPDEST PUSH2 0x16F SWAP1 DUP1 DUP3 MUL SWAP2 DUP3 SDIV SUB PUSH2 0x6692 JUMPI SWAP1 DUP5 PUSH2 0x65DF SWAP3 SDIV SWAP1 PUSH2 0x6805 JUMP JUMPDEST SWAP6 PUSH2 0x1324 DUP1 SWAP6 ADD SWAP5 DUP6 SLT SWAP1 DUP2 ISZERO AND SWAP2 AND OR PUSH2 0x667F JUMPI SWAP2 PUSH2 0x6604 SWAP2 PUSH2 0x6585 PUSH1 0x64 SWAP5 PUSH2 0x67DA JUMP JUMPDEST SDIV DUP1 DUP3 MUL SWAP2 DUP3 SDIV SUB PUSH2 0x666C JUMPI SWAP1 DUP3 PUSH2 0x661D SWAP3 SDIV SWAP1 PUSH2 0x67EC JUMP JUMPDEST PUSH3 0x253D8B NOT DUP2 ADD SWAP4 SWAP1 DUP5 SGT AND PUSH2 0x6659 JUMPI DUP2 DUP4 MUL SWAP3 DUP1 DUP5 DIV DUP4 EQ SWAP1 ISZERO OR ISZERO PUSH2 0x6659 JUMPI POP SWAP1 PUSH2 0x664C SWAP2 DUP6 MOD SWAP1 PUSH2 0x4473 JUMP JUMPDEST SWAP3 DUP4 LT PUSH2 0x6656 JUMPI POP JUMP JUMPDEST DUP1 REVERT JUMPDEST PUSH4 0x4E487B71 PUSH1 0xE0 SHL DUP5 MSTORE PUSH1 0x11 SWAP1 MSTORE PUSH1 0x24 DUP4 REVERT JUMPDEST PUSH4 0x4E487B71 PUSH1 0xE0 SHL DUP7 MSTORE PUSH1 0x11 DUP4 MSTORE PUSH1 0x24 DUP7 REVERT JUMPDEST PUSH4 0x4E487B71 PUSH1 0xE0 SHL DUP10 MSTORE PUSH1 0x11 DUP7 MSTORE PUSH1 0x24 DUP10 REVERT JUMPDEST PUSH4 0x4E487B71 PUSH1 0xE0 SHL DUP13 MSTORE PUSH1 0x11 DUP10 MSTORE PUSH1 0x24 DUP13 REVERT JUMPDEST PUSH4 0x4E487B71 PUSH1 0xE0 SHL DUP14 MSTORE PUSH1 0x11 DUP11 MSTORE PUSH1 0x24 DUP14 REVERT JUMPDEST PUSH4 0x4E487B71 PUSH1 0xE0 SHL DUP15 MSTORE PUSH1 0x11 DUP12 MSTORE PUSH1 0x24 DUP15 REVERT JUMPDEST PUSH4 0x4E487B71 PUSH1 0xE0 SHL DUP12 MSTORE PUSH1 0x11 DUP9 MSTORE PUSH1 0x24 DUP12 REVERT JUMPDEST DUP11 DUP1 REVERT JUMPDEST SWAP2 POP CODESIZE PUSH2 0x653A JUMP JUMPDEST PUSH1 0x2 DUP5 EQ PUSH2 0x66FB JUMPI PUSH1 0x1E DUP1 SWAP2 PUSH2 0x6534 JUMP JUMPDEST DUP7 DUP7 AND ISZERO DUP1 PUSH2 0x6733 JUMPI JUMPDEST DUP1 ISZERO PUSH2 0x6727 JUMPI JUMPDEST ISZERO PUSH2 0x671E JUMPI PUSH1 0xFF PUSH1 0x1D JUMPDEST AND DUP1 SWAP2 PUSH2 0x6534 JUMP JUMPDEST PUSH1 0xFF PUSH1 0x1C PUSH2 0x6716 JUMP JUMPDEST POP PUSH2 0x190 DUP7 MOD ISZERO PUSH2 0x670C JUMP JUMPDEST POP PUSH1 0x64 DUP7 MOD ISZERO ISZERO PUSH2 0x6705 JUMP JUMPDEST POP DUP5 DUP5 EQ PUSH2 0x652A JUMP JUMPDEST POP PUSH1 0xA DUP5 EQ PUSH2 0x6523 JUMP JUMPDEST POP PUSH1 0x8 DUP5 EQ PUSH2 0x651C JUMP JUMPDEST POP PUSH1 0x7 DUP5 EQ PUSH2 0x6515 JUMP JUMPDEST POP PUSH1 0x5 DUP5 EQ PUSH2 0x650E JUMP JUMPDEST POP DUP7 DUP5 EQ PUSH2 0x6507 JUMP JUMPDEST PUSH4 0x4E487B71 PUSH1 0xE0 SHL DUP11 MSTORE PUSH1 0x11 DUP8 MSTORE PUSH1 0x24 DUP11 REVERT JUMPDEST PUSH4 0x4E487B71 PUSH1 0xE0 SHL DUP9 MSTORE PUSH1 0x11 DUP6 MSTORE PUSH1 0x24 DUP9 REVERT JUMPDEST PUSH4 0x4E487B71 PUSH1 0xE0 SHL DUP8 MSTORE PUSH1 0x11 DUP5 MSTORE PUSH1 0x24 DUP8 REVERT JUMPDEST PUSH4 0x4E487B71 PUSH1 0xE0 SHL DUP5 MSTORE PUSH1 0x11 PUSH1 0x4 MSTORE PUSH1 0x24 DUP5 REVERT JUMPDEST PUSH4 0x4E487B71 PUSH1 0xE0 SHL DUP6 MSTORE PUSH1 0x11 PUSH1 0x4 MSTORE PUSH1 0x24 DUP6 REVERT JUMPDEST SWAP1 PUSH1 0xD NOT DUP3 ADD SWAP2 DUP3 SGT PUSH1 0x1 AND PUSH2 0x2CCF JUMPI JUMP JUMPDEST DUP2 DUP2 SUB SWAP3 SWAP2 PUSH1 0x0 SGT DUP1 ISZERO DUP3 DUP6 SGT AND SWAP2 DUP5 SLT AND OR PUSH2 0x2CCF JUMPI JUMP JUMPDEST SWAP2 SWAP1 SWAP2 PUSH1 0x0 DUP4 DUP3 ADD SWAP4 DUP5 SLT SWAP2 SLT SWAP1 DUP1 ISZERO DUP3 AND SWAP2 ISZERO AND OR PUSH2 0x2CCF JUMPI JUMP JUMPDEST SWAP1 PUSH2 0x5B5 SWAP2 DUP1 DUP4 MUL SWAP3 DUP4 SDIV SUB PUSH2 0x2CCF JUMPI JUMP INVALID MULMOD 0xCF 0xB2 SWAP12 0xA8 SWAP10 PUSH19 0xCCAAC331801646FB46CF877571081A07C992A5 MSIZE LOG1 0xA6 CREATE2 DUP6 MULMOD LOG2 PUSH5 0x6970667358 0x22 SLT KECCAK256 0xCD ADD 0xE9 GASLIMIT CODESIZE LOG2 0xFC DUP7 PUSH32 0x335ED19C4980155F2334666522AD30BB18D97FC3F410CD64736F6C6343000813 STOP CALLER "
		},
		"gasEstimates": {
			"creation": {
				"codeDepositCost": "5352200",
				"executionCost": "127690",
				"totalCost": "5479890"
			},
			"external": {
				"ActiveProduct(uint256)": "7050",
				"AdminActiveProduct(bytes32)": "79700",
				"AdminAddProduct(string,string,string,string,string,uint256,uint256,uint256,uint256,uint256,uint256,uint256,bool)": "infinite",
				"AdminDeactiveProduct(bytes32)": "infinite",
				"AdminEditUpdateAt(bytes32,uint256)": "25181",
				"AdminUpdateProductInfo(bytes32,string,string,string,string,uint256,uint256,uint256,uint256,uint256,uint256,uint256)": "infinite",
				"AdminViewOrder(address)": "infinite",
				"AdminViewProduct()": "infinite",
				"Admins(uint256)": "5099",
				"CallDataOrder((bytes32,uint256,uint8)[],(string,string,string,string,string,string,string,string,string),address)": "infinite",
				"CallDataRenew(bytes32,bytes32)": "infinite",
				"CheckCallData(bytes)": "infinite",
				"ExecuteOrder(bytes,bytes32,uint256)": "infinite",
				"GetCallData(bytes,uint8)": "infinite",
				"GetCallDataFE(bytes32)": "infinite",
				"GetMyOrder(uint32,uint256)": "infinite",
				"IsAdmin(address)": "3227",
				"ListProductID(uint256)": "7496",
				"MakeOrder((bytes32,uint256,uint8)[],(string,string,string,string,string,string,string,string,string),address)": "infinite",
				"MasterPool()": "3352",
				"OrderIDs(uint256)": "5100",
				"Owner()": "3154",
				"POS()": "3330",
				"RenewSub(bytes32,bytes32)": "infinite",
				"SCUsdt()": "2890",
				"SetAdmin(address)": "75573",
				"SetCallDataFE((bytes32,uint256,uint8)[],(string,string,string,string,string,string,string,string,string),address,uint8)": "infinite",
				"SetMasterPool(address)": "27342",
				"SetPOS(address)": "27606",
				"SetUsdt(address)": "27628",
				"UserViewProduct()": "infinite",
				"Users(uint256)": "4615",
				"ViewProduct(bytes32)": "infinite",
				"ViewProducts(uint256,uint256,uint256)": "infinite",
				"countElementsInRange(uint256,uint256,uint256[])": "infinite",
				"getProductTrend(bytes32)": "infinite",
				"getProductTrendByTime(bytes32,uint256,uint256)": "infinite",
				"getProductViewCount(bytes32)": "3413",
				"getRentalInfo(address,bytes32,bytes32)": "5706",
				"getShipInfo(bytes32)": "infinite",
				"getmIDTOOrder(bytes32)": "infinite",
				"mAddressTOOrderID(address,uint256)": "7805",
				"mCallData(bytes32)": "infinite",
				"mIDToProduct(bytes32)": "infinite",
				"mProductSearchTrend(bytes32,uint256)": "6776",
				"mProductViewCount(bytes32)": "3086",
				"mShippingInfo(uint256)": "infinite",
				"mShippingInfoByAddress(address,uint256)": "6771",
				"mShippingInfoByOrder(uint256)": "3218",
				"shippingCounter()": "2426",
				"updateViewCount(bytes32)": "75285"
			},
			"internal": {
				"OrderLock(bytes memory,bytes32,uint256)": "infinite",
				"RenewSubLock(bytes memory,bytes32,uint256)": "infinite",
				"_rent(struct OrderInput memory,bytes32,address)": "infinite",
				"findIndex(uint256,bool,uint256[] memory)": "infinite",
				"getMonth(enum SUBCRIPTION_TYPE)": "151"
			}
		},
		"methodIdentifiers": {
			"ActiveProduct(uint256)": "6f0243f3",
			"AdminActiveProduct(bytes32)": "103bb2b5",
			"AdminAddProduct(string,string,string,string,string,uint256,uint256,uint256,uint256,uint256,uint256,uint256,bool)": "52023610",
			"AdminDeactiveProduct(bytes32)": "0f8472ff",
			"AdminEditUpdateAt(bytes32,uint256)": "7f8c678f",
			"AdminUpdateProductInfo(bytes32,string,string,string,string,uint256,uint256,uint256,uint256,uint256,uint256,uint256)": "05d0af0b",
			"AdminViewOrder(address)": "9d6ffce0",
			"AdminViewProduct()": "12ee84ef",
			"Admins(uint256)": "9f89a4b2",
			"CallDataOrder((bytes32,uint256,uint8)[],(string,string,string,string,string,string,string,string,string),address)": "70b9e002",
			"CallDataRenew(bytes32,bytes32)": "51d04876",
			"CheckCallData(bytes)": "30d51a32",
			"ExecuteOrder(bytes,bytes32,uint256)": "aaedfcd1",
			"GetCallData(bytes,uint8)": "d888e7dc",
			"GetCallDataFE(bytes32)": "39fea8ef",
			"GetMyOrder(uint32,uint256)": "b46b9a2d",
			"IsAdmin(address)": "b11e3c1a",
			"ListProductID(uint256)": "cb4e841b",
			"MakeOrder((bytes32,uint256,uint8)[],(string,string,string,string,string,string,string,string,string),address)": "27b50845",
			"MasterPool()": "fb7ef377",
			"OrderIDs(uint256)": "a2b2fb55",
			"Owner()": "b4a99a4e",
			"POS()": "f29155ef",
			"RenewSub(bytes32,bytes32)": "af669326",
			"SCUsdt()": "94284cbd",
			"SetAdmin(address)": "5a272403",
			"SetCallDataFE((bytes32,uint256,uint8)[],(string,string,string,string,string,string,string,string,string),address,uint8)": "598ed31a",
			"SetMasterPool(address)": "a559934e",
			"SetPOS(address)": "dc9a04cf",
			"SetUsdt(address)": "ddcd6408",
			"UserViewProduct()": "350f31ea",
			"Users(uint256)": "1e98fd1c",
			"ViewProduct(bytes32)": "5d977ee1",
			"ViewProducts(uint256,uint256,uint256)": "3f81714c",
			"countElementsInRange(uint256,uint256,uint256[])": "951a5662",
			"getProductTrend(bytes32)": "673047ba",
			"getProductTrendByTime(bytes32,uint256,uint256)": "0c2ed967",
			"getProductViewCount(bytes32)": "fdd719b1",
			"getRentalInfo(address,bytes32,bytes32)": "b358fa8e",
			"getShipInfo(bytes32)": "7f7c0808",
			"getmIDTOOrder(bytes32)": "7cf388ee",
			"mAddressTOOrderID(address,uint256)": "f09610c7",
			"mCallData(bytes32)": "7cd4f590",
			"mIDToProduct(bytes32)": "5c8d05a4",
			"mProductSearchTrend(bytes32,uint256)": "0b0fe44c",
			"mProductViewCount(bytes32)": "acfa58d2",
			"mShippingInfo(uint256)": "da31f88a",
			"mShippingInfoByAddress(address,uint256)": "02b572d6",
			"mShippingInfoByOrder(uint256)": "bfbe3ef7",
			"shippingCounter()": "1c787f3e",
			"updateViewCount(bytes32)": "041cbb16"
		}
	},
	"abi": [
		{
			"inputs": [],
			"stateMutability": "payable",
			"type": "constructor"
		},
		{
			"anonymous": false,
			"inputs": [
				{
					"indexed": false,
					"internalType": "string",
					"name": "email",
					"type": "string"
				},
				{
					"components": [
						{
							"internalType": "bytes32",
							"name": "id",
							"type": "bytes32"
						},
						{
							"internalType": "address",
							"name": "customer",
							"type": "address"
						},
						{
							"components": [
								{
									"internalType": "bytes32",
									"name": "id",
									"type": "bytes32"
								},
								{
									"internalType": "uint256",
									"name": "quantity",
									"type": "uint256"
								},
								{
									"internalType": "enum SUBCRIPTION_TYPE",
									"name": "typ",
									"type": "uint8"
								},
								{
									"internalType": "string",
									"name": "productName",
									"type": "string"
								},
								{
									"internalType": "string",
									"name": "imgUrl",
									"type": "string"
								}
							],
							"internalType": "struct OrderDetail[]",
							"name": "products",
							"type": "tuple[]"
						},
						{
							"internalType": "uint256",
							"name": "createAt",
							"type": "uint256"
						},
						{
							"components": [
								{
									"internalType": "string",
									"name": "firstName",
									"type": "string"
								},
								{
									"internalType": "string",
									"name": "lastName",
									"type": "string"
								},
								{
									"internalType": "string",
									"name": "email",
									"type": "string"
								},
								{
									"internalType": "string",
									"name": "country",
									"type": "string"
								},
								{
									"internalType": "string",
									"name": "city",
									"type": "string"
								},
								{
									"internalType": "string",
									"name": "stateOrProvince",
									"type": "string"
								},
								{
									"internalType": "string",
									"name": "postalCode",
									"type": "string"
								},
								{
									"internalType": "string",
									"name": "phone",
									"type": "string"
								},
								{
									"internalType": "string",
									"name": "addressDetail",
									"type": "string"
								}
							],
							"internalType": "struct ShippingParams",
							"name": "shipInfo",
							"type": "tuple"
						},
						{
							"internalType": "uint256",
							"name": "shippingFee",
							"type": "uint256"
						}
					],
					"indexed": false,
					"internalType": "struct Order",
					"name": "order",
					"type": "tuple"
				},
				{
					"indexed": false,
					"internalType": "uint256",
					"name": "totalPrice",
					"type": "uint256"
				}
			],
			"name": "EmailOrder",
			"type": "event"
		},
		{
			"anonymous": false,
			"inputs": [
				{
					"indexed": false,
					"internalType": "address",
					"name": "buyer",
					"type": "address"
				},
				{
					"indexed": false,
					"internalType": "bytes32",
					"name": "orderId",
					"type": "bytes32"
				},
				{
					"indexed": false,
					"internalType": "bytes32",
					"name": "productId",
					"type": "bytes32"
				},
				{
					"indexed": false,
					"internalType": "uint256",
					"name": "firstTimePay",
					"type": "uint256"
				},
				{
					"indexed": false,
					"internalType": "uint256",
					"name": "nextTimePay",
					"type": "uint256"
				},
				{
					"indexed": false,
					"internalType": "uint256",
					"name": "amount",
					"type": "uint256"
				},
				{
					"indexed": false,
					"internalType": "uint256",
					"name": "typSub",
					"type": "uint256"
				},
				{
					"indexed": false,
					"internalType": "bytes32",
					"name": "idPayment",
					"type": "bytes32"
				}
			],
			"name": "Hire",
			"type": "event"
		},
		{
			"anonymous": false,
			"inputs": [
				{
					"components": [
						{
							"internalType": "address",
							"name": "add",
							"type": "address"
						},
						{
							"internalType": "uint256",
							"name": "quantity",
							"type": "uint256"
						},
						{
							"internalType": "uint256",
							"name": "price",
							"type": "uint256"
						},
						{
							"internalType": "enum SUBCRIPTION_TYPE",
							"name": "subTyp",
							"type": "uint8"
						},
						{
							"internalType": "uint256",
							"name": "time",
							"type": "uint256"
						},
						{
							"internalType": "bytes32",
							"name": "id",
							"type": "bytes32"
						},
						{
							"internalType": "address",
							"name": "from",
							"type": "address"
						},
						{
							"internalType": "address",
							"name": "to",
							"type": "address"
						},
						{
							"internalType": "bytes32",
							"name": "idPayment",
							"type": "bytes32"
						}
					],
					"indexed": false,
					"internalType": "struct FiCam.EventInput",
					"name": "eventOrder",
					"type": "tuple"
				}
			],
			"name": "eBuyProduct",
			"type": "event"
		},
		{
			"inputs": [
				{
					"internalType": "uint256",
					"name": "",
					"type": "uint256"
				}
			],
			"name": "ActiveProduct",
			"outputs": [
				{
					"internalType": "bytes32",
					"name": "",
					"type": "bytes32"
				}
			],
			"stateMutability": "view",
			"type": "function"
		},
		{
			"inputs": [
				{
					"internalType": "bytes32",
					"name": "_id",
					"type": "bytes32"
				}
			],
			"name": "AdminActiveProduct",
			"outputs": [
				{
					"internalType": "bool",
					"name": "",
					"type": "bool"
				}
			],
			"stateMutability": "nonpayable",
			"type": "function"
		},
		{
			"inputs": [
				{
					"internalType": "string",
					"name": "_imgUrl",
					"type": "string"
				},
				{
					"internalType": "string",
					"name": "_name",
					"type": "string"
				},
				{
					"internalType": "string",
					"name": "_desc",
					"type": "string"
				},
				{
					"internalType": "string",
					"name": "_advantages",
					"type": "string"
				},
				{
					"internalType": "string",
					"name": "_videoUrl",
					"type": "string"
				},
				{
					"internalType": "uint256",
					"name": "_salePrice",
					"type": "uint256"
				},
				{
					"internalType": "uint256",
					"name": "_rentalPrice",
					"type": "uint256"
				},
				{
					"internalType": "uint256",
					"name": "_monthlyPrice",
					"type": "uint256"
				},
				{
					"internalType": "uint256",
					"name": "_sixMonthsPrice",
					"type": "uint256"
				},
				{
					"internalType": "uint256",
					"name": "_yearlyPrice",
					"type": "uint256"
				},
				{
					"internalType": "uint256",
					"name": "_storageQuantity",
					"type": "uint256"
				},
				{
					"internalType": "uint256",
					"name": "_remainTime",
					"type": "uint256"
				},
				{
					"internalType": "bool",
					"name": "_active",
					"type": "bool"
				}
			],
			"name": "AdminAddProduct",
			"outputs": [],
			"stateMutability": "nonpayable",
			"type": "function"
		},
		{
			"inputs": [
				{
					"internalType": "bytes32",
					"name": "_id",
					"type": "bytes32"
				}
			],
			"name": "AdminDeactiveProduct",
			"outputs": [
				{
					"internalType": "bool",
					"name": "",
					"type": "bool"
				}
			],
			"stateMutability": "nonpayable",
			"type": "function"
		},
		{
			"inputs": [
				{
					"internalType": "bytes32",
					"name": "_id",
					"type": "bytes32"
				},
				{
					"internalType": "uint256",
					"name": "_updateAt",
					"type": "uint256"
				}
			],
			"name": "AdminEditUpdateAt",
			"outputs": [
				{
					"internalType": "bool",
					"name": "",
					"type": "bool"
				}
			],
			"stateMutability": "nonpayable",
			"type": "function"
		},
		{
			"inputs": [
				{
					"internalType": "bytes32",
					"name": "_id",
					"type": "bytes32"
				},
				{
					"internalType": "string",
					"name": "_imgUrl",
					"type": "string"
				},
				{
					"internalType": "string",
					"name": "_desc",
					"type": "string"
				},
				{
					"internalType": "string",
					"name": "_advantages",
					"type": "string"
				},
				{
					"internalType": "string",
					"name": "_videoUrl",
					"type": "string"
				},
				{
					"internalType": "uint256",
					"name": "_salePrice",
					"type": "uint256"
				},
				{
					"internalType": "uint256",
					"name": "_rentalPrice",
					"type": "uint256"
				},
				{
					"internalType": "uint256",
					"name": "_monthlyPrice",
					"type": "uint256"
				},
				{
					"internalType": "uint256",
					"name": "_sixMonthsPrice",
					"type": "uint256"
				},
				{
					"internalType": "uint256",
					"name": "_yearlyPrice",
					"type": "uint256"
				},
				{
					"internalType": "uint256",
					"name": "_storageQuantity",
					"type": "uint256"
				},
				{
					"internalType": "uint256",
					"name": "_remainTime",
					"type": "uint256"
				}
			],
			"name": "AdminUpdateProductInfo",
			"outputs": [
				{
					"internalType": "bool",
					"name": "",
					"type": "bool"
				}
			],
			"stateMutability": "nonpayable",
			"type": "function"
		},
		{
			"inputs": [
				{
					"internalType": "address",
					"name": "_to",
					"type": "address"
				}
			],
			"name": "AdminViewOrder",
			"outputs": [
				{
					"components": [
						{
							"internalType": "bytes32",
							"name": "id",
							"type": "bytes32"
						},
						{
							"internalType": "address",
							"name": "customer",
							"type": "address"
						},
						{
							"components": [
								{
									"internalType": "bytes32",
									"name": "id",
									"type": "bytes32"
								},
								{
									"internalType": "uint256",
									"name": "quantity",
									"type": "uint256"
								},
								{
									"internalType": "enum SUBCRIPTION_TYPE",
									"name": "typ",
									"type": "uint8"
								},
								{
									"internalType": "string",
									"name": "productName",
									"type": "string"
								},
								{
									"internalType": "string",
									"name": "imgUrl",
									"type": "string"
								}
							],
							"internalType": "struct OrderDetail[]",
							"name": "products",
							"type": "tuple[]"
						},
						{
							"internalType": "uint256",
							"name": "createAt",
							"type": "uint256"
						},
						{
							"components": [
								{
									"internalType": "string",
									"name": "firstName",
									"type": "string"
								},
								{
									"internalType": "string",
									"name": "lastName",
									"type": "string"
								},
								{
									"internalType": "string",
									"name": "email",
									"type": "string"
								},
								{
									"internalType": "string",
									"name": "country",
									"type": "string"
								},
								{
									"internalType": "string",
									"name": "city",
									"type": "string"
								},
								{
									"internalType": "string",
									"name": "stateOrProvince",
									"type": "string"
								},
								{
									"internalType": "string",
									"name": "postalCode",
									"type": "string"
								},
								{
									"internalType": "string",
									"name": "phone",
									"type": "string"
								},
								{
									"internalType": "string",
									"name": "addressDetail",
									"type": "string"
								}
							],
							"internalType": "struct ShippingParams",
							"name": "shipInfo",
							"type": "tuple"
						},
						{
							"internalType": "uint256",
							"name": "shippingFee",
							"type": "uint256"
						}
					],
					"internalType": "struct Order[]",
					"name": "orders",
					"type": "tuple[]"
				}
			],
			"stateMutability": "view",
			"type": "function"
		},
		{
			"inputs": [],
			"name": "AdminViewProduct",
			"outputs": [
				{
					"components": [
						{
							"internalType": "bytes32",
							"name": "id",
							"type": "bytes32"
						},
						{
							"components": [
								{
									"internalType": "string",
									"name": "imgUrl",
									"type": "string"
								},
								{
									"internalType": "string",
									"name": "name",
									"type": "string"
								},
								{
									"internalType": "bytes",
									"name": "desc",
									"type": "bytes"
								},
								{
									"internalType": "string",
									"name": "advantages",
									"type": "string"
								},
								{
									"internalType": "string",
									"name": "videoUrl",
									"type": "string"
								},
								{
									"internalType": "uint256",
									"name": "salePrice",
									"type": "uint256"
								},
								{
									"internalType": "uint256",
									"name": "rentalPrice",
									"type": "uint256"
								},
								{
									"internalType": "uint256",
									"name": "monthlyPrice",
									"type": "uint256"
								},
								{
									"internalType": "uint256",
									"name": "sixMonthsPrice",
									"type": "uint256"
								},
								{
									"internalType": "uint256",
									"name": "yearlyPrice",
									"type": "uint256"
								}
							],
							"internalType": "struct createProductParams",
							"name": "params",
							"type": "tuple"
						},
						{
							"internalType": "uint256",
							"name": "storageQuantity",
							"type": "uint256"
						},
						{
							"internalType": "uint256",
							"name": "saleQuantity",
							"type": "uint256"
						},
						{
							"internalType": "uint256",
							"name": "hireQuantity",
							"type": "uint256"
						},
						{
							"internalType": "uint256",
							"name": "returnHiredQuantity",
							"type": "uint256"
						},
						{
							"internalType": "uint256",
							"name": "remainTime",
							"type": "uint256"
						},
						{
							"internalType": "uint256",
							"name": "updateAt",
							"type": "uint256"
						},
						{
							"internalType": "bool",
							"name": "active",
							"type": "bool"
						}
					],
					"internalType": "struct Product[]",
					"name": "products",
					"type": "tuple[]"
				}
			],
			"stateMutability": "view",
			"type": "function"
		},
		{
			"inputs": [
				{
					"internalType": "uint256",
					"name": "",
					"type": "uint256"
				}
			],
			"name": "Admins",
			"outputs": [
				{
					"internalType": "address",
					"name": "",
					"type": "address"
				}
			],
			"stateMutability": "view",
			"type": "function"
		},
		{
			"inputs": [
				{
					"components": [
						{
							"internalType": "bytes32",
							"name": "id",
							"type": "bytes32"
						},
						{
							"internalType": "uint256",
							"name": "quantity",
							"type": "uint256"
						},
						{
							"internalType": "enum SUBCRIPTION_TYPE",
							"name": "typ",
							"type": "uint8"
						}
					],
					"internalType": "struct OrderInput[]",
					"name": "_input",
					"type": "tuple[]"
				},
				{
					"components": [
						{
							"internalType": "string",
							"name": "firstName",
							"type": "string"
						},
						{
							"internalType": "string",
							"name": "lastName",
							"type": "string"
						},
						{
							"internalType": "string",
							"name": "email",
							"type": "string"
						},
						{
							"internalType": "string",
							"name": "country",
							"type": "string"
						},
						{
							"internalType": "string",
							"name": "city",
							"type": "string"
						},
						{
							"internalType": "string",
							"name": "stateOrProvince",
							"type": "string"
						},
						{
							"internalType": "string",
							"name": "postalCode",
							"type": "string"
						},
						{
							"internalType": "string",
							"name": "phone",
							"type": "string"
						},
						{
							"internalType": "string",
							"name": "addressDetail",
							"type": "string"
						}
					],
					"internalType": "struct ShippingParams",
					"name": "_shipParams",
					"type": "tuple"
				},
				{
					"internalType": "address",
					"name": "_address",
					"type": "address"
				}
			],
			"name": "CallDataOrder",
			"outputs": [
				{
					"internalType": "bytes",
					"name": "action",
					"type": "bytes"
				}
			],
			"stateMutability": "pure",
			"type": "function"
		},
		{
			"inputs": [
				{
					"internalType": "bytes32",
					"name": "_orderId",
					"type": "bytes32"
				},
				{
					"internalType": "bytes32",
					"name": "_idProduct",
					"type": "bytes32"
				}
			],
			"name": "CallDataRenew",
			"outputs": [
				{
					"internalType": "bytes",
					"name": "callData",
					"type": "bytes"
				}
			],
			"stateMutability": "pure",
			"type": "function"
		},
		{
			"inputs": [
				{
					"internalType": "bytes",
					"name": "callData",
					"type": "bytes"
				}
			],
			"name": "CheckCallData",
			"outputs": [
				{
					"internalType": "bool",
					"name": "",
					"type": "bool"
				}
			],
			"stateMutability": "nonpayable",
			"type": "function"
		},
		{
			"inputs": [
				{
					"internalType": "bytes",
					"name": "callData",
					"type": "bytes"
				},
				{
					"internalType": "bytes32",
					"name": "orderId",
					"type": "bytes32"
				},
				{
					"internalType": "uint256",
					"name": "paymentAmount",
					"type": "uint256"
				}
			],
			"name": "ExecuteOrder",
			"outputs": [
				{
					"internalType": "bool",
					"name": "",
					"type": "bool"
				}
			],
			"stateMutability": "nonpayable",
			"type": "function"
		},
		{
			"inputs": [
				{
					"internalType": "bytes",
					"name": "action",
					"type": "bytes"
				},
				{
					"internalType": "enum FiCam.ExecuteOrderType",
					"name": "typ",
					"type": "uint8"
				}
			],
			"name": "GetCallData",
			"outputs": [
				{
					"internalType": "bytes",
					"name": "callData",
					"type": "bytes"
				}
			],
			"stateMutability": "pure",
			"type": "function"
		},
		{
			"inputs": [
				{
					"internalType": "bytes32",
					"name": "_idCalldata",
					"type": "bytes32"
				}
			],
			"name": "GetCallDataFE",
			"outputs": [
				{
					"internalType": "bytes",
					"name": "",
					"type": "bytes"
				}
			],
			"stateMutability": "view",
			"type": "function"
		},
		{
			"inputs": [
				{
					"internalType": "uint32",
					"name": "_page",
					"type": "uint32"
				},
				{
					"internalType": "uint256",
					"name": "returnRIP",
					"type": "uint256"
				}
			],
			"name": "GetMyOrder",
			"outputs": [
				{
					"internalType": "bool",
					"name": "isMore",
					"type": "bool"
				},
				{
					"components": [
						{
							"internalType": "bytes32",
							"name": "id",
							"type": "bytes32"
						},
						{
							"internalType": "address",
							"name": "customer",
							"type": "address"
						},
						{
							"components": [
								{
									"internalType": "bytes32",
									"name": "id",
									"type": "bytes32"
								},
								{
									"internalType": "uint256",
									"name": "quantity",
									"type": "uint256"
								},
								{
									"internalType": "enum SUBCRIPTION_TYPE",
									"name": "typ",
									"type": "uint8"
								},
								{
									"internalType": "string",
									"name": "productName",
									"type": "string"
								},
								{
									"internalType": "string",
									"name": "imgUrl",
									"type": "string"
								}
							],
							"internalType": "struct OrderDetail[]",
							"name": "products",
							"type": "tuple[]"
						},
						{
							"internalType": "uint256",
							"name": "createAt",
							"type": "uint256"
						},
						{
							"components": [
								{
									"internalType": "string",
									"name": "firstName",
									"type": "string"
								},
								{
									"internalType": "string",
									"name": "lastName",
									"type": "string"
								},
								{
									"internalType": "string",
									"name": "email",
									"type": "string"
								},
								{
									"internalType": "string",
									"name": "country",
									"type": "string"
								},
								{
									"internalType": "string",
									"name": "city",
									"type": "string"
								},
								{
									"internalType": "string",
									"name": "stateOrProvince",
									"type": "string"
								},
								{
									"internalType": "string",
									"name": "postalCode",
									"type": "string"
								},
								{
									"internalType": "string",
									"name": "phone",
									"type": "string"
								},
								{
									"internalType": "string",
									"name": "addressDetail",
									"type": "string"
								}
							],
							"internalType": "struct ShippingParams",
							"name": "shipInfo",
							"type": "tuple"
						},
						{
							"internalType": "uint256",
							"name": "shippingFee",
							"type": "uint256"
						}
					],
					"internalType": "struct Order[]",
					"name": "arrayOrder",
					"type": "tuple[]"
				}
			],
			"stateMutability": "view",
			"type": "function"
		},
		{
			"inputs": [
				{
					"internalType": "address",
					"name": "",
					"type": "address"
				}
			],
			"name": "IsAdmin",
			"outputs": [
				{
					"internalType": "bool",
					"name": "",
					"type": "bool"
				}
			],
			"stateMutability": "view",
			"type": "function"
		},
		{
			"inputs": [
				{
					"internalType": "uint256",
					"name": "",
					"type": "uint256"
				}
			],
			"name": "ListProductID",
			"outputs": [
				{
					"internalType": "bytes32",
					"name": "",
					"type": "bytes32"
				}
			],
			"stateMutability": "view",
			"type": "function"
		},
		{
			"inputs": [
				{
					"components": [
						{
							"internalType": "bytes32",
							"name": "id",
							"type": "bytes32"
						},
						{
							"internalType": "uint256",
							"name": "quantity",
							"type": "uint256"
						},
						{
							"internalType": "enum SUBCRIPTION_TYPE",
							"name": "typ",
							"type": "uint8"
						}
					],
					"internalType": "struct OrderInput[]",
					"name": "orderInputs",
					"type": "tuple[]"
				},
				{
					"components": [
						{
							"internalType": "string",
							"name": "firstName",
							"type": "string"
						},
						{
							"internalType": "string",
							"name": "lastName",
							"type": "string"
						},
						{
							"internalType": "string",
							"name": "email",
							"type": "string"
						},
						{
							"internalType": "string",
							"name": "country",
							"type": "string"
						},
						{
							"internalType": "string",
							"name": "city",
							"type": "string"
						},
						{
							"internalType": "string",
							"name": "stateOrProvince",
							"type": "string"
						},
						{
							"internalType": "string",
							"name": "postalCode",
							"type": "string"
						},
						{
							"internalType": "string",
							"name": "phone",
							"type": "string"
						},
						{
							"internalType": "string",
							"name": "addressDetail",
							"type": "string"
						}
					],
					"internalType": "struct ShippingParams",
					"name": "shipParams",
					"type": "tuple"
				},
				{
					"internalType": "address",
					"name": "to",
					"type": "address"
				}
			],
			"name": "MakeOrder",
			"outputs": [
				{
					"internalType": "bytes32",
					"name": "",
					"type": "bytes32"
				}
			],
			"stateMutability": "nonpayable",
			"type": "function"
		},
		{
			"inputs": [],
			"name": "MasterPool",
			"outputs": [
				{
					"internalType": "address",
					"name": "",
					"type": "address"
				}
			],
			"stateMutability": "view",
			"type": "function"
		},
		{
			"inputs": [
				{
					"internalType": "uint256",
					"name": "",
					"type": "uint256"
				}
			],
			"name": "OrderIDs",
			"outputs": [
				{
					"internalType": "bytes32",
					"name": "",
					"type": "bytes32"
				}
			],
			"stateMutability": "view",
			"type": "function"
		},
		{
			"inputs": [],
			"name": "Owner",
			"outputs": [
				{
					"internalType": "address",
					"name": "",
					"type": "address"
				}
			],
			"stateMutability": "view",
			"type": "function"
		},
		{
			"inputs": [],
			"name": "POS",
			"outputs": [
				{
					"internalType": "address",
					"name": "",
					"type": "address"
				}
			],
			"stateMutability": "view",
			"type": "function"
		},
		{
			"inputs": [
				{
					"internalType": "bytes32",
					"name": "_orderId",
					"type": "bytes32"
				},
				{
					"internalType": "bytes32",
					"name": "_idProduct",
					"type": "bytes32"
				}
			],
			"name": "RenewSub",
			"outputs": [
				{
					"internalType": "bool",
					"name": "",
					"type": "bool"
				}
			],
			"stateMutability": "nonpayable",
			"type": "function"
		},
		{
			"inputs": [],
			"name": "SCUsdt",
			"outputs": [
				{
					"internalType": "contract IERC20",
					"name": "",
					"type": "address"
				}
			],
			"stateMutability": "view",
			"type": "function"
		},
		{
			"inputs": [
				{
					"internalType": "address",
					"name": "_admin",
					"type": "address"
				}
			],
			"name": "SetAdmin",
			"outputs": [],
			"stateMutability": "nonpayable",
			"type": "function"
		},
		{
			"inputs": [
				{
					"components": [
						{
							"internalType": "bytes32",
							"name": "id",
							"type": "bytes32"
						},
						{
							"internalType": "uint256",
							"name": "quantity",
							"type": "uint256"
						},
						{
							"internalType": "enum SUBCRIPTION_TYPE",
							"name": "typ",
							"type": "uint8"
						}
					],
					"internalType": "struct OrderInput[]",
					"name": "_input",
					"type": "tuple[]"
				},
				{
					"components": [
						{
							"internalType": "string",
							"name": "firstName",
							"type": "string"
						},
						{
							"internalType": "string",
							"name": "lastName",
							"type": "string"
						},
						{
							"internalType": "string",
							"name": "email",
							"type": "string"
						},
						{
							"internalType": "string",
							"name": "country",
							"type": "string"
						},
						{
							"internalType": "string",
							"name": "city",
							"type": "string"
						},
						{
							"internalType": "string",
							"name": "stateOrProvince",
							"type": "string"
						},
						{
							"internalType": "string",
							"name": "postalCode",
							"type": "string"
						},
						{
							"internalType": "string",
							"name": "phone",
							"type": "string"
						},
						{
							"internalType": "string",
							"name": "addressDetail",
							"type": "string"
						}
					],
					"internalType": "struct ShippingParams",
					"name": "_shipParams",
					"type": "tuple"
				},
				{
					"internalType": "address",
					"name": "_address",
					"type": "address"
				},
				{
					"internalType": "enum FiCam.ExecuteOrderType",
					"name": "typ",
					"type": "uint8"
				}
			],
			"name": "SetCallDataFE",
			"outputs": [
				{
					"internalType": "bytes32",
					"name": "idCallData",
					"type": "bytes32"
				}
			],
			"stateMutability": "nonpayable",
			"type": "function"
		},
		{
			"inputs": [
				{
					"internalType": "address",
					"name": "_masterPool",
					"type": "address"
				}
			],
			"name": "SetMasterPool",
			"outputs": [],
			"stateMutability": "nonpayable",
			"type": "function"
		},
		{
			"inputs": [
				{
					"internalType": "address",
					"name": "_pos",
					"type": "address"
				}
			],
			"name": "SetPOS",
			"outputs": [],
			"stateMutability": "nonpayable",
			"type": "function"
		},
		{
			"inputs": [
				{
					"internalType": "address",
					"name": "_usdt",
					"type": "address"
				}
			],
			"name": "SetUsdt",
			"outputs": [],
			"stateMutability": "nonpayable",
			"type": "function"
		},
		{
			"inputs": [],
			"name": "UserViewProduct",
			"outputs": [
				{
					"components": [
						{
							"internalType": "bytes32",
							"name": "id",
							"type": "bytes32"
						},
						{
							"components": [
								{
									"internalType": "string",
									"name": "imgUrl",
									"type": "string"
								},
								{
									"internalType": "string",
									"name": "name",
									"type": "string"
								},
								{
									"internalType": "bytes",
									"name": "desc",
									"type": "bytes"
								},
								{
									"internalType": "string",
									"name": "advantages",
									"type": "string"
								},
								{
									"internalType": "string",
									"name": "videoUrl",
									"type": "string"
								},
								{
									"internalType": "uint256",
									"name": "salePrice",
									"type": "uint256"
								},
								{
									"internalType": "uint256",
									"name": "rentalPrice",
									"type": "uint256"
								},
								{
									"internalType": "uint256",
									"name": "monthlyPrice",
									"type": "uint256"
								},
								{
									"internalType": "uint256",
									"name": "sixMonthsPrice",
									"type": "uint256"
								},
								{
									"internalType": "uint256",
									"name": "yearlyPrice",
									"type": "uint256"
								}
							],
							"internalType": "struct createProductParams",
							"name": "params",
							"type": "tuple"
						},
						{
							"internalType": "uint256",
							"name": "storageQuantity",
							"type": "uint256"
						},
						{
							"internalType": "uint256",
							"name": "saleQuantity",
							"type": "uint256"
						},
						{
							"internalType": "uint256",
							"name": "hireQuantity",
							"type": "uint256"
						},
						{
							"internalType": "uint256",
							"name": "returnHiredQuantity",
							"type": "uint256"
						},
						{
							"internalType": "uint256",
							"name": "remainTime",
							"type": "uint256"
						},
						{
							"internalType": "uint256",
							"name": "updateAt",
							"type": "uint256"
						},
						{
							"internalType": "bool",
							"name": "active",
							"type": "bool"
						}
					],
					"internalType": "struct Product[]",
					"name": "_products",
					"type": "tuple[]"
				}
			],
			"stateMutability": "view",
			"type": "function"
		},
		{
			"inputs": [
				{
					"internalType": "uint256",
					"name": "",
					"type": "uint256"
				}
			],
			"name": "Users",
			"outputs": [
				{
					"internalType": "address",
					"name": "",
					"type": "address"
				}
			],
			"stateMutability": "view",
			"type": "function"
		},
		{
			"inputs": [
				{
					"internalType": "bytes32",
					"name": "_id",
					"type": "bytes32"
				}
			],
			"name": "ViewProduct",
			"outputs": [
				{
					"components": [
						{
							"internalType": "bytes32",
							"name": "id",
							"type": "bytes32"
						},
						{
							"components": [
								{
									"internalType": "string",
									"name": "imgUrl",
									"type": "string"
								},
								{
									"internalType": "string",
									"name": "name",
									"type": "string"
								},
								{
									"internalType": "bytes",
									"name": "desc",
									"type": "bytes"
								},
								{
									"internalType": "string",
									"name": "advantages",
									"type": "string"
								},
								{
									"internalType": "string",
									"name": "videoUrl",
									"type": "string"
								},
								{
									"internalType": "uint256",
									"name": "salePrice",
									"type": "uint256"
								},
								{
									"internalType": "uint256",
									"name": "rentalPrice",
									"type": "uint256"
								},
								{
									"internalType": "uint256",
									"name": "monthlyPrice",
									"type": "uint256"
								},
								{
									"internalType": "uint256",
									"name": "sixMonthsPrice",
									"type": "uint256"
								},
								{
									"internalType": "uint256",
									"name": "yearlyPrice",
									"type": "uint256"
								}
							],
							"internalType": "struct createProductParams",
							"name": "params",
							"type": "tuple"
						},
						{
							"internalType": "uint256",
							"name": "storageQuantity",
							"type": "uint256"
						},
						{
							"internalType": "uint256",
							"name": "saleQuantity",
							"type": "uint256"
						},
						{
							"internalType": "uint256",
							"name": "hireQuantity",
							"type": "uint256"
						},
						{
							"internalType": "uint256",
							"name": "returnHiredQuantity",
							"type": "uint256"
						},
						{
							"internalType": "uint256",
							"name": "remainTime",
							"type": "uint256"
						},
						{
							"internalType": "uint256",
							"name": "updateAt",
							"type": "uint256"
						},
						{
							"internalType": "bool",
							"name": "active",
							"type": "bool"
						}
					],
					"internalType": "struct Product",
					"name": "rs",
					"type": "tuple"
				}
			],
			"stateMutability": "view",
			"type": "function"
		},
		{
			"inputs": [
				{
					"internalType": "uint256",
					"name": "_updateAt",
					"type": "uint256"
				},
				{
					"internalType": "uint256",
					"name": "_index",
					"type": "uint256"
				},
				{
					"internalType": "uint256",
					"name": "_limit",
					"type": "uint256"
				}
			],
			"name": "ViewProducts",
			"outputs": [
				{
					"components": [
						{
							"internalType": "bytes32",
							"name": "id",
							"type": "bytes32"
						},
						{
							"components": [
								{
									"internalType": "string",
									"name": "imgUrl",
									"type": "string"
								},
								{
									"internalType": "string",
									"name": "name",
									"type": "string"
								},
								{
									"internalType": "bytes",
									"name": "desc",
									"type": "bytes"
								},
								{
									"internalType": "string",
									"name": "advantages",
									"type": "string"
								},
								{
									"internalType": "string",
									"name": "videoUrl",
									"type": "string"
								},
								{
									"internalType": "uint256",
									"name": "salePrice",
									"type": "uint256"
								},
								{
									"internalType": "uint256",
									"name": "rentalPrice",
									"type": "uint256"
								},
								{
									"internalType": "uint256",
									"name": "monthlyPrice",
									"type": "uint256"
								},
								{
									"internalType": "uint256",
									"name": "sixMonthsPrice",
									"type": "uint256"
								},
								{
									"internalType": "uint256",
									"name": "yearlyPrice",
									"type": "uint256"
								}
							],
							"internalType": "struct createProductParams",
							"name": "params",
							"type": "tuple"
						},
						{
							"internalType": "uint256",
							"name": "storageQuantity",
							"type": "uint256"
						},
						{
							"internalType": "uint256",
							"name": "saleQuantity",
							"type": "uint256"
						},
						{
							"internalType": "uint256",
							"name": "hireQuantity",
							"type": "uint256"
						},
						{
							"internalType": "uint256",
							"name": "returnHiredQuantity",
							"type": "uint256"
						},
						{
							"internalType": "uint256",
							"name": "remainTime",
							"type": "uint256"
						},
						{
							"internalType": "uint256",
							"name": "updateAt",
							"type": "uint256"
						},
						{
							"internalType": "bool",
							"name": "active",
							"type": "bool"
						}
					],
					"internalType": "struct Product[]",
					"name": "rs",
					"type": "tuple[]"
				},
				{
					"internalType": "bool",
					"name": "isMore",
					"type": "bool"
				},
				{
					"internalType": "uint256",
					"name": "lastIndex",
					"type": "uint256"
				}
			],
			"stateMutability": "view",
			"type": "function"
		},
		{
			"inputs": [
				{
					"internalType": "uint256",
					"name": "beginTime",
					"type": "uint256"
				},
				{
					"internalType": "uint256",
					"name": "endTime",
					"type": "uint256"
				},
				{
					"internalType": "uint256[]",
					"name": "sortedArray",
					"type": "uint256[]"
				}
			],
			"name": "countElementsInRange",
			"outputs": [
				{
					"internalType": "uint256",
					"name": "count",
					"type": "uint256"
				}
			],
			"stateMutability": "pure",
			"type": "function"
		},
		{
			"inputs": [
				{
					"internalType": "bytes32",
					"name": "_productID",
					"type": "bytes32"
				}
			],
			"name": "getProductTrend",
			"outputs": [
				{
					"internalType": "uint256[]",
					"name": "",
					"type": "uint256[]"
				}
			],
			"stateMutability": "view",
			"type": "function"
		},
		{
			"inputs": [
				{
					"internalType": "bytes32",
					"name": "_productID",
					"type": "bytes32"
				},
				{
					"internalType": "uint256",
					"name": "_from",
					"type": "uint256"
				},
				{
					"internalType": "uint256",
					"name": "_to",
					"type": "uint256"
				}
			],
			"name": "getProductTrendByTime",
			"outputs": [
				{
					"internalType": "uint256",
					"name": "count",
					"type": "uint256"
				}
			],
			"stateMutability": "view",
			"type": "function"
		},
		{
			"inputs": [
				{
					"internalType": "bytes32",
					"name": "_productID",
					"type": "bytes32"
				}
			],
			"name": "getProductViewCount",
			"outputs": [
				{
					"internalType": "uint256",
					"name": "",
					"type": "uint256"
				}
			],
			"stateMutability": "view",
			"type": "function"
		},
		{
			"inputs": [
				{
					"internalType": "address",
					"name": "hirer",
					"type": "address"
				},
				{
					"internalType": "bytes32",
					"name": "_orderId",
					"type": "bytes32"
				},
				{
					"internalType": "bytes32",
					"name": "_idProduct",
					"type": "bytes32"
				}
			],
			"name": "getRentalInfo",
			"outputs": [
				{
					"internalType": "uint256",
					"name": "rentalAmount",
					"type": "uint256"
				},
				{
					"internalType": "uint256",
					"name": "nextTime",
					"type": "uint256"
				}
			],
			"stateMutability": "view",
			"type": "function"
		},
		{
			"inputs": [
				{
					"internalType": "bytes32",
					"name": "_orderId",
					"type": "bytes32"
				}
			],
			"name": "getShipInfo",
			"outputs": [
				{
					"components": [
						{
							"internalType": "string",
							"name": "firstName",
							"type": "string"
						},
						{
							"internalType": "string",
							"name": "lastName",
							"type": "string"
						},
						{
							"internalType": "string",
							"name": "email",
							"type": "string"
						},
						{
							"internalType": "string",
							"name": "country",
							"type": "string"
						},
						{
							"internalType": "string",
							"name": "city",
							"type": "string"
						},
						{
							"internalType": "string",
							"name": "stateOrProvince",
							"type": "string"
						},
						{
							"internalType": "string",
							"name": "postalCode",
							"type": "string"
						},
						{
							"internalType": "string",
							"name": "phone",
							"type": "string"
						},
						{
							"internalType": "string",
							"name": "addressDetail",
							"type": "string"
						}
					],
					"internalType": "struct ShippingParams",
					"name": "",
					"type": "tuple"
				}
			],
			"stateMutability": "view",
			"type": "function"
		},
		{
			"inputs": [
				{
					"internalType": "bytes32",
					"name": "_orderId",
					"type": "bytes32"
				}
			],
			"name": "getmIDTOOrder",
			"outputs": [
				{
					"components": [
						{
							"internalType": "bytes32",
							"name": "id",
							"type": "bytes32"
						},
						{
							"internalType": "address",
							"name": "customer",
							"type": "address"
						},
						{
							"components": [
								{
									"internalType": "bytes32",
									"name": "id",
									"type": "bytes32"
								},
								{
									"internalType": "uint256",
									"name": "quantity",
									"type": "uint256"
								},
								{
									"internalType": "enum SUBCRIPTION_TYPE",
									"name": "typ",
									"type": "uint8"
								},
								{
									"internalType": "string",
									"name": "productName",
									"type": "string"
								},
								{
									"internalType": "string",
									"name": "imgUrl",
									"type": "string"
								}
							],
							"internalType": "struct OrderDetail[]",
							"name": "products",
							"type": "tuple[]"
						},
						{
							"internalType": "uint256",
							"name": "createAt",
							"type": "uint256"
						},
						{
							"components": [
								{
									"internalType": "string",
									"name": "firstName",
									"type": "string"
								},
								{
									"internalType": "string",
									"name": "lastName",
									"type": "string"
								},
								{
									"internalType": "string",
									"name": "email",
									"type": "string"
								},
								{
									"internalType": "string",
									"name": "country",
									"type": "string"
								},
								{
									"internalType": "string",
									"name": "city",
									"type": "string"
								},
								{
									"internalType": "string",
									"name": "stateOrProvince",
									"type": "string"
								},
								{
									"internalType": "string",
									"name": "postalCode",
									"type": "string"
								},
								{
									"internalType": "string",
									"name": "phone",
									"type": "string"
								},
								{
									"internalType": "string",
									"name": "addressDetail",
									"type": "string"
								}
							],
							"internalType": "struct ShippingParams",
							"name": "shipInfo",
							"type": "tuple"
						},
						{
							"internalType": "uint256",
							"name": "shippingFee",
							"type": "uint256"
						}
					],
					"internalType": "struct Order",
					"name": "",
					"type": "tuple"
				}
			],
			"stateMutability": "view",
			"type": "function"
		},
		{
			"inputs": [
				{
					"internalType": "address",
					"name": "",
					"type": "address"
				},
				{
					"internalType": "uint256",
					"name": "",
					"type": "uint256"
				}
			],
			"name": "mAddressTOOrderID",
			"outputs": [
				{
					"internalType": "bytes32",
					"name": "",
					"type": "bytes32"
				}
			],
			"stateMutability": "view",
			"type": "function"
		},
		{
			"inputs": [
				{
					"internalType": "bytes32",
					"name": "",
					"type": "bytes32"
				}
			],
			"name": "mCallData",
			"outputs": [
				{
					"internalType": "bytes",
					"name": "",
					"type": "bytes"
				}
			],
			"stateMutability": "view",
			"type": "function"
		},
		{
			"inputs": [
				{
					"internalType": "bytes32",
					"name": "",
					"type": "bytes32"
				}
			],
			"name": "mIDToProduct",
			"outputs": [
				{
					"internalType": "bytes32",
					"name": "id",
					"type": "bytes32"
				},
				{
					"components": [
						{
							"internalType": "string",
							"name": "imgUrl",
							"type": "string"
						},
						{
							"internalType": "string",
							"name": "name",
							"type": "string"
						},
						{
							"internalType": "bytes",
							"name": "desc",
							"type": "bytes"
						},
						{
							"internalType": "string",
							"name": "advantages",
							"type": "string"
						},
						{
							"internalType": "string",
							"name": "videoUrl",
							"type": "string"
						},
						{
							"internalType": "uint256",
							"name": "salePrice",
							"type": "uint256"
						},
						{
							"internalType": "uint256",
							"name": "rentalPrice",
							"type": "uint256"
						},
						{
							"internalType": "uint256",
							"name": "monthlyPrice",
							"type": "uint256"
						},
						{
							"internalType": "uint256",
							"name": "sixMonthsPrice",
							"type": "uint256"
						},
						{
							"internalType": "uint256",
							"name": "yearlyPrice",
							"type": "uint256"
						}
					],
					"internalType": "struct createProductParams",
					"name": "params",
					"type": "tuple"
				},
				{
					"internalType": "uint256",
					"name": "storageQuantity",
					"type": "uint256"
				},
				{
					"internalType": "uint256",
					"name": "saleQuantity",
					"type": "uint256"
				},
				{
					"internalType": "uint256",
					"name": "hireQuantity",
					"type": "uint256"
				},
				{
					"internalType": "uint256",
					"name": "returnHiredQuantity",
					"type": "uint256"
				},
				{
					"internalType": "uint256",
					"name": "remainTime",
					"type": "uint256"
				},
				{
					"internalType": "uint256",
					"name": "updateAt",
					"type": "uint256"
				},
				{
					"internalType": "bool",
					"name": "active",
					"type": "bool"
				}
			],
			"stateMutability": "view",
			"type": "function"
		},
		{
			"inputs": [
				{
					"internalType": "bytes32",
					"name": "",
					"type": "bytes32"
				},
				{
					"internalType": "uint256",
					"name": "",
					"type": "uint256"
				}
			],
			"name": "mProductSearchTrend",
			"outputs": [
				{
					"internalType": "uint256",
					"name": "",
					"type": "uint256"
				}
			],
			"stateMutability": "view",
			"type": "function"
		},
		{
			"inputs": [
				{
					"internalType": "bytes32",
					"name": "",
					"type": "bytes32"
				}
			],
			"name": "mProductViewCount",
			"outputs": [
				{
					"internalType": "uint256",
					"name": "",
					"type": "uint256"
				}
			],
			"stateMutability": "view",
			"type": "function"
		},
		{
			"inputs": [
				{
					"internalType": "uint256",
					"name": "",
					"type": "uint256"
				}
			],
			"name": "mShippingInfo",
			"outputs": [
				{
					"internalType": "string",
					"name": "firstName",
					"type": "string"
				},
				{
					"internalType": "string",
					"name": "lastName",
					"type": "string"
				},
				{
					"internalType": "string",
					"name": "email",
					"type": "string"
				},
				{
					"internalType": "string",
					"name": "country",
					"type": "string"
				},
				{
					"internalType": "string",
					"name": "city",
					"type": "string"
				},
				{
					"internalType": "string",
					"name": "stateOrProvince",
					"type": "string"
				},
				{
					"internalType": "string",
					"name": "postalCode",
					"type": "string"
				},
				{
					"internalType": "string",
					"name": "phone",
					"type": "string"
				},
				{
					"internalType": "string",
					"name": "addressDetail",
					"type": "string"
				}
			],
			"stateMutability": "view",
			"type": "function"
		},
		{
			"inputs": [
				{
					"internalType": "address",
					"name": "",
					"type": "address"
				},
				{
					"internalType": "uint256",
					"name": "",
					"type": "uint256"
				}
			],
			"name": "mShippingInfoByAddress",
			"outputs": [
				{
					"internalType": "uint256",
					"name": "",
					"type": "uint256"
				}
			],
			"stateMutability": "view",
			"type": "function"
		},
		{
			"inputs": [
				{
					"internalType": "uint256",
					"name": "",
					"type": "uint256"
				}
			],
			"name": "mShippingInfoByOrder",
			"outputs": [
				{
					"internalType": "uint256",
					"name": "",
					"type": "uint256"
				}
			],
			"stateMutability": "view",
			"type": "function"
		},
		{
			"inputs": [],
			"name": "shippingCounter",
			"outputs": [
				{
					"internalType": "uint256",
					"name": "",
					"type": "uint256"
				}
			],
			"stateMutability": "view",
			"type": "function"
		},
		{
			"inputs": [
				{
					"internalType": "bytes32",
					"name": "_productID",
					"type": "bytes32"
				}
			],
			"name": "updateViewCount",
			"outputs": [],
			"stateMutability": "nonpayable",
			"type": "function"
		}
	]
}